{
  "address": "0x601bB278B0F180569A60CAb526ad6Cd34bC0B290",
  "abi": [
    {
      "inputs": [],
      "stateMutability": "nonpayable",
      "type": "constructor"
    },
    {
      "inputs": [
        {
          "internalType": "address",
          "name": "owner",
          "type": "address"
        }
      ],
      "name": "OwnableInvalidOwner",
      "type": "error"
    },
    {
      "inputs": [
        {
          "internalType": "address",
          "name": "account",
          "type": "address"
        }
      ],
      "name": "OwnableUnauthorizedAccount",
      "type": "error"
    },
    {
      "anonymous": false,
      "inputs": [
        {
          "indexed": false,
          "internalType": "uint256",
          "name": "_lastGoodPrice",
          "type": "uint256"
        }
      ],
      "name": "LastGoodPriceUpdated",
      "type": "event"
    },
    {
      "anonymous": false,
      "inputs": [
        {
          "indexed": false,
          "internalType": "address",
          "name": "_oracle",
          "type": "address"
        }
      ],
      "name": "NewOracleRegistered",
      "type": "event"
    },
    {
      "anonymous": false,
      "inputs": [
        {
          "indexed": true,
          "internalType": "address",
          "name": "previousOwner",
          "type": "address"
        },
        {
          "indexed": true,
          "internalType": "address",
          "name": "newOwner",
          "type": "address"
        }
      ],
      "name": "OwnershipTransferred",
      "type": "event"
    },
    {
      "inputs": [],
      "name": "TARGET_DIGITS",
      "outputs": [
        {
          "internalType": "uint8",
          "name": "",
          "type": "uint8"
        }
      ],
      "stateMutability": "view",
      "type": "function"
    },
    {
      "inputs": [],
      "name": "fetchPrice",
      "outputs": [
        {
          "internalType": "uint256",
          "name": "",
          "type": "uint256"
        }
      ],
      "stateMutability": "view",
      "type": "function"
    },
    {
      "inputs": [],
      "name": "oracle",
      "outputs": [
        {
          "internalType": "contract ChainlinkAggregatorV3Interface",
          "name": "",
          "type": "address"
        }
      ],
      "stateMutability": "view",
      "type": "function"
    },
    {
      "inputs": [],
      "name": "owner",
      "outputs": [
        {
          "internalType": "address",
          "name": "",
          "type": "address"
        }
      ],
      "stateMutability": "view",
      "type": "function"
    },
    {
      "inputs": [],
      "name": "renounceOwnership",
      "outputs": [],
      "stateMutability": "nonpayable",
      "type": "function"
    },
    {
      "inputs": [
        {
          "internalType": "address",
          "name": "_oracle",
          "type": "address"
        }
      ],
      "name": "setOracle",
      "outputs": [],
      "stateMutability": "nonpayable",
      "type": "function"
    },
    {
      "inputs": [
        {
          "internalType": "address",
          "name": "newOwner",
          "type": "address"
        }
      ],
      "name": "transferOwnership",
      "outputs": [],
      "stateMutability": "nonpayable",
      "type": "function"
    }
  ],
  "transactionHash": "0xc67d068e65657fbe61342a3a6c265595dea5ca6e45551f22c444b2d0bf811311",
  "args": [],
  "numDeployments": 1,
  "solcInputHash": "6fc273ee6319c06d6c37be33f008e4d1",
  "bytecode": "0x608060405234801561001057600080fd5b50338061003757604051631e4fbdf760e01b81526000600482015260240160405180910390fd5b61004081610046565b50610096565b600080546001600160a01b038381166001600160a01b0319831681178455604051919092169283917f8be0079c531659141344cd1fd0a4f28419497f9722a3daafe3b4186f6b6457e09190a35050565b61062d806100a56000396000f3fe608060405234801561001057600080fd5b506004361061006d5760003560e01c80630fdb11cf146100725780631be5c92f1461008d578063715018a6146100a75780637adbf973146100b15780637dc0d1d0146100c45780638da5cb5b146100e4578063f2fde38b146100f5575b600080fd5b61007a610108565b6040519081526020015b60405180910390f35b610095601281565b60405160ff9091168152602001610084565b6100af61020e565b005b6100af6100bf36600461050b565b610222565b6001546100d7906001600160a01b031681565b604051610084919061053b565b6000546001600160a01b03166100d7565b6100af61010336600461050b565b6103fa565b600080600160009054906101000a90046001600160a01b03166001600160a01b031663feaf968c6040518163ffffffff1660e01b815260040160a060405180830381865afa15801561015e573d6000803e3d6000fd5b505050506040513d601f19601f82011682018060405250810190610182919061056e565b50505091505061020881600160009054906101000a90046001600160a01b03166001600160a01b031663313ce5676040518163ffffffff1660e01b8152600401602060405180830381865afa1580156101df573d6000803e3d6000fd5b505050506040513d601f19601f8201168201806040525081019061020391906105be565b610438565b91505090565b61021661048e565b61022060006104bb565b565b61022a61048e565b60008190506000816001600160a01b031663313ce5676040518163ffffffff1660e01b8152600401602060405180830381865afa15801561026f573d6000803e3d6000fd5b505050506040513d601f19601f8201168201806040525081019061029391906105be565b60ff16116102e85760405162461bcd60e51b815260206004820152601c60248201527f496e76616c696420446563696d616c732066726f6d204f7261636c650000000060448201526064015b60405180910390fd5b6000816001600160a01b031663feaf968c6040518163ffffffff1660e01b815260040160a060405180830381865afa158015610328573d6000803e3d6000fd5b505050506040513d601f19601f8201168201806040525081019061034c919061056e565b505050915050806000036103a25760405162461bcd60e51b815260206004820152601a60248201527f4f7261636c652072657475726e73203020666f7220707269636500000000000060448201526064016102df565b600180546001600160a01b0319166001600160a01b0384161790556040517f8de161a8d9b9bbbb4aa311abe721f567c2a31bb35f18894710680ef3923fb640906103ed90859061053b565b60405180910390a1505050565b61040261048e565b6001600160a01b03811661042c576000604051631e4fbdf760e01b81526004016102df919061053b565b610435816104bb565b50565b6000601260ff83161115610466576012820360ff16600a0a838161045e5761045e6105e1565b049050610488565b601260ff83161015610485578160120360ff16600a0a83029050610488565b50815b92915050565b6000546001600160a01b03163314610220573360405163118cdaa760e01b81526004016102df919061053b565b600080546001600160a01b038381166001600160a01b0319831681178455604051919092169283917f8be0079c531659141344cd1fd0a4f28419497f9722a3daafe3b4186f6b6457e09190a35050565b60006020828403121561051d57600080fd5b81356001600160a01b038116811461053457600080fd5b9392505050565b6001600160a01b0391909116815260200190565b805169ffffffffffffffffffff8116811461056957600080fd5b919050565b600080600080600060a0868803121561058657600080fd5b61058f8661054f565b94506020860151935060408601519250606086015191506105b26080870161054f565b90509295509295909350565b6000602082840312156105d057600080fd5b815160ff8116811461053457600080fd5b634e487b7160e01b600052601260045260246000fdfea2646970667358221220ad06a3b3631fc341f3c0aa6edaa18c081d9f0d4963d7cf1bc5b24c6129893a2464736f6c63430008180033",
  "devdoc": {
    "errors": {
      "OwnableInvalidOwner(address)": [
        {
          "details": "The owner is not a valid owner account. (eg. `address(0)`)"
        }
      ],
      "OwnableUnauthorizedAccount(address)": [
        {
          "details": "The caller account is not authorized to perform an operation."
        }
      ]
    },
    "kind": "dev",
    "methods": {
      "owner()": {
        "details": "Returns the address of the current owner."
      },
      "renounceOwnership()": {
        "details": "Leaves the contract without owner. It will not be possible to call `onlyOwner` functions. Can only be called by the current owner. NOTE: Renouncing ownership will leave the contract without an owner, thereby disabling any functionality that is only available to the owner."
      },
      "transferOwnership(address)": {
        "details": "Transfers ownership of the contract to a new account (`newOwner`). Can only be called by the current owner."
      }
    },
    "stateVariables": {
      "TARGET_DIGITS": {
        "details": "Used to convert an oracle price answer to an 18-digit precision uint"
      }
    },
    "version": 1
  },
  "userdoc": {
    "kind": "user",
    "methods": {},
    "version": 1
  },
  "storageLayout": {
    "storage": [
      {
        "astId": 8,
        "contract": "contracts/PriceFeed.sol:PriceFeed",
        "label": "_owner",
        "offset": 0,
        "slot": "0",
        "type": "t_address"
      },
      {
        "astId": 9830,
        "contract": "contracts/PriceFeed.sol:PriceFeed",
        "label": "oracle",
        "offset": 0,
        "slot": "1",
        "type": "t_contract(ChainlinkAggregatorV3Interface)17867"
      }
    ],
    "types": {
      "t_address": {
        "encoding": "inplace",
        "label": "address",
        "numberOfBytes": "20"
      },
      "t_contract(ChainlinkAggregatorV3Interface)17867": {
        "encoding": "inplace",
        "label": "contract ChainlinkAggregatorV3Interface",
        "numberOfBytes": "20"
      }
    }
  }
}