{
  "address": "0xD54700Ad42fc49A829DCD3C377aD7B9ed176656A",
  "abi": [
    {
      "inputs": [],
      "stateMutability": "nonpayable",
      "type": "constructor"
    },
    {
      "inputs": [
        {
          "internalType": "address",
          "name": "owner",
          "type": "address"
        }
      ],
      "name": "OwnableInvalidOwner",
      "type": "error"
    },
    {
      "inputs": [
        {
          "internalType": "address",
          "name": "account",
          "type": "address"
        }
      ],
      "name": "OwnableUnauthorizedAccount",
      "type": "error"
    },
    {
      "anonymous": false,
      "inputs": [
        {
          "indexed": false,
          "internalType": "address",
          "name": "_borrowerOperationsAddress",
          "type": "address"
        }
      ],
      "name": "BorrowerOperationsAddressChanged",
      "type": "event"
    },
    {
      "anonymous": false,
      "inputs": [
        {
          "indexed": false,
          "internalType": "address",
          "name": "_id",
          "type": "address"
        },
        {
          "indexed": false,
          "internalType": "uint256",
          "name": "_NICR",
          "type": "uint256"
        }
      ],
      "name": "NodeAdded",
      "type": "event"
    },
    {
      "anonymous": false,
      "inputs": [
        {
          "indexed": false,
          "internalType": "address",
          "name": "_id",
          "type": "address"
        }
      ],
      "name": "NodeRemoved",
      "type": "event"
    },
    {
      "anonymous": false,
      "inputs": [
        {
          "indexed": true,
          "internalType": "address",
          "name": "previousOwner",
          "type": "address"
        },
        {
          "indexed": true,
          "internalType": "address",
          "name": "newOwner",
          "type": "address"
        }
      ],
      "name": "OwnershipTransferred",
      "type": "event"
    },
    {
      "anonymous": false,
      "inputs": [
        {
          "indexed": false,
          "internalType": "address",
          "name": "_sortedDoublyLLAddress",
          "type": "address"
        }
      ],
      "name": "SortedTrovesAddressChanged",
      "type": "event"
    },
    {
      "anonymous": false,
      "inputs": [
        {
          "indexed": false,
          "internalType": "address",
          "name": "_troveManagerAddress",
          "type": "address"
        }
      ],
      "name": "TroveManagerAddressChanged",
      "type": "event"
    },
    {
      "inputs": [],
      "name": "borrowerOperationsAddress",
      "outputs": [
        {
          "internalType": "address",
          "name": "",
          "type": "address"
        }
      ],
      "stateMutability": "view",
      "type": "function"
    },
    {
      "inputs": [
        {
          "internalType": "address",
          "name": "_id",
          "type": "address"
        }
      ],
      "name": "contains",
      "outputs": [
        {
          "internalType": "bool",
          "name": "",
          "type": "bool"
        }
      ],
      "stateMutability": "view",
      "type": "function"
    },
    {
      "inputs": [],
      "name": "data",
      "outputs": [
        {
          "internalType": "address",
          "name": "head",
          "type": "address"
        },
        {
          "internalType": "address",
          "name": "tail",
          "type": "address"
        },
        {
          "internalType": "uint256",
          "name": "maxSize",
          "type": "uint256"
        },
        {
          "internalType": "uint256",
          "name": "size",
          "type": "uint256"
        }
      ],
      "stateMutability": "view",
      "type": "function"
    },
    {
      "inputs": [
        {
          "internalType": "uint256",
          "name": "_NICR",
          "type": "uint256"
        },
        {
          "internalType": "address",
          "name": "_prevId",
          "type": "address"
        },
        {
          "internalType": "address",
          "name": "_nextId",
          "type": "address"
        }
      ],
      "name": "findInsertPosition",
      "outputs": [
        {
          "internalType": "address",
          "name": "",
          "type": "address"
        },
        {
          "internalType": "address",
          "name": "",
          "type": "address"
        }
      ],
      "stateMutability": "view",
      "type": "function"
    },
    {
      "inputs": [],
      "name": "getFirst",
      "outputs": [
        {
          "internalType": "address",
          "name": "",
          "type": "address"
        }
      ],
      "stateMutability": "view",
      "type": "function"
    },
    {
      "inputs": [],
      "name": "getLast",
      "outputs": [
        {
          "internalType": "address",
          "name": "",
          "type": "address"
        }
      ],
      "stateMutability": "view",
      "type": "function"
    },
    {
      "inputs": [],
      "name": "getMaxSize",
      "outputs": [
        {
          "internalType": "uint256",
          "name": "",
          "type": "uint256"
        }
      ],
      "stateMutability": "view",
      "type": "function"
    },
    {
      "inputs": [
        {
          "internalType": "address",
          "name": "_id",
          "type": "address"
        }
      ],
      "name": "getNext",
      "outputs": [
        {
          "internalType": "address",
          "name": "",
          "type": "address"
        }
      ],
      "stateMutability": "view",
      "type": "function"
    },
    {
      "inputs": [
        {
          "internalType": "address",
          "name": "_id",
          "type": "address"
        }
      ],
      "name": "getPrev",
      "outputs": [
        {
          "internalType": "address",
          "name": "",
          "type": "address"
        }
      ],
      "stateMutability": "view",
      "type": "function"
    },
    {
      "inputs": [],
      "name": "getSize",
      "outputs": [
        {
          "internalType": "uint256",
          "name": "",
          "type": "uint256"
        }
      ],
      "stateMutability": "view",
      "type": "function"
    },
    {
      "inputs": [
        {
          "internalType": "address",
          "name": "_id",
          "type": "address"
        },
        {
          "internalType": "uint256",
          "name": "_NICR",
          "type": "uint256"
        },
        {
          "internalType": "address",
          "name": "_prevId",
          "type": "address"
        },
        {
          "internalType": "address",
          "name": "_nextId",
          "type": "address"
        }
      ],
      "name": "insert",
      "outputs": [],
      "stateMutability": "nonpayable",
      "type": "function"
    },
    {
      "inputs": [],
      "name": "isEmpty",
      "outputs": [
        {
          "internalType": "bool",
          "name": "",
          "type": "bool"
        }
      ],
      "stateMutability": "view",
      "type": "function"
    },
    {
      "inputs": [],
      "name": "isFull",
      "outputs": [
        {
          "internalType": "bool",
          "name": "",
          "type": "bool"
        }
      ],
      "stateMutability": "view",
      "type": "function"
    },
    {
      "inputs": [],
      "name": "owner",
      "outputs": [
        {
          "internalType": "address",
          "name": "",
          "type": "address"
        }
      ],
      "stateMutability": "view",
      "type": "function"
    },
    {
      "inputs": [
        {
          "internalType": "address",
          "name": "_id",
          "type": "address"
        },
        {
          "internalType": "uint256",
          "name": "_newNICR",
          "type": "uint256"
        },
        {
          "internalType": "address",
          "name": "_prevId",
          "type": "address"
        },
        {
          "internalType": "address",
          "name": "_nextId",
          "type": "address"
        }
      ],
      "name": "reInsert",
      "outputs": [],
      "stateMutability": "nonpayable",
      "type": "function"
    },
    {
      "inputs": [
        {
          "internalType": "address",
          "name": "_id",
          "type": "address"
        }
      ],
      "name": "remove",
      "outputs": [],
      "stateMutability": "nonpayable",
      "type": "function"
    },
    {
      "inputs": [],
      "name": "renounceOwnership",
      "outputs": [],
      "stateMutability": "nonpayable",
      "type": "function"
    },
    {
      "inputs": [
        {
          "internalType": "uint256",
          "name": "_size",
          "type": "uint256"
        },
        {
          "internalType": "address",
          "name": "_troveManagerAddress",
          "type": "address"
        },
        {
          "internalType": "address",
          "name": "_borrowerOperationsAddress",
          "type": "address"
        }
      ],
      "name": "setParams",
      "outputs": [],
      "stateMutability": "nonpayable",
      "type": "function"
    },
    {
      "inputs": [
        {
          "internalType": "address",
          "name": "newOwner",
          "type": "address"
        }
      ],
      "name": "transferOwnership",
      "outputs": [],
      "stateMutability": "nonpayable",
      "type": "function"
    },
    {
      "inputs": [],
      "name": "troveManager",
      "outputs": [
        {
          "internalType": "contract ITroveManager",
          "name": "",
          "type": "address"
        }
      ],
      "stateMutability": "view",
      "type": "function"
    },
    {
      "inputs": [
        {
          "internalType": "uint256",
          "name": "_NICR",
          "type": "uint256"
        },
        {
          "internalType": "address",
          "name": "_prevId",
          "type": "address"
        },
        {
          "internalType": "address",
          "name": "_nextId",
          "type": "address"
        }
      ],
      "name": "validInsertPosition",
      "outputs": [
        {
          "internalType": "bool",
          "name": "",
          "type": "bool"
        }
      ],
      "stateMutability": "view",
      "type": "function"
    }
  ],
  "transactionHash": "0x707097bfa52b6b3bbe1d893f9be567fb1018423c7a58be7ebe4453b32e2f3704",
  "args": [],
  "numDeployments": 1,
  "solcInputHash": "6fc273ee6319c06d6c37be33f008e4d1",
  "bytecode": "0x608060405234801561001057600080fd5b50338061003757604051631e4fbdf760e01b81526000600482015260240160405180910390fd5b61004081610046565b50610096565b600080546001600160a01b038381166001600160a01b0319831681178455604051919092169283917f8be0079c531659141344cd1fd0a4f28419497f9722a3daafe3b4186f6b6457e09190a35050565b6115c3806100a56000396000f3fe608060405234801561001057600080fd5b50600436106101375760003560e01c8063681fe70c116100b8578063b72703ac1161007c578063b72703ac146102d9578063b7f8cf9b14610308578063babd3d9a1461031b578063de8fa43114610327578063f2fde38b1461032f578063f376d7981461034257600080fd5b8063681fe70c14610239578063715018a61461024257806373d4a13a1461024a578063765e0159146102975780638da5cb5b146102c857600080fd5b8063416980dc116100ff578063416980dc146101bd57806346f7cf87146101f05780634d622831146102035780635dbe47e81461021457806363e1d57c1461022757600080fd5b80631e2231431461013c57806329092d0e1461015f5780632be21260146101745780633d83908a146101875780633fce12d51461019a575b600080fd5b6003546001600160a01b03165b60405161015691906113ca565b60405180910390f35b61017261016d3660046113fa565b610355565b005b61017261018236600461141c565b610369565b600254610149906001600160a01b031681565b6101ad6101a8366004611469565b6103e9565b6040519015158152602001610156565b6101d06101cb366004611469565b61040c565b604080516001600160a01b03938416815292909116602083015201610156565b6101726101fe36600461141c565b610436565b6004546001600160a01b0316610149565b6101ad6102223660046113fa565b61044b565b6005545b604051908152602001610156565b600654156101ad565b610172610469565b60035460045460055460065461026c936001600160a01b039081169316919084565b604080516001600160a01b039586168152949093166020850152918301526060820152608001610156565b6101496102a53660046113fa565b6001600160a01b0390811660009081526007602052604090205461010090041690565b6000546001600160a01b0316610149565b6101496102e73660046113fa565b6001600160a01b039081166000908152600760205260409020600101541690565b600154610149906001600160a01b031681565b600554600654146101ad565b60065461022b565b61017261033d3660046113fa565b61047d565b610172610350366004611469565b6104b8565b61035d6105d3565b61036681610642565b50565b6002546001600160a01b031661037e81610850565b6103878561044b565b6103ac5760405162461bcd60e51b81526004016103a3906114a5565b60405180910390fd5b600084116103cc5760405162461bcd60e51b81526004016103a3906114ef565b6103d585610642565b6103e281868686866108d3565b5050505050565b600254600090610404906001600160a01b0316858585610c53565b949350505050565b6002546000908190610429906001600160a01b0316868686610e8f565b915091505b935093915050565b6002546001600160a01b03166103d581610850565b6001600160a01b031660009081526007602052604090205460ff1690565b610471611052565b61047b600061107f565b565b610485611052565b6001600160a01b0381166104af576000604051631e4fbdf760e01b81526004016103a391906113ca565b6103668161107f565b6104c0611052565b600083116105105760405162461bcd60e51b815260206004820152601f60248201527f536f7274656454726f7665733a2053697a652063616e74206265207a65726f0060448201526064016103a3565b610519826110cf565b610522816110cf565b6005839055600280546001600160a01b038085166001600160a01b03199283161790925560018054928416929091169190911790556040517f143219c9e69b09e07e095fcc889b43d8f46ca892bba65f08dc3a0050869a5678906105879084906113ca565b60405180910390a17f3ca631ffcd2a9b5d9ae18543fc82f58eb4ca33af9e6ab01b7a8e95331e6ed985816040516105be91906113ca565b60405180910390a16105ce610469565b505050565b6002546001600160a01b0316331461047b5760405162461bcd60e51b815260206004820152602c60248201527f536f7274656454726f7665733a2043616c6c6572206973206e6f74207468652060448201526b2a3937bb32a6b0b730b3b2b960a11b60648201526084016103a3565b61064b8161044b565b6106675760405162461bcd60e51b81526004016103a3906114a5565b600654600110156107a7576003546001600160a01b03908116908216036106d4576001600160a01b0380821660009081526007602052604080822054600380546001600160a01b0319908116610100909304909516918217905582529020600101805490911690556107c4565b6004546001600160a01b0390811690821603610738576001600160a01b0380821660009081526007602052604080822060010154600480546001600160a01b03191691909416908117909355918152208054610100600160a81b03191690556107c4565b6001600160a01b038082166000908152600760205260408082208054600180830180548716865284862080546101009485900489168502610100600160a81b03199091161790555492549190910485168452919092200180546001600160a01b031916919092161790556107c4565b600380546001600160a01b03199081169091556004805490911690555b6001600160a01b038116600090815260076020526040812080546001600160a81b0319168155600190810180546001600160a01b03191690556006805491929091610810908490611548565b90915550506040517fcfc24166db4bb677e857cacabd1541fb2b30645021b27c5130419589b84db52b906108459083906113ca565b60405180910390a150565b6001546001600160a01b03163314806108715750336001600160a01b038216145b6103665760405162461bcd60e51b815260206004820152602d60248201527f536f7274656454726f7665733a2043616c6c6572206973206e6569746865722060448201526c424f206e6f722054726f76654d60981b60648201526084016103a3565b600554600654036109265760405162461bcd60e51b815260206004820152601a60248201527f536f7274656454726f7665733a204c6973742069732066756c6c00000000000060448201526064016103a3565b61092f8461044b565b156109915760405162461bcd60e51b815260206004820152602c60248201527f536f7274656454726f7665733a204c69737420616c726561647920636f6e746160448201526b696e7320746865206e6f646560a01b60648201526084016103a3565b6001600160a01b0384166109e75760405162461bcd60e51b815260206004820152601f60248201527f536f7274656454726f7665733a2049642063616e6e6f74206265207a65726f0060448201526064016103a3565b60008311610a075760405162461bcd60e51b81526004016103a3906114ef565b8181610a1587868484610c53565b610a2b57610a2587868484610e8f565b90925090505b6001600160a01b038087166000908152600760205260409020805460ff191660011790558216158015610a6557506001600160a01b038116155b15610a9a57600380546001600160a01b0388166001600160a01b03199182168117909255600480549091169091179055610bee565b6001600160a01b038216610b0e57600380546001600160a01b03888116600081815260076020526040808220805495851661010002610100600160a81b0319909616959095179094558454909216825291902060010180546001600160a01b03199081168317909155825416179055610bee565b6001600160a01b038116610b7e57600480546001600160a01b0388811660008181526007602052604080822060010180549585166001600160a01b031996871617905585549093168152919091208054610100600160a81b03191661010083021790558254909116179055610bee565b6001600160a01b038087166000818152600760205260408082208054858716610100818102610100600160a81b031993841617845560019384018054988b166001600160a01b0319998a168117909155865284862080549188029190931617909155835291200180549092161790555b6001600380016000828254610c039190611561565b9091555050604080516001600160a01b0388168152602081018790527fe02b43adbee0c123de070a04554a71877a0007e2fc161466299cae3c094fe82f910160405180910390a150505050505050565b60006001600160a01b038316158015610c7357506001600160a01b038216155b15610c8457600654155b9050610404565b6001600160a01b038316610d21576003546001600160a01b038381169116148015610c7d575060405163b0d8e18160e01b81526001600160a01b0386169063b0d8e18190610cd69085906004016113ca565b602060405180830381865afa158015610cf3573d6000803e3d6000fd5b505050506040513d601f19601f82011682018060405250810190610d179190611574565b8410159050610404565b6001600160a01b038216610dbe576004546001600160a01b038481169116148015610c7d575060405163b0d8e18160e01b81526001600160a01b0386169063b0d8e18190610d739086906004016113ca565b602060405180830381865afa158015610d90573d6000803e3d6000fd5b505050506040513d601f19601f82011682018060405250810190610db49190611574565b8411159050610404565b6001600160a01b0383811660009081526007602052604090205461010090048116908316148015610e5c575060405163b0d8e18160e01b815284906001600160a01b0387169063b0d8e18190610e189087906004016113ca565b602060405180830381865afa158015610e35573d6000803e3d6000fd5b505050506040513d601f19601f82011682018060405250810190610e599190611574565b10155b8015610c7d575060405163b0d8e18160e01b81526001600160a01b0386169063b0d8e18190610cd69085906004016113ca565b60008083836001600160a01b03821615610f2d57610eac8261044b565b1580610f23575060405163b0d8e18160e01b81526001600160a01b0389169063b0d8e18190610edf9085906004016113ca565b602060405180830381865afa158015610efc573d6000803e3d6000fd5b505050506040513d601f19601f82011682018060405250810190610f209190611574565b87115b15610f2d57600091505b6001600160a01b03811615610fc557610f458161044b565b1580610fbc575060405163b0d8e18160e01b81526001600160a01b0389169063b0d8e18190610f789084906004016113ca565b602060405180830381865afa158015610f95573d6000803e3d6000fd5b505050506040513d601f19601f82011682018060405250810190610fb99190611574565b87105b15610fc5575060005b6001600160a01b038216158015610fe357506001600160a01b038116155b1561100c5760035461100190899089906001600160a01b0316611178565b935093505050611049565b6001600160a01b038216611025576110018888836112a4565b6001600160a01b03811661103e57611001888884611178565b611001888884611178565b94509492505050565b6000546001600160a01b0316331461047b573360405163118cdaa760e01b81526004016103a391906113ca565b600080546001600160a01b038381166001600160a01b0319831681178455604051919092169283917f8be0079c531659141344cd1fd0a4f28419497f9722a3daafe3b4186f6b6457e09190a35050565b6001600160a01b0381166111255760405162461bcd60e51b815260206004820152601e60248201527f4163636f756e742063616e6e6f74206265207a65726f2061646472657373000060448201526064016103a3565b803b806111745760405162461bcd60e51b815260206004820181905260248201527f4163636f756e7420636f64652073697a652063616e6e6f74206265207a65726f60448201526064016103a3565b5050565b60035460009081906001600160a01b038481169116148015611206575060405163b0d8e18160e01b81526001600160a01b0386169063b0d8e181906111c19086906004016113ca565b602060405180830381865afa1580156111de573d6000803e3d6000fd5b505050506040513d601f19601f820116820180604052508101906112029190611574565b8410155b156112165750600090508161042e565b6001600160a01b038084166000908152600760205260409020548491610100909104165b6001600160a01b0382161580159061125b575061125987878484610c53565b155b1561129857506001600160a01b0390811660009081526007602052604080822054610100908190048416808452919092205490929190041661123a565b90969095509350505050565b60045460009081906001600160a01b038481169116148015611332575060405163b0d8e18160e01b81526001600160a01b0386169063b0d8e181906112ed9086906004016113ca565b602060405180830381865afa15801561130a573d6000803e3d6000fd5b505050506040513d601f19601f8201168201806040525081019061132e9190611574565b8411155b156113425750819050600061042e565b6001600160a01b038084166000908152600760205260409020600101548491165b6001600160a01b03821615801590611384575061138287878385610c53565b155b156113bf57506001600160a01b0390811660009081526007602052604080822060019081015484168084529190922090910154909116611363565b969095509350505050565b6001600160a01b0391909116815260200190565b80356001600160a01b03811681146113f557600080fd5b919050565b60006020828403121561140c57600080fd5b611415826113de565b9392505050565b6000806000806080858703121561143257600080fd5b61143b856113de565b935060208501359250611450604086016113de565b915061145e606086016113de565b905092959194509250565b60008060006060848603121561147e57600080fd5b8335925061148e602085016113de565b915061149c604085016113de565b90509250925092565b6020808252602a908201527f536f7274656454726f7665733a204c69737420646f6573206e6f7420636f6e74604082015269185a5b881d1a19481a5960b21b606082015260800190565b60208082526023908201527f536f7274656454726f7665733a204e494352206d75737420626520706f73697460408201526269766560e81b606082015260800190565b634e487b7160e01b600052601160045260246000fd5b8181038181111561155b5761155b611532565b92915050565b8082018082111561155b5761155b611532565b60006020828403121561158657600080fd5b505191905056fea2646970667358221220f6772d066146aa6b2ba372c279ee5d832dbec2d4e22bdcc6ecd115819fd49a5b64736f6c63430008180033",
  "devdoc": {
    "errors": {
      "OwnableInvalidOwner(address)": [
        {
          "details": "The owner is not a valid owner account. (eg. `address(0)`)"
        }
      ],
      "OwnableUnauthorizedAccount(address)": [
        {
          "details": "The caller account is not authorized to perform an operation."
        }
      ]
    },
    "kind": "dev",
    "methods": {
      "owner()": {
        "details": "Returns the address of the current owner."
      },
      "renounceOwnership()": {
        "details": "Leaves the contract without owner. It will not be possible to call `onlyOwner` functions. Can only be called by the current owner. NOTE: Renouncing ownership will leave the contract without an owner, thereby disabling any functionality that is only available to the owner."
      },
      "transferOwnership(address)": {
        "details": "Transfers ownership of the contract to a new account (`newOwner`). Can only be called by the current owner."
      }
    },
    "version": 1
  },
  "userdoc": {
    "kind": "user",
    "methods": {},
    "version": 1
  },
  "storageLayout": {
    "storage": [
      {
        "astId": 8,
        "contract": "contracts/SortedTroves.sol:SortedTroves",
        "label": "_owner",
        "offset": 0,
        "slot": "0",
        "type": "t_address"
      },
      {
        "astId": 9985,
        "contract": "contracts/SortedTroves.sol:SortedTroves",
        "label": "borrowerOperationsAddress",
        "offset": 0,
        "slot": "1",
        "type": "t_address"
      },
      {
        "astId": 9988,
        "contract": "contracts/SortedTroves.sol:SortedTroves",
        "label": "troveManager",
        "offset": 0,
        "slot": "2",
        "type": "t_contract(ITroveManager)19451"
      },
      {
        "astId": 9991,
        "contract": "contracts/SortedTroves.sol:SortedTroves",
        "label": "data",
        "offset": 0,
        "slot": "3",
        "type": "t_struct(Data)9983_storage"
      }
    ],
    "types": {
      "t_address": {
        "encoding": "inplace",
        "label": "address",
        "numberOfBytes": "20"
      },
      "t_bool": {
        "encoding": "inplace",
        "label": "bool",
        "numberOfBytes": "1"
      },
      "t_contract(ITroveManager)19451": {
        "encoding": "inplace",
        "label": "contract ITroveManager",
        "numberOfBytes": "20"
      },
      "t_mapping(t_address,t_struct(Node)9969_storage)": {
        "encoding": "mapping",
        "key": "t_address",
        "label": "mapping(address => struct SortedTroves.Node)",
        "numberOfBytes": "32",
        "value": "t_struct(Node)9969_storage"
      },
      "t_struct(Data)9983_storage": {
        "encoding": "inplace",
        "label": "struct SortedTroves.Data",
        "members": [
          {
            "astId": 9971,
            "contract": "contracts/SortedTroves.sol:SortedTroves",
            "label": "head",
            "offset": 0,
            "slot": "0",
            "type": "t_address"
          },
          {
            "astId": 9973,
            "contract": "contracts/SortedTroves.sol:SortedTroves",
            "label": "tail",
            "offset": 0,
            "slot": "1",
            "type": "t_address"
          },
          {
            "astId": 9975,
            "contract": "contracts/SortedTroves.sol:SortedTroves",
            "label": "maxSize",
            "offset": 0,
            "slot": "2",
            "type": "t_uint256"
          },
          {
            "astId": 9977,
            "contract": "contracts/SortedTroves.sol:SortedTroves",
            "label": "size",
            "offset": 0,
            "slot": "3",
            "type": "t_uint256"
          },
          {
            "astId": 9982,
            "contract": "contracts/SortedTroves.sol:SortedTroves",
            "label": "nodes",
            "offset": 0,
            "slot": "4",
            "type": "t_mapping(t_address,t_struct(Node)9969_storage)"
          }
        ],
        "numberOfBytes": "160"
      },
      "t_struct(Node)9969_storage": {
        "encoding": "inplace",
        "label": "struct SortedTroves.Node",
        "members": [
          {
            "astId": 9964,
            "contract": "contracts/SortedTroves.sol:SortedTroves",
            "label": "exists",
            "offset": 0,
            "slot": "0",
            "type": "t_bool"
          },
          {
            "astId": 9966,
            "contract": "contracts/SortedTroves.sol:SortedTroves",
            "label": "nextId",
            "offset": 1,
            "slot": "0",
            "type": "t_address"
          },
          {
            "astId": 9968,
            "contract": "contracts/SortedTroves.sol:SortedTroves",
            "label": "prevId",
            "offset": 0,
            "slot": "1",
            "type": "t_address"
          }
        ],
        "numberOfBytes": "64"
      },
      "t_uint256": {
        "encoding": "inplace",
        "label": "uint256",
        "numberOfBytes": "32"
      }
    }
  }
}