{
  "address": "0x3a957C5Bc32C879D60AF28017f26E90D5115877B",
  "abi": [
    {
      "inputs": [],
      "name": "noOp",
      "outputs": [],
      "stateMutability": "nonpayable",
      "type": "function"
    }
  ],
  "transactionHash": "0x740b91d0e4202bde5363f5cf0428b21dddcb1a5103a8b70bedc5cbddd51ceafa",
  "args": [],
  "numDeployments": 1,
  "solcInputHash": "cdbab2e35ebb708d191468f3e6a13e76",
  "bytecode": "0x6080604052348015600f57600080fd5b5060a68061001e6000396000f3fe6080604052348015600f57600080fd5b506004361060285760003560e01c8063678d39c614602d575b600080fd5b60336035565b005b60405162461bcd60e51b815260206004820152600c60248201526b646f6573206e6f7468696e6760a01b604482015260640160405180910390fdfea264697066735822122027d73ce34d525767cb3f42bf163161581f420498dfad033ed47bf60d8f39950b64736f6c63430008180033",
  "devdoc": {
    "details": "The noOp function is to ensure the extcodesize is non-zero as      this is a requirement for MUSD system contract.",
    "kind": "dev",
    "methods": {},
    "version": 1
  },
  "userdoc": {
    "kind": "user",
    "methods": {},
    "notice": "Empty contract with no functionality. Used as a temporary         system contract for MUSD on Ethereum before the bridge from         Mezo to Ethereum is implemented.",
    "version": 1
  },
  "storageLayout": {
    "storage": [],
    "types": null
  }
}