{
  "address": "0x46A5D13423d5dD6A344360f8c76a97dFB81a5208",
  "abi": [
    {
      "inputs": [],
      "stateMutability": "nonpayable",
      "type": "constructor"
    },
    {
      "inputs": [
        {
          "internalType": "address",
          "name": "target",
          "type": "address"
        }
      ],
      "name": "AddressEmptyCode",
      "type": "error"
    },
    {
      "inputs": [
        {
          "internalType": "address",
          "name": "account",
          "type": "address"
        }
      ],
      "name": "AddressInsufficientBalance",
      "type": "error"
    },
    {
      "inputs": [],
      "name": "FailedInnerCall",
      "type": "error"
    },
    {
      "inputs": [
        {
          "internalType": "address",
          "name": "owner",
          "type": "address"
        }
      ],
      "name": "OwnableInvalidOwner",
      "type": "error"
    },
    {
      "inputs": [
        {
          "internalType": "address",
          "name": "account",
          "type": "address"
        }
      ],
      "name": "OwnableUnauthorizedAccount",
      "type": "error"
    },
    {
      "inputs": [
        {
          "internalType": "address",
          "name": "token",
          "type": "address"
        }
      ],
      "name": "SafeERC20FailedOperation",
      "type": "error"
    },
    {
      "anonymous": false,
      "inputs": [
        {
          "indexed": false,
          "internalType": "address",
          "name": "_newActivePoolAddress",
          "type": "address"
        }
      ],
      "name": "ActivePoolAddressChanged",
      "type": "event"
    },
    {
      "anonymous": false,
      "inputs": [
        {
          "indexed": false,
          "internalType": "uint256",
          "name": "_collateral",
          "type": "uint256"
        }
      ],
      "name": "ActivePoolCollateralBalanceUpdated",
      "type": "event"
    },
    {
      "anonymous": false,
      "inputs": [
        {
          "indexed": false,
          "internalType": "uint256",
          "name": "_principal",
          "type": "uint256"
        },
        {
          "indexed": false,
          "internalType": "uint256",
          "name": "_interest",
          "type": "uint256"
        }
      ],
      "name": "ActivePoolDebtUpdated",
      "type": "event"
    },
    {
      "anonymous": false,
      "inputs": [
        {
          "indexed": false,
          "internalType": "address",
          "name": "_newBorrowerOperationsAddress",
          "type": "address"
        }
      ],
      "name": "BorrowerOperationsAddressChanged",
      "type": "event"
    },
    {
      "anonymous": false,
      "inputs": [
        {
          "indexed": false,
          "internalType": "address",
          "name": "_newCollSurplusPoolAddress",
          "type": "address"
        }
      ],
      "name": "CollSurplusPoolAddressChanged",
      "type": "event"
    },
    {
      "anonymous": false,
      "inputs": [
        {
          "indexed": false,
          "internalType": "address",
          "name": "_newCollateralAddress",
          "type": "address"
        }
      ],
      "name": "CollateralAddressChanged",
      "type": "event"
    },
    {
      "anonymous": false,
      "inputs": [
        {
          "indexed": false,
          "internalType": "uint256",
          "name": "_newBalance",
          "type": "uint256"
        }
      ],
      "name": "CollateralBalanceUpdated",
      "type": "event"
    },
    {
      "anonymous": false,
      "inputs": [
        {
          "indexed": false,
          "internalType": "address",
          "name": "_to",
          "type": "address"
        },
        {
          "indexed": false,
          "internalType": "uint256",
          "name": "_amount",
          "type": "uint256"
        }
      ],
      "name": "CollateralSent",
      "type": "event"
    },
    {
      "anonymous": false,
      "inputs": [
        {
          "indexed": false,
          "internalType": "address",
          "name": "_newDefaultPoolAddress",
          "type": "address"
        }
      ],
      "name": "DefaultPoolAddressChanged",
      "type": "event"
    },
    {
      "anonymous": false,
      "inputs": [
        {
          "indexed": true,
          "internalType": "address",
          "name": "previousOwner",
          "type": "address"
        },
        {
          "indexed": true,
          "internalType": "address",
          "name": "newOwner",
          "type": "address"
        }
      ],
      "name": "OwnershipTransferred",
      "type": "event"
    },
    {
      "anonymous": false,
      "inputs": [
        {
          "indexed": false,
          "internalType": "address",
          "name": "_newStabilityPoolAddress",
          "type": "address"
        }
      ],
      "name": "StabilityPoolAddressChanged",
      "type": "event"
    },
    {
      "anonymous": false,
      "inputs": [
        {
          "indexed": false,
          "internalType": "address",
          "name": "_newTroveManagerAddress",
          "type": "address"
        }
      ],
      "name": "TroveManagerAddressChanged",
      "type": "event"
    },
    {
      "inputs": [],
      "name": "borrowerOperationsAddress",
      "outputs": [
        {
          "internalType": "address",
          "name": "",
          "type": "address"
        }
      ],
      "stateMutability": "view",
      "type": "function"
    },
    {
      "inputs": [],
      "name": "collSurplusPoolAddress",
      "outputs": [
        {
          "internalType": "address",
          "name": "",
          "type": "address"
        }
      ],
      "stateMutability": "view",
      "type": "function"
    },
    {
      "inputs": [],
      "name": "collateralAddress",
      "outputs": [
        {
          "internalType": "address",
          "name": "",
          "type": "address"
        }
      ],
      "stateMutability": "view",
      "type": "function"
    },
    {
      "inputs": [
        {
          "internalType": "uint256",
          "name": "_principal",
          "type": "uint256"
        },
        {
          "internalType": "uint256",
          "name": "_interest",
          "type": "uint256"
        }
      ],
      "name": "decreaseDebt",
      "outputs": [],
      "stateMutability": "nonpayable",
      "type": "function"
    },
    {
      "inputs": [],
      "name": "defaultPoolAddress",
      "outputs": [
        {
          "internalType": "address",
          "name": "",
          "type": "address"
        }
      ],
      "stateMutability": "view",
      "type": "function"
    },
    {
      "inputs": [],
      "name": "getCollateralBalance",
      "outputs": [
        {
          "internalType": "uint256",
          "name": "",
          "type": "uint256"
        }
      ],
      "stateMutability": "view",
      "type": "function"
    },
    {
      "inputs": [],
      "name": "getDebt",
      "outputs": [
        {
          "internalType": "uint256",
          "name": "",
          "type": "uint256"
        }
      ],
      "stateMutability": "view",
      "type": "function"
    },
    {
      "inputs": [],
      "name": "getInterest",
      "outputs": [
        {
          "internalType": "uint256",
          "name": "",
          "type": "uint256"
        }
      ],
      "stateMutability": "view",
      "type": "function"
    },
    {
      "inputs": [],
      "name": "getPrincipal",
      "outputs": [
        {
          "internalType": "uint256",
          "name": "",
          "type": "uint256"
        }
      ],
      "stateMutability": "view",
      "type": "function"
    },
    {
      "inputs": [
        {
          "internalType": "uint256",
          "name": "_principal",
          "type": "uint256"
        },
        {
          "internalType": "uint256",
          "name": "_interest",
          "type": "uint256"
        }
      ],
      "name": "increaseDebt",
      "outputs": [],
      "stateMutability": "nonpayable",
      "type": "function"
    },
    {
      "inputs": [],
      "name": "owner",
      "outputs": [
        {
          "internalType": "address",
          "name": "",
          "type": "address"
        }
      ],
      "stateMutability": "view",
      "type": "function"
    },
    {
      "inputs": [],
      "name": "renounceOwnership",
      "outputs": [],
      "stateMutability": "nonpayable",
      "type": "function"
    },
    {
      "inputs": [
        {
          "internalType": "address",
          "name": "_account",
          "type": "address"
        },
        {
          "internalType": "uint256",
          "name": "_amount",
          "type": "uint256"
        }
      ],
      "name": "sendCollateral",
      "outputs": [],
      "stateMutability": "nonpayable",
      "type": "function"
    },
    {
      "inputs": [
        {
          "internalType": "address",
          "name": "_borrowerOperationsAddress",
          "type": "address"
        },
        {
          "internalType": "address",
          "name": "_collateralAddress",
          "type": "address"
        },
        {
          "internalType": "address",
          "name": "_collSurplusPoolAddress",
          "type": "address"
        },
        {
          "internalType": "address",
          "name": "_defaultPoolAddress",
          "type": "address"
        },
        {
          "internalType": "address",
          "name": "_troveManagerAddress",
          "type": "address"
        },
        {
          "internalType": "address",
          "name": "_stabilityPoolAddress",
          "type": "address"
        }
      ],
      "name": "setAddresses",
      "outputs": [],
      "stateMutability": "nonpayable",
      "type": "function"
    },
    {
      "inputs": [],
      "name": "stabilityPoolAddress",
      "outputs": [
        {
          "internalType": "address",
          "name": "",
          "type": "address"
        }
      ],
      "stateMutability": "view",
      "type": "function"
    },
    {
      "inputs": [
        {
          "internalType": "address",
          "name": "newOwner",
          "type": "address"
        }
      ],
      "name": "transferOwnership",
      "outputs": [],
      "stateMutability": "nonpayable",
      "type": "function"
    },
    {
      "inputs": [],
      "name": "troveManagerAddress",
      "outputs": [
        {
          "internalType": "address",
          "name": "",
          "type": "address"
        }
      ],
      "stateMutability": "view",
      "type": "function"
    },
    {
      "stateMutability": "payable",
      "type": "receive"
    }
  ],
  "transactionHash": "0x0ad139d1d14a9715fe0538534670e0accc66a0cea004383ffba51b4b365c44fe",
  "args": [],
  "numDeployments": 1,
  "solcInputHash": "8d0bf0a003873aec33a51656649ba1f0",
  "bytecode": "0x608060405234801561001057600080fd5b50338061003757604051631e4fbdf760e01b81526000600482015260240160405180910390fd5b61004081610046565b50610096565b600080546001600160a01b038381166001600160a01b0319831681178455604051919092169283917f8be0079c531659141344cd1fd0a4f28419497f9722a3daafe3b4186f6b6457e09190a35050565b61139c806100a56000396000f3fe6080604052600436106100e25760003560e01c80636cfb6bf9116100855780636cfb6bf9146102c6578063715018a6146102e65780638da5cb5b146102fb578063a69bdf1614610319578063aac1846f1461032e578063ab11fadd1461034e578063b7f8cf9b1461036e578063e5a4bed31461038e578063f2fde38b146103a357600080fd5b80630b622ab2146101b657806314a6bf0f146101ec5780631529a6391461020f5780632a9043ec1461022457806348d399e71461024457806354c46661146102645780635a4d28bb1461028657806362502169146102a657600080fd5b366101b1576100ef6103c3565b6002546001600160a01b0316156101625760405162461bcd60e51b815260206004820152602c60248201527f416374697665506f6f6c3a20455243323020636f6c6c61746572616c206e656560448201526b6465642c206e6f742042544360a01b60648201526084015b60405180910390fd5b3460076000828254610174919061119c565b90915550506007546040519081527f51e7c30439c76308c020a84ca2a666735d3baa69d070e13beaf83e15bb697eb39060200160405180910390a1005b600080fd5b3480156101c257600080fd5b506005546101d6906001600160a01b031681565b6040516101e391906111af565b60405180910390f35b3480156101f857600080fd5b50610201610452565b6040519081526020016101e3565b34801561021b57600080fd5b50600754610201565b34801561023057600080fd5b506003546101d6906001600160a01b031681565b34801561025057600080fd5b506002546101d6906001600160a01b031681565b34801561027057600080fd5b5061028461027f3660046111c3565b610469565b005b34801561029257600080fd5b506006546101d6906001600160a01b031681565b3480156102b257600080fd5b506102846102c13660046111fa565b6104ea565b3480156102d257600080fd5b506102846102e1366004611226565b61059c565b3480156102f257600080fd5b50610284610c06565b34801561030757600080fd5b506000546001600160a01b03166101d6565b34801561032557600080fd5b50600854610201565b34801561033a57600080fd5b506004546101d6906001600160a01b031681565b34801561035a57600080fd5b506102846103693660046111c3565b610c18565b34801561037a57600080fd5b506001546101d6906001600160a01b031681565b34801561039a57600080fd5b50600954610201565b3480156103af57600080fd5b506102846103be3660046112a8565b610c4b565b6001546001600160a01b03163314806103e657506004546001600160a01b031633145b6104505760405162461bcd60e51b8152602060048201526041602482015260008051602061134783398151915260448201527f72726f7765724f7065726174696f6e73206e6f722044656661756c7420506f6f6064820152601b60fa1b608482015260a401610159565b565b6000600954600854610464919061119c565b905090565b610471610c89565b8160086000828254610483919061119c565b92505081905550806009600082825461049c919061119c565b90915550506008546009546040517f9c9231087215d0ccca20a3c98640429f2ea8bdd6498c53843c06d1138b8c94fa926104de92908252602082015260400190565b60405180910390a15050565b6104f2610d16565b806007600082825461050491906112c5565b90915550506007546040519081527f51e7c30439c76308c020a84ca2a666735d3baa69d070e13beaf83e15bb697eb39060200160405180910390a1604080516001600160a01b0384168152602081018390527f342693d2465f6f44931e41128424a0227e0cbc69d1c3917a839e6de71696d44c910160405180910390a1600254610598906001600160a01b03168383610dca565b5050565b6105a4610e8f565b6105ad86610ebc565b6001600160a01b038516156105c5576105c585610ebc565b6105ce84610ebc565b6105d783610ebc565b6105e081610ebc565b6105e982610ebc565b600180546001600160a01b03199081166001600160a01b03898116918217909355600280548316898516179055600380548316888516179055600480548316878516178155600580548416868616179055600680549093169386169390931790915560408051638da5cb5b60e01b81529051600093638da5cb5b928082019260209290918290030181865afa158015610686573d6000803e3d6000fd5b505050506040513d601f19601f820116820180604052508101906106aa91906112d8565b6001600160a01b03161415806107325750846001600160a01b0316866001600160a01b03166348d399e76040518163ffffffff1660e01b8152600401602060405180830381865afa158015610703573d6000803e3d6000fd5b505050506040513d601f19601f8201168201806040525081019061072791906112d8565b6001600160a01b0316145b801561082e575060006001600160a01b0316846001600160a01b0316638da5cb5b6040518163ffffffff1660e01b8152600401602060405180830381865afa158015610782573d6000803e3d6000fd5b505050506040513d601f19601f820116820180604052508101906107a691906112d8565b6001600160a01b031614158061082e5750846001600160a01b0316846001600160a01b03166348d399e76040518163ffffffff1660e01b8152600401602060405180830381865afa1580156107ff573d6000803e3d6000fd5b505050506040513d601f19601f8201168201806040525081019061082391906112d8565b6001600160a01b0316145b801561092a575060006001600160a01b0316836001600160a01b0316638da5cb5b6040518163ffffffff1660e01b8152600401602060405180830381865afa15801561087e573d6000803e3d6000fd5b505050506040513d601f19601f820116820180604052508101906108a291906112d8565b6001600160a01b031614158061092a5750846001600160a01b0316836001600160a01b03166348d399e76040518163ffffffff1660e01b8152600401602060405180830381865afa1580156108fb573d6000803e3d6000fd5b505050506040513d601f19601f8201168201806040525081019061091f91906112d8565b6001600160a01b0316145b8015610a29575060006001600160a01b0316816001600160a01b0316638da5cb5b6040518163ffffffff1660e01b8152600401602060405180830381865afa15801561097a573d6000803e3d6000fd5b505050506040513d601f19601f8201168201806040525081019061099e91906112d8565b6001600160a01b0316141580610a295750600554604080516348d399e760e01b815290516001600160a01b038089169316916348d399e79160048083019260209291908290030181865afa1580156109fa573d6000803e3d6000fd5b505050506040513d601f19601f82011682018060405250810190610a1e91906112d8565b6001600160a01b0316145b610aac5760405162461bcd60e51b815260206004820152604860248201527f5468652073616d6520636f6c6c61746572616c2061646472657373206d75737460448201527f206265207573656420666f722074686520656e7469726520736574206f6620636064820152676f6e74726163747360c01b608482015260a401610159565b7f3ca631ffcd2a9b5d9ae18543fc82f58eb4ca33af9e6ab01b7a8e95331e6ed98586604051610adb91906111af565b60405180910390a17ffba7421f3d1a98e80d72491a6e0523133444a5842cc7310951d8b82d075a7dff85604051610b1291906111af565b60405180910390a17fe67f36a6e961157d6eff83b91f3af5a62131ceb6f04954ef74f51c1c05e7f88d84604051610b4991906111af565b60405180910390a17f5ee0cae2f063ed938bb55046f6a932fb6ae792bf43624806bb90abe68a50be9b83604051610b8091906111af565b60405180910390a17f82966d27eea39b038ee0fa30cd16532bb24f6e65d31cb58fb227aa5766cdcc7f81604051610bb791906111af565b60405180910390a17f143219c9e69b09e07e095fcc889b43d8f46ca892bba65f08dc3a0050869a567882604051610bee91906111af565b60405180910390a1610bfe610c06565b505050505050565b610c0e610e8f565b6104506000610f61565b610c20610d16565b8160086000828254610c3291906112c5565b92505081905550806009600082825461049c91906112c5565b610c53610e8f565b6001600160a01b038116610c7d576000604051631e4fbdf760e01b815260040161015991906111af565b610c8681610f61565b50565b6001546001600160a01b0316331480610cac57506006546001600160a01b031633145b6104505760405162461bcd60e51b8152602060048201526041602482015260008051602061134783398151915260448201527f72726f7765724f7065726174696f6e73206e6f722054726f76654d616e6167656064820152603960f91b608482015260a401610159565b6001546001600160a01b0316331480610d3957506006546001600160a01b031633145b80610d4e57506005546001600160a01b031633145b6104505760405162461bcd60e51b8152602060048201526053602482015260008051602061134783398151915260448201527f72726f7765724f7065726174696f6e73206e6f722054726f76654d616e6167656064820152721c881b9bdc8814dd18589a5b1a5d1e541bdbdb606a1b608482015260a401610159565b6001600160a01b038316610e76576000826001600160a01b03168260405160006040518083038185875af1925050503d8060008114610e25576040519150601f19603f3d011682016040523d82523d6000602084013e610e2a565b606091505b5050905080610e705760405162461bcd60e51b815260206004820152601260248201527114d95b991a5b99c8109510c819985a5b195960721b6044820152606401610159565b50505050565b610e8a6001600160a01b0384168383610fb1565b505050565b6000546001600160a01b03163314610450573360405163118cdaa760e01b815260040161015991906111af565b6001600160a01b038116610f125760405162461bcd60e51b815260206004820152601e60248201527f4163636f756e742063616e6e6f74206265207a65726f206164647265737300006044820152606401610159565b803b806105985760405162461bcd60e51b815260206004820181905260248201527f4163636f756e7420636f64652073697a652063616e6e6f74206265207a65726f6044820152606401610159565b600080546001600160a01b038381166001600160a01b0319831681178455604051919092169283917f8be0079c531659141344cd1fd0a4f28419497f9722a3daafe3b4186f6b6457e09190a35050565b604080516001600160a01b03848116602483015260448083018590528351808403909101815260649092019092526020810180516001600160e01b031663a9059cbb60e01b179052610e8a9185919060009061100f90841683611054565b9050805160001415801561103457508080602001905181019061103291906112f5565b155b15610e8a5782604051635274afe760e01b815260040161015991906111af565b60606110628383600061106b565b90505b92915050565b606081471015611090573060405163cd78605960e01b815260040161015991906111af565b600080856001600160a01b031684866040516110ac9190611317565b60006040518083038185875af1925050503d80600081146110e9576040519150601f19603f3d011682016040523d82523d6000602084013e6110ee565b606091505b50915091506110fe86838361110a565b925050505b9392505050565b60608261111f5761111a8261115d565b611103565b815115801561113657506001600160a01b0384163b155b156111565783604051639996b31560e01b815260040161015991906111af565b5080611103565b80511561116d5780518082602001fd5b604051630a12f52160e11b815260040160405180910390fd5b634e487b7160e01b600052601160045260246000fd5b8082018082111561106557611065611186565b6001600160a01b0391909116815260200190565b600080604083850312156111d657600080fd5b50508035926020909101359150565b6001600160a01b0381168114610c8657600080fd5b6000806040838503121561120d57600080fd5b8235611218816111e5565b946020939093013593505050565b60008060008060008060c0878903121561123f57600080fd5b863561124a816111e5565b9550602087013561125a816111e5565b9450604087013561126a816111e5565b9350606087013561127a816111e5565b9250608087013561128a816111e5565b915060a087013561129a816111e5565b809150509295509295509295565b6000602082840312156112ba57600080fd5b8135611103816111e5565b8181038181111561106557611065611186565b6000602082840312156112ea57600080fd5b8151611103816111e5565b60006020828403121561130757600080fd5b8151801515811461110357600080fd5b6000825160005b81811015611338576020818601810151858301520161131e565b50600092019182525091905056fe416374697665506f6f6c3a2043616c6c6572206973206e65697468657220426fa2646970667358221220c3a47b83a73564bbfa050b87741aeaef5ab5481fae2a25643db0f55c4197308e64736f6c63430008180033",
  "devdoc": {
    "errors": {
      "AddressEmptyCode(address)": [
        {
          "details": "There's no code at `target` (it is not a contract)."
        }
      ],
      "AddressInsufficientBalance(address)": [
        {
          "details": "The ETH balance of the account is not enough to perform the operation."
        }
      ],
      "FailedInnerCall()": [
        {
          "details": "A call to an address target failed. The target may have reverted."
        }
      ],
      "OwnableInvalidOwner(address)": [
        {
          "details": "The owner is not a valid owner account. (eg. `address(0)`)"
        }
      ],
      "OwnableUnauthorizedAccount(address)": [
        {
          "details": "The caller account is not authorized to perform an operation."
        }
      ],
      "SafeERC20FailedOperation(address)": [
        {
          "details": "An operation with an ERC20 token failed."
        }
      ]
    },
    "kind": "dev",
    "methods": {
      "owner()": {
        "details": "Returns the address of the current owner."
      },
      "renounceOwnership()": {
        "details": "Leaves the contract without owner. It will not be possible to call `onlyOwner` functions. Can only be called by the current owner. NOTE: Renouncing ownership will leave the contract without an owner, thereby disabling any functionality that is only available to the owner."
      },
      "transferOwnership(address)": {
        "details": "Transfers ownership of the contract to a new account (`newOwner`). Can only be called by the current owner."
      }
    },
    "version": 1
  },
  "userdoc": {
    "kind": "user",
    "methods": {},
    "version": 1
  },
  "storageLayout": {
    "storage": [
      {
        "astId": 8,
        "contract": "contracts/ActivePool.sol:ActivePool",
        "label": "_owner",
        "offset": 0,
        "slot": "0",
        "type": "t_address"
      },
      {
        "astId": 4170,
        "contract": "contracts/ActivePool.sol:ActivePool",
        "label": "borrowerOperationsAddress",
        "offset": 0,
        "slot": "1",
        "type": "t_address"
      },
      {
        "astId": 4172,
        "contract": "contracts/ActivePool.sol:ActivePool",
        "label": "collateralAddress",
        "offset": 0,
        "slot": "2",
        "type": "t_address"
      },
      {
        "astId": 4174,
        "contract": "contracts/ActivePool.sol:ActivePool",
        "label": "collSurplusPoolAddress",
        "offset": 0,
        "slot": "3",
        "type": "t_address"
      },
      {
        "astId": 4176,
        "contract": "contracts/ActivePool.sol:ActivePool",
        "label": "defaultPoolAddress",
        "offset": 0,
        "slot": "4",
        "type": "t_address"
      },
      {
        "astId": 4178,
        "contract": "contracts/ActivePool.sol:ActivePool",
        "label": "stabilityPoolAddress",
        "offset": 0,
        "slot": "5",
        "type": "t_address"
      },
      {
        "astId": 4180,
        "contract": "contracts/ActivePool.sol:ActivePool",
        "label": "troveManagerAddress",
        "offset": 0,
        "slot": "6",
        "type": "t_address"
      },
      {
        "astId": 4182,
        "contract": "contracts/ActivePool.sol:ActivePool",
        "label": "collateral",
        "offset": 0,
        "slot": "7",
        "type": "t_uint256"
      },
      {
        "astId": 4184,
        "contract": "contracts/ActivePool.sol:ActivePool",
        "label": "principal",
        "offset": 0,
        "slot": "8",
        "type": "t_uint256"
      },
      {
        "astId": 4186,
        "contract": "contracts/ActivePool.sol:ActivePool",
        "label": "interest",
        "offset": 0,
        "slot": "9",
        "type": "t_uint256"
      }
    ],
    "types": {
      "t_address": {
        "encoding": "inplace",
        "label": "address",
        "numberOfBytes": "20"
      },
      "t_uint256": {
        "encoding": "inplace",
        "label": "uint256",
        "numberOfBytes": "32"
      }
    }
  }
}