{
  "address": "0x7eb61149dFB8856C4a7A4806641058FFe3bfFfEf",
  "abi": [
    {
      "inputs": [],
      "stateMutability": "nonpayable",
      "type": "constructor"
    },
    {
      "inputs": [
        {
          "internalType": "address",
          "name": "target",
          "type": "address"
        }
      ],
      "name": "AddressEmptyCode",
      "type": "error"
    },
    {
      "inputs": [
        {
          "internalType": "address",
          "name": "account",
          "type": "address"
        }
      ],
      "name": "AddressInsufficientBalance",
      "type": "error"
    },
    {
      "inputs": [],
      "name": "FailedInnerCall",
      "type": "error"
    },
    {
      "inputs": [
        {
          "internalType": "address",
          "name": "owner",
          "type": "address"
        }
      ],
      "name": "OwnableInvalidOwner",
      "type": "error"
    },
    {
      "inputs": [
        {
          "internalType": "address",
          "name": "account",
          "type": "address"
        }
      ],
      "name": "OwnableUnauthorizedAccount",
      "type": "error"
    },
    {
      "inputs": [
        {
          "internalType": "address",
          "name": "token",
          "type": "address"
        }
      ],
      "name": "SafeERC20FailedOperation",
      "type": "error"
    },
    {
      "anonymous": false,
      "inputs": [
        {
          "indexed": false,
          "internalType": "address",
          "name": "_activePoolAddress",
          "type": "address"
        }
      ],
      "name": "ActivePoolAddressChanged",
      "type": "event"
    },
    {
      "anonymous": false,
      "inputs": [
        {
          "indexed": true,
          "internalType": "address",
          "name": "_borrower",
          "type": "address"
        },
        {
          "indexed": false,
          "internalType": "uint256",
          "name": "_fee",
          "type": "uint256"
        }
      ],
      "name": "BorrowingFeePaid",
      "type": "event"
    },
    {
      "anonymous": false,
      "inputs": [
        {
          "indexed": false,
          "internalType": "address",
          "name": "_collSurplusPoolAddress",
          "type": "address"
        }
      ],
      "name": "CollSurplusPoolAddressChanged",
      "type": "event"
    },
    {
      "anonymous": false,
      "inputs": [
        {
          "indexed": false,
          "internalType": "address",
          "name": "_newCollateralAddress",
          "type": "address"
        }
      ],
      "name": "CollateralAddressChanged",
      "type": "event"
    },
    {
      "anonymous": false,
      "inputs": [
        {
          "indexed": false,
          "internalType": "address",
          "name": "_defaultPoolAddress",
          "type": "address"
        }
      ],
      "name": "DefaultPoolAddressChanged",
      "type": "event"
    },
    {
      "anonymous": false,
      "inputs": [
        {
          "indexed": false,
          "internalType": "address",
          "name": "_gasPoolAddress",
          "type": "address"
        }
      ],
      "name": "GasPoolAddressChanged",
      "type": "event"
    },
    {
      "anonymous": false,
      "inputs": [
        {
          "indexed": false,
          "internalType": "address",
          "name": "_musdTokenAddress",
          "type": "address"
        }
      ],
      "name": "MUSDTokenAddressChanged",
      "type": "event"
    },
    {
      "anonymous": false,
      "inputs": [
        {
          "indexed": true,
          "internalType": "address",
          "name": "previousOwner",
          "type": "address"
        },
        {
          "indexed": true,
          "internalType": "address",
          "name": "newOwner",
          "type": "address"
        }
      ],
      "name": "OwnershipTransferred",
      "type": "event"
    },
    {
      "anonymous": false,
      "inputs": [
        {
          "indexed": false,
          "internalType": "address",
          "name": "_pcvAddress",
          "type": "address"
        }
      ],
      "name": "PCVAddressChanged",
      "type": "event"
    },
    {
      "anonymous": false,
      "inputs": [
        {
          "indexed": false,
          "internalType": "address",
          "name": "_newPriceFeedAddress",
          "type": "address"
        }
      ],
      "name": "PriceFeedAddressChanged",
      "type": "event"
    },
    {
      "anonymous": false,
      "inputs": [
        {
          "indexed": true,
          "internalType": "address",
          "name": "_borrower",
          "type": "address"
        },
        {
          "indexed": false,
          "internalType": "uint256",
          "name": "_fee",
          "type": "uint256"
        }
      ],
      "name": "RefinancingFeePaid",
      "type": "event"
    },
    {
      "anonymous": false,
      "inputs": [
        {
          "indexed": false,
          "internalType": "address",
          "name": "_sortedTrovesAddress",
          "type": "address"
        }
      ],
      "name": "SortedTrovesAddressChanged",
      "type": "event"
    },
    {
      "anonymous": false,
      "inputs": [
        {
          "indexed": false,
          "internalType": "address",
          "name": "_stabilityPoolAddress",
          "type": "address"
        }
      ],
      "name": "StabilityPoolAddressChanged",
      "type": "event"
    },
    {
      "anonymous": false,
      "inputs": [
        {
          "indexed": true,
          "internalType": "address",
          "name": "_borrower",
          "type": "address"
        },
        {
          "indexed": false,
          "internalType": "uint256",
          "name": "arrayIndex",
          "type": "uint256"
        }
      ],
      "name": "TroveCreated",
      "type": "event"
    },
    {
      "anonymous": false,
      "inputs": [
        {
          "indexed": false,
          "internalType": "address",
          "name": "_newTroveManagerAddress",
          "type": "address"
        }
      ],
      "name": "TroveManagerAddressChanged",
      "type": "event"
    },
    {
      "anonymous": false,
      "inputs": [
        {
          "indexed": true,
          "internalType": "address",
          "name": "_borrower",
          "type": "address"
        },
        {
          "indexed": false,
          "internalType": "uint256",
          "name": "_principal",
          "type": "uint256"
        },
        {
          "indexed": false,
          "internalType": "uint256",
          "name": "_interest",
          "type": "uint256"
        },
        {
          "indexed": false,
          "internalType": "uint256",
          "name": "_coll",
          "type": "uint256"
        },
        {
          "indexed": false,
          "internalType": "uint256",
          "name": "stake",
          "type": "uint256"
        },
        {
          "indexed": false,
          "internalType": "uint8",
          "name": "operation",
          "type": "uint8"
        }
      ],
      "name": "TroveUpdated",
      "type": "event"
    },
    {
      "inputs": [],
      "name": "BORROWING_FEE_FLOOR",
      "outputs": [
        {
          "internalType": "uint256",
          "name": "",
          "type": "uint256"
        }
      ],
      "stateMutability": "view",
      "type": "function"
    },
    {
      "inputs": [],
      "name": "CCR",
      "outputs": [
        {
          "internalType": "uint256",
          "name": "",
          "type": "uint256"
        }
      ],
      "stateMutability": "view",
      "type": "function"
    },
    {
      "inputs": [],
      "name": "DECIMAL_PRECISION",
      "outputs": [
        {
          "internalType": "uint256",
          "name": "",
          "type": "uint256"
        }
      ],
      "stateMutability": "view",
      "type": "function"
    },
    {
      "inputs": [],
      "name": "MCR",
      "outputs": [
        {
          "internalType": "uint256",
          "name": "",
          "type": "uint256"
        }
      ],
      "stateMutability": "view",
      "type": "function"
    },
    {
      "inputs": [],
      "name": "MIN_NET_DEBT",
      "outputs": [
        {
          "internalType": "uint256",
          "name": "",
          "type": "uint256"
        }
      ],
      "stateMutability": "view",
      "type": "function"
    },
    {
      "inputs": [],
      "name": "MUSD_GAS_COMPENSATION",
      "outputs": [
        {
          "internalType": "uint256",
          "name": "",
          "type": "uint256"
        }
      ],
      "stateMutability": "view",
      "type": "function"
    },
    {
      "inputs": [],
      "name": "PERCENT_DIVISOR",
      "outputs": [
        {
          "internalType": "uint256",
          "name": "",
          "type": "uint256"
        }
      ],
      "stateMutability": "view",
      "type": "function"
    },
    {
      "inputs": [],
      "name": "_100pct",
      "outputs": [
        {
          "internalType": "uint256",
          "name": "",
          "type": "uint256"
        }
      ],
      "stateMutability": "view",
      "type": "function"
    },
    {
      "inputs": [],
      "name": "activePool",
      "outputs": [
        {
          "internalType": "contract IActivePool",
          "name": "",
          "type": "address"
        }
      ],
      "stateMutability": "view",
      "type": "function"
    },
    {
      "inputs": [
        {
          "internalType": "uint256",
          "name": "_assetAmount",
          "type": "uint256"
        },
        {
          "internalType": "address",
          "name": "_upperHint",
          "type": "address"
        },
        {
          "internalType": "address",
          "name": "_lowerHint",
          "type": "address"
        }
      ],
      "name": "addColl",
      "outputs": [],
      "stateMutability": "payable",
      "type": "function"
    },
    {
      "inputs": [
        {
          "internalType": "uint256",
          "name": "_maxFeePercentage",
          "type": "uint256"
        },
        {
          "internalType": "uint256",
          "name": "_collWithdrawal",
          "type": "uint256"
        },
        {
          "internalType": "uint256",
          "name": "_debtChange",
          "type": "uint256"
        },
        {
          "internalType": "bool",
          "name": "_isDebtIncrease",
          "type": "bool"
        },
        {
          "internalType": "uint256",
          "name": "_assetAmount",
          "type": "uint256"
        },
        {
          "internalType": "address",
          "name": "_upperHint",
          "type": "address"
        },
        {
          "internalType": "address",
          "name": "_lowerHint",
          "type": "address"
        }
      ],
      "name": "adjustTrove",
      "outputs": [],
      "stateMutability": "payable",
      "type": "function"
    },
    {
      "inputs": [
        {
          "internalType": "uint256",
          "name": "_musdToBurn",
          "type": "uint256"
        }
      ],
      "name": "burnDebtFromPCV",
      "outputs": [],
      "stateMutability": "nonpayable",
      "type": "function"
    },
    {
      "inputs": [],
      "name": "claimCollateral",
      "outputs": [],
      "stateMutability": "nonpayable",
      "type": "function"
    },
    {
      "inputs": [],
      "name": "closeTrove",
      "outputs": [],
      "stateMutability": "nonpayable",
      "type": "function"
    },
    {
      "inputs": [],
      "name": "collSurplusPool",
      "outputs": [
        {
          "internalType": "contract ICollSurplusPool",
          "name": "",
          "type": "address"
        }
      ],
      "stateMutability": "view",
      "type": "function"
    },
    {
      "inputs": [],
      "name": "collateralAddress",
      "outputs": [
        {
          "internalType": "address",
          "name": "",
          "type": "address"
        }
      ],
      "stateMutability": "view",
      "type": "function"
    },
    {
      "inputs": [],
      "name": "defaultPool",
      "outputs": [
        {
          "internalType": "contract IDefaultPool",
          "name": "",
          "type": "address"
        }
      ],
      "stateMutability": "view",
      "type": "function"
    },
    {
      "inputs": [],
      "name": "gasPoolAddress",
      "outputs": [
        {
          "internalType": "address",
          "name": "",
          "type": "address"
        }
      ],
      "stateMutability": "view",
      "type": "function"
    },
    {
      "inputs": [
        {
          "internalType": "uint256",
          "name": "_debt",
          "type": "uint256"
        }
      ],
      "name": "getCompositeDebt",
      "outputs": [
        {
          "internalType": "uint256",
          "name": "",
          "type": "uint256"
        }
      ],
      "stateMutability": "pure",
      "type": "function"
    },
    {
      "inputs": [],
      "name": "getEntireSystemColl",
      "outputs": [
        {
          "internalType": "uint256",
          "name": "entireSystemColl",
          "type": "uint256"
        }
      ],
      "stateMutability": "view",
      "type": "function"
    },
    {
      "inputs": [],
      "name": "getEntireSystemDebt",
      "outputs": [
        {
          "internalType": "uint256",
          "name": "entireSystemDebt",
          "type": "uint256"
        }
      ],
      "stateMutability": "view",
      "type": "function"
    },
    {
      "inputs": [],
      "name": "interestRateManager",
      "outputs": [
        {
          "internalType": "contract IInterestRateManager",
          "name": "",
          "type": "address"
        }
      ],
      "stateMutability": "view",
      "type": "function"
    },
    {
      "inputs": [
        {
          "internalType": "uint256",
          "name": "_musdToMint",
          "type": "uint256"
        }
      ],
      "name": "mintBootstrapLoanFromPCV",
      "outputs": [],
      "stateMutability": "nonpayable",
      "type": "function"
    },
    {
      "inputs": [
        {
          "internalType": "address",
          "name": "_borrower",
          "type": "address"
        },
        {
          "internalType": "uint256",
          "name": "_assetAmount",
          "type": "uint256"
        },
        {
          "internalType": "address",
          "name": "_upperHint",
          "type": "address"
        },
        {
          "internalType": "address",
          "name": "_lowerHint",
          "type": "address"
        }
      ],
      "name": "moveCollateralGainToTrove",
      "outputs": [],
      "stateMutability": "payable",
      "type": "function"
    },
    {
      "inputs": [],
      "name": "musd",
      "outputs": [
        {
          "internalType": "contract IMUSD",
          "name": "",
          "type": "address"
        }
      ],
      "stateMutability": "view",
      "type": "function"
    },
    {
      "inputs": [],
      "name": "name",
      "outputs": [
        {
          "internalType": "string",
          "name": "",
          "type": "string"
        }
      ],
      "stateMutability": "view",
      "type": "function"
    },
    {
      "inputs": [
        {
          "internalType": "uint256",
          "name": "_maxFeePercentage",
          "type": "uint256"
        },
        {
          "internalType": "uint256",
          "name": "_debtAmount",
          "type": "uint256"
        },
        {
          "internalType": "uint256",
          "name": "_assetAmount",
          "type": "uint256"
        },
        {
          "internalType": "address",
          "name": "_upperHint",
          "type": "address"
        },
        {
          "internalType": "address",
          "name": "_lowerHint",
          "type": "address"
        }
      ],
      "name": "openTrove",
      "outputs": [],
      "stateMutability": "payable",
      "type": "function"
    },
    {
      "inputs": [],
      "name": "owner",
      "outputs": [
        {
          "internalType": "address",
          "name": "",
          "type": "address"
        }
      ],
      "stateMutability": "view",
      "type": "function"
    },
    {
      "inputs": [],
      "name": "pcv",
      "outputs": [
        {
          "internalType": "contract IPCV",
          "name": "",
          "type": "address"
        }
      ],
      "stateMutability": "view",
      "type": "function"
    },
    {
      "inputs": [],
      "name": "pcvAddress",
      "outputs": [
        {
          "internalType": "address",
          "name": "",
          "type": "address"
        }
      ],
      "stateMutability": "view",
      "type": "function"
    },
    {
      "inputs": [],
      "name": "priceFeed",
      "outputs": [
        {
          "internalType": "contract IPriceFeed",
          "name": "",
          "type": "address"
        }
      ],
      "stateMutability": "view",
      "type": "function"
    },
    {
      "inputs": [
        {
          "internalType": "uint256",
          "name": "_maxFeePercentage",
          "type": "uint256"
        }
      ],
      "name": "refinance",
      "outputs": [],
      "stateMutability": "nonpayable",
      "type": "function"
    },
    {
      "inputs": [],
      "name": "refinancingFeePercentage",
      "outputs": [
        {
          "internalType": "uint8",
          "name": "",
          "type": "uint8"
        }
      ],
      "stateMutability": "view",
      "type": "function"
    },
    {
      "inputs": [],
      "name": "renounceOwnership",
      "outputs": [],
      "stateMutability": "nonpayable",
      "type": "function"
    },
    {
      "inputs": [
        {
          "internalType": "uint256",
          "name": "_amount",
          "type": "uint256"
        },
        {
          "internalType": "address",
          "name": "_upperHint",
          "type": "address"
        },
        {
          "internalType": "address",
          "name": "_lowerHint",
          "type": "address"
        }
      ],
      "name": "repayMUSD",
      "outputs": [],
      "stateMutability": "nonpayable",
      "type": "function"
    },
    {
      "inputs": [
        {
          "internalType": "address",
          "name": "_activePoolAddress",
          "type": "address"
        },
        {
          "internalType": "address",
          "name": "_collateralAddress",
          "type": "address"
        },
        {
          "internalType": "address",
          "name": "_collSurplusPoolAddress",
          "type": "address"
        },
        {
          "internalType": "address",
          "name": "_defaultPoolAddress",
          "type": "address"
        },
        {
          "internalType": "address",
          "name": "_gasPoolAddress",
          "type": "address"
        },
        {
          "internalType": "address",
          "name": "_interestRateManagerAddress",
          "type": "address"
        },
        {
          "internalType": "address",
          "name": "_musdTokenAddress",
          "type": "address"
        },
        {
          "internalType": "address",
          "name": "_pcvAddress",
          "type": "address"
        },
        {
          "internalType": "address",
          "name": "_priceFeedAddress",
          "type": "address"
        },
        {
          "internalType": "address",
          "name": "_stabilityPoolAddress",
          "type": "address"
        },
        {
          "internalType": "address",
          "name": "_sortedTrovesAddress",
          "type": "address"
        },
        {
          "internalType": "address",
          "name": "_troveManagerAddress",
          "type": "address"
        }
      ],
      "name": "setAddresses",
      "outputs": [],
      "stateMutability": "nonpayable",
      "type": "function"
    },
    {
      "inputs": [
        {
          "internalType": "uint8",
          "name": "_refinanceFeePercentage",
          "type": "uint8"
        }
      ],
      "name": "setRefinancingFeePercentage",
      "outputs": [],
      "stateMutability": "nonpayable",
      "type": "function"
    },
    {
      "inputs": [],
      "name": "sortedTroves",
      "outputs": [
        {
          "internalType": "contract ISortedTroves",
          "name": "",
          "type": "address"
        }
      ],
      "stateMutability": "view",
      "type": "function"
    },
    {
      "inputs": [],
      "name": "stabilityPoolAddress",
      "outputs": [
        {
          "internalType": "address",
          "name": "",
          "type": "address"
        }
      ],
      "stateMutability": "view",
      "type": "function"
    },
    {
      "inputs": [
        {
          "internalType": "address",
          "name": "newOwner",
          "type": "address"
        }
      ],
      "name": "transferOwnership",
      "outputs": [],
      "stateMutability": "nonpayable",
      "type": "function"
    },
    {
      "inputs": [],
      "name": "troveManager",
      "outputs": [
        {
          "internalType": "contract ITroveManager",
          "name": "",
          "type": "address"
        }
      ],
      "stateMutability": "view",
      "type": "function"
    },
    {
      "inputs": [
        {
          "internalType": "uint256",
          "name": "_amount",
          "type": "uint256"
        },
        {
          "internalType": "address",
          "name": "_upperHint",
          "type": "address"
        },
        {
          "internalType": "address",
          "name": "_lowerHint",
          "type": "address"
        }
      ],
      "name": "withdrawColl",
      "outputs": [],
      "stateMutability": "nonpayable",
      "type": "function"
    },
    {
      "inputs": [
        {
          "internalType": "uint256",
          "name": "_maxFeePercentage",
          "type": "uint256"
        },
        {
          "internalType": "uint256",
          "name": "_amount",
          "type": "uint256"
        },
        {
          "internalType": "address",
          "name": "_upperHint",
          "type": "address"
        },
        {
          "internalType": "address",
          "name": "_lowerHint",
          "type": "address"
        }
      ],
      "name": "withdrawMUSD",
      "outputs": [],
      "stateMutability": "nonpayable",
      "type": "function"
    }
  ],
  "transactionHash": "0xbbdb81f4c659dff9cbc33ac1eb53be8f94864e934785c3819f11c12077211f7d",
  "args": [],
  "numDeployments": 1,
  "solcInputHash": "4bf27f276f32f200c02c307a6797ac39",
  "bytecode": "0x60806040526003805460ff60a01b1916600560a21b1790553480156200002457600080fd5b5033806200004c57604051631e4fbdf760e01b81526000600482015260240160405180910390fd5b62000057816200005e565b50620000b0565b600380546001600160a01b038381166001600160a01b0319831681179093556040519116919082907f8be0079c531659141344cd1fd0a4f28419497f9722a3daafe3b4186f6b6457e090600090a35050565b61513780620000c06000396000f3fe60806040526004361061025c5760003560e01c8063741bef1a11610144578063ae918754116100b6578063d56d6bbe1161007a578063d56d6bbe146106c8578063dc283bb3146106db578063eb1207eb146106fb578063f2fde38b1461071b578063f92d34331461073b578063fe9d03231461075057600080fd5b8063ae91875414610628578063ae9d445c14610648578063b064b0b714610668578063cab666d014610688578063cda775f9146106a857600080fd5b8063887105d311610108578063887105d3146105bc5780638da5cb5b146105d15780638e54c119146105ef5780638f09162b14610602578063a20baee6146104f2578063abfad25d1461061557600080fd5b8063741bef1a1461052e578063794e57241461054e578063795d26c31461056a5780637af110ba1461057f5780637f7dde4a1461059c57600080fd5b80634ff81443116101dd5780636246d497116101a15780636246d497146104755780636c2f041b146104a85780636f0b0c1c146104c8578063715018a6146104dd57806372fe25aa146104f2578063734f622d1461050e57600080fd5b80634ff81443146103d95780635530273c146103f95780635733d58f146104195780635b9fb3cd146104355780635f705f691461045557600080fd5b80633d83908a116102245780633d83908a146103445780633db008c7146103645780634597f6ed146103845780634870dd9a146103a457806348d399e7146103b957600080fd5b806306fdde03146102615780630b622ab2146102b55780630e704d50146102e25780631bf43555146102f95780633cc7422514610324575b600080fd5b34801561026d57600080fd5b5061029f60405180604001604052806012815260200171426f72726f7765724f7065726174696f6e7360701b81525081565b6040516102ac9190614b36565b60405180910390f35b3480156102c157600080fd5b506008546102d5906001600160a01b031681565b6040516102ac9190614b69565b3480156102ee57600080fd5b506102f7610770565b005b34801561030557600080fd5b50610316686194049f30f720000081565b6040519081526020016102ac565b34801561033057600080fd5b506001546102d5906001600160a01b031681565b34801561035057600080fd5b506004546102d5906001600160a01b031681565b34801561037057600080fd5b506007546102d5906001600160a01b031681565b34801561039057600080fd5b50600b546102d5906001600160a01b031681565b3480156103b057600080fd5b5061031660c881565b3480156103c557600080fd5b506005546102d5906001600160a01b031681565b3480156103e557600080fd5b506103166103f4366004614b7d565b610d47565b34801561040557600080fd5b506102f7610414366004614bbb565b610d58565b34801561042557600080fd5b506103166714d1120d7b16000081565b34801561044157600080fd5b50600c546102d5906001600160a01b031681565b34801561046157600080fd5b506102f7610470366004614bfd565b610d70565b34801561048157600080fd5b5060035461049690600160a01b900460ff1681565b60405160ff90911681526020016102ac565b3480156104b457600080fd5b506102f76104c3366004614b7d565b610d89565b3480156104d457600080fd5b506102f76114e8565b3480156104e957600080fd5b506102f7611546565b3480156104fe57600080fd5b50610316670de0b6b3a764000081565b34801561051a57600080fd5b506102f7610529366004614c47565b61155a565b34801561053a57600080fd5b506002546102d5906001600160a01b031681565b34801561055a57600080fd5b50610316670f43fc2c04ee000081565b34801561057657600080fd5b50610316611fb8565b34801561058b57600080fd5b50610316680ad78ebc5ac620000081565b3480156105a857600080fd5b506000546102d5906001600160a01b031681565b3480156105c857600080fd5b506103166120b4565b3480156105dd57600080fd5b506003546001600160a01b03166102d5565b6102f76105fd366004614d3d565b612179565b6102f7610610366004614daf565b61219d565b6102f7610623366004614e05565b612954565b34801561063457600080fd5b50600d546102d5906001600160a01b031681565b34801561065457600080fd5b506102f7610663366004614b7d565b61297a565b34801561067457600080fd5b506102f7610683366004614b7d565b612a0f565b34801561069457600080fd5b50600a546102d5906001600160a01b031681565b3480156106b457600080fd5b506009546102d5906001600160a01b031681565b6102f76106d6366004614bbb565b612a6f565b3480156106e757600080fd5b506102f76106f6366004614bbb565b612a8d565b34801561070757600080fd5b506102f7610716366004614e3d565b612aa0565b34801561072757600080fd5b506102f7610736366004614e60565b612cb8565b34801561074757600080fd5b50610316612cf6565b34801561075c57600080fd5b506006546102d5906001600160a01b031681565b6004805460008054600a54604051635f7a196360e11b81526001600160a01b0394851695928516949091169291839163bef432c6916107b191309101614b69565b602060405180830381865afa1580156107ce573d6000803e3d6000fd5b505050506040513d601f19601f820116820180604052508101906107f29190614e7d565b604051636328fec360e11b81529091506001600160a01b0385169063c651fd8690610821903390600401614b69565b600060405180830381600087803b15801561083b57600080fd5b505af115801561084f573d6000803e3d6000fd5b5050505061085d8433612d19565b60025460408051630fdb11cf60e01b815290516000926001600160a01b031691630fdb11cf916004808301926020929190829003018187875af11580156108a8573d6000803e3d6000fd5b505050506040513d601f19601f820116820180604052508101906108cc9190614e9a565b905081156108dd576108dd81612e03565b604051630b07655760e01b81526001600160a01b03861690630b07655790610909903390600401614b69565b600060405180830381600087803b15801561092357600080fd5b505af1158015610937573d6000803e3d6000fd5b50506040516309019aaf60e31b8152600092506001600160a01b038816915063480cd5789061096a903390600401614b69565b602060405180830381865afa158015610987573d6000803e3d6000fd5b505050506040513d601f19601f820116820180604052508101906109ab9190614e9a565b90506000866001600160a01b031663d66a2553336040518263ffffffff1660e01b81526004016109db9190614b69565b602060405180830381865afa1580156109f8573d6000803e3d6000fd5b505050506040513d601f19601f82011682018060405250810190610a1c9190614e9a565b90506000876001600160a01b03166385a43ca8336040518263ffffffff1660e01b8152600401610a4c9190614b69565b602060405180830381865afa158015610a69573d6000803e3d6000fd5b505050506040513d601f19601f82011682018060405250810190610a8d9190614e9a565b9050610aac8633610aa7680ad78ebc5ac620000086614ec9565b612e7b565b8415610ad0576000610ac384600085600089612f5e565b9050610ace81612fd1565b505b604051631fc5750960e31b81526001600160a01b0389169063fe2ba84890610afc903390600401614b69565b600060405180830381600087803b158015610b1657600080fd5b505af1158015610b2a573d6000803e3d6000fd5b50506040516365e89c5760e11b81526001600160a01b038b16925063cbd138ae9150610b5a903390600401614b69565b600060405180830381600087803b158015610b7457600080fd5b505af1158015610b88573d6000803e3d6000fd5b50506040513392506000805160206150e28339815191529150610bb690600090819081908190600190614ef2565b60405180910390a26001600160a01b03871663ab11fadd82610be1680ad78ebc5ac620000086614ec9565b610beb9190614ec9565b836040518363ffffffff1660e01b8152600401610c12929190918252602082015260400190565b600060405180830381600087803b158015610c2c57600080fd5b505af1158015610c40573d6000803e3d6000fd5b50505050856001600160a01b0316639dc29fac33680ad78ebc5ac620000085610c699190614ec9565b6040518363ffffffff1660e01b8152600401610c86929190614f18565b600060405180830381600087803b158015610ca057600080fd5b505af1158015610cb4573d6000803e3d6000fd5b5050600654610cdd925089915088906001600160a01b0316680ad78ebc5ac62000006000613061565b604051636250216960e01b81526001600160a01b03881690636250216990610d0b9033908790600401614f18565b600060405180830381600087803b158015610d2557600080fd5b505af1158015610d39573d6000803e3d6000fd5b505050505050505050505050565b6000610d5282613134565b92915050565b610d6b3384600080600087876000613149565b505050565b610d83336000856001600087878b613149565b50505050565b600454600c546001600160a01b039182169116610da68233612d19565b604051636328fec360e11b81526001600160a01b0383169063c651fd8690610dd2903390600401614b69565b600060405180830381600087803b158015610dec57600080fd5b505af1158015610e00573d6000803e3d6000fd5b50506040516392b7659b60e01b8152600092506001600160a01b03851691506392b7659b90610e33903390600401614b69565b602060405180830381865afa158015610e50573d6000803e3d6000fd5b505050506040513d601f19601f82011682018060405250810190610e749190614f31565b90506000836001600160a01b03166385a43ca8336040518263ffffffff1660e01b8152600401610ea49190614b69565b602060405180830381865afa158015610ec1573d6000803e3d6000fd5b505050506040513d601f19601f82011682018060405250810190610ee59190614e9a565b90506000846001600160a01b031663d66a2553336040518263ffffffff1660e01b8152600401610f159190614b69565b602060405180830381865afa158015610f32573d6000803e3d6000fd5b505050506040513d601f19601f82011682018060405250810190610f569190614e9a565b600354909150600090606490610f77908490600160a01b900460ff16614f55565b610f819190614f6c565b600a54909150600090610fa09088906001600160a01b0316848b6138f5565b604051639976cf4560e01b81529091506001600160a01b03881690639976cf4590610fd19033908590600401614f18565b6020604051808303816000875af1158015610ff0573d6000803e3d6000fd5b505050506040513d601f19601f820116820180604052508101906110149190614e9a565b506040516339b3e85d60e21b81526000906001600160a01b0389169063e6cfa17490611044903390600401614b69565b602060405180830381865afa158015611061573d6000803e3d6000fd5b505050506040513d601f19601f820116820180604052508101906110859190614e9a565b6040516323cc9ed960e21b815261ffff88166004820152602481018790529091506001600160a01b03881690638f327b6490604401600060405180830381600087803b1580156110d457600080fd5b505af11580156110e8573d6000803e3d6000fd5b5050604051635c30639760e11b815261ffff89166004820152602481018490526001600160a01b038a16925063b860c72e9150604401600060405180830381600087803b15801561113857600080fd5b505af115801561114c573d6000803e3d6000fd5b505050506000876001600160a01b0316637c3a00fd6040518163ffffffff1660e01b8152600401602060405180830381865afa158015611190573d6000803e3d6000fd5b505050506040513d601f19601f820116820180604052508101906111b49190614f31565b604051635b5e7c1960e11b815261ffff82166004820152602481018890529091506001600160a01b0389169063b6bcf83290604401600060405180830381600087803b15801561120357600080fd5b505af1158015611217573d6000803e3d6000fd5b50506040516379b381e360e01b815261ffff84166004820152602481018590526001600160a01b038b1692506379b381e39150604401600060405180830381600087803b15801561126757600080fd5b505af115801561127b573d6000803e3d6000fd5b50505050886001600160a01b0316637412e008338a6001600160a01b0316637c3a00fd6040518163ffffffff1660e01b8152600401602060405180830381865afa1580156112cd573d6000803e3d6000fd5b505050506040513d601f19601f820116820180604052508101906112f19190614f31565b6040516001600160e01b031960e085901b1681526001600160a01b03909216600483015261ffff166024820152604401600060405180830381600087803b15801561133b57600080fd5b505af115801561134f573d6000803e3d6000fd5b5050505060006114438a6001600160a01b031663480cd578336040518263ffffffff1660e01b81526004016113849190614b69565b602060405180830381865afa1580156113a1573d6000803e3d6000fd5b505050506040513d601f19601f820116820180604052508101906113c59190614e9a565b600260009054906101000a90046001600160a01b03166001600160a01b0316630fdb11cf6040518163ffffffff1660e01b81526004016020604051808303816000875af115801561141a573d6000803e3d6000fd5b505050506040513d601f19601f8201168201806040525081019061143e9190614e9a565b613a33565b604051632f8a426f60e21b81529091506001600160a01b038b169063be2909bc906114749033908590600401614f18565b600060405180830381600087803b15801561148e57600080fd5b505af11580156114a2573d6000803e3d6000fd5b50506040518681523392507fde81352e4f17b151de0a2f2a30a50eeb111a437414e8f241248158063302a551915060200160405180910390a25050505050505050505050565b60095460405163b32beb5b60e01b81526001600160a01b039091169063b32beb5b90611518903390600401614b69565b600060405180830381600087803b15801561153257600080fd5b505af1158015610d83573d6000803e3d6000fd5b61154e613a59565b6115586000613a86565b565b611562613a59565b61156b8c613ad8565b6001600160a01b038b1615611583576115838b613ad8565b61158c8a613ad8565b61159589613ad8565b61159e88613ad8565b6115a786613ad8565b6115b085613ad8565b6115b984613ad8565b6115c283613ad8565b6115cb82613ad8565b6115d481613ad8565b6115dd87613ad8565b80600460006101000a8154816001600160a01b0302191690836001600160a01b031602179055508b6000806101000a8154816001600160a01b0302191690836001600160a01b0316021790555088600160006101000a8154816001600160a01b0302191690836001600160a01b0316021790555082600860006101000a8154816001600160a01b0302191690836001600160a01b0316021790555087600660006101000a8154816001600160a01b0302191690836001600160a01b0316021790555089600960006101000a8154816001600160a01b0302191690836001600160a01b0316021790555083600260006101000a8154816001600160a01b0302191690836001600160a01b0316021790555081600d60006101000a8154816001600160a01b0302191690836001600160a01b0316021790555085600a60006101000a8154816001600160a01b0302191690836001600160a01b0316021790555084600b60006101000a8154816001600160a01b0302191690836001600160a01b0316021790555084600760006101000a8154816001600160a01b0302191690836001600160a01b031602179055508a600560006101000a8154816001600160a01b0302191690836001600160a01b0316021790555086600c60006101000a8154816001600160a01b0302191690836001600160a01b0316021790555060006001600160a01b0316896001600160a01b0316638da5cb5b6040518163ffffffff1660e01b8152600401602060405180830381865afa158015611820573d6000803e3d6000fd5b505050506040513d601f19601f820116820180604052508101906118449190614fa4565b6001600160a01b03161415806118cf5750600154604080516348d399e760e01b815290516001600160a01b03808f169316916348d399e79160048083019260209291908290030181865afa1580156118a0573d6000803e3d6000fd5b505050506040513d601f19601f820116820180604052508101906118c49190614fa4565b6001600160a01b0316145b80156119ce575060006001600160a01b03168c6001600160a01b0316638da5cb5b6040518163ffffffff1660e01b8152600401602060405180830381865afa15801561191f573d6000803e3d6000fd5b505050506040513d601f19601f820116820180604052508101906119439190614fa4565b6001600160a01b03161415806119ce5750600054604080516348d399e760e01b815290516001600160a01b03808f169316916348d399e79160048083019260209291908290030181865afa15801561199f573d6000803e3d6000fd5b505050506040513d601f19601f820116820180604052508101906119c39190614fa4565b6001600160a01b0316145b8015611acd575060006001600160a01b0316836001600160a01b0316638da5cb5b6040518163ffffffff1660e01b8152600401602060405180830381865afa158015611a1e573d6000803e3d6000fd5b505050506040513d601f19601f82011682018060405250810190611a429190614fa4565b6001600160a01b0316141580611acd5750600854604080516348d399e760e01b815290516001600160a01b03808f169316916348d399e79160048083019260209291908290030181865afa158015611a9e573d6000803e3d6000fd5b505050506040513d601f19601f82011682018060405250810190611ac29190614fa4565b6001600160a01b0316145b8015611bcc575060006001600160a01b03168a6001600160a01b0316638da5cb5b6040518163ffffffff1660e01b8152600401602060405180830381865afa158015611b1d573d6000803e3d6000fd5b505050506040513d601f19601f82011682018060405250810190611b419190614fa4565b6001600160a01b0316141580611bcc5750600954604080516348d399e760e01b815290516001600160a01b03808f169316916348d399e79160048083019260209291908290030181865afa158015611b9d573d6000803e3d6000fd5b505050506040513d601f19601f82011682018060405250810190611bc19190614fa4565b6001600160a01b0316145b8015611ccb575060075460408051630cab666d60e41b815290516000926001600160a01b03169163cab666d09160048083019260209291908290030181865afa158015611c1d573d6000803e3d6000fd5b505050506040513d601f19601f82011682018060405250810190611c419190614fa4565b6001600160a01b03161480611ccb57506007546040805163724d374560e01b815290516001600160a01b03808f1693169163724d37459160048083019260209291908290030181865afa158015611c9c573d6000803e3d6000fd5b505050506040513d601f19601f82011682018060405250810190611cc09190614fa4565b6001600160a01b0316145b611d535760405162461bcd60e51b815260206004820152604860248201527f5468652073616d6520636f6c6c61746572616c2061646472657373206d75737460448201527f206265207573656420666f722074686520656e7469726520736574206f6620636064820152676f6e74726163747360c01b608482015260a4015b60405180910390fd5b7f143219c9e69b09e07e095fcc889b43d8f46ca892bba65f08dc3a0050869a567881604051611d829190614b69565b60405180910390a17f78f058b189175430c48dc02699e3a0031ea4ff781536dc2fab847de4babdd8828c604051611db99190614b69565b60405180910390a17f5ee0cae2f063ed938bb55046f6a932fb6ae792bf43624806bb90abe68a50be9b89604051611df09190614b69565b60405180910390a17f82966d27eea39b038ee0fa30cd16532bb24f6e65d31cb58fb227aa5766cdcc7f83604051611e279190614b69565b60405180910390a17fcfb07d791fcafc032b35837b50eb84b74df518cf4cc287e8084f47630fa70fa088604051611e5e9190614b69565b60405180910390a17fe67f36a6e961157d6eff83b91f3af5a62131ceb6f04954ef74f51c1c05e7f88d8a604051611e959190614b69565b60405180910390a17f8c537274438aa850a330284665d81a85dd38267d09e4050d416bfc94142db26484604051611ecc9190614b69565b60405180910390a17f65f4cf077bc01e4742eb5ad98326f6e95b63548ea24b17f8d5e823111fe7880082604051611f039190614b69565b60405180910390a17f547e9055f019d1e165f0ca2133494723cb248f8536192c218254285fc43c566886604051611f3a9190614b69565b60405180910390a17f38335c64466e2376ab931166337e19127650d842036ebe01da1ba3e5c1255ebb85604051611f719190614b69565b60405180910390a17ffba7421f3d1a98e80d72491a6e0523133444a5842cc7310951d8b82d075a7dff8b604051611fa89190614b69565b60405180910390a1610d39611546565b60008054604080516314a6bf0f60e01b8152905183926001600160a01b0316916314a6bf0f9160048083019260209291908290030181865afa158015612002573d6000803e3d6000fd5b505050506040513d601f19601f820116820180604052508101906120269190614e9a565b90506000600160009054906101000a90046001600160a01b03166001600160a01b03166314a6bf0f6040518163ffffffff1660e01b8152600401602060405180830381865afa15801561207d573d6000803e3d6000fd5b505050506040513d601f19601f820116820180604052508101906120a19190614e9a565b90506120ad8183614fc1565b9250505090565b6000805460408051631529a63960e01b8152905183926001600160a01b031691631529a6399160048083019260209291908290030181865afa1580156120fe573d6000803e3d6000fd5b505050506040513d601f19601f820116820180604052508101906121229190614e9a565b90506000600160009054906101000a90046001600160a01b03166001600160a01b0316631529a6396040518163ffffffff1660e01b8152600401602060405180830381865afa15801561207d573d6000803e3d6000fd5b61218283613b81565b9250612194338787878787878e613149565b50505050505050565b6040805160808082018352600480546001600160a01b039081168452600080548216602080870191909152600a54831686880152600c54831660608088019190915287516101008101895283815280830184905280890184905290810183905294850182905260a0850182905260c0850182905260e085018290526002548751630fdb11cf60e01b8152975196979596931694630fdb11cf948181019492939183900301908290875af1158015612258573d6000803e3d6000fd5b505050506040513d601f19601f8201168201806040525081019061227c9190614e9a565b80825260009061228b90613c0a565b90506122978882613c27565b82516122a39033613d3f565b60408201879052806122df576122c383600001518460400151898b6138f5565b602083018190526040830180516122db908390614fc1565b9052505b6122ec8260400151613e12565b6122f98260400151613134565b6060830181905261230c5761230c614f8e565b61231586613b81565b955061232a8683606001518460000151613e91565b6080830152606082015161233f908790613ec4565b60a0830152801561235c576123578260800151613efa565b61238f565b6123698260800151613f72565b6000612382876001856060015160018760000151612f5e565b905061238d81612fd1565b505b82600001516001600160a01b0316637412e0083385606001516001600160a01b0316637c3a00fd6040518163ffffffff1660e01b8152600401602060405180830381865afa1580156123e5573d6000803e3d6000fd5b505050506040513d601f19601f820116820180604052508101906124099190614f31565b6040516001600160e01b031960e085901b1681526001600160a01b03909216600483015261ffff166024820152604401600060405180830381600087803b15801561245357600080fd5b505af1158015612467573d6000803e3d6000fd5b5050845160405163953f0bb160e01b81526001600160a01b03909116925063953f0bb1915061249d903390600190600401614fd4565b600060405180830381600087803b1580156124b757600080fd5b505af11580156124cb573d6000803e3d6000fd5b505084516040516372423c1760e01b81526001600160a01b0390911692506372423c1791506125009033908a90600401614f18565b6020604051808303816000875af115801561251f573d6000803e3d6000fd5b505050506040513d601f19601f820116820180604052508101906125439190614e9a565b5082516060830151604051639976cf4560e01b81526001600160a01b0390921691639976cf459161257991339190600401614f18565b6020604051808303816000875af1158015612598573d6000803e3d6000fd5b505050506040513d601f19601f820116820180604052508101906125bc9190614e9a565b508251604051630459b7eb60e51b81526001600160a01b0390911690638b36fd60906125ee9033904290600401614f18565b600060405180830381600087803b15801561260857600080fd5b505af115801561261c573d6000803e3d6000fd5b505050506000612630878460000151613a33565b8451604051632f8a426f60e21b81529192506001600160a01b03169063be2909bc906126629033908590600401614f18565b600060405180830381600087803b15801561267c57600080fd5b505af1158015612690573d6000803e3d6000fd5b505085516040516382fe3eb960e01b81526001600160a01b0390911692506382fe3eb991506126c3903390600401614b69565b600060405180830381600087803b1580156126dd57600080fd5b505af11580156126f1573d6000803e3d6000fd5b50508551604051630c7940bd60e11b81526001600160a01b0390911692506318f2817a9150612724903390600401614b69565b6020604051808303816000875af1158015612743573d6000803e3d6000fd5b505050506040513d601f19601f820116820180604052508101906127679190614e9a565b60c0840152600d5460a08401516040516346f7cf8760e01b81526001600160a01b03909216916346f7cf87916127a6913391908b908b9060040161500f565b600060405180830381600087803b1580156127c057600080fd5b505af11580156127d4573d6000803e3d6000fd5b505085516040516315d549f160e01b81526001600160a01b0390911692506315d549f19150612807903390600401614b69565b6020604051808303816000875af1158015612826573d6000803e3d6000fd5b505050506040513d601f19601f8201168201806040525081019061284a9190614e9a565b60e0840181905260405190815233907f59cfd0cd754bc5748b6770e94a4ffa5f678d885cb899dcfadc5734edb97c67ab9060200160405180910390a2612894846020015188614002565b6128ad84602001518560400151338b876040015161401a565b602084015160408501516006546128d99291906001600160a01b0316680ad78ebc5ac62000008061401a565b606083015160c084015160405133926000805160206150e283398151915292612908926000918d918390614ef2565b60405180910390a260208084015160405190815233917f5d032cf8244d18503d44f7171954f352ff41fa2df69660eb897f4db36efe808e910160405180910390a2505050505050505050565b61295c6140a9565b61296583613b81565b9250610d838460008060008787876000613149565b6007546001600160a01b031633146129a45760405162461bcd60e51b8152600401611d4a9061503a565b600a54600754604051632770a7eb60e21b81526001600160a01b0392831692639dc29fac926129da929116908590600401614f18565b600060405180830381600087803b1580156129f457600080fd5b505af1158015612a08573d6000803e3d6000fd5b5050505050565b6007546001600160a01b03163314612a395760405162461bcd60e51b8152600401611d4a9061503a565b600a546007546040516340c10f1960e01b81526001600160a01b03928316926340c10f19926129da929116908590600401614f18565b612a7883613b81565b9250610d6b3360008060008787876000613149565b610d6b3360008560008087876000613149565b600b60009054906101000a90046001600160a01b03166001600160a01b031663e2c6d41c6040518163ffffffff1660e01b8152600401602060405180830381865afa158015612af3573d6000803e3d6000fd5b505050506040513d601f19601f82011682018060405250810190612b179190614fa4565b6001600160a01b0316336001600160a01b03161480612bbd5750600b60009054906101000a90046001600160a01b03166001600160a01b03166361d027b36040518163ffffffff1660e01b8152600401602060405180830381865afa158015612b84573d6000803e3d6000fd5b505050506040513d601f19601f82011682018060405250810190612ba89190614fa4565b6001600160a01b0316336001600160a01b0316145b612c255760405162461bcd60e51b815260206004820152603360248201527f426f72726f7765724f70733a204f6e6c7920676f7665726e616e63652063616e6044820152721031b0b636103a3434b990333ab731ba34b7b760691b6064820152608401611d4a565b60648160ff161115612c985760405162461bcd60e51b815260206004820152603660248201527f426f72726f7765724f70733a20526566696e616e63696e672066656520706572604482015275063656e74616765206d757374206265203c3d203130360541b6064820152608401611d4a565b6003805460ff909216600160a01b0260ff60a01b19909216919091179055565b612cc0613a59565b6001600160a01b038116612cea576000604051631e4fbdf760e01b8152600401611d4a9190614b69565b612cf381613a86565b50565b6103e8612d0c670de0b6b3a76400006005614f55565b612d169190614f6c565b81565b6040516321e3780160e01b81526000906001600160a01b038416906321e3780190612d48908590600401614b69565b602060405180830381865afa158015612d65573d6000803e3d6000fd5b505050506040513d601f19601f82011682018060405250810190612d899190615080565b90506001816004811115612d9f57612d9f614edc565b14610d6b5760405162461bcd60e51b815260206004820152602e60248201527f426f72726f7765724f70733a2054726f766520646f6573206e6f74206578697360448201526d1d081bdc881a5cc818db1bdcd95960921b6064820152608401611d4a565b612e0c81613c0a565b15612cf35760405162461bcd60e51b815260206004820152603960248201527f426f72726f7765724f70733a204f7065726174696f6e206e6f74207065726d696044820152787474656420647572696e67205265636f76657279204d6f646560381b6064820152608401611d4a565b6040516370a0823160e01b815281906001600160a01b038516906370a0823190612ea9908690600401614b69565b602060405180830381865afa158015612ec6573d6000803e3d6000fd5b505050506040513d601f19601f82011682018060405250810190612eea9190614e9a565b1015610d6b5760405162461bcd60e51b815260206004820152603d60248201527f426f72726f7765724f70733a2043616c6c657220646f65736e7420686176652060448201527f656e6f756768206d55534420746f206d616b652072657061796d656e740000006064820152608401611d4a565b600080612f696120b4565b90506000612f75611fb8565b905086612f8b57612f868883614ec9565b612f95565b612f958883614fc1565b915084612fab57612fa68682614ec9565b612fb5565b612fb58682614fc1565b90506000612fc4838387613e91565b9998505050505050505050565b6714d1120d7b160000811015612cf35760405162461bcd60e51b815260206004820152604960248201527f426f72726f7765724f70733a20416e206f7065726174696f6e2074686174207760448201527f6f756c6420726573756c7420696e20544352203c20434352206973206e6f74206064820152681c195c9b5a5d1d195960ba1b608482015260a401611d4a565b60405163ab11fadd60e01b815260048101839052602481018290526001600160a01b0386169063ab11fadd90604401600060405180830381600087803b1580156130aa57600080fd5b505af11580156130be573d6000803e3d6000fd5b50505050836001600160a01b0316639dc29fac8483856130de9190614fc1565b6040518363ffffffff1660e01b81526004016130fb929190614f18565b600060405180830381600087803b15801561311557600080fd5b505af1158015613129573d6000803e3d6000fd5b505050505050505050565b6000610d52680ad78ebc5ac620000083614fc1565b60408051608081018252600480546001600160a01b0390811680845260005482166020850152600a54821684860152600c5490911660608401529251636328fec360e11b815291929163c651fd86916131a4918d9101614b69565b600060405180830381600087803b1580156131be57600080fd5b505af11580156131d2573d6000803e3d6000fd5b50505050613268604051806102400160405280600081526020016000815260200160008152602001600015158152602001600081526020016000815260200160008152602001600081526020016000815260200160008152602001600081526020016000815260200160008152602001600081526020016000815260200160008152602001600081526020016000151581525090565b81516040516310b4879560e31b81526001600160a01b03909116906385a43ca890613297908d90600401614b69565b602060405180830381865afa1580156132b4573d6000803e3d6000fd5b505050506040513d601f19601f820116820180604052508101906132d89190614e9a565b6101c0820181905260608301516040516321ddc20f60e01b81526004810192909252602482018a90526001600160a01b0316906321ddc20f906044016040805180830381865afa158015613330573d6000803e3d6000fd5b505050506040513d601f19601f8201168201806040525081019061335491906150a1565b6102008301526101e082015260025460408051630fdb11cf60e01b815290516001600160a01b0390921691630fdb11cf9160048082019260209290919082900301816000875af11580156133ac573d6000803e3d6000fd5b505050506040513d601f19601f820116820180604052508101906133d09190614e9a565b8082526133dc90613c0a565b15156102208201528615613402576133f983826102200151613c27565b61340288614115565b61340c8987614185565b6134178989886141f5565b8151613423908b612d19565b336001600160a01b038b16148061345957506008546001600160a01b03163314801561344f5750600086115b8015613459575087155b61346557613465614f8e565b8151604051630b07655760e01b81526001600160a01b0390911690630b07655790613494908d90600401614b69565b600060405180830381600087803b1580156134ae57600080fd5b505af11580156134c2573d6000803e3d6000fd5b505050506134d0868a61428d565b151560608301526020820152604081018890528680156134f35750806102200151155b156135295761350c826000015183604001518a866138f5565b6101208201819052604082018051613525908390614fc1565b9052505b815160405163d66a255360e01b81526001600160a01b039091169063d66a255390613558908d90600401614b69565b602060405180830381865afa158015613575573d6000803e3d6000fd5b505050506040513d601f19601f820116820180604052508101906135999190614e9a565b608082015281516040516309019aaf60e31b81526001600160a01b039091169063480cd578906135cd908d90600401614b69565b602060405180830381865afa1580156135ea573d6000803e3d6000fd5b505050506040513d601f19601f8201168201806040525081019061360e9190614e9a565b60a0820181905260808201518251613627929190613e91565b8160c00181815250506136578160a0015182608001518360200151846060015185604001518c87600001516142ac565b60e082015260a081015189111561367057613670614f8e565b6136818161022001518a89846142df565b8615801561368f5750600088115b156136dd576136b881604001516136a983608001516142ff565b6136b39190614ec9565b613e12565b6136ca81608001518260400151614314565b6136dd82604001518b8360400151612e7b565b6136fb82600001518b8360200151846060015185604001518c6143a8565b6101808401526101608301526101408201528151604051630c7940bd60e11b81526001600160a01b03909116906318f2817a9061373c908d90600401614b69565b6020604051808303816000875af115801561375b573d6000803e3d6000fd5b505050506040513d601f19601f8201168201806040525081019061377f9190614e9a565b816101a001818152505060006137ad8260a0015183608001518460200151856060015186604001518d61459b565b600d5460405163015f109360e51b81529192506001600160a01b031690632be21260906137e4908e9085908b908b9060040161500f565b600060405180830381600087803b1580156137fe57600080fd5b505af1158015613812573d6000803e3d6000fd5b505050508a6001600160a01b03166000805160206150e2833981519152836101600151846101800151856101400151866101a0015160028081111561385957613859614edc565b60405161386a959493929190614ef2565b60405180910390a261012082015160405190815233907f5d032cf8244d18503d44f7171954f352ff41fa2df69660eb897f4db36efe808e9060200160405180910390a26138e88360200151846040015133856020015186606001518d6138d557876101e001516138d7565b8e5b8861020001518f8a604001516145bc565b5050505050505050505050565b6000846001600160a01b0316635dba4c4a6040518163ffffffff1660e01b8152600401600060405180830381600087803b15801561393257600080fd5b505af1158015613946573d6000803e3d6000fd5b5050604051630631203b60e41b815260048101869052600092506001600160a01b038816915063631203b090602401602060405180830381865afa158015613992573d6000803e3d6000fd5b505050506040513d601f19601f820116820180604052508101906139b69190614e9a565b90506139c3818585614661565b6007546040516340c10f1960e01b81526001600160a01b03878116926340c10f19926139f792909116908590600401614f18565b600060405180830381600087803b158015613a1157600080fd5b505af1158015613a25573d6000803e3d6000fd5b509298975050505050505050565b6000670f43fc2c04ee0000613a488385614f55565b613a529190614f6c565b9392505050565b6003546001600160a01b03163314611558573360405163118cdaa760e01b8152600401611d4a9190614b69565b600380546001600160a01b038381166001600160a01b0319831681179093556040519116919082907f8be0079c531659141344cd1fd0a4f28419497f9722a3daafe3b4186f6b6457e090600090a35050565b6001600160a01b038116613b2e5760405162461bcd60e51b815260206004820152601e60248201527f4163636f756e742063616e6e6f74206265207a65726f206164647265737300006044820152606401611d4a565b803b80613b7d5760405162461bcd60e51b815260206004820181905260248201527f4163636f756e7420636f64652073697a652063616e6e6f74206265207a65726f6044820152606401611d4a565b5050565b6005546000906001600160a01b0316613b9b575034919050565b3415613c065760405162461bcd60e51b815260206004820152603460248201527f426f72726f7765724f7065726174696f6e733a20455243323020636f6c6c61746044820152736572616c206e65656465642c206e6f742042544360601b6064820152608401611d4a565b5090565b600080613c16836146d2565b6714d1120d7b160000119392505050565b8015613ca357670de0b6b3a7640000821115613b7d5760405162461bcd60e51b815260206004820152603560248201527f4d6178206665652070657263656e74616765206d757374206265206c657373206044820152747468616e206f7220657175616c20746f203130302560581b6064820152608401611d4a565b6103e8613cb9670de0b6b3a76400006005614f55565b613cc39190614f6c565b8210158015613cda5750670de0b6b3a76400008211155b613b7d5760405162461bcd60e51b815260206004820152603060248201527f4d6178206665652070657263656e74616765206d75737420626520626574776560448201526f656e20302e352520616e64203130302560801b6064820152608401611d4a565b6040516321e3780160e01b81526000906001600160a01b038416906321e3780190613d6e908590600401614b69565b602060405180830381865afa158015613d8b573d6000803e3d6000fd5b505050506040513d601f19601f82011682018060405250810190613daf9190615080565b90506001816004811115613dc557613dc5614edc565b03610d6b5760405162461bcd60e51b815260206004820152601c60248201527f426f72726f7765724f70733a2054726f766520697320616374697665000000006044820152606401611d4a565b686194049f30f7200000811015612cf35760405162461bcd60e51b815260206004820152603a60248201527f426f72726f7765724f70733a2054726f76652773206e65742064656274206d7560448201527f73742062652067726561746572207468616e206d696e696d756d0000000000006064820152608401611d4a565b60008215613eb957600083613ea68487614f55565b613eb09190614f6c565b9150613a529050565b506000199392505050565b60008115613ef15781613ee068056bc75e2d6310000085614f55565b613eea9190614f6c565b9050610d52565b50600019610d52565b6714d1120d7b160000811015612cf35760405162461bcd60e51b815260206004820152603760248201527f426f72726f7765724f70733a204f7065726174696f6e206d757374206c65617660448201527632903a3937bb32903bb4ba341024a1a9101f1e9021a1a960491b6064820152608401611d4a565b670f43fc2c04ee0000811015612cf35760405162461bcd60e51b815260206004820152604960248201527f426f72726f7765724f70733a20416e206f7065726174696f6e2074686174207760448201527f6f756c6420726573756c7420696e20494352203c204d4352206973206e6f74206064820152681c195c9b5a5d1d195960ba1b608482015260a401611d4a565b600554613b7d906001600160a01b03163384846146fe565b6040516354c4666160e01b815260048101829052600060248201526001600160a01b038616906354c4666190604401600060405180830381600087803b15801561406357600080fd5b505af1158015614077573d6000803e3d6000fd5b50506040516340c10f1960e01b81526001600160a01b03871692506340c10f1991506130fb9086908690600401614f18565b6008546001600160a01b031633146115585760405162461bcd60e51b815260206004820152602960248201527f426f72726f7765724f70733a2043616c6c6572206973206e6f742053746162696044820152681b1a5d1e48141bdbdb60ba1b6064820152608401611d4a565b60008111612cf35760405162461bcd60e51b815260206004820152603760248201527f426f72726f7765724f70733a204465627420696e637265617365207265717569604482015276726573206e6f6e2d7a65726f20646562744368616e676560481b6064820152608401611d4a565b801580614190575081155b613b7d5760405162461bcd60e51b815260206004820152603060248201527f426f72726f7765724f7065726174696f6e733a2043616e6e6f7420776974686460448201526f1c985dc8185b99081859190818dbdb1b60821b6064820152608401611d4a565b8015158061420257508215155b8061420c57508115155b610d6b5760405162461bcd60e51b815260206004820152604660248201527f426f72726f7765724f70733a205468657265206d75737420626520656974686560448201527f72206120636f6c6c61746572616c206368616e6765206f7220612064656274206064820152656368616e676560d01b608482015260a401611d4a565b60008083156142a1575082905060016142a5565b8291505b9250929050565b60008060006142bf8a8a8a8a8a8a6147bf565b9150915060006142d0838387613e91565b9b9a5050505050505050505050565b83156142f5576142f083838361480d565b610d83565b610d83828261483b565b6000610d52680ad78ebc5ac620000083614ec9565b614327680ad78ebc5ac620000083614ec9565b811115613b7d5760405162461bcd60e51b815260206004820152604360248201527f426f72726f7765724f70733a20416d6f756e7420726570616964206d7573742060448201527f6e6f74206265206c6172676572207468616e207468652054726f76652773206460648201526219589d60ea1b608482015260a401611d4a565b6000806000856144285760405163d3d6f84360e01b81526001600160a01b038a169063d3d6f843906143e0908b908b90600401614f18565b6020604051808303816000875af11580156143ff573d6000803e3d6000fd5b505050506040513d601f19601f820116820180604052508101906144239190614e9a565b614499565b6040516372423c1760e01b81526001600160a01b038a16906372423c1790614456908b908b90600401614f18565b6020604051808303816000875af1158015614475573d6000803e3d6000fd5b505050506040513d601f19601f820116820180604052508101906144999190614e9a565b9250831561451957604051639976cf4560e01b81526001600160a01b038a1690639976cf45906144cf908b908990600401614f18565b6020604051808303816000875af11580156144ee573d6000803e3d6000fd5b505050506040513d601f19601f820116820180604052508101906145129190614e9a565b915061458f565b604051630930874960e11b81526001600160a01b038a16906312610e9290614547908b908990600401614f18565b60408051808303816000875af1158015614565573d6000803e3d6000fd5b505050506040513d601f19601f8201168201806040525081019061458991906150a1565b90925090505b96509650969350505050565b60008060006145ae8989898989896147bf565b91509150612fc48282613ec4565b81156145d4576145cf898989878561401a565b6145e1565b6145e18989898787613061565b84156145f6576145f18987614002565b613129565b604051636250216960e01b81526001600160a01b038a1690636250216990614624908a908a90600401614f18565b600060405180830381600087803b15801561463e57600080fd5b505af1158015614652573d6000803e3d6000fd5b50505050505050505050505050565b600082614676670de0b6b3a764000086614f55565b6146809190614f6c565b905081811115610d835760405162461bcd60e51b815260206004820152601d60248201527f4665652065786365656465642070726f7669646564206d6178696d756d0000006044820152606401611d4a565b6000806146dd6120b4565b905060006146e9611fb8565b90506146f6828286613e91565b949350505050565b6001600160a01b0384166147aa576000826001600160a01b03168260405160006040518083038185875af1925050503d8060008114614759576040519150601f19603f3d011682016040523d82523d6000602084013e61475e565b606091505b50509050806147a45760405162461bcd60e51b815260206004820152601260248201527114d95b991a5b99c8109510c819985a5b195960721b6044820152606401611d4a565b50610d83565b610d836001600160a01b038516848484614876565b600080846147d6576147d18689614ec9565b6147e0565b6147e08689614fc1565b9150826147f6576147f18488614ec9565b614800565b6148008488614fc1565b9050965096945050505050565b614816836148d0565b8115610d6b576148298160e00151613efa565b610d6b8160e001518260c00151614944565b6148488160e00151613f72565b614865816020015182606001518360400151858560000151612f5e565b6101008201819052613b7d90612fd1565b604080516001600160a01b0385811660248301528416604482015260648082018490528251808303909101815260849091019091526020810180516001600160e01b03166323b872dd60e01b179052610d839085906149ba565b8015612cf35760405162461bcd60e51b815260206004820152603e60248201527f426f72726f7765724f70733a20436f6c6c61746572616c20776974686472617760448201527f616c206e6f74207065726d6974746564205265636f76657279204d6f646500006064820152608401611d4a565b80821015613b7d5760405162461bcd60e51b815260206004820152603e60248201527f426f72726f7765724f70733a2043616e6e6f7420646563726561736520796f7560448201527f722054726f766527732049435220696e205265636f76657279204d6f646500006064820152608401611d4a565b60006149cf6001600160a01b03841683614a14565b905080516000141580156149f45750808060200190518101906149f29190614e7d565b155b15610d6b5782604051635274afe760e01b8152600401611d4a9190614b69565b6060613a528383600084600080856001600160a01b03168486604051614a3a91906150c5565b60006040518083038185875af1925050503d8060008114614a77576040519150601f19603f3d011682016040523d82523d6000602084013e614a7c565b606091505b5091509150614a8c868383614a96565b9695505050505050565b606082614aab57614aa682614ae9565b613a52565b8151158015614ac257506001600160a01b0384163b155b15614ae25783604051639996b31560e01b8152600401611d4a9190614b69565b5080613a52565b805115614af95780518082602001fd5b604051630a12f52160e11b815260040160405180910390fd5b60005b83811015614b2d578181015183820152602001614b15565b50506000910152565b6020815260008251806020840152614b55816040850160208701614b12565b601f01601f19169190910160400192915050565b6001600160a01b0391909116815260200190565b600060208284031215614b8f57600080fd5b5035919050565b6001600160a01b0381168114612cf357600080fd5b8035614bb681614b96565b919050565b600080600060608486031215614bd057600080fd5b833592506020840135614be281614b96565b91506040840135614bf281614b96565b809150509250925092565b60008060008060808587031215614c1357600080fd5b84359350602085013592506040850135614c2c81614b96565b91506060850135614c3c81614b96565b939692955090935050565b6000806000806000806000806000806000806101808d8f031215614c6a57600080fd5b8c35614c7581614b96565b9b5060208d0135614c8581614b96565b9a5060408d0135614c9581614b96565b995060608d0135614ca581614b96565b985060808d0135614cb581614b96565b975060a08d0135614cc581614b96565b9650614cd360c08e01614bab565b9550614ce160e08e01614bab565b9450614cf06101008e01614bab565b9350614cff6101208e01614bab565b9250614d0e6101408e01614bab565b9150614d1d6101608e01614bab565b90509295989b509295989b509295989b565b8015158114612cf357600080fd5b600080600080600080600060e0888a031215614d5857600080fd5b8735965060208801359550604088013594506060880135614d7881614d2f565b93506080880135925060a0880135614d8f81614b96565b915060c0880135614d9f81614b96565b8091505092959891949750929550565b600080600080600060a08688031215614dc757600080fd5b8535945060208601359350604086013592506060860135614de781614b96565b91506080860135614df781614b96565b809150509295509295909350565b60008060008060808587031215614e1b57600080fd5b8435614e2681614b96565b9350602085013592506040850135614c2c81614b96565b600060208284031215614e4f57600080fd5b813560ff81168114613a5257600080fd5b600060208284031215614e7257600080fd5b8135613a5281614b96565b600060208284031215614e8f57600080fd5b8151613a5281614d2f565b600060208284031215614eac57600080fd5b5051919050565b634e487b7160e01b600052601160045260246000fd5b81810381811115610d5257610d52614eb3565b634e487b7160e01b600052602160045260246000fd5b94855260208501939093526040840191909152606083015260ff16608082015260a00190565b6001600160a01b03929092168252602082015260400190565b600060208284031215614f4357600080fd5b815161ffff81168114613a5257600080fd5b8082028115828204841417610d5257610d52614eb3565b600082614f8957634e487b7160e01b600052601260045260246000fd5b500490565b634e487b7160e01b600052600160045260246000fd5b600060208284031215614fb657600080fd5b8151613a5281614b96565b80820180821115610d5257610d52614eb3565b6001600160a01b0383168152604081016005831061500257634e487b7160e01b600052602160045260246000fd5b8260208301529392505050565b6001600160a01b03948516815260208101939093529083166040830152909116606082015260800190565b60208082526026908201527f426f72726f7765724f7065726174696f6e733a2063616c6c6572206d757374206040820152653132902821ab60d11b606082015260800190565b60006020828403121561509257600080fd5b815160058110613a5257600080fd5b600080604083850312156150b457600080fd5b505080516020909101519092909150565b600082516150d7818460208701614b12565b919091019291505056fef575eb5cdee005607f56587351e18943ddacd11756b9d37980ec251797ff136ca2646970667358221220d3da50ac1b361c1a2ed43b5f9ded6c44f40a2e93c6d39cea466b71e3123a243a64736f6c63430008180033",
  "devdoc": {
    "errors": {
      "AddressEmptyCode(address)": [
        {
          "details": "There's no code at `target` (it is not a contract)."
        }
      ],
      "AddressInsufficientBalance(address)": [
        {
          "details": "The ETH balance of the account is not enough to perform the operation."
        }
      ],
      "FailedInnerCall()": [
        {
          "details": "A call to an address target failed. The target may have reverted."
        }
      ],
      "OwnableInvalidOwner(address)": [
        {
          "details": "The owner is not a valid owner account. (eg. `address(0)`)"
        }
      ],
      "OwnableUnauthorizedAccount(address)": [
        {
          "details": "The caller account is not authorized to perform an operation."
        }
      ],
      "SafeERC20FailedOperation(address)": [
        {
          "details": "An operation with an ERC20 token failed."
        }
      ]
    },
    "kind": "dev",
    "methods": {
      "owner()": {
        "details": "Returns the address of the current owner."
      },
      "renounceOwnership()": {
        "details": "Leaves the contract without owner. It will not be possible to call `onlyOwner` functions. Can only be called by the current owner. NOTE: Renouncing ownership will leave the contract without an owner, thereby disabling any functionality that is only available to the owner."
      },
      "transferOwnership(address)": {
        "details": "Transfers ownership of the contract to a new account (`newOwner`). Can only be called by the current owner."
      }
    },
    "version": 1
  },
  "userdoc": {
    "kind": "user",
    "methods": {},
    "version": 1
  },
  "storageLayout": {
    "storage": [
      {
        "astId": 27315,
        "contract": "contracts/BorrowerOperations.sol:BorrowerOperations",
        "label": "activePool",
        "offset": 0,
        "slot": "0",
        "type": "t_contract(IActivePool)27880"
      },
      {
        "astId": 27318,
        "contract": "contracts/BorrowerOperations.sol:BorrowerOperations",
        "label": "defaultPool",
        "offset": 0,
        "slot": "1",
        "type": "t_contract(IDefaultPool)28219"
      },
      {
        "astId": 27322,
        "contract": "contracts/BorrowerOperations.sol:BorrowerOperations",
        "label": "priceFeed",
        "offset": 0,
        "slot": "2",
        "type": "t_contract(IPriceFeed)28636"
      },
      {
        "astId": 8,
        "contract": "contracts/BorrowerOperations.sol:BorrowerOperations",
        "label": "_owner",
        "offset": 0,
        "slot": "3",
        "type": "t_address"
      },
      {
        "astId": 4703,
        "contract": "contracts/BorrowerOperations.sol:BorrowerOperations",
        "label": "refinancingFeePercentage",
        "offset": 20,
        "slot": "3",
        "type": "t_uint8"
      },
      {
        "astId": 4706,
        "contract": "contracts/BorrowerOperations.sol:BorrowerOperations",
        "label": "troveManager",
        "offset": 0,
        "slot": "4",
        "type": "t_contract(ITroveManager)29448"
      },
      {
        "astId": 4708,
        "contract": "contracts/BorrowerOperations.sol:BorrowerOperations",
        "label": "collateralAddress",
        "offset": 0,
        "slot": "5",
        "type": "t_address"
      },
      {
        "astId": 4710,
        "contract": "contracts/BorrowerOperations.sol:BorrowerOperations",
        "label": "gasPoolAddress",
        "offset": 0,
        "slot": "6",
        "type": "t_address"
      },
      {
        "astId": 4712,
        "contract": "contracts/BorrowerOperations.sol:BorrowerOperations",
        "label": "pcvAddress",
        "offset": 0,
        "slot": "7",
        "type": "t_address"
      },
      {
        "astId": 4714,
        "contract": "contracts/BorrowerOperations.sol:BorrowerOperations",
        "label": "stabilityPoolAddress",
        "offset": 0,
        "slot": "8",
        "type": "t_address"
      },
      {
        "astId": 4717,
        "contract": "contracts/BorrowerOperations.sol:BorrowerOperations",
        "label": "collSurplusPool",
        "offset": 0,
        "slot": "9",
        "type": "t_contract(ICollSurplusPool)28180"
      },
      {
        "astId": 4720,
        "contract": "contracts/BorrowerOperations.sol:BorrowerOperations",
        "label": "musd",
        "offset": 0,
        "slot": "10",
        "type": "t_contract(IMUSD)29929"
      },
      {
        "astId": 4723,
        "contract": "contracts/BorrowerOperations.sol:BorrowerOperations",
        "label": "pcv",
        "offset": 0,
        "slot": "11",
        "type": "t_contract(IPCV)28556"
      },
      {
        "astId": 4726,
        "contract": "contracts/BorrowerOperations.sol:BorrowerOperations",
        "label": "interestRateManager",
        "offset": 0,
        "slot": "12",
        "type": "t_contract(IInterestRateManager)28390"
      },
      {
        "astId": 4729,
        "contract": "contracts/BorrowerOperations.sol:BorrowerOperations",
        "label": "sortedTroves",
        "offset": 0,
        "slot": "13",
        "type": "t_contract(ISortedTroves)28784"
      }
    ],
    "types": {
      "t_address": {
        "encoding": "inplace",
        "label": "address",
        "numberOfBytes": "20"
      },
      "t_contract(IActivePool)27880": {
        "encoding": "inplace",
        "label": "contract IActivePool",
        "numberOfBytes": "20"
      },
      "t_contract(ICollSurplusPool)28180": {
        "encoding": "inplace",
        "label": "contract ICollSurplusPool",
        "numberOfBytes": "20"
      },
      "t_contract(IDefaultPool)28219": {
        "encoding": "inplace",
        "label": "contract IDefaultPool",
        "numberOfBytes": "20"
      },
      "t_contract(IInterestRateManager)28390": {
        "encoding": "inplace",
        "label": "contract IInterestRateManager",
        "numberOfBytes": "20"
      },
      "t_contract(IMUSD)29929": {
        "encoding": "inplace",
        "label": "contract IMUSD",
        "numberOfBytes": "20"
      },
      "t_contract(IPCV)28556": {
        "encoding": "inplace",
        "label": "contract IPCV",
        "numberOfBytes": "20"
      },
      "t_contract(IPriceFeed)28636": {
        "encoding": "inplace",
        "label": "contract IPriceFeed",
        "numberOfBytes": "20"
      },
      "t_contract(ISortedTroves)28784": {
        "encoding": "inplace",
        "label": "contract ISortedTroves",
        "numberOfBytes": "20"
      },
      "t_contract(ITroveManager)29448": {
        "encoding": "inplace",
        "label": "contract ITroveManager",
        "numberOfBytes": "20"
      },
      "t_uint8": {
        "encoding": "inplace",
        "label": "uint8",
        "numberOfBytes": "1"
      }
    }
  }
}