{
  "address": "0xe64250550c35e084bC0E88801874493fAb7708D7",
  "abi": [
    {
      "inputs": [],
      "stateMutability": "nonpayable",
      "type": "constructor"
    },
    {
      "inputs": [
        {
          "internalType": "address",
          "name": "target",
          "type": "address"
        }
      ],
      "name": "AddressEmptyCode",
      "type": "error"
    },
    {
      "inputs": [
        {
          "internalType": "address",
          "name": "account",
          "type": "address"
        }
      ],
      "name": "AddressInsufficientBalance",
      "type": "error"
    },
    {
      "inputs": [],
      "name": "FailedInnerCall",
      "type": "error"
    },
    {
      "inputs": [
        {
          "internalType": "address",
          "name": "owner",
          "type": "address"
        }
      ],
      "name": "OwnableInvalidOwner",
      "type": "error"
    },
    {
      "inputs": [
        {
          "internalType": "address",
          "name": "account",
          "type": "address"
        }
      ],
      "name": "OwnableUnauthorizedAccount",
      "type": "error"
    },
    {
      "inputs": [
        {
          "internalType": "address",
          "name": "token",
          "type": "address"
        }
      ],
      "name": "SafeERC20FailedOperation",
      "type": "error"
    },
    {
      "anonymous": false,
      "inputs": [
        {
          "indexed": false,
          "internalType": "address",
          "name": "_newActivePoolAddress",
          "type": "address"
        }
      ],
      "name": "ActivePoolAddressChanged",
      "type": "event"
    },
    {
      "anonymous": false,
      "inputs": [
        {
          "indexed": false,
          "internalType": "address",
          "name": "_newCollateralAddress",
          "type": "address"
        }
      ],
      "name": "CollateralAddressChanged",
      "type": "event"
    },
    {
      "anonymous": false,
      "inputs": [
        {
          "indexed": false,
          "internalType": "uint256",
          "name": "_newBalance",
          "type": "uint256"
        }
      ],
      "name": "CollateralBalanceUpdated",
      "type": "event"
    },
    {
      "anonymous": false,
      "inputs": [
        {
          "indexed": false,
          "internalType": "address",
          "name": "_to",
          "type": "address"
        },
        {
          "indexed": false,
          "internalType": "uint256",
          "name": "_amount",
          "type": "uint256"
        }
      ],
      "name": "CollateralSent",
      "type": "event"
    },
    {
      "anonymous": false,
      "inputs": [
        {
          "indexed": false,
          "internalType": "address",
          "name": "_newDefaultPoolAddress",
          "type": "address"
        }
      ],
      "name": "DefaultPoolAddressChanged",
      "type": "event"
    },
    {
      "anonymous": false,
      "inputs": [
        {
          "indexed": false,
          "internalType": "uint256",
          "name": "_collateral",
          "type": "uint256"
        }
      ],
      "name": "DefaultPoolCollateralBalanceUpdated",
      "type": "event"
    },
    {
      "anonymous": false,
      "inputs": [
        {
          "indexed": false,
          "internalType": "uint256",
          "name": "_principal",
          "type": "uint256"
        },
        {
          "indexed": false,
          "internalType": "uint256",
          "name": "_interest",
          "type": "uint256"
        }
      ],
      "name": "DefaultPoolDebtUpdated",
      "type": "event"
    },
    {
      "anonymous": false,
      "inputs": [
        {
          "indexed": true,
          "internalType": "address",
          "name": "previousOwner",
          "type": "address"
        },
        {
          "indexed": true,
          "internalType": "address",
          "name": "newOwner",
          "type": "address"
        }
      ],
      "name": "OwnershipTransferred",
      "type": "event"
    },
    {
      "anonymous": false,
      "inputs": [
        {
          "indexed": false,
          "internalType": "address",
          "name": "_newStabilityPoolAddress",
          "type": "address"
        }
      ],
      "name": "StabilityPoolAddressChanged",
      "type": "event"
    },
    {
      "anonymous": false,
      "inputs": [
        {
          "indexed": false,
          "internalType": "address",
          "name": "_newTroveManagerAddress",
          "type": "address"
        }
      ],
      "name": "TroveManagerAddressChanged",
      "type": "event"
    },
    {
      "inputs": [],
      "name": "activePoolAddress",
      "outputs": [
        {
          "internalType": "address",
          "name": "",
          "type": "address"
        }
      ],
      "stateMutability": "view",
      "type": "function"
    },
    {
      "inputs": [],
      "name": "collateralAddress",
      "outputs": [
        {
          "internalType": "address",
          "name": "",
          "type": "address"
        }
      ],
      "stateMutability": "view",
      "type": "function"
    },
    {
      "inputs": [
        {
          "internalType": "uint256",
          "name": "_principal",
          "type": "uint256"
        },
        {
          "internalType": "uint256",
          "name": "_interest",
          "type": "uint256"
        }
      ],
      "name": "decreaseDebt",
      "outputs": [],
      "stateMutability": "nonpayable",
      "type": "function"
    },
    {
      "inputs": [],
      "name": "getCollateralBalance",
      "outputs": [
        {
          "internalType": "uint256",
          "name": "",
          "type": "uint256"
        }
      ],
      "stateMutability": "view",
      "type": "function"
    },
    {
      "inputs": [],
      "name": "getDebt",
      "outputs": [
        {
          "internalType": "uint256",
          "name": "",
          "type": "uint256"
        }
      ],
      "stateMutability": "view",
      "type": "function"
    },
    {
      "inputs": [],
      "name": "getInterest",
      "outputs": [
        {
          "internalType": "uint256",
          "name": "",
          "type": "uint256"
        }
      ],
      "stateMutability": "view",
      "type": "function"
    },
    {
      "inputs": [],
      "name": "getLastInterestUpdatedTime",
      "outputs": [
        {
          "internalType": "uint256",
          "name": "",
          "type": "uint256"
        }
      ],
      "stateMutability": "view",
      "type": "function"
    },
    {
      "inputs": [],
      "name": "getPrincipal",
      "outputs": [
        {
          "internalType": "uint256",
          "name": "",
          "type": "uint256"
        }
      ],
      "stateMutability": "view",
      "type": "function"
    },
    {
      "inputs": [
        {
          "internalType": "uint256",
          "name": "_principal",
          "type": "uint256"
        },
        {
          "internalType": "uint256",
          "name": "_interest",
          "type": "uint256"
        }
      ],
      "name": "increaseDebt",
      "outputs": [],
      "stateMutability": "nonpayable",
      "type": "function"
    },
    {
      "inputs": [],
      "name": "owner",
      "outputs": [
        {
          "internalType": "address",
          "name": "",
          "type": "address"
        }
      ],
      "stateMutability": "view",
      "type": "function"
    },
    {
      "inputs": [],
      "name": "renounceOwnership",
      "outputs": [],
      "stateMutability": "nonpayable",
      "type": "function"
    },
    {
      "inputs": [
        {
          "internalType": "uint256",
          "name": "_amount",
          "type": "uint256"
        }
      ],
      "name": "sendCollateralToActivePool",
      "outputs": [],
      "stateMutability": "nonpayable",
      "type": "function"
    },
    {
      "inputs": [
        {
          "internalType": "address",
          "name": "_troveManagerAddress",
          "type": "address"
        },
        {
          "internalType": "address",
          "name": "_activePoolAddress",
          "type": "address"
        },
        {
          "internalType": "address",
          "name": "_collateralAddress",
          "type": "address"
        }
      ],
      "name": "setAddresses",
      "outputs": [],
      "stateMutability": "nonpayable",
      "type": "function"
    },
    {
      "inputs": [
        {
          "internalType": "address",
          "name": "newOwner",
          "type": "address"
        }
      ],
      "name": "transferOwnership",
      "outputs": [],
      "stateMutability": "nonpayable",
      "type": "function"
    },
    {
      "inputs": [],
      "name": "troveManagerAddress",
      "outputs": [
        {
          "internalType": "address",
          "name": "",
          "type": "address"
        }
      ],
      "stateMutability": "view",
      "type": "function"
    },
    {
      "stateMutability": "payable",
      "type": "receive"
    }
  ],
  "transactionHash": "0xad6f3231a57a2be14d86d686d76d5950adcd064ceb3f52df680141d13afbbc76",
  "args": [],
  "numDeployments": 1,
  "solcInputHash": "8d0bf0a003873aec33a51656649ba1f0",
  "bytecode": "0x608060405234801561001057600080fd5b50338061003757604051631e4fbdf760e01b81526000600482015260240160405180910390fd5b61004081610046565b50610096565b600080546001600160a01b038381166001600160a01b0319831681178455604051919092169283917f8be0079c531659141344cd1fd0a4f28419497f9722a3daafe3b4186f6b6457e09190a35050565b610dfe806100a56000396000f3fe6080604052600436106100cc5760003560e01c8063715018a61161007a578063715018a61461027e5780637df17502146102935780638da5cb5b146102b3578063a69bdf16146102d1578063ab11fadd146102e6578063b08bc72214610306578063e5a4bed314610326578063f2fde38b1461033b57600080fd5b806310710f72146101a157806314a6bf0f146101c55780631529a639146101da578063363bf964146101ef57806348d399e71461021157806354c466611461023e5780635a4d28bb1461025e57600080fd5b3661019c576100d961035b565b6002546001600160a01b03161561014d5760405162461bcd60e51b815260206004820152602d60248201527f44656661756c74506f6f6c3a20455243323020636f6c6c61746572616c206e6560448201526c656465642c206e6f742042544360981b60648201526084015b60405180910390fd5b346004600082825461015f9190610c68565b90915550506004546040519081527fa7a66beb44646a3c65a43d8f42c1a68514ad28ce06bf8777e6209712ea56d8079060200160405180910390a1005b600080fd5b3480156101ad57600080fd5b506007545b6040519081526020015b60405180910390f35b3480156101d157600080fd5b506101b26103c9565b3480156101e657600080fd5b506004546101b2565b3480156101fb57600080fd5b5061020f61020a366004610c90565b6103e0565b005b34801561021d57600080fd5b50600254610231906001600160a01b031681565b6040516101bc9190610cdb565b34801561024a57600080fd5b5061020f610259366004610cef565b610670565b34801561026a57600080fd5b50600354610231906001600160a01b031681565b34801561028a57600080fd5b5061020f6106f5565b34801561029f57600080fd5b5061020f6102ae366004610d11565b610707565b3480156102bf57600080fd5b506000546001600160a01b0316610231565b3480156102dd57600080fd5b506005546101b2565b3480156102f257600080fd5b5061020f610301366004610cef565b6107cb565b34801561031257600080fd5b50600154610231906001600160a01b031681565b34801561033257600080fd5b506006546101b2565b34801561034757600080fd5b5061020f610356366004610d2a565b6107fe565b6001546001600160a01b031633146103c75760405162461bcd60e51b815260206004820152602960248201527f44656661756c74506f6f6c3a2043616c6c6572206973206e6f7420746865204160448201526818dd1a5d99541bdbdb60ba1b6064820152608401610144565b565b60006006546005546103db9190610c68565b905090565b6103e861083c565b6103f183610869565b6103fa82610869565b6001600160a01b038116156104125761041281610869565b600380546001600160a01b038086166001600160a01b031992831617909255600180548584169083168117909155600280549385169390921692909217905560408051638da5cb5b60e01b8152905160009291638da5cb5b9160048083019260209291908290030181865afa15801561048f573d6000803e3d6000fd5b505050506040513d601f19601f820116820180604052508101906104b39190610d47565b6001600160a01b031614158061053b5750806001600160a01b0316826001600160a01b03166348d399e76040518163ffffffff1660e01b8152600401602060405180830381865afa15801561050c573d6000803e3d6000fd5b505050506040513d601f19601f820116820180604052508101906105309190610d47565b6001600160a01b0316145b6105be5760405162461bcd60e51b815260206004820152604860248201527f5468652073616d6520636f6c6c61746572616c2061646472657373206d75737460448201527f206265207573656420666f722074686520656e7469726520736574206f6620636064820152676f6e74726163747360c01b608482015260a401610144565b7f143219c9e69b09e07e095fcc889b43d8f46ca892bba65f08dc3a0050869a5678836040516105ed9190610cdb565b60405180910390a17f78f058b189175430c48dc02699e3a0031ea4ff781536dc2fab847de4babdd882826040516106249190610cdb565b60405180910390a17ffba7421f3d1a98e80d72491a6e0523133444a5842cc7310951d8b82d075a7dff8160405161065b9190610cdb565b60405180910390a161066b6106f5565b505050565b61067861090e565b816005600082825461068a9190610c68565b9250508190555080600660008282546106a39190610c68565b9091555050426007556005546006546040517f709cd28e2d49c68e97accc2eef5d6d07cc43b0a04c3d112aa6966a6da123b367926106e992908252602082015260400190565b60405180910390a15050565b6106fd61083c565b6103c7600061097c565b61070f61090e565b600154600480546001600160a01b0390921691839190600090610733908490610d64565b90915550506004546040519081527fa7a66beb44646a3c65a43d8f42c1a68514ad28ce06bf8777e6209712ea56d8079060200160405180910390a1604080516001600160a01b0383168152602081018490527f342693d2465f6f44931e41128424a0227e0cbc69d1c3917a839e6de71696d44c910160405180910390a16002546107c7906001600160a01b031682846109cc565b5050565b6107d361090e565b81600560008282546107e59190610d64565b9250508190555080600660008282546106a39190610d64565b61080661083c565b6001600160a01b038116610830576000604051631e4fbdf760e01b81526004016101449190610cdb565b6108398161097c565b50565b6000546001600160a01b031633146103c7573360405163118cdaa760e01b81526004016101449190610cdb565b6001600160a01b0381166108bf5760405162461bcd60e51b815260206004820152601e60248201527f4163636f756e742063616e6e6f74206265207a65726f206164647265737300006044820152606401610144565b803b806107c75760405162461bcd60e51b815260206004820181905260248201527f4163636f756e7420636f64652073697a652063616e6e6f74206265207a65726f6044820152606401610144565b6003546001600160a01b031633146103c75760405162461bcd60e51b815260206004820152602b60248201527f44656661756c74506f6f6c3a2043616c6c6572206973206e6f7420746865205460448201526a3937bb32a6b0b730b3b2b960a91b6064820152608401610144565b600080546001600160a01b038381166001600160a01b0319831681178455604051919092169283917f8be0079c531659141344cd1fd0a4f28419497f9722a3daafe3b4186f6b6457e09190a35050565b6001600160a01b038316610a78576000826001600160a01b03168260405160006040518083038185875af1925050503d8060008114610a27576040519150601f19603f3d011682016040523d82523d6000602084013e610a2c565b606091505b5050905080610a725760405162461bcd60e51b815260206004820152601260248201527114d95b991a5b99c8109510c819985a5b195960721b6044820152606401610144565b50505050565b604080516001600160a01b03848116602483015260448083018590528351808403909101815260649092019092526020810180516001600160e01b031663a9059cbb60e01b17905261066b9185169084908490849084906000610adb8383610b20565b90508051600014158015610b00575080806020019051810190610afe9190610d77565b155b1561066b5782604051635274afe760e01b81526004016101449190610cdb565b6060610b2e83836000610b37565b90505b92915050565b606081471015610b5c573060405163cd78605960e01b81526004016101449190610cdb565b600080856001600160a01b03168486604051610b789190610d99565b60006040518083038185875af1925050503d8060008114610bb5576040519150601f19603f3d011682016040523d82523d6000602084013e610bba565b606091505b5091509150610bca868383610bd6565b925050505b9392505050565b606082610beb57610be682610c29565b610bcf565b8151158015610c0257506001600160a01b0384163b155b15610c225783604051639996b31560e01b81526004016101449190610cdb565b5080610bcf565b805115610c395780518082602001fd5b604051630a12f52160e11b815260040160405180910390fd5b634e487b7160e01b600052601160045260246000fd5b80820180821115610b3157610b31610c52565b6001600160a01b038116811461083957600080fd5b600080600060608486031215610ca557600080fd5b8335610cb081610c7b565b92506020840135610cc081610c7b565b91506040840135610cd081610c7b565b809150509250925092565b6001600160a01b0391909116815260200190565b60008060408385031215610d0257600080fd5b50508035926020909101359150565b600060208284031215610d2357600080fd5b5035919050565b600060208284031215610d3c57600080fd5b8135610bcf81610c7b565b600060208284031215610d5957600080fd5b8151610bcf81610c7b565b81810381811115610b3157610b31610c52565b600060208284031215610d8957600080fd5b81518015158114610bcf57600080fd5b6000825160005b81811015610dba5760208186018101518583015201610da0565b50600092019182525091905056fea26469706673582212207782c84b3867383929642e120ffd0eb0f8e36560bd2c35c4bd229a43858325b764736f6c63430008180033",
  "devdoc": {
    "errors": {
      "AddressEmptyCode(address)": [
        {
          "details": "There's no code at `target` (it is not a contract)."
        }
      ],
      "AddressInsufficientBalance(address)": [
        {
          "details": "The ETH balance of the account is not enough to perform the operation."
        }
      ],
      "FailedInnerCall()": [
        {
          "details": "A call to an address target failed. The target may have reverted."
        }
      ],
      "OwnableInvalidOwner(address)": [
        {
          "details": "The owner is not a valid owner account. (eg. `address(0)`)"
        }
      ],
      "OwnableUnauthorizedAccount(address)": [
        {
          "details": "The caller account is not authorized to perform an operation."
        }
      ],
      "SafeERC20FailedOperation(address)": [
        {
          "details": "An operation with an ERC20 token failed."
        }
      ]
    },
    "kind": "dev",
    "methods": {
      "owner()": {
        "details": "Returns the address of the current owner."
      },
      "renounceOwnership()": {
        "details": "Leaves the contract without owner. It will not be possible to call `onlyOwner` functions. Can only be called by the current owner. NOTE: Renouncing ownership will leave the contract without an owner, thereby disabling any functionality that is only available to the owner."
      },
      "transferOwnership(address)": {
        "details": "Transfers ownership of the contract to a new account (`newOwner`). Can only be called by the current owner."
      }
    },
    "version": 1
  },
  "userdoc": {
    "kind": "user",
    "methods": {},
    "version": 1
  },
  "storageLayout": {
    "storage": [
      {
        "astId": 8,
        "contract": "contracts/DefaultPool.sol:DefaultPool",
        "label": "_owner",
        "offset": 0,
        "slot": "0",
        "type": "t_address"
      },
      {
        "astId": 7637,
        "contract": "contracts/DefaultPool.sol:DefaultPool",
        "label": "activePoolAddress",
        "offset": 0,
        "slot": "1",
        "type": "t_address"
      },
      {
        "astId": 7639,
        "contract": "contracts/DefaultPool.sol:DefaultPool",
        "label": "collateralAddress",
        "offset": 0,
        "slot": "2",
        "type": "t_address"
      },
      {
        "astId": 7641,
        "contract": "contracts/DefaultPool.sol:DefaultPool",
        "label": "troveManagerAddress",
        "offset": 0,
        "slot": "3",
        "type": "t_address"
      },
      {
        "astId": 7643,
        "contract": "contracts/DefaultPool.sol:DefaultPool",
        "label": "collateral",
        "offset": 0,
        "slot": "4",
        "type": "t_uint256"
      },
      {
        "astId": 7645,
        "contract": "contracts/DefaultPool.sol:DefaultPool",
        "label": "principal",
        "offset": 0,
        "slot": "5",
        "type": "t_uint256"
      },
      {
        "astId": 7647,
        "contract": "contracts/DefaultPool.sol:DefaultPool",
        "label": "interest",
        "offset": 0,
        "slot": "6",
        "type": "t_uint256"
      },
      {
        "astId": 7649,
        "contract": "contracts/DefaultPool.sol:DefaultPool",
        "label": "lastInterestUpdatedTime",
        "offset": 0,
        "slot": "7",
        "type": "t_uint256"
      }
    ],
    "types": {
      "t_address": {
        "encoding": "inplace",
        "label": "address",
        "numberOfBytes": "20"
      },
      "t_uint256": {
        "encoding": "inplace",
        "label": "uint256",
        "numberOfBytes": "32"
      }
    }
  }
}