{
  "address": "0x6B5E940705C918c8D44FF67bc0F98aa5Adb57516",
  "abi": [
    {
      "inputs": [],
      "stateMutability": "nonpayable",
      "type": "constructor"
    },
    {
      "inputs": [
        {
          "internalType": "address",
          "name": "owner",
          "type": "address"
        }
      ],
      "name": "OwnableInvalidOwner",
      "type": "error"
    },
    {
      "inputs": [
        {
          "internalType": "address",
          "name": "account",
          "type": "address"
        }
      ],
      "name": "OwnableUnauthorizedAccount",
      "type": "error"
    },
    {
      "anonymous": false,
      "inputs": [
        {
          "indexed": true,
          "internalType": "address",
          "name": "previousOwner",
          "type": "address"
        },
        {
          "indexed": true,
          "internalType": "address",
          "name": "newOwner",
          "type": "address"
        }
      ],
      "name": "OwnershipTransferred",
      "type": "event"
    },
    {
      "anonymous": false,
      "inputs": [
        {
          "indexed": false,
          "internalType": "address",
          "name": "_sortedTrovesAddress",
          "type": "address"
        }
      ],
      "name": "SortedTrovesAddressChanged",
      "type": "event"
    },
    {
      "anonymous": false,
      "inputs": [
        {
          "indexed": false,
          "internalType": "address",
          "name": "_troveManagerAddress",
          "type": "address"
        }
      ],
      "name": "TroveManagerAddressChanged",
      "type": "event"
    },
    {
      "inputs": [],
      "name": "BORROWING_FEE_FLOOR",
      "outputs": [
        {
          "internalType": "uint256",
          "name": "",
          "type": "uint256"
        }
      ],
      "stateMutability": "view",
      "type": "function"
    },
    {
      "inputs": [],
      "name": "CCR",
      "outputs": [
        {
          "internalType": "uint256",
          "name": "",
          "type": "uint256"
        }
      ],
      "stateMutability": "view",
      "type": "function"
    },
    {
      "inputs": [],
      "name": "DECIMAL_PRECISION",
      "outputs": [
        {
          "internalType": "uint256",
          "name": "",
          "type": "uint256"
        }
      ],
      "stateMutability": "view",
      "type": "function"
    },
    {
      "inputs": [],
      "name": "MCR",
      "outputs": [
        {
          "internalType": "uint256",
          "name": "",
          "type": "uint256"
        }
      ],
      "stateMutability": "view",
      "type": "function"
    },
    {
      "inputs": [],
      "name": "MIN_NET_DEBT",
      "outputs": [
        {
          "internalType": "uint256",
          "name": "",
          "type": "uint256"
        }
      ],
      "stateMutability": "view",
      "type": "function"
    },
    {
      "inputs": [],
      "name": "MUSD_GAS_COMPENSATION",
      "outputs": [
        {
          "internalType": "uint256",
          "name": "",
          "type": "uint256"
        }
      ],
      "stateMutability": "view",
      "type": "function"
    },
    {
      "inputs": [],
      "name": "NAME",
      "outputs": [
        {
          "internalType": "string",
          "name": "",
          "type": "string"
        }
      ],
      "stateMutability": "view",
      "type": "function"
    },
    {
      "inputs": [],
      "name": "PERCENT_DIVISOR",
      "outputs": [
        {
          "internalType": "uint256",
          "name": "",
          "type": "uint256"
        }
      ],
      "stateMutability": "view",
      "type": "function"
    },
    {
      "inputs": [],
      "name": "_100pct",
      "outputs": [
        {
          "internalType": "uint256",
          "name": "",
          "type": "uint256"
        }
      ],
      "stateMutability": "view",
      "type": "function"
    },
    {
      "inputs": [],
      "name": "activePool",
      "outputs": [
        {
          "internalType": "contract IActivePool",
          "name": "",
          "type": "address"
        }
      ],
      "stateMutability": "view",
      "type": "function"
    },
    {
      "inputs": [
        {
          "internalType": "uint256",
          "name": "_coll",
          "type": "uint256"
        },
        {
          "internalType": "uint256",
          "name": "_debt",
          "type": "uint256"
        },
        {
          "internalType": "uint256",
          "name": "_price",
          "type": "uint256"
        }
      ],
      "name": "computeCR",
      "outputs": [
        {
          "internalType": "uint256",
          "name": "",
          "type": "uint256"
        }
      ],
      "stateMutability": "pure",
      "type": "function"
    },
    {
      "inputs": [
        {
          "internalType": "uint256",
          "name": "_coll",
          "type": "uint256"
        },
        {
          "internalType": "uint256",
          "name": "_debt",
          "type": "uint256"
        }
      ],
      "name": "computeNominalCR",
      "outputs": [
        {
          "internalType": "uint256",
          "name": "",
          "type": "uint256"
        }
      ],
      "stateMutability": "pure",
      "type": "function"
    },
    {
      "inputs": [],
      "name": "defaultPool",
      "outputs": [
        {
          "internalType": "contract IDefaultPool",
          "name": "",
          "type": "address"
        }
      ],
      "stateMutability": "view",
      "type": "function"
    },
    {
      "inputs": [
        {
          "internalType": "uint256",
          "name": "_CR",
          "type": "uint256"
        },
        {
          "internalType": "uint256",
          "name": "_numTrials",
          "type": "uint256"
        },
        {
          "internalType": "uint256",
          "name": "_inputRandomSeed",
          "type": "uint256"
        }
      ],
      "name": "getApproxHint",
      "outputs": [
        {
          "internalType": "address",
          "name": "hintAddress",
          "type": "address"
        },
        {
          "internalType": "uint256",
          "name": "diff",
          "type": "uint256"
        },
        {
          "internalType": "uint256",
          "name": "latestRandomSeed",
          "type": "uint256"
        }
      ],
      "stateMutability": "view",
      "type": "function"
    },
    {
      "inputs": [],
      "name": "getEntireSystemColl",
      "outputs": [
        {
          "internalType": "uint256",
          "name": "entireSystemColl",
          "type": "uint256"
        }
      ],
      "stateMutability": "view",
      "type": "function"
    },
    {
      "inputs": [],
      "name": "getEntireSystemDebt",
      "outputs": [
        {
          "internalType": "uint256",
          "name": "entireSystemDebt",
          "type": "uint256"
        }
      ],
      "stateMutability": "view",
      "type": "function"
    },
    {
      "inputs": [
        {
          "internalType": "uint256",
          "name": "_amount",
          "type": "uint256"
        },
        {
          "internalType": "uint256",
          "name": "_price",
          "type": "uint256"
        },
        {
          "internalType": "uint256",
          "name": "_maxIterations",
          "type": "uint256"
        }
      ],
      "name": "getRedemptionHints",
      "outputs": [
        {
          "internalType": "address",
          "name": "firstRedemptionHint",
          "type": "address"
        },
        {
          "internalType": "uint256",
          "name": "partialRedemptionHintNICR",
          "type": "uint256"
        },
        {
          "internalType": "uint256",
          "name": "truncatedAmount",
          "type": "uint256"
        }
      ],
      "stateMutability": "view",
      "type": "function"
    },
    {
      "inputs": [],
      "name": "owner",
      "outputs": [
        {
          "internalType": "address",
          "name": "",
          "type": "address"
        }
      ],
      "stateMutability": "view",
      "type": "function"
    },
    {
      "inputs": [],
      "name": "priceFeed",
      "outputs": [
        {
          "internalType": "contract IPriceFeed",
          "name": "",
          "type": "address"
        }
      ],
      "stateMutability": "view",
      "type": "function"
    },
    {
      "inputs": [],
      "name": "renounceOwnership",
      "outputs": [],
      "stateMutability": "nonpayable",
      "type": "function"
    },
    {
      "inputs": [
        {
          "internalType": "address",
          "name": "_sortedTrovesAddress",
          "type": "address"
        },
        {
          "internalType": "address",
          "name": "_troveManagerAddress",
          "type": "address"
        }
      ],
      "name": "setAddresses",
      "outputs": [],
      "stateMutability": "nonpayable",
      "type": "function"
    },
    {
      "inputs": [],
      "name": "sortedTroves",
      "outputs": [
        {
          "internalType": "contract ISortedTroves",
          "name": "",
          "type": "address"
        }
      ],
      "stateMutability": "view",
      "type": "function"
    },
    {
      "inputs": [
        {
          "internalType": "address",
          "name": "newOwner",
          "type": "address"
        }
      ],
      "name": "transferOwnership",
      "outputs": [],
      "stateMutability": "nonpayable",
      "type": "function"
    },
    {
      "inputs": [],
      "name": "troveManager",
      "outputs": [
        {
          "internalType": "contract ITroveManager",
          "name": "",
          "type": "address"
        }
      ],
      "stateMutability": "view",
      "type": "function"
    }
  ],
  "transactionHash": "0xea8b52621fb47b5c608908aae0b5b087213c7efe9f6323f4619e0558600f9515",
  "args": [],
  "numDeployments": 1,
  "solcInputHash": "6fc273ee6319c06d6c37be33f008e4d1",
  "bytecode": "0x608060405234801561001057600080fd5b50338061003757604051631e4fbdf760e01b81526000600482015260240160405180910390fd5b61004081610046565b50610098565b600380546001600160a01b038381166001600160a01b0319831681179093556040519116919082907f8be0079c531659141344cd1fd0a4f28419497f9722a3daafe3b4186f6b6457e090600090a35050565b6112ba806100a76000396000f3fe608060405234801561001057600080fd5b50600436106101585760003560e01c80637af110ba116100c3578063a20baee61161007c578063a20baee61461021f578063a3f4df7e146102ba578063ae918754146102f1578063c394a7fa14610304578063f2fde38b14610317578063f92d34331461032a57600080fd5b80637af110ba146102585780637b41bdbe146102685780637f7dde4a1461027b578063887105d31461028e5780638da5cb5b1461029657806390107afe146102a757600080fd5b80635733d58f116101155780635733d58f14610206578063715018a61461021557806372fe25aa1461021f578063741bef1a1461022e578063794e572414610241578063795d26c31461025057600080fd5b806313144dba1461015d5780631bf435551461019a5780633cc74225146101b85780633d83908a146101d85780634870dd9a146101eb578063525acdbb146101f3575b600080fd5b61017061016b36600461104d565b610332565b604080516001600160a01b0390941684526020840192909252908201526060015b60405180910390f35b6101aa686194049f30f720000081565b604051908152602001610191565b6001546101cb906001600160a01b031681565b6040516101919190611079565b6005546101cb906001600160a01b031681565b6101aa60c881565b6101aa61020136600461104d565b610843565b6101aa6714d1120d7b16000081565b61021d61085a565b005b6101aa670de0b6b3a764000081565b6002546101cb906001600160a01b031681565b6101aa670f43fc2c04ee000081565b6101aa61086e565b6101aa680ad78ebc5ac620000081565b61017061027636600461104d565b61096a565b6000546101cb906001600160a01b031681565b6101aa610c56565b6003546001600160a01b03166101cb565b61021d6102b53660046110a2565b610d1b565b6102e46040518060400160405280600b81526020016a48696e7448656c7065727360a81b81525081565b60405161019191906110db565b6004546101cb906001600160a01b031681565b6101aa61031236600461112a565b610de0565b61021d61032536600461114c565b610df5565b6101aa610e3c565b6004805460408051634d62283160e01b81529051600093849384936001600160a01b0390911692899285928592634d622831928281019260209291908290030181865afa158015610387573d6000803e3d6000fd5b505050506040513d601f19601f820116820180604052508101906103ab9190611169565b90505b6001600160a01b038116158015906104405750600554604051630d293c7160e41b81526001600160a01b038381166004830152602482018b9052670f43fc2c04ee000092169063d293c71090604401602060405180830381865afa15801561041a573d6000803e3d6000fd5b505050506040513d601f19601f8201168201806040525081019061043e9190611186565b105b156104b957604051632dc9c0eb60e21b81526001600160a01b0384169063b72703ac90610471908490600401611079565b602060405180830381865afa15801561048e573d6000803e3d6000fd5b505050506040513d601f19601f820116820180604052508101906104b29190611169565b90506103ae565b809550866000036104ca5760001996505b6001600160a01b038116158015906104e25750600082115b80156104ee5750600087115b1561082b57866104fd816111b5565b60055460405163e18c513160e01b81529199506000925082916001600160a01b039091169063e18c513190610536908690600401611079565b6040805180830381865afa158015610552573d6000803e3d6000fd5b505050506040513d601f19601f8201168201806040525081019061057691906111cc565b60055460405163d66a255360e01b8152929450909250600091839185916105fb916001600160a01b03169063d66a2553906105b5908a90600401611079565b602060405180830381865afa1580156105d2573d6000803e3d6000fd5b505050506040513d601f19601f820116820180604052508101906105f69190611186565b610e5f565b61060591906111f0565b61060f91906111f0565b9050848111156107a857686194049f30f72000008111156107a057600061064886610643686194049f30f720000085611203565b610e74565b60055460405163df15cd0d60e01b81529192506000916001600160a01b039091169063df15cd0d9061067e908990600401611079565b602060405180830381865afa15801561069b573d6000803e3d6000fd5b505050506040513d601f19601f820116820180604052508101906106bf9190611186565b6005546040516309019aaf60e31b81526001600160a01b039091169063480cd578906106ef908a90600401611079565b602060405180830381865afa15801561070c573d6000803e3d6000fd5b505050506040513d601f19601f820116820180604052508101906107309190611186565b61073a91906111f0565b905060008d610751670de0b6b3a764000085611216565b61075b9190611243565b6107659083611203565b905060006107738486611203565b9050600061078082610e8a565b905061078c8382610e9f565b9c50610798858b611203565b995050505050505b50505061082b565b6107b28186611203565b9450604051632dc9c0eb60e21b81526001600160a01b0387169063b72703ac906107e0908790600401611079565b602060405180830381865afa1580156107fd573d6000803e3d6000fd5b505050506040513d601f19601f820116820180604052508101906108219190611169565b93505050506104ca565b610835828a611203565b935050505093509350939050565b6000610850848484610ed5565b90505b9392505050565b610862610f06565b61086c6000610f33565b565b60008054604080516314a6bf0f60e01b8152905183926001600160a01b0316916314a6bf0f9160048083019260209291908290030181865afa1580156108b8573d6000803e3d6000fd5b505050506040513d601f19601f820116820180604052508101906108dc9190611186565b90506000600160009054906101000a90046001600160a01b03166001600160a01b03166314a6bf0f6040518163ffffffff1660e01b8152600401602060405180830381865afa158015610933573d6000803e3d6000fd5b505050506040513d601f19601f820116820180604052508101906109579190611186565b905061096381836111f0565b9250505090565b600080600080600560009054906101000a90046001600160a01b03166001600160a01b03166349eefeee6040518163ffffffff1660e01b8152600401602060405180830381865afa1580156109c3573d6000803e3d6000fd5b505050506040513d601f19601f820116820180604052508101906109e79190611186565b905080600003610a01576000808693509350935050610c4d565b6004805460408051634d62283160e01b815290516001600160a01b0390921692634d6228319282820192602092908290030181865afa158015610a48573d6000803e3d6000fd5b505050506040513d601f19601f82011682018060405250810190610a6c9190611169565b60055460405163b0d8e18160e01b8152919550610ae99189916001600160a01b03169063b0d8e18190610aa3908990600401611079565b602060405180830381865afa158015610ac0573d6000803e3d6000fd5b505050506040513d601f19601f82011682018060405250810190610ae49190611186565b610f85565b925084915060015b86811015610c4a5760408051602081018590520160408051601f19818403018152919052805160209091012092506000610b2b8385611257565b600554604051633669c91160e21b8152600481018390529192506000916001600160a01b039091169063d9a7244490602401602060405180830381865afa158015610b7a573d6000803e3d6000fd5b505050506040513d601f19601f82011682018060405250810190610b9e9190611169565b60055460405163b0d8e18160e01b81529192506000916001600160a01b039091169063b0d8e18190610bd4908590600401611079565b602060405180830381865afa158015610bf1573d6000803e3d6000fd5b505050506040513d601f19601f82011682018060405250810190610c159190611186565b90506000610c23828d610f85565b905087811015610c34578097508298505b84610c3e8161126b565b95505050505050610af1565b50505b93509350939050565b6000805460408051631529a63960e01b8152905183926001600160a01b031691631529a6399160048083019260209291908290030181865afa158015610ca0573d6000803e3d6000fd5b505050506040513d601f19601f82011682018060405250810190610cc49190611186565b90506000600160009054906101000a90046001600160a01b03166001600160a01b0316631529a6396040518163ffffffff1660e01b8152600401602060405180830381865afa158015610933573d6000803e3d6000fd5b610d23610f06565b610d2c82610fa8565b610d3581610fa8565b600480546001600160a01b038085166001600160a01b03199283161790925560058054928416929091169190911790556040517f65f4cf077bc01e4742eb5ad98326f6e95b63548ea24b17f8d5e823111fe7880090610d95908490611079565b60405180910390a17f143219c9e69b09e07e095fcc889b43d8f46ca892bba65f08dc3a0050869a567881604051610dcc9190611079565b60405180910390a1610ddc61085a565b5050565b6000610dec8383610e9f565b90505b92915050565b610dfd610f06565b6001600160a01b038116610e30576000604051631e4fbdf760e01b8152600401610e279190611079565b60405180910390fd5b610e3981610f33565b50565b6103e8610e52670de0b6b3a76400006005611216565b610e5c9190611243565b81565b6000610def680ad78ebc5ac620000083611203565b6000818310610e835781610dec565b5090919050565b6000610def680ad78ebc5ac6200000836111f0565b60008115610ecc5781610ebb68056bc75e2d6310000085611216565b610ec59190611243565b9050610def565b50600019610def565b60008215610efd57600083610eea8487611216565b610ef49190611243565b91506108539050565b50600019610853565b6003546001600160a01b0316331461086c573360405163118cdaa760e01b8152600401610e279190611079565b600380546001600160a01b038381166001600160a01b0319831681179093556040519116919082907f8be0079c531659141344cd1fd0a4f28419497f9722a3daafe3b4186f6b6457e090600090a35050565b600081831015610f9e57610f998383611203565b610dec565b610dec8284611203565b6001600160a01b038116610ffe5760405162461bcd60e51b815260206004820152601e60248201527f4163636f756e742063616e6e6f74206265207a65726f206164647265737300006044820152606401610e27565b803b80610ddc5760405162461bcd60e51b815260206004820181905260248201527f4163636f756e7420636f64652073697a652063616e6e6f74206265207a65726f6044820152606401610e27565b60008060006060848603121561106257600080fd5b505081359360208301359350604090920135919050565b6001600160a01b0391909116815260200190565b6001600160a01b0381168114610e3957600080fd5b600080604083850312156110b557600080fd5b82356110c08161108d565b915060208301356110d08161108d565b809150509250929050565b60006020808352835180602085015260005b81811015611109578581018301518582016040015282016110ed565b506000604082860101526040601f19601f8301168501019250505092915050565b6000806040838503121561113d57600080fd5b50508035926020909101359150565b60006020828403121561115e57600080fd5b81356108538161108d565b60006020828403121561117b57600080fd5b81516108538161108d565b60006020828403121561119857600080fd5b5051919050565b634e487b7160e01b600052601160045260246000fd5b6000816111c4576111c461119f565b506000190190565b600080604083850312156111df57600080fd5b505080516020909101519092909150565b80820180821115610def57610def61119f565b81810381811115610def57610def61119f565b8082028115828204841417610def57610def61119f565b634e487b7160e01b600052601260045260246000fd5b6000826112525761125261122d565b500490565b6000826112665761126661122d565b500690565b60006001820161127d5761127d61119f565b506001019056fea2646970667358221220939710f2ad664028125b3855c4f50c7fbf0d8b5cc06fce334e30a18f4879617c64736f6c63430008180033",
  "devdoc": {
    "errors": {
      "OwnableInvalidOwner(address)": [
        {
          "details": "The owner is not a valid owner account. (eg. `address(0)`)"
        }
      ],
      "OwnableUnauthorizedAccount(address)": [
        {
          "details": "The caller account is not authorized to perform an operation."
        }
      ]
    },
    "kind": "dev",
    "methods": {
      "owner()": {
        "details": "Returns the address of the current owner."
      },
      "renounceOwnership()": {
        "details": "Leaves the contract without owner. It will not be possible to call `onlyOwner` functions. Can only be called by the current owner. NOTE: Renouncing ownership will leave the contract without an owner, thereby disabling any functionality that is only available to the owner."
      },
      "transferOwnership(address)": {
        "details": "Transfers ownership of the contract to a new account (`newOwner`). Can only be called by the current owner."
      }
    },
    "version": 1
  },
  "userdoc": {
    "kind": "user",
    "methods": {},
    "version": 1
  },
  "storageLayout": {
    "storage": [
      {
        "astId": 17350,
        "contract": "contracts/HintHelpers.sol:HintHelpers",
        "label": "activePool",
        "offset": 0,
        "slot": "0",
        "type": "t_contract(IActivePool)17915"
      },
      {
        "astId": 17353,
        "contract": "contracts/HintHelpers.sol:HintHelpers",
        "label": "defaultPool",
        "offset": 0,
        "slot": "1",
        "type": "t_contract(IDefaultPool)18238"
      },
      {
        "astId": 17357,
        "contract": "contracts/HintHelpers.sol:HintHelpers",
        "label": "priceFeed",
        "offset": 0,
        "slot": "2",
        "type": "t_contract(IPriceFeed)18655"
      },
      {
        "astId": 8,
        "contract": "contracts/HintHelpers.sol:HintHelpers",
        "label": "_owner",
        "offset": 0,
        "slot": "3",
        "type": "t_address"
      },
      {
        "astId": 8040,
        "contract": "contracts/HintHelpers.sol:HintHelpers",
        "label": "sortedTroves",
        "offset": 0,
        "slot": "4",
        "type": "t_contract(ISortedTroves)18787"
      },
      {
        "astId": 8043,
        "contract": "contracts/HintHelpers.sol:HintHelpers",
        "label": "troveManager",
        "offset": 0,
        "slot": "5",
        "type": "t_contract(ITroveManager)19451"
      }
    ],
    "types": {
      "t_address": {
        "encoding": "inplace",
        "label": "address",
        "numberOfBytes": "20"
      },
      "t_contract(IActivePool)17915": {
        "encoding": "inplace",
        "label": "contract IActivePool",
        "numberOfBytes": "20"
      },
      "t_contract(IDefaultPool)18238": {
        "encoding": "inplace",
        "label": "contract IDefaultPool",
        "numberOfBytes": "20"
      },
      "t_contract(IPriceFeed)18655": {
        "encoding": "inplace",
        "label": "contract IPriceFeed",
        "numberOfBytes": "20"
      },
      "t_contract(ISortedTroves)18787": {
        "encoding": "inplace",
        "label": "contract ISortedTroves",
        "numberOfBytes": "20"
      },
      "t_contract(ITroveManager)19451": {
        "encoding": "inplace",
        "label": "contract ITroveManager",
        "numberOfBytes": "20"
      }
    }
  }
}