{
  "address": "0xd2379576362532981C9BADe49d2ac9bD9ca5a080",
  "abi": [
    {
      "inputs": [],
      "stateMutability": "nonpayable",
      "type": "constructor"
    },
    {
      "inputs": [
        {
          "internalType": "address",
          "name": "owner",
          "type": "address"
        }
      ],
      "name": "OwnableInvalidOwner",
      "type": "error"
    },
    {
      "inputs": [
        {
          "internalType": "address",
          "name": "account",
          "type": "address"
        }
      ],
      "name": "OwnableUnauthorizedAccount",
      "type": "error"
    },
    {
      "anonymous": false,
      "inputs": [
        {
          "indexed": false,
          "internalType": "address",
          "name": "_activePoolAddress",
          "type": "address"
        }
      ],
      "name": "ActivePoolAddressChanged",
      "type": "event"
    },
    {
      "anonymous": false,
      "inputs": [
        {
          "indexed": false,
          "internalType": "address",
          "name": "_borrowerOperationsAddress",
          "type": "address"
        }
      ],
      "name": "BorrowerOperationsAddressChanged",
      "type": "event"
    },
    {
      "anonymous": false,
      "inputs": [
        {
          "indexed": false,
          "internalType": "uint16",
          "name": "proposedRate",
          "type": "uint16"
        },
        {
          "indexed": false,
          "internalType": "uint256",
          "name": "proposalTime",
          "type": "uint256"
        }
      ],
      "name": "InterestRateProposed",
      "type": "event"
    },
    {
      "anonymous": false,
      "inputs": [
        {
          "indexed": false,
          "internalType": "uint16",
          "name": "newInterestRate",
          "type": "uint16"
        }
      ],
      "name": "InterestRateUpdated",
      "type": "event"
    },
    {
      "anonymous": false,
      "inputs": [
        {
          "indexed": false,
          "internalType": "address",
          "name": "_musdTokenAddress",
          "type": "address"
        }
      ],
      "name": "MUSDTokenAddressChanged",
      "type": "event"
    },
    {
      "anonymous": false,
      "inputs": [
        {
          "indexed": false,
          "internalType": "uint16",
          "name": "newMaxInterestRate",
          "type": "uint16"
        }
      ],
      "name": "MaxInterestRateUpdated",
      "type": "event"
    },
    {
      "anonymous": false,
      "inputs": [
        {
          "indexed": true,
          "internalType": "address",
          "name": "previousOwner",
          "type": "address"
        },
        {
          "indexed": true,
          "internalType": "address",
          "name": "newOwner",
          "type": "address"
        }
      ],
      "name": "OwnershipTransferred",
      "type": "event"
    },
    {
      "anonymous": false,
      "inputs": [
        {
          "indexed": false,
          "internalType": "address",
          "name": "_pcvAddress",
          "type": "address"
        }
      ],
      "name": "PCVAddressChanged",
      "type": "event"
    },
    {
      "anonymous": false,
      "inputs": [
        {
          "indexed": false,
          "internalType": "address",
          "name": "_troveManagerAddress",
          "type": "address"
        }
      ],
      "name": "TroveManagerAddressChanged",
      "type": "event"
    },
    {
      "inputs": [],
      "name": "MIN_DELAY",
      "outputs": [
        {
          "internalType": "uint256",
          "name": "",
          "type": "uint256"
        }
      ],
      "stateMutability": "view",
      "type": "function"
    },
    {
      "inputs": [],
      "name": "SECONDS_IN_A_YEAR",
      "outputs": [
        {
          "internalType": "uint256",
          "name": "",
          "type": "uint256"
        }
      ],
      "stateMutability": "view",
      "type": "function"
    },
    {
      "inputs": [],
      "name": "activePool",
      "outputs": [
        {
          "internalType": "contract IActivePool",
          "name": "",
          "type": "address"
        }
      ],
      "stateMutability": "view",
      "type": "function"
    },
    {
      "inputs": [
        {
          "internalType": "uint16",
          "name": "_rate",
          "type": "uint16"
        },
        {
          "internalType": "uint256",
          "name": "_interest",
          "type": "uint256"
        }
      ],
      "name": "addInterestToRate",
      "outputs": [],
      "stateMutability": "nonpayable",
      "type": "function"
    },
    {
      "inputs": [
        {
          "internalType": "uint16",
          "name": "_rate",
          "type": "uint16"
        },
        {
          "internalType": "uint256",
          "name": "_principal",
          "type": "uint256"
        }
      ],
      "name": "addPrincipalToRate",
      "outputs": [],
      "stateMutability": "nonpayable",
      "type": "function"
    },
    {
      "inputs": [],
      "name": "approveInterestRate",
      "outputs": [],
      "stateMutability": "nonpayable",
      "type": "function"
    },
    {
      "inputs": [],
      "name": "borrowerOperationsAddress",
      "outputs": [
        {
          "internalType": "address",
          "name": "",
          "type": "address"
        }
      ],
      "stateMutability": "view",
      "type": "function"
    },
    {
      "inputs": [
        {
          "internalType": "uint256",
          "name": "_interestOwed",
          "type": "uint256"
        },
        {
          "internalType": "uint256",
          "name": "_payment",
          "type": "uint256"
        }
      ],
      "name": "calculateDebtAdjustment",
      "outputs": [
        {
          "internalType": "uint256",
          "name": "principalAdjustment",
          "type": "uint256"
        },
        {
          "internalType": "uint256",
          "name": "interestAdjustment",
          "type": "uint256"
        }
      ],
      "stateMutability": "pure",
      "type": "function"
    },
    {
      "inputs": [
        {
          "internalType": "uint256",
          "name": "_principal",
          "type": "uint256"
        },
        {
          "internalType": "uint16",
          "name": "_interestRate",
          "type": "uint16"
        },
        {
          "internalType": "uint256",
          "name": "startTime",
          "type": "uint256"
        },
        {
          "internalType": "uint256",
          "name": "endTime",
          "type": "uint256"
        }
      ],
      "name": "calculateInterestOwed",
      "outputs": [
        {
          "internalType": "uint256",
          "name": "",
          "type": "uint256"
        }
      ],
      "stateMutability": "pure",
      "type": "function"
    },
    {
      "inputs": [
        {
          "internalType": "uint16",
          "name": "_rate",
          "type": "uint16"
        }
      ],
      "name": "getInterestRateData",
      "outputs": [
        {
          "components": [
            {
              "internalType": "uint256",
              "name": "principal",
              "type": "uint256"
            },
            {
              "internalType": "uint256",
              "name": "interest",
              "type": "uint256"
            },
            {
              "internalType": "uint256",
              "name": "lastUpdatedTime",
              "type": "uint256"
            }
          ],
          "internalType": "struct IInterestRateManager.InterestRateInfo",
          "name": "",
          "type": "tuple"
        }
      ],
      "stateMutability": "view",
      "type": "function"
    },
    {
      "inputs": [],
      "name": "interestRate",
      "outputs": [
        {
          "internalType": "uint16",
          "name": "",
          "type": "uint16"
        }
      ],
      "stateMutability": "view",
      "type": "function"
    },
    {
      "inputs": [
        {
          "internalType": "uint16",
          "name": "",
          "type": "uint16"
        }
      ],
      "name": "interestRateData",
      "outputs": [
        {
          "internalType": "uint256",
          "name": "principal",
          "type": "uint256"
        },
        {
          "internalType": "uint256",
          "name": "interest",
          "type": "uint256"
        },
        {
          "internalType": "uint256",
          "name": "lastUpdatedTime",
          "type": "uint256"
        }
      ],
      "stateMutability": "view",
      "type": "function"
    },
    {
      "inputs": [],
      "name": "maxInterestRate",
      "outputs": [
        {
          "internalType": "uint16",
          "name": "",
          "type": "uint16"
        }
      ],
      "stateMutability": "view",
      "type": "function"
    },
    {
      "inputs": [],
      "name": "musdToken",
      "outputs": [
        {
          "internalType": "contract IMUSD",
          "name": "",
          "type": "address"
        }
      ],
      "stateMutability": "view",
      "type": "function"
    },
    {
      "inputs": [],
      "name": "owner",
      "outputs": [
        {
          "internalType": "address",
          "name": "",
          "type": "address"
        }
      ],
      "stateMutability": "view",
      "type": "function"
    },
    {
      "inputs": [],
      "name": "proposalTime",
      "outputs": [
        {
          "internalType": "uint256",
          "name": "",
          "type": "uint256"
        }
      ],
      "stateMutability": "view",
      "type": "function"
    },
    {
      "inputs": [
        {
          "internalType": "uint16",
          "name": "_newProposedInterestRate",
          "type": "uint16"
        }
      ],
      "name": "proposeInterestRate",
      "outputs": [],
      "stateMutability": "nonpayable",
      "type": "function"
    },
    {
      "inputs": [],
      "name": "proposedInterestRate",
      "outputs": [
        {
          "internalType": "uint16",
          "name": "",
          "type": "uint16"
        }
      ],
      "stateMutability": "view",
      "type": "function"
    },
    {
      "inputs": [
        {
          "internalType": "uint16",
          "name": "_rate",
          "type": "uint16"
        },
        {
          "internalType": "uint256",
          "name": "_interest",
          "type": "uint256"
        }
      ],
      "name": "removeInterestFromRate",
      "outputs": [],
      "stateMutability": "nonpayable",
      "type": "function"
    },
    {
      "inputs": [
        {
          "internalType": "uint16",
          "name": "_rate",
          "type": "uint16"
        },
        {
          "internalType": "uint256",
          "name": "_principal",
          "type": "uint256"
        }
      ],
      "name": "removePrincipalFromRate",
      "outputs": [],
      "stateMutability": "nonpayable",
      "type": "function"
    },
    {
      "inputs": [],
      "name": "renounceOwnership",
      "outputs": [],
      "stateMutability": "nonpayable",
      "type": "function"
    },
    {
      "inputs": [
        {
          "internalType": "address",
          "name": "_activePoolAddress",
          "type": "address"
        },
        {
          "internalType": "address",
          "name": "_borrowerOperationsAddress",
          "type": "address"
        },
        {
          "internalType": "address",
          "name": "_musdTokenAddress",
          "type": "address"
        },
        {
          "internalType": "address",
          "name": "_pcvAddress",
          "type": "address"
        },
        {
          "internalType": "address",
          "name": "_troveManagerAddress",
          "type": "address"
        }
      ],
      "name": "setAddresses",
      "outputs": [],
      "stateMutability": "nonpayable",
      "type": "function"
    },
    {
      "inputs": [
        {
          "internalType": "uint16",
          "name": "_newMaxInterestRate",
          "type": "uint16"
        }
      ],
      "name": "setMaxInterestRate",
      "outputs": [],
      "stateMutability": "nonpayable",
      "type": "function"
    },
    {
      "inputs": [
        {
          "internalType": "address",
          "name": "newOwner",
          "type": "address"
        }
      ],
      "name": "transferOwnership",
      "outputs": [],
      "stateMutability": "nonpayable",
      "type": "function"
    },
    {
      "inputs": [
        {
          "internalType": "uint16",
          "name": "_rate",
          "type": "uint16"
        }
      ],
      "name": "updateSystemInterest",
      "outputs": [],
      "stateMutability": "nonpayable",
      "type": "function"
    },
    {
      "inputs": [
        {
          "internalType": "uint256",
          "name": "_interestOwed",
          "type": "uint256"
        },
        {
          "internalType": "uint256",
          "name": "_payment",
          "type": "uint256"
        },
        {
          "internalType": "uint16",
          "name": "_rate",
          "type": "uint16"
        }
      ],
      "name": "updateTroveDebt",
      "outputs": [
        {
          "internalType": "uint256",
          "name": "principalAdjustment",
          "type": "uint256"
        },
        {
          "internalType": "uint256",
          "name": "interestAdjustment",
          "type": "uint256"
        }
      ],
      "stateMutability": "nonpayable",
      "type": "function"
    }
  ],
  "transactionHash": "0x828a389b2378b6b8b6718d231e670b7801b6d1a50f4f3905a114aea718aeff3f",
  "args": [],
  "numDeployments": 1,
  "solcInputHash": "4bf27f276f32f200c02c307a6797ac39",
  "bytecode": "0x60806040526000805461ffff60b01b191661027160b41b17905534801561002557600080fd5b50338061004c57604051631e4fbdf760e01b81526000600482015260240160405180910390fd5b6100558161005b565b506100ab565b600080546001600160a01b038381166001600160a01b0319831681178455604051919092169283917f8be0079c531659141344cd1fd0a4f28419497f9722a3daafe3b4186f6b6457e09190a35050565b61131c806100ba6000396000f3fe608060405234801561001057600080fd5b506004361061016e5760003560e01c80638da5cb5b116100ce578063b6bcf83211610087578063b6bcf83214610359578063b7f8cf9b1461036c578063b860c72e1461037f578063c33d2e0e14610392578063c4fa17a4146103a5578063f2fde38b146103b0578063fd50a567146103c357600080fd5b80638da5cb5b146102f05780638f327b64146103015780639d78d46b146103145780639f81aed714610327578063a9583d5f14610331578063ac3058ad1461034657600080fd5b80635dd68acd1161012b5780635dd68acd14610230578063622a025e146102435780636a76fab11461026b578063715018a6146102a057806379b381e3146102a85780637c3a00fd146102bb5780637f7dde4a146102d057600080fd5b806307ffbc2814610173578063098fa953146101c157806317b876b6146101d6578063184a0ae9146101de57806321ddc20f146101f557806327678dbd1461021d575b600080fd5b6101a1610181366004610f93565b600260208190526000918252604090912080546001820154919092015483565b604080519384526020840192909252908201526060015b60405180910390f35b6101d46101cf366004610f93565b6103d6565b005b6101d4610522565b6101e760015481565b6040519081526020016101b8565b610208610203366004610fb5565b61063b565b604080519283526020830191909152016101b8565b61020861022b366004610fd7565b610667565b6101d461023e366004611021565b61072a565b60005461025890600160c01b900461ffff1681565b60405161ffff90911681526020016101b8565b61027e610279366004610f93565b6108a1565b60408051825181526020808401519082015291810151908201526060016101b8565b6101d4610902565b6101d46102b6366004611092565b610914565b60005461025890600160a01b900461ffff1681565b6003546102e3906001600160a01b031681565b6040516101b891906110bc565b6000546001600160a01b03166102e3565b6101d461030f366004611092565b61097f565b6005546102e3906001600160a01b031681565b6101e762093a8081565b60005461025890600160b01b900461ffff1681565b6101e76103543660046110d0565b6109e4565b6101d4610367366004611092565b610a30565b6004546102e3906001600160a01b031681565b6101d461038d366004611092565b610a95565b6101d46103a0366004610f93565b610af7565b6101e76301e1338081565b6101d46103be36600461110b565b610bee565b6101d46103d1366004610f93565b610c2c565b600660009054906101000a90046001600160a01b03166001600160a01b031663e2c6d41c6040518163ffffffff1660e01b8152600401602060405180830381865afa158015610429573d6000803e3d6000fd5b505050506040513d601f19601f8201168201806040525081019061044d9190611128565b6001600160a01b0316336001600160a01b0316146104865760405162461bcd60e51b815260040161047d90611145565b60405180910390fd5b60005461ffff600160b01b909104811690821611156104b75760405162461bcd60e51b815260040161047d906111a2565b6000805461ffff60c01b1916600160c01b61ffff848116820292909217928390554260018190556040805192909404909216815260208101919091527fb5899909635a437ce5e643fa44abf2d280edad124fe94ea0efdaa7215e508d4091015b60405180910390a150565b600660009054906101000a90046001600160a01b03166001600160a01b031663e2c6d41c6040518163ffffffff1660e01b8152600401602060405180830381865afa158015610575573d6000803e3d6000fd5b505050506040513d601f19601f820116820180604052508101906105999190611128565b6001600160a01b0316336001600160a01b0316146105c95760405162461bcd60e51b815260040161047d90611145565b62093a806001546105da9190611207565b4210156106225760405162461bcd60e51b8152602060048201526016602482015275141c9bdc1bdcd85b0819195b185e481b9bdd081b595d60521b604482015260640161047d565b60005461063990600160c01b900461ffff16610d6c565b565b6000808383106106595761064f8484611220565b9150839050610660565b5060009050815b9250929050565b60075460009081906001600160a01b031633146106ec5760405162461bcd60e51b815260206004820152603e60248201527f496e746572657374526174654d616e616765723a204f6e6c792054726f76654d60448201527f616e61676572206d61792063616c6c20746869732066756e6374696f6e2e0000606482015260840161047d565b848410610707576106fd8585611220565b915084905061070e565b5060009050825b610718838261097f565b6107228383610a95565b935093915050565b610732610e56565b61073b85610e83565b61074484610e83565b61074d83610e83565b61075682610e83565b61075f81610e83565b600380546001600160a01b03199081166001600160a01b0388811691909117909255600480548216878416179055600580548216868416179055600680548216858416179055600780549091169183169190911790556040517f78f058b189175430c48dc02699e3a0031ea4ff781536dc2fab847de4babdd882906107e59087906110bc565b60405180910390a17f547e9055f019d1e165f0ca2133494723cb248f8536192c218254285fc43c56688360405161081c91906110bc565b60405180910390a17f38335c64466e2376ab931166337e19127650d842036ebe01da1ba3e5c1255ebb8260405161085391906110bc565b60405180910390a17f143219c9e69b09e07e095fcc889b43d8f46ca892bba65f08dc3a0050869a56788160405161088a91906110bc565b60405180910390a161089a610902565b5050505050565b6108c560405180606001604052806000815260200160008152602001600081525090565b5061ffff16600090815260026020818152604092839020835160608101855281548152600182015492810192909252909101549181019190915290565b61090a610e56565b6106396000610f2c565b6004546001600160a01b031633148061093757506007546001600160a01b031633145b6109535760405162461bcd60e51b815260040161047d90611233565b61ffff821660009081526002602052604081208054839290610976908490611207565b90915550505050565b6004546001600160a01b03163314806109a257506007546001600160a01b031633145b6109be5760405162461bcd60e51b815260040161047d90611233565b61ffff821660009081526002602052604081206001018054839290610976908490611220565b6000806109f18484611220565b9050610a036301e133806127106112ad565b81610a1261ffff8816896112ad565b610a1c91906112ad565b610a2691906112c4565b9695505050505050565b6004546001600160a01b0316331480610a5357506007546001600160a01b031633145b610a6f5760405162461bcd60e51b815260040161047d90611233565b61ffff821660009081526002602052604081206001018054839290610976908490611207565b6004546001600160a01b0316331480610ab857506007546001600160a01b031633145b610ad45760405162461bcd60e51b815260040161047d90611233565b61ffff821660009081526002602052604081208054839290610976908490611220565b600660009054906101000a90046001600160a01b03166001600160a01b031663e2c6d41c6040518163ffffffff1660e01b8152600401602060405180830381865afa158015610b4a573d6000803e3d6000fd5b505050506040513d601f19601f82011682018060405250810190610b6e9190611128565b6001600160a01b0316336001600160a01b031614610b9e5760405162461bcd60e51b815260040161047d90611145565b6000805461ffff60b01b1916600160b01b61ffff8416908102919091179091556040519081527f9c6c87eb08c6c1c6710af6dad96d5284ba6431cef3720984aa4f0db01c48840f90602001610517565b610bf6610e56565b6001600160a01b038116610c20576000604051631e4fbdf760e01b815260040161047d91906110bc565b610c2981610f2c565b50565b61ffff8116600090815260026020818152604080842081516060810183528154808252600183015494820194909452930154908301819052919291610c7491908590426109e4565b9050610c808382610a30565b61ffff83166000908152600260208190526040918290204291015560055460065491516340c10f1960e01b81526001600160a01b039283166004820152602481018490529116906340c10f1990604401600060405180830381600087803b158015610cea57600080fd5b505af1158015610cfe573d6000803e3d6000fd5b50506003546040516354c4666160e01b815260006004820152602481018590526001600160a01b0390911692506354c466619150604401600060405180830381600087803b158015610d4f57600080fd5b505af1158015610d63573d6000803e3d6000fd5b50505050505050565b60005461ffff600160b01b90910481169082161115610d9d5760405162461bcd60e51b815260040161047d906111a2565b600760009054906101000a90046001600160a01b03166001600160a01b031663dbcf424d6040518163ffffffff1660e01b8152600401600060405180830381600087803b158015610ded57600080fd5b505af1158015610e01573d6000803e3d6000fd5b50506000805461ffff60a01b1916600160a01b61ffff8616908102919091179091556040519081527faaa738a214df2796d5af96c7267388d89ab5d3dfce1793271f7e244740be2f4392506020019050610517565b6000546001600160a01b03163314610639573360405163118cdaa760e01b815260040161047d91906110bc565b6001600160a01b038116610ed95760405162461bcd60e51b815260206004820152601e60248201527f4163636f756e742063616e6e6f74206265207a65726f20616464726573730000604482015260640161047d565b803b80610f285760405162461bcd60e51b815260206004820181905260248201527f4163636f756e7420636f64652073697a652063616e6e6f74206265207a65726f604482015260640161047d565b5050565b600080546001600160a01b038381166001600160a01b0319831681178455604051919092169283917f8be0079c531659141344cd1fd0a4f28419497f9722a3daafe3b4186f6b6457e09190a35050565b803561ffff81168114610f8e57600080fd5b919050565b600060208284031215610fa557600080fd5b610fae82610f7c565b9392505050565b60008060408385031215610fc857600080fd5b50508035926020909101359150565b600080600060608486031215610fec57600080fd5b833592506020840135915061100360408501610f7c565b90509250925092565b6001600160a01b0381168114610c2957600080fd5b600080600080600060a0868803121561103957600080fd5b85356110448161100c565b945060208601356110548161100c565b935060408601356110648161100c565b925060608601356110748161100c565b915060808601356110848161100c565b809150509295509295909350565b600080604083850312156110a557600080fd5b6110ae83610f7c565b946020939093013593505050565b6001600160a01b0391909116815260200190565b600080600080608085870312156110e657600080fd5b843593506110f660208601610f7c565b93969395505050506040820135916060013590565b60006020828403121561111d57600080fd5b8135610fae8161100c565b60006020828403121561113a57600080fd5b8151610fae8161100c565b6020808252603b908201527f496e746572657374526174654d616e616765723a204f6e6c7920676f7665726e60408201527f616e63652063616e2063616c6c20746869732066756e6374696f6e0000000000606082015260800190565b6020808252602f908201527f496e7465726573742072617465206578636565647320746865206d6178696d7560408201526e6d20696e746572657374207261746560881b606082015260800190565b634e487b7160e01b600052601160045260246000fd5b8082018082111561121a5761121a6111f1565b92915050565b8181038181111561121a5761121a6111f1565b60208082526054908201527f496e746572657374526174654d616e616765723a204f6e6c7920426f72726f7760408201527f65724f7065726174696f6e73206f722054726f76654d616e61676572206d61796060820152731031b0b636103a3434b990333ab731ba34b7b71760611b608082015260a00190565b808202811582820484141761121a5761121a6111f1565b6000826112e157634e487b7160e01b600052601260045260246000fd5b50049056fea2646970667358221220d0327359d40a950e5408409d59547a7b3bbf3d74ecce87c2643adeb1e6a3b1e264736f6c63430008180033",
  "devdoc": {
    "errors": {
      "OwnableInvalidOwner(address)": [
        {
          "details": "The owner is not a valid owner account. (eg. `address(0)`)"
        }
      ],
      "OwnableUnauthorizedAccount(address)": [
        {
          "details": "The caller account is not authorized to perform an operation."
        }
      ]
    },
    "kind": "dev",
    "methods": {
      "owner()": {
        "details": "Returns the address of the current owner."
      },
      "renounceOwnership()": {
        "details": "Leaves the contract without owner. It will not be possible to call `onlyOwner` functions. Can only be called by the current owner. NOTE: Renouncing ownership will leave the contract without an owner, thereby disabling any functionality that is only available to the owner."
      },
      "transferOwnership(address)": {
        "details": "Transfers ownership of the contract to a new account (`newOwner`). Can only be called by the current owner."
      }
    },
    "version": 1
  },
  "userdoc": {
    "kind": "user",
    "methods": {},
    "version": 1
  },
  "storageLayout": {
    "storage": [
      {
        "astId": 8,
        "contract": "contracts/InterestRateManager.sol:InterestRateManager",
        "label": "_owner",
        "offset": 0,
        "slot": "0",
        "type": "t_address"
      },
      {
        "astId": 8478,
        "contract": "contracts/InterestRateManager.sol:InterestRateManager",
        "label": "interestRate",
        "offset": 20,
        "slot": "0",
        "type": "t_uint16"
      },
      {
        "astId": 8481,
        "contract": "contracts/InterestRateManager.sol:InterestRateManager",
        "label": "maxInterestRate",
        "offset": 22,
        "slot": "0",
        "type": "t_uint16"
      },
      {
        "astId": 8483,
        "contract": "contracts/InterestRateManager.sol:InterestRateManager",
        "label": "proposedInterestRate",
        "offset": 24,
        "slot": "0",
        "type": "t_uint16"
      },
      {
        "astId": 8485,
        "contract": "contracts/InterestRateManager.sol:InterestRateManager",
        "label": "proposalTime",
        "offset": 0,
        "slot": "1",
        "type": "t_uint256"
      },
      {
        "astId": 8502,
        "contract": "contracts/InterestRateManager.sol:InterestRateManager",
        "label": "interestRateData",
        "offset": 0,
        "slot": "2",
        "type": "t_mapping(t_uint16,t_struct(InterestRateInfo)28246_storage)"
      },
      {
        "astId": 8505,
        "contract": "contracts/InterestRateManager.sol:InterestRateManager",
        "label": "activePool",
        "offset": 0,
        "slot": "3",
        "type": "t_contract(IActivePool)27880"
      },
      {
        "astId": 8507,
        "contract": "contracts/InterestRateManager.sol:InterestRateManager",
        "label": "borrowerOperationsAddress",
        "offset": 0,
        "slot": "4",
        "type": "t_address"
      },
      {
        "astId": 8510,
        "contract": "contracts/InterestRateManager.sol:InterestRateManager",
        "label": "musdToken",
        "offset": 0,
        "slot": "5",
        "type": "t_contract(IMUSD)29929"
      },
      {
        "astId": 8513,
        "contract": "contracts/InterestRateManager.sol:InterestRateManager",
        "label": "pcv",
        "offset": 0,
        "slot": "6",
        "type": "t_contract(IPCV)28556"
      },
      {
        "astId": 8516,
        "contract": "contracts/InterestRateManager.sol:InterestRateManager",
        "label": "troveManager",
        "offset": 0,
        "slot": "7",
        "type": "t_contract(ITroveManager)29448"
      }
    ],
    "types": {
      "t_address": {
        "encoding": "inplace",
        "label": "address",
        "numberOfBytes": "20"
      },
      "t_contract(IActivePool)27880": {
        "encoding": "inplace",
        "label": "contract IActivePool",
        "numberOfBytes": "20"
      },
      "t_contract(IMUSD)29929": {
        "encoding": "inplace",
        "label": "contract IMUSD",
        "numberOfBytes": "20"
      },
      "t_contract(IPCV)28556": {
        "encoding": "inplace",
        "label": "contract IPCV",
        "numberOfBytes": "20"
      },
      "t_contract(ITroveManager)29448": {
        "encoding": "inplace",
        "label": "contract ITroveManager",
        "numberOfBytes": "20"
      },
      "t_mapping(t_uint16,t_struct(InterestRateInfo)28246_storage)": {
        "encoding": "mapping",
        "key": "t_uint16",
        "label": "mapping(uint16 => struct IInterestRateManager.InterestRateInfo)",
        "numberOfBytes": "32",
        "value": "t_struct(InterestRateInfo)28246_storage"
      },
      "t_struct(InterestRateInfo)28246_storage": {
        "encoding": "inplace",
        "label": "struct IInterestRateManager.InterestRateInfo",
        "members": [
          {
            "astId": 28241,
            "contract": "contracts/InterestRateManager.sol:InterestRateManager",
            "label": "principal",
            "offset": 0,
            "slot": "0",
            "type": "t_uint256"
          },
          {
            "astId": 28243,
            "contract": "contracts/InterestRateManager.sol:InterestRateManager",
            "label": "interest",
            "offset": 0,
            "slot": "1",
            "type": "t_uint256"
          },
          {
            "astId": 28245,
            "contract": "contracts/InterestRateManager.sol:InterestRateManager",
            "label": "lastUpdatedTime",
            "offset": 0,
            "slot": "2",
            "type": "t_uint256"
          }
        ],
        "numberOfBytes": "96"
      },
      "t_uint16": {
        "encoding": "inplace",
        "label": "uint16",
        "numberOfBytes": "2"
      },
      "t_uint256": {
        "encoding": "inplace",
        "label": "uint256",
        "numberOfBytes": "32"
      }
    }
  }
}