{
  "address": "0x1F92d59f06E67303c4e598cE24ED748a434d9c78",
  "abi": [
    {
      "inputs": [],
      "stateMutability": "nonpayable",
      "type": "constructor"
    },
    {
      "inputs": [
        {
          "internalType": "address",
          "name": "owner",
          "type": "address"
        }
      ],
      "name": "OwnableInvalidOwner",
      "type": "error"
    },
    {
      "inputs": [
        {
          "internalType": "address",
          "name": "account",
          "type": "address"
        }
      ],
      "name": "OwnableUnauthorizedAccount",
      "type": "error"
    },
    {
      "anonymous": false,
      "inputs": [
        {
          "indexed": false,
          "internalType": "uint16",
          "name": "proposedRate",
          "type": "uint16"
        },
        {
          "indexed": false,
          "internalType": "uint256",
          "name": "proposalTime",
          "type": "uint256"
        }
      ],
      "name": "InterestRateProposed",
      "type": "event"
    },
    {
      "anonymous": false,
      "inputs": [
        {
          "indexed": false,
          "internalType": "uint16",
          "name": "newInterestRate",
          "type": "uint16"
        }
      ],
      "name": "InterestRateUpdated",
      "type": "event"
    },
    {
      "anonymous": false,
      "inputs": [
        {
          "indexed": false,
          "internalType": "uint16",
          "name": "newMaxInterestRate",
          "type": "uint16"
        }
      ],
      "name": "MaxInterestRateUpdated",
      "type": "event"
    },
    {
      "anonymous": false,
      "inputs": [
        {
          "indexed": true,
          "internalType": "address",
          "name": "previousOwner",
          "type": "address"
        },
        {
          "indexed": true,
          "internalType": "address",
          "name": "newOwner",
          "type": "address"
        }
      ],
      "name": "OwnershipTransferred",
      "type": "event"
    },
    {
      "anonymous": false,
      "inputs": [
        {
          "indexed": false,
          "internalType": "address",
          "name": "_pcvAddress",
          "type": "address"
        }
      ],
      "name": "PCVAddressChanged",
      "type": "event"
    },
    {
      "anonymous": false,
      "inputs": [
        {
          "indexed": false,
          "internalType": "address",
          "name": "_troveManagerAddress",
          "type": "address"
        }
      ],
      "name": "TroveManagerAddressChanged",
      "type": "event"
    },
    {
      "inputs": [],
      "name": "MIN_DELAY",
      "outputs": [
        {
          "internalType": "uint256",
          "name": "",
          "type": "uint256"
        }
      ],
      "stateMutability": "view",
      "type": "function"
    },
    {
      "inputs": [],
      "name": "SECONDS_IN_A_YEAR",
      "outputs": [
        {
          "internalType": "uint256",
          "name": "",
          "type": "uint256"
        }
      ],
      "stateMutability": "view",
      "type": "function"
    },
    {
      "inputs": [
        {
          "internalType": "uint16",
          "name": "_rate",
          "type": "uint16"
        },
        {
          "internalType": "uint256",
          "name": "_interest",
          "type": "uint256"
        }
      ],
      "name": "addInterestToRate",
      "outputs": [],
      "stateMutability": "nonpayable",
      "type": "function"
    },
    {
      "inputs": [
        {
          "internalType": "uint16",
          "name": "_rate",
          "type": "uint16"
        },
        {
          "internalType": "uint256",
          "name": "_principal",
          "type": "uint256"
        }
      ],
      "name": "addPrincipalToRate",
      "outputs": [],
      "stateMutability": "nonpayable",
      "type": "function"
    },
    {
      "inputs": [],
      "name": "approveInterestRate",
      "outputs": [],
      "stateMutability": "nonpayable",
      "type": "function"
    },
    {
      "inputs": [
        {
          "internalType": "uint256",
          "name": "_interestOwed",
          "type": "uint256"
        },
        {
          "internalType": "uint256",
          "name": "_payment",
          "type": "uint256"
        }
      ],
      "name": "calculateDebtAdjustment",
      "outputs": [
        {
          "internalType": "uint256",
          "name": "principalAdjustment",
          "type": "uint256"
        },
        {
          "internalType": "uint256",
          "name": "interestAdjustment",
          "type": "uint256"
        }
      ],
      "stateMutability": "pure",
      "type": "function"
    },
    {
      "inputs": [
        {
          "internalType": "uint256",
          "name": "_principal",
          "type": "uint256"
        },
        {
          "internalType": "uint16",
          "name": "_interestRate",
          "type": "uint16"
        },
        {
          "internalType": "uint256",
          "name": "startTime",
          "type": "uint256"
        },
        {
          "internalType": "uint256",
          "name": "endTime",
          "type": "uint256"
        }
      ],
      "name": "calculateInterestOwed",
      "outputs": [
        {
          "internalType": "uint256",
          "name": "",
          "type": "uint256"
        }
      ],
      "stateMutability": "pure",
      "type": "function"
    },
    {
      "inputs": [
        {
          "internalType": "uint16",
          "name": "_rate",
          "type": "uint16"
        }
      ],
      "name": "getInterestRateData",
      "outputs": [
        {
          "components": [
            {
              "internalType": "uint256",
              "name": "principal",
              "type": "uint256"
            },
            {
              "internalType": "uint256",
              "name": "interest",
              "type": "uint256"
            },
            {
              "internalType": "uint256",
              "name": "lastUpdatedTime",
              "type": "uint256"
            }
          ],
          "internalType": "struct IInterestRateManager.InterestRateInfo",
          "name": "",
          "type": "tuple"
        }
      ],
      "stateMutability": "view",
      "type": "function"
    },
    {
      "inputs": [],
      "name": "interestRate",
      "outputs": [
        {
          "internalType": "uint16",
          "name": "",
          "type": "uint16"
        }
      ],
      "stateMutability": "view",
      "type": "function"
    },
    {
      "inputs": [
        {
          "internalType": "uint16",
          "name": "",
          "type": "uint16"
        }
      ],
      "name": "interestRateData",
      "outputs": [
        {
          "internalType": "uint256",
          "name": "principal",
          "type": "uint256"
        },
        {
          "internalType": "uint256",
          "name": "interest",
          "type": "uint256"
        },
        {
          "internalType": "uint256",
          "name": "lastUpdatedTime",
          "type": "uint256"
        }
      ],
      "stateMutability": "view",
      "type": "function"
    },
    {
      "inputs": [],
      "name": "maxInterestRate",
      "outputs": [
        {
          "internalType": "uint16",
          "name": "",
          "type": "uint16"
        }
      ],
      "stateMutability": "view",
      "type": "function"
    },
    {
      "inputs": [],
      "name": "owner",
      "outputs": [
        {
          "internalType": "address",
          "name": "",
          "type": "address"
        }
      ],
      "stateMutability": "view",
      "type": "function"
    },
    {
      "inputs": [],
      "name": "proposalTime",
      "outputs": [
        {
          "internalType": "uint256",
          "name": "",
          "type": "uint256"
        }
      ],
      "stateMutability": "view",
      "type": "function"
    },
    {
      "inputs": [
        {
          "internalType": "uint16",
          "name": "_newProposedInterestRate",
          "type": "uint16"
        }
      ],
      "name": "proposeInterestRate",
      "outputs": [],
      "stateMutability": "nonpayable",
      "type": "function"
    },
    {
      "inputs": [],
      "name": "proposedInterestRate",
      "outputs": [
        {
          "internalType": "uint16",
          "name": "",
          "type": "uint16"
        }
      ],
      "stateMutability": "view",
      "type": "function"
    },
    {
      "inputs": [
        {
          "internalType": "uint16",
          "name": "_rate",
          "type": "uint16"
        },
        {
          "internalType": "uint256",
          "name": "_interest",
          "type": "uint256"
        }
      ],
      "name": "removeInterestFromRate",
      "outputs": [],
      "stateMutability": "nonpayable",
      "type": "function"
    },
    {
      "inputs": [
        {
          "internalType": "uint16",
          "name": "_rate",
          "type": "uint16"
        },
        {
          "internalType": "uint256",
          "name": "_principal",
          "type": "uint256"
        }
      ],
      "name": "removePrincipalFromRate",
      "outputs": [],
      "stateMutability": "nonpayable",
      "type": "function"
    },
    {
      "inputs": [],
      "name": "renounceOwnership",
      "outputs": [],
      "stateMutability": "nonpayable",
      "type": "function"
    },
    {
      "inputs": [
        {
          "internalType": "address",
          "name": "_pcvAddress",
          "type": "address"
        },
        {
          "internalType": "address",
          "name": "_troveManagerAddress",
          "type": "address"
        }
      ],
      "name": "setAddresses",
      "outputs": [],
      "stateMutability": "nonpayable",
      "type": "function"
    },
    {
      "inputs": [
        {
          "internalType": "uint16",
          "name": "_rate",
          "type": "uint16"
        },
        {
          "internalType": "uint256",
          "name": "_time",
          "type": "uint256"
        }
      ],
      "name": "setLastUpdatedTime",
      "outputs": [],
      "stateMutability": "nonpayable",
      "type": "function"
    },
    {
      "inputs": [
        {
          "internalType": "uint16",
          "name": "_newMaxInterestRate",
          "type": "uint16"
        }
      ],
      "name": "setMaxInterestRate",
      "outputs": [],
      "stateMutability": "nonpayable",
      "type": "function"
    },
    {
      "inputs": [
        {
          "internalType": "address",
          "name": "newOwner",
          "type": "address"
        }
      ],
      "name": "transferOwnership",
      "outputs": [],
      "stateMutability": "nonpayable",
      "type": "function"
    },
    {
      "inputs": [
        {
          "internalType": "uint16",
          "name": "_rate",
          "type": "uint16"
        }
      ],
      "name": "updateSystemInterest",
      "outputs": [
        {
          "internalType": "uint256",
          "name": "interest",
          "type": "uint256"
        }
      ],
      "stateMutability": "nonpayable",
      "type": "function"
    },
    {
      "inputs": [
        {
          "internalType": "uint256",
          "name": "_interestOwed",
          "type": "uint256"
        },
        {
          "internalType": "uint256",
          "name": "_payment",
          "type": "uint256"
        },
        {
          "internalType": "uint16",
          "name": "_rate",
          "type": "uint16"
        }
      ],
      "name": "updateTroveDebt",
      "outputs": [
        {
          "internalType": "uint256",
          "name": "principalAdjustment",
          "type": "uint256"
        },
        {
          "internalType": "uint256",
          "name": "interestAdjustment",
          "type": "uint256"
        }
      ],
      "stateMutability": "nonpayable",
      "type": "function"
    }
  ],
  "transactionHash": "0x165c3d6fcb3f5e21b056e5ba7afb7863c6d0b5eef27f8d114286ba993a54b0c1",
  "args": [],
  "numDeployments": 1,
  "solcInputHash": "8d0bf0a003873aec33a51656649ba1f0",
  "bytecode": "0x60806040526000805461ffff60b01b191661027160b41b17905534801561002557600080fd5b50338061004c57604051631e4fbdf760e01b81526000600482015260240160405180910390fd5b6100558161005b565b506100ab565b600080546001600160a01b038381166001600160a01b0319831681178455604051919092169283917f8be0079c531659141344cd1fd0a4f28419497f9722a3daafe3b4186f6b6457e09190a35050565b610f18806100ba6000396000f3fe608060405234801561001057600080fd5b50600436106101585760003560e01c80638f327b64116100c3578063b6bcf8321161007c578063b6bcf83214610341578063b860c72e14610354578063c33d2e0e14610367578063c4fa17a41461037a578063f2fde38b14610385578063fd50a5671461039857600080fd5b80638f327b64146102c057806390107afe146102d35780639f81aed7146102e6578063a9583d5f146102f0578063ac3058ad14610305578063b4d47db31461031857600080fd5b8063622a025e11610115578063622a025e1461021a5780636a76fab114610242578063715018a61461027757806379b381e31461027f5780637c3a00fd146102925780638da5cb5b146102a757600080fd5b806307ffbc281461015d578063098fa953146101ab57806317b876b6146101c0578063184a0ae9146101c857806321ddc20f146101df57806327678dbd14610207575b600080fd5b61018b61016b366004610c4a565b600260208190526000918252604090912080546001820154919092015483565b604080519384526020840192909252908201526060015b60405180910390f35b6101be6101b9366004610c4a565b6103ab565b005b6101be6104f7565b6101d160015481565b6040519081526020016101a2565b6101f26101ed366004610c6c565b610610565b604080519283526020830191909152016101a2565b6101f2610215366004610c8e565b61063c565b60005461022f90600160c01b900461ffff1681565b60405161ffff90911681526020016101a2565b610255610250366004610c4a565b61067d565b60408051825181526020808401519082015291810151908201526060016101a2565b6101be6106de565b6101be61028d366004610cc3565b6106f0565b60005461022f90600160a01b900461ffff1681565b6000546001600160a01b03166040516101a29190610ced565b6101be6102ce366004610cc3565b61071c565b6101be6102e1366004610d16565b610742565b6101d162093a8081565b60005461022f90600160b01b900461ffff1681565b6101d1610313366004610d4f565b6107f6565b6101be610326366004610cc3565b61ffff90911660009081526002602081905260409091200155565b6101be61034f366004610cc3565b610842565b6101be610362366004610cc3565b610868565b6101be610375366004610c4a565b61088b565b6101d16301e1338081565b6101be610393366004610d8a565b610982565b6101d16103a6366004610c4a565b6109c0565b600360009054906101000a90046001600160a01b03166001600160a01b031663e2c6d41c6040518163ffffffff1660e01b8152600401602060405180830381865afa1580156103fe573d6000803e3d6000fd5b505050506040513d601f19601f820116820180604052508101906104229190610da7565b6001600160a01b0316336001600160a01b03161461045b5760405162461bcd60e51b815260040161045290610dc4565b60405180910390fd5b60005461ffff600160b01b9091048116908216111561048c5760405162461bcd60e51b815260040161045290610e18565b6000805461ffff60c01b1916600160c01b61ffff848116820292909217928390554260018190556040805192909404909216815260208101919091527fb5899909635a437ce5e643fa44abf2d280edad124fe94ea0efdaa7215e508d4091015b60405180910390a150565b600360009054906101000a90046001600160a01b03166001600160a01b031663e2c6d41c6040518163ffffffff1660e01b8152600401602060405180830381865afa15801561054a573d6000803e3d6000fd5b505050506040513d601f19601f8201168201806040525081019061056e9190610da7565b6001600160a01b0316336001600160a01b03161461059e5760405162461bcd60e51b815260040161045290610dc4565b62093a806001546105af9190610e7d565b4210156105f75760405162461bcd60e51b8152602060048201526016602482015275141c9bdc1bdcd85b0819195b185e481b9bdd081b595d60521b6044820152606401610452565b60005461060e90600160c01b900461ffff16610a30565b565b60008083831061062e576106248484610e96565b9150839050610635565b5060009050815b9250929050565b60008084841061065a576106508585610e96565b9150849050610661565b5060009050825b61066b838261071c565b6106758383610868565b935093915050565b6106a160405180606001604052806000815260200160008152602001600081525090565b5061ffff16600090815260026020818152604092839020835160608101855281548152600182015492810192909252909101549181019190915290565b6106e6610b0d565b61060e6000610b3a565b61ffff821660009081526002602052604081208054839290610713908490610e7d565b90915550505050565b61ffff821660009081526002602052604081206001018054839290610713908490610e96565b61074a610b0d565b61075382610b8a565b600380546001600160a01b038085166001600160a01b03199283161790925560048054928416929091169190911790556040517f38335c64466e2376ab931166337e19127650d842036ebe01da1ba3e5c1255ebb906107b3908490610ced565b60405180910390a17f143219c9e69b09e07e095fcc889b43d8f46ca892bba65f08dc3a0050869a5678816040516107ea9190610ced565b60405180910390a15050565b6000806108038484610e96565b90506108156301e13380612710610ea9565b8161082461ffff881689610ea9565b61082e9190610ea9565b6108389190610ec0565b9695505050505050565b61ffff821660009081526002602052604081206001018054839290610713908490610e7d565b61ffff821660009081526002602052604081208054839290610713908490610e96565b600360009054906101000a90046001600160a01b03166001600160a01b031663e2c6d41c6040518163ffffffff1660e01b8152600401602060405180830381865afa1580156108de573d6000803e3d6000fd5b505050506040513d601f19601f820116820180604052508101906109029190610da7565b6001600160a01b0316336001600160a01b0316146109325760405162461bcd60e51b815260040161045290610dc4565b6000805461ffff60b01b1916600160b01b61ffff8416908102919091179091556040519081527f9c6c87eb08c6c1c6710af6dad96d5284ba6431cef3720984aa4f0db01c48840f906020016104ec565b61098a610b0d565b6001600160a01b0381166109b4576000604051631e4fbdf760e01b81526004016104529190610ced565b6109bd81610b3a565b50565b61ffff8116600090815260026020818152604080842081516060810183528154808252600183015494820194909452930154908301819052610a0591908590426107f6565b9150610a118383610842565b5061ffff90911660009081526002602081905260409091204291015590565b60005461ffff600160b01b90910481169082161115610a615760405162461bcd60e51b815260040161045290610e18565b600480546040805163dbcf424d60e01b815290516001600160a01b039092169263dbcf424d92828201926000929082900301818387803b158015610aa457600080fd5b505af1158015610ab8573d6000803e3d6000fd5b50506000805461ffff60a01b1916600160a01b61ffff8616908102919091179091556040519081527faaa738a214df2796d5af96c7267388d89ab5d3dfce1793271f7e244740be2f43925060200190506104ec565b6000546001600160a01b0316331461060e573360405163118cdaa760e01b81526004016104529190610ced565b600080546001600160a01b038381166001600160a01b0319831681178455604051919092169283917f8be0079c531659141344cd1fd0a4f28419497f9722a3daafe3b4186f6b6457e09190a35050565b6001600160a01b038116610be05760405162461bcd60e51b815260206004820152601e60248201527f4163636f756e742063616e6e6f74206265207a65726f206164647265737300006044820152606401610452565b803b80610c2f5760405162461bcd60e51b815260206004820181905260248201527f4163636f756e7420636f64652073697a652063616e6e6f74206265207a65726f6044820152606401610452565b5050565b803561ffff81168114610c4557600080fd5b919050565b600060208284031215610c5c57600080fd5b610c6582610c33565b9392505050565b60008060408385031215610c7f57600080fd5b50508035926020909101359150565b600080600060608486031215610ca357600080fd5b8335925060208401359150610cba60408501610c33565b90509250925092565b60008060408385031215610cd657600080fd5b610cdf83610c33565b946020939093013593505050565b6001600160a01b0391909116815260200190565b6001600160a01b03811681146109bd57600080fd5b60008060408385031215610d2957600080fd5b8235610d3481610d01565b91506020830135610d4481610d01565b809150509250929050565b60008060008060808587031215610d6557600080fd5b84359350610d7560208601610c33565b93969395505050506040820135916060013590565b600060208284031215610d9c57600080fd5b8135610c6581610d01565b600060208284031215610db957600080fd5b8151610c6581610d01565b60208082526034908201527f54726f76654d616e616765723a204f6e6c7920676f7665726e616e6365206361604082015273371031b0b636103a3434b990333ab731ba34b7b760611b606082015260800190565b6020808252602f908201527f496e7465726573742072617465206578636565647320746865206d6178696d7560408201526e6d20696e746572657374207261746560881b606082015260800190565b634e487b7160e01b600052601160045260246000fd5b80820180821115610e9057610e90610e67565b92915050565b81810381811115610e9057610e90610e67565b8082028115828204841417610e9057610e90610e67565b600082610edd57634e487b7160e01b600052601260045260246000fd5b50049056fea26469706673582212201cf412b78f8c0357af2573328720bdba97489865e85e103f782102e818955bbc64736f6c63430008180033",
  "devdoc": {
    "errors": {
      "OwnableInvalidOwner(address)": [
        {
          "details": "The owner is not a valid owner account. (eg. `address(0)`)"
        }
      ],
      "OwnableUnauthorizedAccount(address)": [
        {
          "details": "The caller account is not authorized to perform an operation."
        }
      ]
    },
    "kind": "dev",
    "methods": {
      "owner()": {
        "details": "Returns the address of the current owner."
      },
      "renounceOwnership()": {
        "details": "Leaves the contract without owner. It will not be possible to call `onlyOwner` functions. Can only be called by the current owner. NOTE: Renouncing ownership will leave the contract without an owner, thereby disabling any functionality that is only available to the owner."
      },
      "transferOwnership(address)": {
        "details": "Transfers ownership of the contract to a new account (`newOwner`). Can only be called by the current owner."
      }
    },
    "version": 1
  },
  "userdoc": {
    "kind": "user",
    "methods": {},
    "version": 1
  },
  "storageLayout": {
    "storage": [
      {
        "astId": 8,
        "contract": "contracts/InterestRateManager.sol:InterestRateManager",
        "label": "_owner",
        "offset": 0,
        "slot": "0",
        "type": "t_address"
      },
      {
        "astId": 8479,
        "contract": "contracts/InterestRateManager.sol:InterestRateManager",
        "label": "interestRate",
        "offset": 20,
        "slot": "0",
        "type": "t_uint16"
      },
      {
        "astId": 8482,
        "contract": "contracts/InterestRateManager.sol:InterestRateManager",
        "label": "maxInterestRate",
        "offset": 22,
        "slot": "0",
        "type": "t_uint16"
      },
      {
        "astId": 8484,
        "contract": "contracts/InterestRateManager.sol:InterestRateManager",
        "label": "proposedInterestRate",
        "offset": 24,
        "slot": "0",
        "type": "t_uint16"
      },
      {
        "astId": 8486,
        "contract": "contracts/InterestRateManager.sol:InterestRateManager",
        "label": "proposalTime",
        "offset": 0,
        "slot": "1",
        "type": "t_uint256"
      },
      {
        "astId": 8503,
        "contract": "contracts/InterestRateManager.sol:InterestRateManager",
        "label": "interestRateData",
        "offset": 0,
        "slot": "2",
        "type": "t_mapping(t_uint16,t_struct(InterestRateInfo)28127_storage)"
      },
      {
        "astId": 8520,
        "contract": "contracts/InterestRateManager.sol:InterestRateManager",
        "label": "pcv",
        "offset": 0,
        "slot": "3",
        "type": "t_contract(IPCV)28414"
      },
      {
        "astId": 8523,
        "contract": "contracts/InterestRateManager.sol:InterestRateManager",
        "label": "troveManager",
        "offset": 0,
        "slot": "4",
        "type": "t_contract(ITroveManager)29306"
      }
    ],
    "types": {
      "t_address": {
        "encoding": "inplace",
        "label": "address",
        "numberOfBytes": "20"
      },
      "t_contract(IPCV)28414": {
        "encoding": "inplace",
        "label": "contract IPCV",
        "numberOfBytes": "20"
      },
      "t_contract(ITroveManager)29306": {
        "encoding": "inplace",
        "label": "contract ITroveManager",
        "numberOfBytes": "20"
      },
      "t_mapping(t_uint16,t_struct(InterestRateInfo)28127_storage)": {
        "encoding": "mapping",
        "key": "t_uint16",
        "label": "mapping(uint16 => struct IInterestRateManager.InterestRateInfo)",
        "numberOfBytes": "32",
        "value": "t_struct(InterestRateInfo)28127_storage"
      },
      "t_struct(InterestRateInfo)28127_storage": {
        "encoding": "inplace",
        "label": "struct IInterestRateManager.InterestRateInfo",
        "members": [
          {
            "astId": 28122,
            "contract": "contracts/InterestRateManager.sol:InterestRateManager",
            "label": "principal",
            "offset": 0,
            "slot": "0",
            "type": "t_uint256"
          },
          {
            "astId": 28124,
            "contract": "contracts/InterestRateManager.sol:InterestRateManager",
            "label": "interest",
            "offset": 0,
            "slot": "1",
            "type": "t_uint256"
          },
          {
            "astId": 28126,
            "contract": "contracts/InterestRateManager.sol:InterestRateManager",
            "label": "lastUpdatedTime",
            "offset": 0,
            "slot": "2",
            "type": "t_uint256"
          }
        ],
        "numberOfBytes": "96"
      },
      "t_uint16": {
        "encoding": "inplace",
        "label": "uint16",
        "numberOfBytes": "2"
      },
      "t_uint256": {
        "encoding": "inplace",
        "label": "uint256",
        "numberOfBytes": "32"
      }
    }
  }
}