{
  "address": "0xbD5Ac7174fA12378BE28B09bE96be95f0DDdb961",
  "abi": [
    {
      "inputs": [
        {
          "internalType": "uint8",
          "name": "_decimals",
          "type": "uint8"
        }
      ],
      "stateMutability": "nonpayable",
      "type": "constructor"
    },
    {
      "inputs": [
        {
          "internalType": "address",
          "name": "owner",
          "type": "address"
        }
      ],
      "name": "OwnableInvalidOwner",
      "type": "error"
    },
    {
      "inputs": [
        {
          "internalType": "address",
          "name": "account",
          "type": "address"
        }
      ],
      "name": "OwnableUnauthorizedAccount",
      "type": "error"
    },
    {
      "anonymous": false,
      "inputs": [
        {
          "indexed": true,
          "internalType": "address",
          "name": "previousOwner",
          "type": "address"
        },
        {
          "indexed": true,
          "internalType": "address",
          "name": "newOwner",
          "type": "address"
        }
      ],
      "name": "OwnershipTransferred",
      "type": "event"
    },
    {
      "inputs": [],
      "name": "decimals",
      "outputs": [
        {
          "internalType": "uint8",
          "name": "",
          "type": "uint8"
        }
      ],
      "stateMutability": "view",
      "type": "function"
    },
    {
      "inputs": [],
      "name": "latestRoundData",
      "outputs": [
        {
          "internalType": "uint80",
          "name": "",
          "type": "uint80"
        },
        {
          "internalType": "int256",
          "name": "",
          "type": "int256"
        },
        {
          "internalType": "uint256",
          "name": "",
          "type": "uint256"
        },
        {
          "internalType": "uint256",
          "name": "",
          "type": "uint256"
        },
        {
          "internalType": "uint80",
          "name": "",
          "type": "uint80"
        }
      ],
      "stateMutability": "view",
      "type": "function"
    },
    {
      "inputs": [],
      "name": "owner",
      "outputs": [
        {
          "internalType": "address",
          "name": "",
          "type": "address"
        }
      ],
      "stateMutability": "view",
      "type": "function"
    },
    {
      "inputs": [],
      "name": "renounceOwnership",
      "outputs": [],
      "stateMutability": "nonpayable",
      "type": "function"
    },
    {
      "inputs": [
        {
          "internalType": "uint256",
          "name": "_blockTime",
          "type": "uint256"
        }
      ],
      "name": "setBlockTime",
      "outputs": [],
      "stateMutability": "nonpayable",
      "type": "function"
    },
    {
      "inputs": [
        {
          "internalType": "uint8",
          "name": "_precision",
          "type": "uint8"
        }
      ],
      "name": "setPrecision",
      "outputs": [
        {
          "internalType": "bool",
          "name": "",
          "type": "bool"
        }
      ],
      "stateMutability": "nonpayable",
      "type": "function"
    },
    {
      "inputs": [
        {
          "internalType": "uint256",
          "name": "price",
          "type": "uint256"
        }
      ],
      "name": "setPrice",
      "outputs": [
        {
          "internalType": "bool",
          "name": "",
          "type": "bool"
        }
      ],
      "stateMutability": "nonpayable",
      "type": "function"
    },
    {
      "inputs": [
        {
          "internalType": "address",
          "name": "newOwner",
          "type": "address"
        }
      ],
      "name": "transferOwnership",
      "outputs": [],
      "stateMutability": "nonpayable",
      "type": "function"
    }
  ],
  "transactionHash": "0x9cf9b39d935eec17bbdae4c7a28036da7f28c51a0a73804ed1f0ae95ece70a8c",
  "args": [
    "18"
  ],
  "numDeployments": 1,
  "solcInputHash": "9c77616f9b7782c4aaae31e21938a99b",
  "bytecode": "0x608060405234801561001057600080fd5b5060405161077238038061077283398101604081905261002f916100e8565b338061005557604051631e4fbdf760e01b81526000600482015260240160405180910390fd5b61005e81610098565b506002805460ff191660ff831690811790915560009061007f90600a61020e565b905061008d8161c35061021d565b600155506102349050565b600080546001600160a01b038381166001600160a01b0319831681178455604051919092169283917f8be0079c531659141344cd1fd0a4f28419497f9722a3daafe3b4186f6b6457e09190a35050565b6000602082840312156100fa57600080fd5b815160ff8116811461010b57600080fd5b9392505050565b634e487b7160e01b600052601160045260246000fd5b600181815b8085111561016357816000190482111561014957610149610112565b8085161561015657918102915b93841c939080029061012d565b509250929050565b60008261017a57506001610208565b8161018757506000610208565b816001811461019d57600281146101a7576101c3565b6001915050610208565b60ff8411156101b8576101b8610112565b50506001821b610208565b5060208310610133831016604e8410600b84101617156101e6575081810a610208565b6101f08383610128565b806000190482111561020457610204610112565b0290505b92915050565b600061010b60ff84168361016b565b808202811582820484141761020857610208610112565b61052f806102436000396000f3fe608060405234801561001057600080fd5b50600436106100785760003560e01c8063313ce5671461007d578063715018a614610097578063758b1ce3146100a15780637b26adac146100b45780638da5cb5b146100d757806391b7f5ed146100f0578063f2fde38b14610103578063feaf968c14610116575b600080fd5b60025460405160ff90911681526020015b60405180910390f35b61009f610155565b005b61009f6100af366004610335565b610169565b6100c76100c236600461034e565b610176565b604051901515815260200161008e565b6000546001600160a01b031660405161008e9190610378565b6100c76100fe366004610335565b6101e1565b61009f61011136600461038c565b6101f4565b61011e61023b565b6040805169ffffffffffffffffffff968716815260208101959095528401929092526060830152909116608082015260a00161008e565b61015d6102b8565b61016760006102e5565b565b6101716102b8565b600355565b60006101806102b8565b6002546000906101949060ff16600a6104b1565b90506000816001546101a691906104c0565b905060006101b585600a6104b1565b90506101c181836104e2565b60019081556002805460ff881660ff199091161790559350505050919050565b60006101eb6102b8565b50600190815590565b6101fc6102b8565b6001600160a01b03811661022f576000604051631e4fbdf760e01b81526004016102269190610378565b60405180910390fd5b610238816102e5565b50565b6002546000908190819081908190604d60ff90911611156102935760405162461bcd60e51b8152602060048201526012602482015271446563696d616c7320746f6f206c6172676560701b6044820152606401610226565b60035460008190036102a25750425b6001546000979096509094508493508692509050565b6000546001600160a01b03163314610167573360405163118cdaa760e01b81526004016102269190610378565b600080546001600160a01b038381166001600160a01b0319831681178455604051919092169283917f8be0079c531659141344cd1fd0a4f28419497f9722a3daafe3b4186f6b6457e09190a35050565b60006020828403121561034757600080fd5b5035919050565b60006020828403121561036057600080fd5b813560ff8116811461037157600080fd5b9392505050565b6001600160a01b0391909116815260200190565b60006020828403121561039e57600080fd5b81356001600160a01b038116811461037157600080fd5b634e487b7160e01b600052601160045260246000fd5b600181815b808511156104065781600019048211156103ec576103ec6103b5565b808516156103f957918102915b93841c93908002906103d0565b509250929050565b60008261041d575060016104ab565b8161042a575060006104ab565b8160018114610440576002811461044a57610466565b60019150506104ab565b60ff84111561045b5761045b6103b5565b50506001821b6104ab565b5060208310610133831016604e8410600b8410161715610489575081810a6104ab565b61049383836103cb565b80600019048211156104a7576104a76103b5565b0290505b92915050565b600061037160ff84168361040e565b6000826104dd57634e487b7160e01b600052601260045260246000fd5b500490565b80820281158282048414176104ab576104ab6103b556fea2646970667358221220113da3da230c9a3a33db3aec4c0b8ae6c855ce0dc7becf5a663e5ccb041d139764736f6c63430008180033",
  "devdoc": {
    "errors": {
      "OwnableInvalidOwner(address)": [
        {
          "details": "The owner is not a valid owner account. (eg. `address(0)`)"
        }
      ],
      "OwnableUnauthorizedAccount(address)": [
        {
          "details": "The caller account is not authorized to perform an operation."
        }
      ]
    },
    "kind": "dev",
    "methods": {
      "owner()": {
        "details": "Returns the address of the current owner."
      },
      "renounceOwnership()": {
        "details": "Leaves the contract without owner. It will not be possible to call `onlyOwner` functions. Can only be called by the current owner. NOTE: Renouncing ownership will leave the contract without an owner, thereby disabling any functionality that is only available to the owner."
      },
      "transferOwnership(address)": {
        "details": "Transfers ownership of the contract to a new account (`newOwner`). Can only be called by the current owner."
      }
    },
    "version": 1
  },
  "userdoc": {
    "kind": "user",
    "methods": {},
    "version": 1
  },
  "storageLayout": {
    "storage": [
      {
        "astId": 984,
        "contract": "contracts/tests/MockAggregator.sol:MockAggregator",
        "label": "_owner",
        "offset": 0,
        "slot": "0",
        "type": "t_address"
      },
      {
        "astId": 33063,
        "contract": "contracts/tests/MockAggregator.sol:MockAggregator",
        "label": "_price",
        "offset": 0,
        "slot": "1",
        "type": "t_uint256"
      },
      {
        "astId": 33065,
        "contract": "contracts/tests/MockAggregator.sol:MockAggregator",
        "label": "precision",
        "offset": 0,
        "slot": "2",
        "type": "t_uint8"
      },
      {
        "astId": 33067,
        "contract": "contracts/tests/MockAggregator.sol:MockAggregator",
        "label": "blockTime",
        "offset": 0,
        "slot": "3",
        "type": "t_uint256"
      }
    ],
    "types": {
      "t_address": {
        "encoding": "inplace",
        "label": "address",
        "numberOfBytes": "20"
      },
      "t_uint256": {
        "encoding": "inplace",
        "label": "uint256",
        "numberOfBytes": "32"
      },
      "t_uint8": {
        "encoding": "inplace",
        "label": "uint8",
        "numberOfBytes": "1"
      }
    }
  }
}