{
  "address": "0x6538C88Cb8b9151cdbe2cFA8dDafF5EaE8B37124",
  "abi": [
    {
      "inputs": [
        {
          "internalType": "string",
          "name": "name",
          "type": "string"
        },
        {
          "internalType": "string",
          "name": "symbol",
          "type": "string"
        },
        {
          "internalType": "address",
          "name": "_troveManagerAddress1",
          "type": "address"
        },
        {
          "internalType": "address",
          "name": "_stabilityPoolAddress1",
          "type": "address"
        },
        {
          "internalType": "address",
          "name": "_borrowerOperationsAddress1",
          "type": "address"
        },
        {
          "internalType": "address",
          "name": "_troveManagerAddress2",
          "type": "address"
        },
        {
          "internalType": "address",
          "name": "_stabilityPoolAddress2",
          "type": "address"
        },
        {
          "internalType": "address",
          "name": "_borrowerOperationsAddress2",
          "type": "address"
        },
        {
          "internalType": "uint256",
          "name": "_governanceTimeDelay",
          "type": "uint256"
        }
      ],
      "stateMutability": "nonpayable",
      "type": "constructor"
    },
    {
      "inputs": [],
      "name": "ECDSAInvalidSignature",
      "type": "error"
    },
    {
      "inputs": [
        {
          "internalType": "uint256",
          "name": "length",
          "type": "uint256"
        }
      ],
      "name": "ECDSAInvalidSignatureLength",
      "type": "error"
    },
    {
      "inputs": [
        {
          "internalType": "bytes32",
          "name": "s",
          "type": "bytes32"
        }
      ],
      "name": "ECDSAInvalidSignatureS",
      "type": "error"
    },
    {
      "inputs": [
        {
          "internalType": "address",
          "name": "spender",
          "type": "address"
        },
        {
          "internalType": "uint256",
          "name": "allowance",
          "type": "uint256"
        },
        {
          "internalType": "uint256",
          "name": "needed",
          "type": "uint256"
        }
      ],
      "name": "ERC20InsufficientAllowance",
      "type": "error"
    },
    {
      "inputs": [
        {
          "internalType": "address",
          "name": "sender",
          "type": "address"
        },
        {
          "internalType": "uint256",
          "name": "balance",
          "type": "uint256"
        },
        {
          "internalType": "uint256",
          "name": "needed",
          "type": "uint256"
        }
      ],
      "name": "ERC20InsufficientBalance",
      "type": "error"
    },
    {
      "inputs": [
        {
          "internalType": "address",
          "name": "approver",
          "type": "address"
        }
      ],
      "name": "ERC20InvalidApprover",
      "type": "error"
    },
    {
      "inputs": [
        {
          "internalType": "address",
          "name": "receiver",
          "type": "address"
        }
      ],
      "name": "ERC20InvalidReceiver",
      "type": "error"
    },
    {
      "inputs": [
        {
          "internalType": "address",
          "name": "sender",
          "type": "address"
        }
      ],
      "name": "ERC20InvalidSender",
      "type": "error"
    },
    {
      "inputs": [
        {
          "internalType": "address",
          "name": "spender",
          "type": "address"
        }
      ],
      "name": "ERC20InvalidSpender",
      "type": "error"
    },
    {
      "inputs": [
        {
          "internalType": "uint256",
          "name": "deadline",
          "type": "uint256"
        }
      ],
      "name": "ERC2612ExpiredSignature",
      "type": "error"
    },
    {
      "inputs": [
        {
          "internalType": "address",
          "name": "signer",
          "type": "address"
        },
        {
          "internalType": "address",
          "name": "owner",
          "type": "address"
        }
      ],
      "name": "ERC2612InvalidSigner",
      "type": "error"
    },
    {
      "inputs": [
        {
          "internalType": "address",
          "name": "account",
          "type": "address"
        },
        {
          "internalType": "uint256",
          "name": "currentNonce",
          "type": "uint256"
        }
      ],
      "name": "InvalidAccountNonce",
      "type": "error"
    },
    {
      "inputs": [],
      "name": "InvalidShortString",
      "type": "error"
    },
    {
      "inputs": [
        {
          "internalType": "address",
          "name": "owner",
          "type": "address"
        }
      ],
      "name": "OwnableInvalidOwner",
      "type": "error"
    },
    {
      "inputs": [
        {
          "internalType": "address",
          "name": "account",
          "type": "address"
        }
      ],
      "name": "OwnableUnauthorizedAccount",
      "type": "error"
    },
    {
      "inputs": [
        {
          "internalType": "string",
          "name": "str",
          "type": "string"
        }
      ],
      "name": "StringTooLong",
      "type": "error"
    },
    {
      "anonymous": false,
      "inputs": [
        {
          "indexed": true,
          "internalType": "address",
          "name": "owner",
          "type": "address"
        },
        {
          "indexed": true,
          "internalType": "address",
          "name": "spender",
          "type": "address"
        },
        {
          "indexed": false,
          "internalType": "uint256",
          "name": "value",
          "type": "uint256"
        }
      ],
      "name": "Approval",
      "type": "event"
    },
    {
      "anonymous": false,
      "inputs": [
        {
          "indexed": false,
          "internalType": "address",
          "name": "_user",
          "type": "address"
        },
        {
          "indexed": false,
          "internalType": "uint256",
          "name": "_amount",
          "type": "uint256"
        }
      ],
      "name": "BalanceUpdated",
      "type": "event"
    },
    {
      "anonymous": false,
      "inputs": [
        {
          "indexed": false,
          "internalType": "address",
          "name": "_newBorrowerOperationsAddress",
          "type": "address"
        }
      ],
      "name": "BorrowerOperationsAddressAdded",
      "type": "event"
    },
    {
      "anonymous": false,
      "inputs": [],
      "name": "EIP712DomainChanged",
      "type": "event"
    },
    {
      "anonymous": false,
      "inputs": [
        {
          "indexed": true,
          "internalType": "address",
          "name": "previousOwner",
          "type": "address"
        },
        {
          "indexed": true,
          "internalType": "address",
          "name": "newOwner",
          "type": "address"
        }
      ],
      "name": "OwnershipTransferred",
      "type": "event"
    },
    {
      "anonymous": false,
      "inputs": [
        {
          "indexed": false,
          "internalType": "address",
          "name": "_newStabilityPoolAddress",
          "type": "address"
        }
      ],
      "name": "StabilityPoolAddressAdded",
      "type": "event"
    },
    {
      "anonymous": false,
      "inputs": [
        {
          "indexed": true,
          "internalType": "address",
          "name": "from",
          "type": "address"
        },
        {
          "indexed": true,
          "internalType": "address",
          "name": "to",
          "type": "address"
        },
        {
          "indexed": false,
          "internalType": "uint256",
          "name": "value",
          "type": "uint256"
        }
      ],
      "name": "Transfer",
      "type": "event"
    },
    {
      "anonymous": false,
      "inputs": [
        {
          "indexed": false,
          "internalType": "address",
          "name": "_troveManagerAddress",
          "type": "address"
        }
      ],
      "name": "TroveManagerAddressAdded",
      "type": "event"
    },
    {
      "inputs": [],
      "name": "DOMAIN_SEPARATOR",
      "outputs": [
        {
          "internalType": "bytes32",
          "name": "",
          "type": "bytes32"
        }
      ],
      "stateMutability": "view",
      "type": "function"
    },
    {
      "inputs": [],
      "name": "addContractsInitiated",
      "outputs": [
        {
          "internalType": "uint256",
          "name": "",
          "type": "uint256"
        }
      ],
      "stateMutability": "view",
      "type": "function"
    },
    {
      "inputs": [],
      "name": "addMintListInitiated",
      "outputs": [
        {
          "internalType": "uint256",
          "name": "",
          "type": "uint256"
        }
      ],
      "stateMutability": "view",
      "type": "function"
    },
    {
      "inputs": [
        {
          "internalType": "address",
          "name": "owner",
          "type": "address"
        },
        {
          "internalType": "address",
          "name": "spender",
          "type": "address"
        }
      ],
      "name": "allowance",
      "outputs": [
        {
          "internalType": "uint256",
          "name": "",
          "type": "uint256"
        }
      ],
      "stateMutability": "view",
      "type": "function"
    },
    {
      "inputs": [
        {
          "internalType": "address",
          "name": "spender",
          "type": "address"
        },
        {
          "internalType": "uint256",
          "name": "value",
          "type": "uint256"
        }
      ],
      "name": "approve",
      "outputs": [
        {
          "internalType": "bool",
          "name": "",
          "type": "bool"
        }
      ],
      "stateMutability": "nonpayable",
      "type": "function"
    },
    {
      "inputs": [
        {
          "internalType": "address",
          "name": "account",
          "type": "address"
        }
      ],
      "name": "balanceOf",
      "outputs": [
        {
          "internalType": "uint256",
          "name": "",
          "type": "uint256"
        }
      ],
      "stateMutability": "view",
      "type": "function"
    },
    {
      "inputs": [
        {
          "internalType": "address",
          "name": "_account",
          "type": "address"
        },
        {
          "internalType": "uint256",
          "name": "_amount",
          "type": "uint256"
        }
      ],
      "name": "burn",
      "outputs": [],
      "stateMutability": "nonpayable",
      "type": "function"
    },
    {
      "inputs": [
        {
          "internalType": "address",
          "name": "",
          "type": "address"
        }
      ],
      "name": "burnList",
      "outputs": [
        {
          "internalType": "bool",
          "name": "",
          "type": "bool"
        }
      ],
      "stateMutability": "view",
      "type": "function"
    },
    {
      "inputs": [],
      "name": "cancelAddContracts",
      "outputs": [],
      "stateMutability": "nonpayable",
      "type": "function"
    },
    {
      "inputs": [],
      "name": "cancelAddMintList",
      "outputs": [],
      "stateMutability": "nonpayable",
      "type": "function"
    },
    {
      "inputs": [],
      "name": "cancelRevokeBurnList",
      "outputs": [],
      "stateMutability": "nonpayable",
      "type": "function"
    },
    {
      "inputs": [],
      "name": "cancelRevokeMintList",
      "outputs": [],
      "stateMutability": "nonpayable",
      "type": "function"
    },
    {
      "inputs": [],
      "name": "decimals",
      "outputs": [
        {
          "internalType": "uint8",
          "name": "",
          "type": "uint8"
        }
      ],
      "stateMutability": "view",
      "type": "function"
    },
    {
      "inputs": [],
      "name": "eip712Domain",
      "outputs": [
        {
          "internalType": "bytes1",
          "name": "fields",
          "type": "bytes1"
        },
        {
          "internalType": "string",
          "name": "name",
          "type": "string"
        },
        {
          "internalType": "string",
          "name": "version",
          "type": "string"
        },
        {
          "internalType": "uint256",
          "name": "chainId",
          "type": "uint256"
        },
        {
          "internalType": "address",
          "name": "verifyingContract",
          "type": "address"
        },
        {
          "internalType": "bytes32",
          "name": "salt",
          "type": "bytes32"
        },
        {
          "internalType": "uint256[]",
          "name": "extensions",
          "type": "uint256[]"
        }
      ],
      "stateMutability": "view",
      "type": "function"
    },
    {
      "inputs": [],
      "name": "finalizeAddContracts",
      "outputs": [],
      "stateMutability": "nonpayable",
      "type": "function"
    },
    {
      "inputs": [],
      "name": "finalizeAddMintList",
      "outputs": [],
      "stateMutability": "nonpayable",
      "type": "function"
    },
    {
      "inputs": [],
      "name": "finalizeRevokeBurnList",
      "outputs": [],
      "stateMutability": "nonpayable",
      "type": "function"
    },
    {
      "inputs": [],
      "name": "finalizeRevokeMintList",
      "outputs": [],
      "stateMutability": "nonpayable",
      "type": "function"
    },
    {
      "inputs": [],
      "name": "governanceTimeDelay",
      "outputs": [
        {
          "internalType": "uint256",
          "name": "",
          "type": "uint256"
        }
      ],
      "stateMutability": "view",
      "type": "function"
    },
    {
      "inputs": [
        {
          "internalType": "address",
          "name": "_account",
          "type": "address"
        },
        {
          "internalType": "uint256",
          "name": "_amount",
          "type": "uint256"
        }
      ],
      "name": "mint",
      "outputs": [],
      "stateMutability": "nonpayable",
      "type": "function"
    },
    {
      "inputs": [
        {
          "internalType": "address",
          "name": "",
          "type": "address"
        }
      ],
      "name": "mintList",
      "outputs": [
        {
          "internalType": "bool",
          "name": "",
          "type": "bool"
        }
      ],
      "stateMutability": "view",
      "type": "function"
    },
    {
      "inputs": [],
      "name": "name",
      "outputs": [
        {
          "internalType": "string",
          "name": "",
          "type": "string"
        }
      ],
      "stateMutability": "view",
      "type": "function"
    },
    {
      "inputs": [
        {
          "internalType": "address",
          "name": "owner",
          "type": "address"
        }
      ],
      "name": "nonces",
      "outputs": [
        {
          "internalType": "uint256",
          "name": "",
          "type": "uint256"
        }
      ],
      "stateMutability": "view",
      "type": "function"
    },
    {
      "inputs": [],
      "name": "owner",
      "outputs": [
        {
          "internalType": "address",
          "name": "",
          "type": "address"
        }
      ],
      "stateMutability": "view",
      "type": "function"
    },
    {
      "inputs": [],
      "name": "pendingAddedMintAddress",
      "outputs": [
        {
          "internalType": "address",
          "name": "",
          "type": "address"
        }
      ],
      "stateMutability": "view",
      "type": "function"
    },
    {
      "inputs": [],
      "name": "pendingBorrowerOperations",
      "outputs": [
        {
          "internalType": "address",
          "name": "",
          "type": "address"
        }
      ],
      "stateMutability": "view",
      "type": "function"
    },
    {
      "inputs": [],
      "name": "pendingRevokedBurnAddress",
      "outputs": [
        {
          "internalType": "address",
          "name": "",
          "type": "address"
        }
      ],
      "stateMutability": "view",
      "type": "function"
    },
    {
      "inputs": [],
      "name": "pendingRevokedMintAddress",
      "outputs": [
        {
          "internalType": "address",
          "name": "",
          "type": "address"
        }
      ],
      "stateMutability": "view",
      "type": "function"
    },
    {
      "inputs": [],
      "name": "pendingStabilityPool",
      "outputs": [
        {
          "internalType": "address",
          "name": "",
          "type": "address"
        }
      ],
      "stateMutability": "view",
      "type": "function"
    },
    {
      "inputs": [],
      "name": "pendingTroveManager",
      "outputs": [
        {
          "internalType": "address",
          "name": "",
          "type": "address"
        }
      ],
      "stateMutability": "view",
      "type": "function"
    },
    {
      "inputs": [
        {
          "internalType": "address",
          "name": "owner",
          "type": "address"
        },
        {
          "internalType": "address",
          "name": "spender",
          "type": "address"
        },
        {
          "internalType": "uint256",
          "name": "value",
          "type": "uint256"
        },
        {
          "internalType": "uint256",
          "name": "deadline",
          "type": "uint256"
        },
        {
          "internalType": "uint8",
          "name": "v",
          "type": "uint8"
        },
        {
          "internalType": "bytes32",
          "name": "r",
          "type": "bytes32"
        },
        {
          "internalType": "bytes32",
          "name": "s",
          "type": "bytes32"
        }
      ],
      "name": "permit",
      "outputs": [],
      "stateMutability": "nonpayable",
      "type": "function"
    },
    {
      "inputs": [],
      "name": "renounceOwnership",
      "outputs": [],
      "stateMutability": "nonpayable",
      "type": "function"
    },
    {
      "inputs": [],
      "name": "revokeBurnListInitiated",
      "outputs": [
        {
          "internalType": "uint256",
          "name": "",
          "type": "uint256"
        }
      ],
      "stateMutability": "view",
      "type": "function"
    },
    {
      "inputs": [],
      "name": "revokeMintListInitiated",
      "outputs": [
        {
          "internalType": "uint256",
          "name": "",
          "type": "uint256"
        }
      ],
      "stateMutability": "view",
      "type": "function"
    },
    {
      "inputs": [
        {
          "internalType": "address",
          "name": "_troveManagerAddress",
          "type": "address"
        },
        {
          "internalType": "address",
          "name": "_stabilityPoolAddress",
          "type": "address"
        },
        {
          "internalType": "address",
          "name": "_borrowerOperationsAddress",
          "type": "address"
        }
      ],
      "name": "startAddContracts",
      "outputs": [],
      "stateMutability": "nonpayable",
      "type": "function"
    },
    {
      "inputs": [
        {
          "internalType": "address",
          "name": "_account",
          "type": "address"
        }
      ],
      "name": "startAddMintList",
      "outputs": [],
      "stateMutability": "nonpayable",
      "type": "function"
    },
    {
      "inputs": [
        {
          "internalType": "address",
          "name": "_account",
          "type": "address"
        }
      ],
      "name": "startRevokeBurnList",
      "outputs": [],
      "stateMutability": "nonpayable",
      "type": "function"
    },
    {
      "inputs": [
        {
          "internalType": "address",
          "name": "_account",
          "type": "address"
        }
      ],
      "name": "startRevokeMintList",
      "outputs": [],
      "stateMutability": "nonpayable",
      "type": "function"
    },
    {
      "inputs": [],
      "name": "symbol",
      "outputs": [
        {
          "internalType": "string",
          "name": "",
          "type": "string"
        }
      ],
      "stateMutability": "view",
      "type": "function"
    },
    {
      "inputs": [],
      "name": "totalSupply",
      "outputs": [
        {
          "internalType": "uint256",
          "name": "",
          "type": "uint256"
        }
      ],
      "stateMutability": "view",
      "type": "function"
    },
    {
      "inputs": [
        {
          "internalType": "address",
          "name": "to",
          "type": "address"
        },
        {
          "internalType": "uint256",
          "name": "amount",
          "type": "uint256"
        }
      ],
      "name": "transfer",
      "outputs": [
        {
          "internalType": "bool",
          "name": "",
          "type": "bool"
        }
      ],
      "stateMutability": "nonpayable",
      "type": "function"
    },
    {
      "inputs": [
        {
          "internalType": "address",
          "name": "from",
          "type": "address"
        },
        {
          "internalType": "address",
          "name": "to",
          "type": "address"
        },
        {
          "internalType": "uint256",
          "name": "amount",
          "type": "uint256"
        }
      ],
      "name": "transferFrom",
      "outputs": [
        {
          "internalType": "bool",
          "name": "",
          "type": "bool"
        }
      ],
      "stateMutability": "nonpayable",
      "type": "function"
    },
    {
      "inputs": [
        {
          "internalType": "address",
          "name": "newOwner",
          "type": "address"
        }
      ],
      "name": "transferOwnership",
      "outputs": [],
      "stateMutability": "nonpayable",
      "type": "function"
    }
  ],
  "transactionHash": "0x56e37065177ac8487914ae4f8e47ab2a5041a14fc3f4e20dce91a2f41ab72fc3",
  "args": [
    "Mezo USD",
    "MUSD",
    "0xe7AD467F1F27c1d98A08536c17ee812A33dF5B6c",
    "0x62e51AC4d79f6C8C4Eda2047c23A10e61DF94CA7",
    "0x479F18874a055caAe04d691bd38b0C5BDB30Ca4c",
    "0x0000000000000000000000000000000000000000",
    "0x0000000000000000000000000000000000000000",
    "0x0000000000000000000000000000000000000000",
    7776000
  ],
  "numDeployments": 1,
  "solcInputHash": "8d0bf0a003873aec33a51656649ba1f0",
  "bytecode": "0x6101806040523480156200001257600080fd5b5060405162002830380380620028308339810160408190526200003591620005c8565b338980604051806040016040528060018152602001603160f81b8152508c8c81600390816200006591906200073d565b5060046200007482826200073d565b50620000869150839050600562000200565b610120526200009781600662000200565b61014052815160208084019190912060e052815190820120610100524660a0526200012560e05161010051604080517f8b73c3c69bb8fe3d512ecc4cf759cc79239f7b179b0ffacaa9a75d522b39400f60208201529081019290925260608201524660808201523060a082015260009060c00160405160208183030381529060405280519060200120905090565b60805250503060c052506001600160a01b0381166200015f57604051631e4fbdf760e01b8152600060048201526024015b60405180910390fd5b6200016a8162000239565b50620001788787876200028b565b6001600160a01b038416156200019557620001958484846200028b565b610160819052630114db00811115620001f15760405162461bcd60e51b815260206004820152601b60248201527f476f7665726e616e63652064656c617920697320746f6f206269670000000000604482015260640162000156565b50505050505050505062000863565b600060208351101562000220576200021883620003ee565b905062000233565b816200022d84826200073d565b5060ff90505b92915050565b600880546001600160a01b038381166001600160a01b0319831681179093556040519116919082907f8be0079c531659141344cd1fd0a4f28419497f9722a3daafe3b4186f6b6457e090600090a35050565b620002968362000431565b620002a18262000431565b620002ac8162000431565b6001600160a01b038316600081815260096020908152604091829020805460ff1916600117905590519182527f552e6c3035c33f04f1890bc312cbff2a7785b2e14ba719e635c5a8a754705647910160405180910390a16001600160a01b038216600081815260096020908152604091829020805460ff1916600117905590519182527fd5aac92b48f52fdc22e5b14b07e3cbbd61e939d86cec15efe7db4fd82a8d1911910160405180910390a16001600160a01b038116600081815260096020908152604091829020805460ff1916600117905590519182527f5f1db3103369b41aebc8a140eb5553e5a21d3df288ff446278b59eb15d59e2a4910160405180910390a16001600160a01b039081166000908152600a60205260408082208054600160ff199182168117909255959093168252902080549093161790915550565b600080829050601f815111156200041c578260405163305a27a960e01b815260040162000156919062000809565b805162000429826200083e565b179392505050565b6001600160a01b038116620004895760405162461bcd60e51b815260206004820152601e60248201527f4163636f756e742063616e6e6f74206265207a65726f20616464726573730000604482015260640162000156565b803b80620004da5760405162461bcd60e51b815260206004820181905260248201527f4163636f756e7420636f64652073697a652063616e6e6f74206265207a65726f604482015260640162000156565b5050565b634e487b7160e01b600052604160045260246000fd5b60005b8381101562000511578181015183820152602001620004f7565b50506000910152565b600082601f8301126200052c57600080fd5b81516001600160401b0380821115620005495762000549620004de565b604051601f8301601f19908116603f01168101908282118183101715620005745762000574620004de565b816040528381528660208588010111156200058e57600080fd5b620005a1846020830160208901620004f4565b9695505050505050565b80516001600160a01b0381168114620005c357600080fd5b919050565b60008060008060008060008060006101208a8c031215620005e857600080fd5b89516001600160401b03808211156200060057600080fd5b6200060e8d838e016200051a565b9a5060208c01519150808211156200062557600080fd5b50620006348c828d016200051a565b9850506200064560408b01620005ab565b96506200065560608b01620005ab565b95506200066560808b01620005ab565b94506200067560a08b01620005ab565b93506200068560c08b01620005ab565b92506200069560e08b01620005ab565b91506101008a015190509295985092959850929598565b600181811c90821680620006c157607f821691505b602082108103620006e257634e487b7160e01b600052602260045260246000fd5b50919050565b601f82111562000738576000816000526020600020601f850160051c81016020861015620007135750805b601f850160051c820191505b8181101562000734578281556001016200071f565b5050505b505050565b81516001600160401b03811115620007595762000759620004de565b62000771816200076a8454620006ac565b84620006e8565b602080601f831160018114620007a95760008415620007905750858301515b600019600386901b1c1916600185901b17855562000734565b600085815260208120601f198616915b82811015620007da57888601518255948401946001909101908401620007b9565b5085821015620007f95787850151600019600388901b60f8161c191681555b5050505050600190811b01905550565b60208152600082518060208401526200082a816040850160208701620004f4565b601f01601f19169190910160400192915050565b80516020808301519190811015620006e25760001960209190910360031b1b16919050565b60805160a05160c05160e05161010051610120516101405161016051611f4b620008e560003960008181610485015281816105ac01528181610769015281816109a20152610f540152600061144401526000611417015260006111b001526000611188015260006110e30152600061110d015260006111370152611f4b6000f3fe608060405234801561001057600080fd5b50600436106102695760003560e01c806384b0196e11610151578063b1c6c182116100c3578063d5414ba211610087578063d5414ba21461050c578063dd62ed3e1461051f578063e228406e14610532578063e5f95ad01461053a578063eecb7cc11461054d578063f2fde38b1461056057600080fd5b8063b1c6c182146104a7578063b427cd4e146104ba578063bef432c6146104cd578063cd33973a146104f0578063d505accf146104f957600080fd5b80639dc29fac116101155780639dc29fac14610437578063a79364371461044a578063a866eaf714610452578063a9059cbb1461045a578063af3019231461046d578063afe5bf931461048057600080fd5b806384b0196e146103e75780638961cb24146104025780638da5cb5b1461041557806395d89b41146104265780639ce922ff1461042e57600080fd5b8063441633f2116101ea578063660edfd8116101ae578063660edfd8146103805780636720c945146103885780636d3aa16a1461039b57806370a08231146103a3578063715018a6146103cc5780637ecebe00146103d457600080fd5b8063441633f21461031957806348581f391461032c578063560a0b8e1461033557806358f2f1cf146103585780635fef0e581461037857600080fd5b806323b872dd1161023157806323b872dd146102d4578063313ce567146102e757806333ebbfef146102f65780633644e515146102fe57806340c10f191461030657600080fd5b8063011104791461026e57806306fdde0314610278578063095ea7b31461029657806318160ddd146102b95780631d9d708b146102cb575b600080fd5b610276610573565b005b61028061062a565b60405161028d9190611b19565b60405180910390f35b6102a96102a4366004611b48565b6106bc565b604051901515815260200161028d565b6002545b60405190815260200161028d565b6102bd60125481565b6102a96102e2366004611b72565b6106d6565b6040516012815260200161028d565b610276610739565b6102bd6107e4565b610276610314366004611b48565b6107f3565b610276610327366004611bae565b610860565b6102bd60115481565b6102a9610343366004611bae565b60096020526000908152604090205460ff1681565b600e5461036b906001600160a01b031681565b60405161028d9190611bc9565b6102766108f2565b610276610972565b600d5461036b906001600160a01b031681565b610276610a34565b6102bd6103b1366004611bae565b6001600160a01b031660009081526020819052604090205490565b610276610ab9565b6102bd6103e2366004611bae565b610acd565b6103ef610ad8565b60405161028d9796959493929190611bdd565b610276610410366004611bae565b610b1e565b6008546001600160a01b031661036b565b610280610b84565b6102bd60135481565b610276610445366004611b48565b610b93565b610276610bfc565b610276610c7c565b6102a9610468366004611b48565b610cf8565b600c5461036b906001600160a01b031681565b6102bd7f000000000000000000000000000000000000000000000000000000000000000081565b6102766104b5366004611bae565b610d59565b600b5461036b906001600160a01b031681565b6102a96104db366004611bae565b600a6020526000908152604090205460ff1681565b6102bd60145481565b610276610507366004611c76565b610dbf565b60105461036b906001600160a01b031681565b6102bd61052d366004611ce9565b610ef9565b610276610f24565b600f5461036b906001600160a01b031681565b61027661055b366004611d1c565b610fcf565b61027661056e366004611bae565b611035565b61057b611073565b601454600081116105a75760405162461bcd60e51b815260040161059e90611d5f565b60405180910390fd5b6105d17f000000000000000000000000000000000000000000000000000000000000000082611d8d565b4210156105f05760405162461bcd60e51b815260040161059e90611dae565b50601080546001600160a01b03166000908152600a60205260408120805460ff1916600117905560145580546001600160a01b0319169055565b60606003805461063990611de3565b80601f016020809104026020016040519081016040528092919081815260200182805461066590611de3565b80156106b25780601f10610687576101008083540402835291602001916106b2565b820191906000526020600020905b81548152906001019060200180831161069557829003601f168201915b5050505050905090565b6000336106ca8185856110a0565b60019150505b92915050565b60006001600160a01b0383166106fe5760405162461bcd60e51b815260040161059e90611e1d565b306001600160a01b038416036107265760405162461bcd60e51b815260040161059e90611e60565b6107318484846110b2565b949350505050565b610741611073565b601254600081116107645760405162461bcd60e51b815260040161059e90611d5f565b61078e7f000000000000000000000000000000000000000000000000000000000000000082611d8d565b4210156107ad5760405162461bcd60e51b815260040161059e90611dae565b50600f80546001600160a01b03166000908152600960205260408120805460ff1916905560125580546001600160a01b0319169055565b60006107ee6110d6565b905090565b336000908152600a602052604090205460ff166108525760405162461bcd60e51b815260206004820181905260248201527f4d5553443a2043616c6c6572206e6f7420616c6c6f77656420746f206d696e74604482015260640161059e565b61085c8282611201565b5050565b610868611073565b6001600160a01b0381166000908152600a602052604090205460ff16156108cc5760405162461bcd60e51b8152602060048201526018602482015277125b98dbdc9c9958dd081859191c995cdcc81d1bc818591960421b604482015260640161059e565b42601455601080546001600160a01b0319166001600160a01b0392909216919091179055565b6108fa611073565b60125460000361095b5760405162461bcd60e51b815260206004820152602660248201527f5265766f6b696e672066726f6d206275726e206c697374206973206e6f7420736044820152651d185c9d195960d21b606482015260840161059e565b6000601255600f80546001600160a01b0319169055565b61097a611073565b6013546000811161099d5760405162461bcd60e51b815260040161059e90611d5f565b6109c77f000000000000000000000000000000000000000000000000000000000000000082611d8d565b4210156109e65760405162461bcd60e51b815260040161059e90611dae565b600b54600c54600d54610a08926001600160a01b039081169281169116611237565b506000601355600b80546001600160a01b0319908116909155600c805482169055600d80549091169055565b610a3c611073565b601354600003610a8e5760405162461bcd60e51b815260206004820152601f60248201527f416464696e6720636f6e747261637473206973206e6f74207374617274656400604482015260640161059e565b6000601355600b80546001600160a01b0319908116909155600c805482169055600d80549091169055565b610ac1611073565b610acb60006113a0565b565b60006106d0826113f2565b600060608060008060006060610aec611410565b610af461143d565b60408051600080825260208201909252600f60f81b9b939a50919850469750309650945092509050565b610b26611073565b6001600160a01b0381166000908152600a602052604090205460ff16610b5e5760405162461bcd60e51b815260040161059e90611ea7565b42601155600e80546001600160a01b0319166001600160a01b0392909216919091179055565b60606004805461063990611de3565b3360009081526009602052604090205460ff16610bf25760405162461bcd60e51b815260206004820181905260248201527f4d5553443a2043616c6c6572206e6f7420616c6c6f77656420746f206275726e604482015260640161059e565b61085c828261146a565b610c04611073565b601154600003610c655760405162461bcd60e51b815260206004820152602660248201527f5265766f6b696e672066726f6d206d696e74206c697374206973206e6f7420736044820152651d185c9d195960d21b606482015260840161059e565b6000601155600e80546001600160a01b0319169055565b610c84611073565b601454600003610ce15760405162461bcd60e51b815260206004820152602260248201527f416464696e6720746f206d696e74206c697374206973206e6f74207374617274604482015261195960f21b606482015260840161059e565b6000601455601080546001600160a01b0319169055565b60006001600160a01b038316610d205760405162461bcd60e51b815260040161059e90611e1d565b306001600160a01b03841603610d485760405162461bcd60e51b815260040161059e90611e60565b610d5283836114a0565b9392505050565b610d61611073565b6001600160a01b03811660009081526009602052604090205460ff16610d995760405162461bcd60e51b815260040161059e90611ea7565b42601255600f80546001600160a01b0319166001600160a01b0392909216919091179055565b83421115610de35760405163313c898160e11b81526004810185905260240161059e565b60007f6e71edae12b1b97f4d1f60370fef10105fa2faae0126114a169c64845d6126c9888888610e308c6001600160a01b0316600090815260076020526040902080546001810190915590565b6040805160208101969096526001600160a01b0394851690860152929091166060840152608083015260a082015260c0810186905260e0016040516020818303038152906040528051906020012090506000610e8b826114ae565b90506000610e9b828787876114db565b9050896001600160a01b0316816001600160a01b031614610ee2576040516325c0072360e11b81526001600160a01b0380831660048301528b16602482015260440161059e565b610eed8a8a8a6110a0565b50505050505050505050565b6001600160a01b03918216600090815260016020908152604080832093909416825291909152205490565b610f2c611073565b60115460008111610f4f5760405162461bcd60e51b815260040161059e90611d5f565b610f797f000000000000000000000000000000000000000000000000000000000000000082611d8d565b421015610f985760405162461bcd60e51b815260040161059e90611dae565b50600e80546001600160a01b03166000908152600a60205260408120805460ff1916905560115580546001600160a01b0319169055565b610fd7611073565b610fe083611509565b610fe982611509565b610ff281611509565b600b80546001600160a01b039485166001600160a01b031991821617909155600c805493851693821693909317909255600d805491909316911617905542601355565b61103d611073565b6001600160a01b038116611067576000604051631e4fbdf760e01b815260040161059e9190611bc9565b611070816113a0565b50565b6008546001600160a01b03163314610acb573360405163118cdaa760e01b815260040161059e9190611bc9565b6110ad83838360016115ae565b505050565b6000336110c0858285611684565b6110cb8585856116d1565b506001949350505050565b6000306001600160a01b037f00000000000000000000000000000000000000000000000000000000000000001614801561112f57507f000000000000000000000000000000000000000000000000000000000000000046145b1561115957507f000000000000000000000000000000000000000000000000000000000000000090565b6107ee604080517f8b73c3c69bb8fe3d512ecc4cf759cc79239f7b179b0ffacaa9a75d522b39400f60208201527f0000000000000000000000000000000000000000000000000000000000000000918101919091527f000000000000000000000000000000000000000000000000000000000000000060608201524660808201523060a082015260009060c00160405160208183030381529060405280519060200120905090565b6001600160a01b03821661122b57600060405163ec442f0560e01b815260040161059e9190611bc9565b61085c6000838361172c565b61124083611509565b61124982611509565b61125281611509565b6001600160a01b03831660009081526009602052604090819020805460ff19166001179055517f552e6c3035c33f04f1890bc312cbff2a7785b2e14ba719e635c5a8a754705647906112a5908590611bc9565b60405180910390a16001600160a01b03821660009081526009602052604090819020805460ff19166001179055517fd5aac92b48f52fdc22e5b14b07e3cbbd61e939d86cec15efe7db4fd82a8d191190611300908490611bc9565b60405180910390a16001600160a01b03811660009081526009602052604090819020805460ff19166001179055517f5f1db3103369b41aebc8a140eb5553e5a21d3df288ff446278b59eb15d59e2a49061135b908390611bc9565b60405180910390a16001600160a01b039081166000908152600a60205260408082208054600160ff199182168117909255959093168252902080549093161790915550565b600880546001600160a01b038381166001600160a01b0319831681179093556040519116919082907f8be0079c531659141344cd1fd0a4f28419497f9722a3daafe3b4186f6b6457e090600090a35050565b6001600160a01b0381166000908152600760205260408120546106d0565b60606107ee7f00000000000000000000000000000000000000000000000000000000000000006005611843565b60606107ee7f00000000000000000000000000000000000000000000000000000000000000006006611843565b6001600160a01b038216611494576000604051634b637e8f60e11b815260040161059e9190611bc9565b61085c8260008361172c565b6000336106ca8185856116d1565b60006106d06114bb6110d6565b8360405161190160f01b8152600281019290925260228201526042902090565b6000806000806114ed888888886118ee565b9250925092506114fd82826119b3565b50909695505050505050565b6001600160a01b03811661155f5760405162461bcd60e51b815260206004820152601e60248201527f4163636f756e742063616e6e6f74206265207a65726f20616464726573730000604482015260640161059e565b803b8061085c5760405162461bcd60e51b815260206004820181905260248201527f4163636f756e7420636f64652073697a652063616e6e6f74206265207a65726f604482015260640161059e565b6001600160a01b0384166115d857600060405163e602df0560e01b815260040161059e9190611bc9565b6001600160a01b038316611602576000604051634a1406b160e11b815260040161059e9190611bc9565b6001600160a01b038085166000908152600160209081526040808320938716835292905220829055801561167e57826001600160a01b0316846001600160a01b03167f8c5be1e5ebec7d5bd14f71427d1e84f3dd0314c0f7b2291e5b200ac8c7c3b9258460405161167591815260200190565b60405180910390a35b50505050565b60006116908484610ef9565b9050600019811461167e57818110156116c257828183604051637dc7a0d960e11b815260040161059e93929190611ede565b61167e848484840360006115ae565b6001600160a01b0383166116fb576000604051634b637e8f60e11b815260040161059e9190611bc9565b6001600160a01b03821661172557600060405163ec442f0560e01b815260040161059e9190611bc9565b6110ad8383835b6001600160a01b03831661175757806002600082825461174c9190611d8d565b909155506117b69050565b6001600160a01b038316600090815260208190526040902054818110156117975783818360405163391434e360e21b815260040161059e93929190611ede565b6001600160a01b03841660009081526020819052604090209082900390555b6001600160a01b0382166117d2576002805482900390556117f1565b6001600160a01b03821660009081526020819052604090208054820190555b816001600160a01b0316836001600160a01b03167fddf252ad1be2c89b69c2b068fc378daa952ba7f163c4a11628f55a4df523b3ef8360405161183691815260200190565b60405180910390a3505050565b606060ff831461185d5761185683611a6c565b90506106d0565b81805461186990611de3565b80601f016020809104026020016040519081016040528092919081815260200182805461189590611de3565b80156118e25780601f106118b7576101008083540402835291602001916118e2565b820191906000526020600020905b8154815290600101906020018083116118c557829003601f168201915b505050505090506106d0565b600080806fa2a8918ca85bafe22016d0b997e4df60600160ff1b0384111561191f57506000915060039050826119a9565b604080516000808252602082018084528a905260ff891692820192909252606081018790526080810186905260019060a0016020604051602081039080840390855afa158015611973573d6000803e3d6000fd5b5050604051601f1901519150506001600160a01b03811661199f575060009250600191508290506119a9565b9250600091508190505b9450945094915050565b60008260038111156119c7576119c7611eff565b036119d0575050565b60018260038111156119e4576119e4611eff565b03611a025760405163f645eedf60e01b815260040160405180910390fd5b6002826003811115611a1657611a16611eff565b03611a375760405163fce698f760e01b81526004810182905260240161059e565b6003826003811115611a4b57611a4b611eff565b0361085c576040516335e2f38360e21b81526004810182905260240161059e565b60606000611a7983611aab565b604080516020808252818301909252919250600091906020820181803683375050509182525060208101929092525090565b600060ff8216601f8111156106d057604051632cd44ac360e21b815260040160405180910390fd5b6000815180845260005b81811015611af957602081850181015186830182015201611add565b506000602082860101526020601f19601f83011685010191505092915050565b602081526000610d526020830184611ad3565b80356001600160a01b0381168114611b4357600080fd5b919050565b60008060408385031215611b5b57600080fd5b611b6483611b2c565b946020939093013593505050565b600080600060608486031215611b8757600080fd5b611b9084611b2c565b9250611b9e60208501611b2c565b9150604084013590509250925092565b600060208284031215611bc057600080fd5b610d5282611b2c565b6001600160a01b0391909116815260200190565b60ff60f81b881681526000602060e06020840152611bfe60e084018a611ad3565b8381036040850152611c10818a611ad3565b606085018990526001600160a01b038816608086015260a0850187905284810360c08601528551808252602080880193509091019060005b81811015611c6457835183529284019291840191600101611c48565b50909c9b505050505050505050505050565b600080600080600080600060e0888a031215611c9157600080fd5b611c9a88611b2c565b9650611ca860208901611b2c565b95506040880135945060608801359350608088013560ff81168114611ccc57600080fd5b9699959850939692959460a0840135945060c09093013592915050565b60008060408385031215611cfc57600080fd5b611d0583611b2c565b9150611d1360208401611b2c565b90509250929050565b600080600060608486031215611d3157600080fd5b611d3a84611b2c565b9250611d4860208501611b2c565b9150611d5660408501611b2c565b90509250925092565b60208082526014908201527310da185b99d9481b9bdd081a5b9a5d1a585d195960621b604082015260600190565b808201808211156106d057634e487b7160e01b600052601160045260246000fd5b6020808252818101527f476f7665726e616e63652064656c617920686173206e6f7420656c6170736564604082015260600190565b600181811c90821680611df757607f821691505b602082108103611e1757634e487b7160e01b600052602260045260246000fd5b50919050565b60208082526023908201527f45524332303a207472616e7366657220746f20746865207a65726f206164647260408201526265737360e81b606082015260800190565b60208082526027908201527f45524332303a207472616e7366657220746f2074686520636f6e7472616374206040820152666164647265737360c81b606082015260800190565b6020808252601b908201527f496e636f7272656374206164647265737320746f207265766f6b650000000000604082015260600190565b6001600160a01b039390931683526020830191909152604082015260600190565b634e487b7160e01b600052602160045260246000fdfea264697066735822122018d12cac525630e454a9fb4a312bfd01e2f5359377c593f7b4240f8758bd2d1a64736f6c63430008180033",
  "devdoc": {
    "errors": {
      "ECDSAInvalidSignature()": [
        {
          "details": "The signature derives the `address(0)`."
        }
      ],
      "ECDSAInvalidSignatureLength(uint256)": [
        {
          "details": "The signature has an invalid length."
        }
      ],
      "ECDSAInvalidSignatureS(bytes32)": [
        {
          "details": "The signature has an S value that is in the upper half order."
        }
      ],
      "ERC20InsufficientAllowance(address,uint256,uint256)": [
        {
          "details": "Indicates a failure with the `spender`s `allowance`. Used in transfers.",
          "params": {
            "allowance": "Amount of tokens a `spender` is allowed to operate with.",
            "needed": "Minimum amount required to perform a transfer.",
            "spender": "Address that may be allowed to operate on tokens without being their owner."
          }
        }
      ],
      "ERC20InsufficientBalance(address,uint256,uint256)": [
        {
          "details": "Indicates an error related to the current `balance` of a `sender`. Used in transfers.",
          "params": {
            "balance": "Current balance for the interacting account.",
            "needed": "Minimum amount required to perform a transfer.",
            "sender": "Address whose tokens are being transferred."
          }
        }
      ],
      "ERC20InvalidApprover(address)": [
        {
          "details": "Indicates a failure with the `approver` of a token to be approved. Used in approvals.",
          "params": {
            "approver": "Address initiating an approval operation."
          }
        }
      ],
      "ERC20InvalidReceiver(address)": [
        {
          "details": "Indicates a failure with the token `receiver`. Used in transfers.",
          "params": {
            "receiver": "Address to which tokens are being transferred."
          }
        }
      ],
      "ERC20InvalidSender(address)": [
        {
          "details": "Indicates a failure with the token `sender`. Used in transfers.",
          "params": {
            "sender": "Address whose tokens are being transferred."
          }
        }
      ],
      "ERC20InvalidSpender(address)": [
        {
          "details": "Indicates a failure with the `spender` to be approved. Used in approvals.",
          "params": {
            "spender": "Address that may be allowed to operate on tokens without being their owner."
          }
        }
      ],
      "ERC2612ExpiredSignature(uint256)": [
        {
          "details": "Permit deadline has expired."
        }
      ],
      "ERC2612InvalidSigner(address,address)": [
        {
          "details": "Mismatched signature."
        }
      ],
      "InvalidAccountNonce(address,uint256)": [
        {
          "details": "The nonce used for an `account` is not the expected current nonce."
        }
      ],
      "OwnableInvalidOwner(address)": [
        {
          "details": "The owner is not a valid owner account. (eg. `address(0)`)"
        }
      ],
      "OwnableUnauthorizedAccount(address)": [
        {
          "details": "The caller account is not authorized to perform an operation."
        }
      ]
    },
    "events": {
      "Approval(address,address,uint256)": {
        "details": "Emitted when the allowance of a `spender` for an `owner` is set by a call to {approve}. `value` is the new allowance."
      },
      "EIP712DomainChanged()": {
        "details": "MAY be emitted to signal that the domain could have changed."
      },
      "Transfer(address,address,uint256)": {
        "details": "Emitted when `value` tokens are moved from one account (`from`) to another (`to`). Note that `value` may be zero."
      }
    },
    "kind": "dev",
    "methods": {
      "DOMAIN_SEPARATOR()": {
        "details": "Returns the domain separator used in the encoding of the signature for {permit}, as defined by {EIP712}."
      },
      "allowance(address,address)": {
        "details": "See {IERC20-allowance}."
      },
      "approve(address,uint256)": {
        "details": "See {IERC20-approve}. NOTE: If `value` is the maximum `uint256`, the allowance is not updated on `transferFrom`. This is semantically equivalent to an infinite approval. Requirements: - `spender` cannot be the zero address."
      },
      "balanceOf(address)": {
        "details": "See {IERC20-balanceOf}."
      },
      "decimals()": {
        "details": "Returns the number of decimals used to get its user representation. For example, if `decimals` equals `2`, a balance of `505` tokens should be displayed to a user as `5.05` (`505 / 10 ** 2`). Tokens usually opt for a value of 18, imitating the relationship between Ether and Wei. This is the default value returned by this function, unless it's overridden. NOTE: This information is only used for _display_ purposes: it in no way affects any of the arithmetic of the contract, including {IERC20-balanceOf} and {IERC20-transfer}."
      },
      "eip712Domain()": {
        "details": "See {IERC-5267}."
      },
      "name()": {
        "details": "Returns the name of the token."
      },
      "owner()": {
        "details": "Returns the address of the current owner."
      },
      "permit(address,address,uint256,uint256,uint8,bytes32,bytes32)": {
        "details": "Sets `value` as the allowance of `spender` over ``owner``'s tokens, given ``owner``'s signed approval. IMPORTANT: The same issues {IERC20-approve} has related to transaction ordering also apply here. Emits an {Approval} event. Requirements: - `spender` cannot be the zero address. - `deadline` must be a timestamp in the future. - `v`, `r` and `s` must be a valid `secp256k1` signature from `owner` over the EIP712-formatted function arguments. - the signature must use ``owner``'s current nonce (see {nonces}). For more information on the signature format, see the https://eips.ethereum.org/EIPS/eip-2612#specification[relevant EIP section]. CAUTION: See Security Considerations above."
      },
      "renounceOwnership()": {
        "details": "Leaves the contract without owner. It will not be possible to call `onlyOwner` functions. Can only be called by the current owner. NOTE: Renouncing ownership will leave the contract without an owner, thereby disabling any functionality that is only available to the owner."
      },
      "symbol()": {
        "details": "Returns the symbol of the token, usually a shorter version of the name."
      },
      "totalSupply()": {
        "details": "See {IERC20-totalSupply}."
      },
      "transferOwnership(address)": {
        "details": "Transfers ownership of the contract to a new account (`newOwner`). Can only be called by the current owner."
      }
    },
    "version": 1
  },
  "userdoc": {
    "kind": "user",
    "methods": {},
    "version": 1
  },
  "storageLayout": {
    "storage": [
      {
        "astId": 332,
        "contract": "contracts/token/MUSD.sol:MUSD",
        "label": "_balances",
        "offset": 0,
        "slot": "0",
        "type": "t_mapping(t_address,t_uint256)"
      },
      {
        "astId": 338,
        "contract": "contracts/token/MUSD.sol:MUSD",
        "label": "_allowances",
        "offset": 0,
        "slot": "1",
        "type": "t_mapping(t_address,t_mapping(t_address,t_uint256))"
      },
      {
        "astId": 340,
        "contract": "contracts/token/MUSD.sol:MUSD",
        "label": "_totalSupply",
        "offset": 0,
        "slot": "2",
        "type": "t_uint256"
      },
      {
        "astId": 342,
        "contract": "contracts/token/MUSD.sol:MUSD",
        "label": "_name",
        "offset": 0,
        "slot": "3",
        "type": "t_string_storage"
      },
      {
        "astId": 344,
        "contract": "contracts/token/MUSD.sol:MUSD",
        "label": "_symbol",
        "offset": 0,
        "slot": "4",
        "type": "t_string_storage"
      },
      {
        "astId": 2726,
        "contract": "contracts/token/MUSD.sol:MUSD",
        "label": "_nameFallback",
        "offset": 0,
        "slot": "5",
        "type": "t_string_storage"
      },
      {
        "astId": 2728,
        "contract": "contracts/token/MUSD.sol:MUSD",
        "label": "_versionFallback",
        "offset": 0,
        "slot": "6",
        "type": "t_string_storage"
      },
      {
        "astId": 1705,
        "contract": "contracts/token/MUSD.sol:MUSD",
        "label": "_nonces",
        "offset": 0,
        "slot": "7",
        "type": "t_mapping(t_address,t_uint256)"
      },
      {
        "astId": 8,
        "contract": "contracts/token/MUSD.sol:MUSD",
        "label": "_owner",
        "offset": 0,
        "slot": "8",
        "type": "t_address"
      },
      {
        "astId": 29808,
        "contract": "contracts/token/MUSD.sol:MUSD",
        "label": "burnList",
        "offset": 0,
        "slot": "9",
        "type": "t_mapping(t_address,t_bool)"
      },
      {
        "astId": 29812,
        "contract": "contracts/token/MUSD.sol:MUSD",
        "label": "mintList",
        "offset": 0,
        "slot": "10",
        "type": "t_mapping(t_address,t_bool)"
      },
      {
        "astId": 29816,
        "contract": "contracts/token/MUSD.sol:MUSD",
        "label": "pendingTroveManager",
        "offset": 0,
        "slot": "11",
        "type": "t_address"
      },
      {
        "astId": 29818,
        "contract": "contracts/token/MUSD.sol:MUSD",
        "label": "pendingStabilityPool",
        "offset": 0,
        "slot": "12",
        "type": "t_address"
      },
      {
        "astId": 29820,
        "contract": "contracts/token/MUSD.sol:MUSD",
        "label": "pendingBorrowerOperations",
        "offset": 0,
        "slot": "13",
        "type": "t_address"
      },
      {
        "astId": 29822,
        "contract": "contracts/token/MUSD.sol:MUSD",
        "label": "pendingRevokedMintAddress",
        "offset": 0,
        "slot": "14",
        "type": "t_address"
      },
      {
        "astId": 29824,
        "contract": "contracts/token/MUSD.sol:MUSD",
        "label": "pendingRevokedBurnAddress",
        "offset": 0,
        "slot": "15",
        "type": "t_address"
      },
      {
        "astId": 29826,
        "contract": "contracts/token/MUSD.sol:MUSD",
        "label": "pendingAddedMintAddress",
        "offset": 0,
        "slot": "16",
        "type": "t_address"
      },
      {
        "astId": 29828,
        "contract": "contracts/token/MUSD.sol:MUSD",
        "label": "revokeMintListInitiated",
        "offset": 0,
        "slot": "17",
        "type": "t_uint256"
      },
      {
        "astId": 29830,
        "contract": "contracts/token/MUSD.sol:MUSD",
        "label": "revokeBurnListInitiated",
        "offset": 0,
        "slot": "18",
        "type": "t_uint256"
      },
      {
        "astId": 29832,
        "contract": "contracts/token/MUSD.sol:MUSD",
        "label": "addContractsInitiated",
        "offset": 0,
        "slot": "19",
        "type": "t_uint256"
      },
      {
        "astId": 29834,
        "contract": "contracts/token/MUSD.sol:MUSD",
        "label": "addMintListInitiated",
        "offset": 0,
        "slot": "20",
        "type": "t_uint256"
      }
    ],
    "types": {
      "t_address": {
        "encoding": "inplace",
        "label": "address",
        "numberOfBytes": "20"
      },
      "t_bool": {
        "encoding": "inplace",
        "label": "bool",
        "numberOfBytes": "1"
      },
      "t_mapping(t_address,t_bool)": {
        "encoding": "mapping",
        "key": "t_address",
        "label": "mapping(address => bool)",
        "numberOfBytes": "32",
        "value": "t_bool"
      },
      "t_mapping(t_address,t_mapping(t_address,t_uint256))": {
        "encoding": "mapping",
        "key": "t_address",
        "label": "mapping(address => mapping(address => uint256))",
        "numberOfBytes": "32",
        "value": "t_mapping(t_address,t_uint256)"
      },
      "t_mapping(t_address,t_uint256)": {
        "encoding": "mapping",
        "key": "t_address",
        "label": "mapping(address => uint256)",
        "numberOfBytes": "32",
        "value": "t_uint256"
      },
      "t_string_storage": {
        "encoding": "bytes",
        "label": "string",
        "numberOfBytes": "32"
      },
      "t_uint256": {
        "encoding": "inplace",
        "label": "uint256",
        "numberOfBytes": "32"
      }
    }
  }
}