{
  "address": "0xebd0b1638f13647b6E655E7565033cf0E522E096",
  "abi": [
    {
      "inputs": [
        {
          "internalType": "uint256",
          "name": "_governanceTimeDelay",
          "type": "uint256"
        }
      ],
      "stateMutability": "nonpayable",
      "type": "constructor"
    },
    {
      "inputs": [
        {
          "internalType": "address",
          "name": "target",
          "type": "address"
        }
      ],
      "name": "AddressEmptyCode",
      "type": "error"
    },
    {
      "inputs": [
        {
          "internalType": "address",
          "name": "account",
          "type": "address"
        }
      ],
      "name": "AddressInsufficientBalance",
      "type": "error"
    },
    {
      "inputs": [],
      "name": "FailedInnerCall",
      "type": "error"
    },
    {
      "inputs": [
        {
          "internalType": "address",
          "name": "owner",
          "type": "address"
        }
      ],
      "name": "OwnableInvalidOwner",
      "type": "error"
    },
    {
      "inputs": [
        {
          "internalType": "address",
          "name": "account",
          "type": "address"
        }
      ],
      "name": "OwnableUnauthorizedAccount",
      "type": "error"
    },
    {
      "inputs": [
        {
          "internalType": "address",
          "name": "token",
          "type": "address"
        }
      ],
      "name": "SafeERC20FailedOperation",
      "type": "error"
    },
    {
      "anonymous": false,
      "inputs": [
        {
          "indexed": false,
          "internalType": "address",
          "name": "_borrowerOperationsAddress",
          "type": "address"
        }
      ],
      "name": "BorrowerOperationsAddressSet",
      "type": "event"
    },
    {
      "anonymous": false,
      "inputs": [
        {
          "indexed": false,
          "internalType": "address",
          "name": "_collateralAddress",
          "type": "address"
        }
      ],
      "name": "CollateralAddressSet",
      "type": "event"
    },
    {
      "anonymous": false,
      "inputs": [
        {
          "indexed": false,
          "internalType": "address",
          "name": "_recipient",
          "type": "address"
        },
        {
          "indexed": false,
          "internalType": "uint256",
          "name": "_collateralAmount",
          "type": "uint256"
        }
      ],
      "name": "CollateralWithdraw",
      "type": "event"
    },
    {
      "anonymous": false,
      "inputs": [
        {
          "indexed": false,
          "internalType": "address",
          "name": "_musdTokenAddress",
          "type": "address"
        }
      ],
      "name": "MUSDTokenAddressSet",
      "type": "event"
    },
    {
      "anonymous": false,
      "inputs": [
        {
          "indexed": false,
          "internalType": "address",
          "name": "_recipient",
          "type": "address"
        },
        {
          "indexed": false,
          "internalType": "uint256",
          "name": "_amount",
          "type": "uint256"
        }
      ],
      "name": "MUSDWithdraw",
      "type": "event"
    },
    {
      "anonymous": false,
      "inputs": [
        {
          "indexed": true,
          "internalType": "address",
          "name": "previousOwner",
          "type": "address"
        },
        {
          "indexed": true,
          "internalType": "address",
          "name": "newOwner",
          "type": "address"
        }
      ],
      "name": "OwnershipTransferred",
      "type": "event"
    },
    {
      "anonymous": false,
      "inputs": [
        {
          "indexed": false,
          "internalType": "uint256",
          "name": "_paidDebt",
          "type": "uint256"
        }
      ],
      "name": "PCVDebtPaid",
      "type": "event"
    },
    {
      "anonymous": false,
      "inputs": [
        {
          "indexed": false,
          "internalType": "address",
          "name": "_recipient",
          "type": "address"
        },
        {
          "indexed": false,
          "internalType": "uint256",
          "name": "_amount",
          "type": "uint256"
        }
      ],
      "name": "PCVFeePaid",
      "type": "event"
    },
    {
      "anonymous": false,
      "inputs": [
        {
          "indexed": false,
          "internalType": "address",
          "name": "_recipient",
          "type": "address"
        }
      ],
      "name": "RecipientAdded",
      "type": "event"
    },
    {
      "anonymous": false,
      "inputs": [
        {
          "indexed": false,
          "internalType": "address",
          "name": "_recipient",
          "type": "address"
        }
      ],
      "name": "RecipientRemoved",
      "type": "event"
    },
    {
      "anonymous": false,
      "inputs": [
        {
          "indexed": false,
          "internalType": "address",
          "name": "_council",
          "type": "address"
        },
        {
          "indexed": false,
          "internalType": "address",
          "name": "_treasury",
          "type": "address"
        }
      ],
      "name": "RolesSet",
      "type": "event"
    },
    {
      "inputs": [],
      "name": "BOOTSTRAP_LOAN",
      "outputs": [
        {
          "internalType": "uint256",
          "name": "",
          "type": "uint256"
        }
      ],
      "stateMutability": "view",
      "type": "function"
    },
    {
      "inputs": [],
      "name": "FEE_SPLIT_MAX",
      "outputs": [
        {
          "internalType": "uint8",
          "name": "",
          "type": "uint8"
        }
      ],
      "stateMutability": "view",
      "type": "function"
    },
    {
      "inputs": [
        {
          "internalType": "address",
          "name": "_recipient",
          "type": "address"
        }
      ],
      "name": "addRecipientToWhitelist",
      "outputs": [],
      "stateMutability": "nonpayable",
      "type": "function"
    },
    {
      "inputs": [
        {
          "internalType": "address[]",
          "name": "_recipients",
          "type": "address[]"
        }
      ],
      "name": "addRecipientsToWhitelist",
      "outputs": [],
      "stateMutability": "nonpayable",
      "type": "function"
    },
    {
      "inputs": [],
      "name": "borrowerOperations",
      "outputs": [
        {
          "internalType": "contract BorrowerOperations",
          "name": "",
          "type": "address"
        }
      ],
      "stateMutability": "view",
      "type": "function"
    },
    {
      "inputs": [],
      "name": "cancelChangingRoles",
      "outputs": [],
      "stateMutability": "nonpayable",
      "type": "function"
    },
    {
      "inputs": [],
      "name": "changingRolesInitiated",
      "outputs": [
        {
          "internalType": "uint256",
          "name": "",
          "type": "uint256"
        }
      ],
      "stateMutability": "view",
      "type": "function"
    },
    {
      "inputs": [],
      "name": "collateralERC20",
      "outputs": [
        {
          "internalType": "contract IERC20",
          "name": "",
          "type": "address"
        }
      ],
      "stateMutability": "view",
      "type": "function"
    },
    {
      "inputs": [],
      "name": "council",
      "outputs": [
        {
          "internalType": "address",
          "name": "",
          "type": "address"
        }
      ],
      "stateMutability": "view",
      "type": "function"
    },
    {
      "inputs": [],
      "name": "debtToPay",
      "outputs": [
        {
          "internalType": "uint256",
          "name": "",
          "type": "uint256"
        }
      ],
      "stateMutability": "view",
      "type": "function"
    },
    {
      "inputs": [
        {
          "internalType": "uint256",
          "name": "_amount",
          "type": "uint256"
        }
      ],
      "name": "depositToStabilityPool",
      "outputs": [],
      "stateMutability": "nonpayable",
      "type": "function"
    },
    {
      "inputs": [],
      "name": "feeRecipient",
      "outputs": [
        {
          "internalType": "address",
          "name": "",
          "type": "address"
        }
      ],
      "stateMutability": "view",
      "type": "function"
    },
    {
      "inputs": [],
      "name": "feeSplitPercentage",
      "outputs": [
        {
          "internalType": "uint8",
          "name": "",
          "type": "uint8"
        }
      ],
      "stateMutability": "view",
      "type": "function"
    },
    {
      "inputs": [],
      "name": "finalizeChangingRoles",
      "outputs": [],
      "stateMutability": "nonpayable",
      "type": "function"
    },
    {
      "inputs": [],
      "name": "governanceTimeDelay",
      "outputs": [
        {
          "internalType": "uint256",
          "name": "",
          "type": "uint256"
        }
      ],
      "stateMutability": "view",
      "type": "function"
    },
    {
      "inputs": [],
      "name": "initialize",
      "outputs": [],
      "stateMutability": "nonpayable",
      "type": "function"
    },
    {
      "inputs": [],
      "name": "isInitialized",
      "outputs": [
        {
          "internalType": "bool",
          "name": "",
          "type": "bool"
        }
      ],
      "stateMutability": "view",
      "type": "function"
    },
    {
      "inputs": [],
      "name": "musd",
      "outputs": [
        {
          "internalType": "contract IMUSD",
          "name": "",
          "type": "address"
        }
      ],
      "stateMutability": "view",
      "type": "function"
    },
    {
      "inputs": [],
      "name": "owner",
      "outputs": [
        {
          "internalType": "address",
          "name": "",
          "type": "address"
        }
      ],
      "stateMutability": "view",
      "type": "function"
    },
    {
      "inputs": [
        {
          "internalType": "uint256",
          "name": "_musdToBurn",
          "type": "uint256"
        }
      ],
      "name": "payDebt",
      "outputs": [],
      "stateMutability": "nonpayable",
      "type": "function"
    },
    {
      "inputs": [],
      "name": "pendingCouncilAddress",
      "outputs": [
        {
          "internalType": "address",
          "name": "",
          "type": "address"
        }
      ],
      "stateMutability": "view",
      "type": "function"
    },
    {
      "inputs": [],
      "name": "pendingTreasuryAddress",
      "outputs": [
        {
          "internalType": "address",
          "name": "",
          "type": "address"
        }
      ],
      "stateMutability": "view",
      "type": "function"
    },
    {
      "inputs": [
        {
          "internalType": "address",
          "name": "",
          "type": "address"
        }
      ],
      "name": "recipientsWhitelist",
      "outputs": [
        {
          "internalType": "bool",
          "name": "",
          "type": "bool"
        }
      ],
      "stateMutability": "view",
      "type": "function"
    },
    {
      "inputs": [
        {
          "internalType": "address",
          "name": "_recipient",
          "type": "address"
        }
      ],
      "name": "removeRecipientFromWhitelist",
      "outputs": [],
      "stateMutability": "nonpayable",
      "type": "function"
    },
    {
      "inputs": [
        {
          "internalType": "address[]",
          "name": "_recipients",
          "type": "address[]"
        }
      ],
      "name": "removeRecipientsFromWhitelist",
      "outputs": [],
      "stateMutability": "nonpayable",
      "type": "function"
    },
    {
      "inputs": [],
      "name": "renounceOwnership",
      "outputs": [],
      "stateMutability": "nonpayable",
      "type": "function"
    },
    {
      "inputs": [
        {
          "internalType": "address",
          "name": "_musdTokenAddress",
          "type": "address"
        },
        {
          "internalType": "address",
          "name": "_borrowerOperations",
          "type": "address"
        },
        {
          "internalType": "address",
          "name": "_collateralERC20",
          "type": "address"
        }
      ],
      "name": "setAddresses",
      "outputs": [],
      "stateMutability": "nonpayable",
      "type": "function"
    },
    {
      "inputs": [
        {
          "internalType": "address",
          "name": "_feeRecipient",
          "type": "address"
        }
      ],
      "name": "setFeeRecipient",
      "outputs": [],
      "stateMutability": "nonpayable",
      "type": "function"
    },
    {
      "inputs": [
        {
          "internalType": "uint8",
          "name": "_feeSplitPercentage",
          "type": "uint8"
        }
      ],
      "name": "setFeeSplit",
      "outputs": [],
      "stateMutability": "nonpayable",
      "type": "function"
    },
    {
      "inputs": [
        {
          "internalType": "address",
          "name": "_council",
          "type": "address"
        },
        {
          "internalType": "address",
          "name": "_treasury",
          "type": "address"
        }
      ],
      "name": "startChangingRoles",
      "outputs": [],
      "stateMutability": "nonpayable",
      "type": "function"
    },
    {
      "inputs": [
        {
          "internalType": "address",
          "name": "newOwner",
          "type": "address"
        }
      ],
      "name": "transferOwnership",
      "outputs": [],
      "stateMutability": "nonpayable",
      "type": "function"
    },
    {
      "inputs": [],
      "name": "treasury",
      "outputs": [
        {
          "internalType": "address",
          "name": "",
          "type": "address"
        }
      ],
      "stateMutability": "view",
      "type": "function"
    },
    {
      "inputs": [
        {
          "internalType": "address",
          "name": "_recipient",
          "type": "address"
        },
        {
          "internalType": "uint256",
          "name": "_collateralAmount",
          "type": "uint256"
        }
      ],
      "name": "withdrawCollateral",
      "outputs": [],
      "stateMutability": "nonpayable",
      "type": "function"
    },
    {
      "inputs": [
        {
          "internalType": "address",
          "name": "_recipient",
          "type": "address"
        },
        {
          "internalType": "uint256",
          "name": "_amount",
          "type": "uint256"
        }
      ],
      "name": "withdrawMUSD",
      "outputs": [],
      "stateMutability": "nonpayable",
      "type": "function"
    },
    {
      "stateMutability": "payable",
      "type": "receive"
    }
  ],
  "transactionHash": "0x2a337a76b397651b6bcb0510d0ff519c32a461cbf08ec905ecfabfcb480962fc",
  "args": [
    7200
  ],
  "numDeployments": 1,
  "solcInputHash": "4bf27f276f32f200c02c307a6797ac39",
  "bytecode": "0x60a06040523480156200001157600080fd5b50604051620025bc380380620025bc83398101604081905262000034916200011a565b33806200005c57604051631e4fbdf760e01b8152600060048201526024015b60405180910390fd5b6200006781620000ca565b506080819052630114db00811115620000c35760405162461bcd60e51b815260206004820152601b60248201527f476f7665726e616e63652064656c617920697320746f6f206269670000000000604482015260640162000053565b5062000134565b600080546001600160a01b038381166001600160a01b0319831681178455604051919092169283917f8be0079c531659141344cd1fd0a4f28419497f9722a3daafe3b4186f6b6457e09190a35050565b6000602082840312156200012d57600080fd5b5051919050565b60805161245e6200015e6000396000818161050101528181611378015261198b015261245e6000f3fe6080604052600436106101bd5760003560e01c80638129fc1c116100ed578063cab666d011610090578063cab666d014610569578063ceba3caf14610589578063d549e618146105a9578063e2c6d41c146105be578063e46a3a4f146105e3578063e74b981b14610603578063e7c88cda14610623578063f2fde38b14610643578063fd388be21461066357600080fd5b80638129fc1c146104655780638a74de291461047a5780638da5cb5b1461049a578063977ade35146104af578063addf4dd1146104cf578063afe5bf93146104ef578063b3ae0af614610523578063c54440611461053957600080fd5b80633a150ed2116101605780633a150ed21461033c57806346904840146103695780634fdb7d311461038957806361d027b3146103a957806369cee758146103c9578063715018a6146103e9578063724d3745146103fe5780637539d4dc1461041e57806377553ad41461044557600080fd5b80630aa7c21e1461023557806316fc3297146102555780631bf1758b146102755780631ecc4975146102a7578063350c35e9146102bc578063363bf964146102dc578063369931fa146102fc578063392e53cd1461031257600080fd5b36610230576002546001600160a01b03161561022e5760405162461bcd60e51b815260206004820152602560248201527f5043563a20455243323020636f6c6c61746572616c206e65656465642c206e6f604482015264742042544360d81b60648201526084015b60405180910390fd5b005b600080fd5b34801561024157600080fd5b5061022e610250366004611fcc565b610684565b34801561026157600080fd5b5061022e610270366004611fe9565b61076e565b34801561028157600080fd5b506102946a52b7d2dcc80cd2e400000081565b6040519081526020015b60405180910390f35b3480156102b357600080fd5b5061022e610b03565b3480156102c857600080fd5b5061022e6102d7366004612002565b610b50565b3480156102e857600080fd5b5061022e6102f736600461202e565b610c67565b34801561030857600080fd5b5061029460045481565b34801561031e57600080fd5b5060055461032c9060ff1681565b604051901515815260200161029e565b34801561034857600080fd5b5060085461035c906001600160a01b031681565b60405161029e9190612079565b34801561037557600080fd5b50600b5461035c906001600160a01b031681565b34801561039557600080fd5b5061022e6103a436600461208d565b610f36565b3480156103b557600080fd5b5060065461035c906001600160a01b031681565b3480156103d557600080fd5b5061022e6103e4366004611fcc565b61109a565b3480156103f557600080fd5b5061022e611165565b34801561040a57600080fd5b5060025461035c906001600160a01b031681565b34801561042a57600080fd5b50610433603281565b60405160ff909116815260200161029e565b34801561045157600080fd5b5060035461035c906001600160a01b031681565b34801561047157600080fd5b5061022e611179565b34801561048657600080fd5b5061022e6104953660046120b0565b6112c2565b3480156104a657600080fd5b5061035c6113dc565b3480156104bb57600080fd5b5061022e6104ca366004611fe9565b6113eb565b3480156104db57600080fd5b5061022e6104ea366004612002565b6116d7565b3480156104fb57600080fd5b506102947f000000000000000000000000000000000000000000000000000000000000000081565b34801561052f57600080fd5b50610294600a5481565b34801561054557600080fd5b5061032c610554366004611fcc565b60076020526000908152604090205460ff1681565b34801561057557600080fd5b5060015461035c906001600160a01b031681565b34801561059557600080fd5b5061022e6105a43660046120e9565b6118f8565b3480156105b557600080fd5b5061022e61195f565b3480156105ca57600080fd5b5060055461035c9061010090046001600160a01b031681565b3480156105ef57600080fd5b5060095461035c906001600160a01b031681565b34801561060f57600080fd5b5061022e61061e366004611fcc565b611abb565b34801561062f57600080fd5b5061022e61063e3660046120e9565b611b50565b34801561064f57600080fd5b5061022e61065e366004611fcc565b611bb2565b34801561066f57600080fd5b50600b5461043390600160a01b900460ff1681565b61068c611bed565b6001600160a01b03811660009081526007602052604090205460ff16156107105760405162461bcd60e51b815260206004820152603260248201527f5043563a20526563697069656e742068617320616c7265616479206265656e206044820152711859191959081d1bc81dda1a5d195b1a5cdd60721b6064820152608401610225565b6001600160a01b03811660009081526007602052604090819020805460ff19166001179055517f4205b1cf2b33c8147cc02b8fb0c9d3ff098218a686b0dd94b1e35d3c3968ad8c90610763908390612079565b60405180910390a150565b6107766113dc565b6001600160a01b0316336001600160a01b031614806107a4575060055461010090046001600160a01b031633145b806107b957506006546001600160a01b031633145b6107d55760405162461bcd60e51b81526004016102259061215e565b600060045411806107f05750600b546001600160a01b031615155b61083c5760405162461bcd60e51b815260206004820152601a60248201527f5043563a20646562742068617320616c726561647920706169640000000000006044820152606401610225565b6001546040516370a0823160e01b81526001600160a01b03909116906370a082319061086c903090600401612079565b602060405180830381865afa158015610889573d6000803e3d6000fd5b505050506040513d601f19601f820116820180604052508101906108ad91906121ae565b8111156108cc5760405162461bcd60e51b8152600401610225906121c7565b6004546000036108ea57600b805460ff60a01b1916601960a21b1790555b600b5460009060649061090790600160a01b900460ff168461220d565b6109119190612224565b9050600061091f8284612246565b905060045481111561094a576004546109389082612246565b6109429083612259565b915060045490505b806004600082825461095c9190612246565b9091555050600b546001600160a01b0316158015906109865750600b54600160a01b900460ff1615155b15610a2057600154600b5460405163a9059cbb60e01b81526001600160a01b039283169263a9059cbb926109c192911690869060040161226c565b6020604051808303816000875af11580156109e0573d6000803e3d6000fd5b505050506040513d601f19601f82011682018060405250810190610a049190612285565b610a205760405162461bcd60e51b8152600401610225906122a7565b600354604051632ba7511760e21b8152600481018390526001600160a01b039091169063ae9d445c90602401600060405180830381600087803b158015610a6657600080fd5b505af1158015610a7a573d6000803e3d6000fd5b505050507f3707046ba5d439e45ec51fb4596b88edce7802ede659f36e89931cd34c1cc05681604051610aaf91815260200190565b60405180910390a1600b546040517fdb7984dcab3b8cbd65e301ae592b73ad576c3607e1c32f65a93dbaf5d34b786091610af6916001600160a01b0390911690859061226c565b60405180910390a1505050565b610b0b611bed565b600a54600003610b2d5760405162461bcd60e51b8152600401610225906122d9565b6000600a55600880546001600160a01b0319908116909155600980549091169055565b60055460ff168015610b625750600454155b610b7e5760405162461bcd60e51b81526004016102259061230c565b610b866113dc565b6001600160a01b0316336001600160a01b03161480610bb4575060055461010090046001600160a01b031633145b80610bc957506006546001600160a01b031633145b610be55760405162461bcd60e51b81526004016102259061215e565b6001600160a01b038216600090815260076020526040902054829060ff16610c1f5760405162461bcd60e51b81526004016102259061233c565b600254610c36906001600160a01b03168484611c1f565b7f92682d28e4c16f4a2ddb833ecdd2bab2f2da69e2f325cda58d421e7d634b8e278383604051610af692919061226c565b610c6f611bed565b6001546001600160a01b031615610cc45760405162461bcd60e51b81526020600482015260196024820152781410d58e8818dbdb9d1858dd1cc8185b1c9958591e481cd95d603a1b6044820152606401610225565b610ccd83611cdf565b610cd682611cdf565b6001600160a01b03811615610cee57610cee81611cdf565b600180546001600160a01b038086166001600160a01b0319928316179092556002805484841690831617905560038054928516929091168217905560408051638da5cb5b60e01b8152905160009291638da5cb5b9160048083019260209291908290030181865afa158015610d67573d6000803e3d6000fd5b505050506040513d601f19601f82011682018060405250810190610d8b919061237f565b6001600160a01b0316141580610e165750600354604080516348d399e760e01b815290516001600160a01b038085169316916348d399e79160048083019260209291908290030181865afa158015610de7573d6000803e3d6000fd5b505050506040513d601f19601f82011682018060405250810190610e0b919061237f565b6001600160a01b0316145b610e995760405162461bcd60e51b815260206004820152604860248201527f5468652073616d6520636f6c6c61746572616c2061646472657373206d75737460448201527f206265207573656420666f722074686520656e7469726520736574206f6620636064820152676f6e74726163747360c01b608482015260a401610225565b7f1d45a7bae601fb3bdd4955d0de1d3a7f87c82d5e0109f47435776fa0ed5c530383604051610ec89190612079565b60405180910390a17f5962f8af633c4df1ab230096f773a514ee5adf7785c621ecdcdb764cb7f6e39182604051610eff9190612079565b60405180910390a17f355910d9025fedfb0c92482ab13962c2817c933700f665b15343c394533e4fc881604051610af69190612079565b610f3e6113dc565b6001600160a01b0316336001600160a01b03161480610f6c575060055461010090046001600160a01b031633145b80610f8157506006546001600160a01b031633145b610f9d5760405162461bcd60e51b81526004016102259061215e565b6000600454116110085760405162461bcd60e51b815260206004820152603060248201527f5043563a204d7573742068617665206465627420696e206f7264657220746f2060448201526f39b2ba1030903332b29039b83634ba1760811b6064820152608401610225565b603260ff8216111561107a5760405162461bcd60e51b815260206004820152603560248201527f5043563a204665652073706c6974206d757374206265206174206d6f7374203560448201527418103bb434b632903232b13a103932b6b0b4b7399760591b6064820152608401610225565b600b805460ff909216600160a01b0260ff60a01b19909216919091179055565b6110a2611bed565b6001600160a01b03811660009081526007602052604090205460ff166111155760405162461bcd60e51b815260206004820152602260248201527f5043563a20526563697069656e74206973206e6f7420696e2077686974656c696044820152611cdd60f21b6064820152608401610225565b6001600160a01b03811660009081526007602052604090819020805460ff19169055517f8176fc5412eb5076fee7f1a264915b808c24d495c2698c189030e5200e707d2590610763908390612079565b61116d611bed565b6111776000611d88565b565b6111816113dc565b6001600160a01b0316336001600160a01b031614806111af575060055461010090046001600160a01b031633145b806111c457506006546001600160a01b031633145b6111e05760405162461bcd60e51b81526004016102259061215e565b60055460ff161561122e5760405162461bcd60e51b81526020600482015260186024820152771410d58e88185b1c9958591e481a5b9a5d1a585b1a5e995960421b6044820152606401610225565b6a52b7d2dcc80cd2e400000060048181556005805460ff1916600117905560035460405163b064b0b760e01b81526001600160a01b039091169263b064b0b79261127c920190815260200190565b600060405180830381600087803b15801561129657600080fd5b505af11580156112aa573d6000803e3d6000fd5b505050506111776a52b7d2dcc80cd2e40000006113eb565b6112ca611bed565b6005546001600160a01b03838116610100909204161415806112fa57506006546001600160a01b03828116911614155b6113465760405162461bcd60e51b815260206004820152601c60248201527f5043563a20746865736520726f6c657320616c726561647920736574000000006044820152606401610225565b42600a5560055461010090046001600160a01b031615801561137157506006546001600160a01b0316155b156113ae577f0000000000000000000000000000000000000000000000000000000000000000600a60008282546113a89190612246565b90915550505b600880546001600160a01b039384166001600160a01b03199182161790915560098054929093169116179055565b6000546001600160a01b031690565b6113f36113dc565b6001600160a01b0316336001600160a01b03161480611421575060055461010090046001600160a01b031633145b8061143657506006546001600160a01b031633145b6114525760405162461bcd60e51b81526004016102259061215e565b6001546040516370a0823160e01b81526001600160a01b03909116906370a0823190611482903090600401612079565b602060405180830381865afa15801561149f573d6000803e3d6000fd5b505050506040513d601f19601f820116820180604052508101906114c391906121ae565b8111156114e25760405162461bcd60e51b8152600401610225906121c7565b600154600354604080516305b1155960e11b815290516001600160a01b039384169363095ea7b3931691630b622ab29160048083019260209291908290030181865afa158015611536573d6000803e3d6000fd5b505050506040513d601f19601f8201168201806040525081019061155a919061237f565b836040518363ffffffff1660e01b815260040161157892919061226c565b6020604051808303816000875af1158015611597573d6000803e3d6000fd5b505050506040513d601f19601f820116820180604052508101906115bb9190612285565b6115fe5760405162461bcd60e51b81526020600482015260146024820152731410d58e88105c1c1c9bdd985b0819985a5b195960621b6044820152606401610225565b600360009054906101000a90046001600160a01b03166001600160a01b0316630b622ab26040518163ffffffff1660e01b8152600401602060405180830381865afa158015611651573d6000803e3d6000fd5b505050506040513d601f19601f82011682018060405250810190611675919061237f565b6001600160a01b03166378c77a24826040518263ffffffff1660e01b81526004016116a291815260200190565b600060405180830381600087803b1580156116bc57600080fd5b505af11580156116d0573d6000803e3d6000fd5b5050505050565b60055460ff1680156116e95750600454155b6117055760405162461bcd60e51b81526004016102259061230c565b61170d6113dc565b6001600160a01b0316336001600160a01b0316148061173b575060055461010090046001600160a01b031633145b8061175057506006546001600160a01b031633145b61176c5760405162461bcd60e51b81526004016102259061215e565b6001600160a01b038216600090815260076020526040902054829060ff166117a65760405162461bcd60e51b81526004016102259061233c565b6001546040516370a0823160e01b81526001600160a01b03909116906370a08231906117d6903090600401612079565b602060405180830381865afa1580156117f3573d6000803e3d6000fd5b505050506040513d601f19601f8201168201806040525081019061181791906121ae565b8211156118365760405162461bcd60e51b8152600401610225906121c7565b60015460405163a9059cbb60e01b81526001600160a01b039091169063a9059cbb90611868908690869060040161226c565b6020604051808303816000875af1158015611887573d6000803e3d6000fd5b505050506040513d601f19601f820116820180604052508101906118ab9190612285565b6118c75760405162461bcd60e51b8152600401610225906122a7565b7f224dc11ebff077175e89868ae3e43dbfb345b0fec71aaadf10ccd9de4f60b68f8383604051610af692919061226c565b611900611bed565b8061191d5760405162461bcd60e51b81526004016102259061239c565b60005b8181101561195a5761195283838381811061193d5761193d6123e3565b90506020020160208101906103e49190611fcc565b600101611920565b505050565b611967611bed565b6000600a54116119895760405162461bcd60e51b8152600401610225906122d9565b7f0000000000000000000000000000000000000000000000000000000000000000600a546119b79190612259565b421015611a145760405162461bcd60e51b815260206004820152602560248201527f5043563a20476f7665726e616e63652064656c617920686173206e6f7420656c604482015264185c1cd95960da1b6064820152608401610225565b60085460058054610100600160a81b0319166101006001600160a01b0393841681029190911791829055600954600680549185166001600160a01b0319909216821790556040805192909304909316815260208101929092527f59c75b5339bba5e93a172203f9379bc69e8a051519504a7e71c467e818a41ced910160405180910390a16000600a55600880546001600160a01b0319908116909155600980549091169055565b611ac36113dc565b6001600160a01b0316336001600160a01b03161480611af1575060055461010090046001600160a01b031633145b80611b0657506006546001600160a01b031633145b611b225760405162461bcd60e51b81526004016102259061215e565b6001600160a01b03811615611b4d57600b80546001600160a01b0319166001600160a01b0383161790555b50565b611b58611bed565b80611b755760405162461bcd60e51b81526004016102259061239c565b60005b8181101561195a57611baa838383818110611b9557611b956123e3565b90506020020160208101906102509190611fcc565b600101611b78565b611bba611bed565b6001600160a01b038116611be4576000604051631e4fbdf760e01b81526004016102259190612079565b611b4d81611d88565b33611bf66113dc565b6001600160a01b031614611177573360405163118cdaa760e01b81526004016102259190612079565b6001600160a01b038316611ccb576000826001600160a01b03168260405160006040518083038185875af1925050503d8060008114611c7a576040519150601f19603f3d011682016040523d82523d6000602084013e611c7f565b606091505b5050905080611cc55760405162461bcd60e51b815260206004820152601260248201527114d95b991a5b99c8109510c819985a5b195960721b6044820152606401610225565b50505050565b61195a6001600160a01b0384168383611dd8565b6001600160a01b038116611d355760405162461bcd60e51b815260206004820152601e60248201527f4163636f756e742063616e6e6f74206265207a65726f206164647265737300006044820152606401610225565b803b80611d845760405162461bcd60e51b815260206004820181905260248201527f4163636f756e7420636f64652073697a652063616e6e6f74206265207a65726f6044820152606401610225565b5050565b600080546001600160a01b038381166001600160a01b0319831681178455604051919092169283917f8be0079c531659141344cd1fd0a4f28419497f9722a3daafe3b4186f6b6457e09190a35050565b61195a83846001600160a01b031663a9059cbb8585604051602401611dfe92919061226c565b604051602081830303815290604052915060e01b6020820180516001600160e01b0383818316178352505050506000611e406001600160a01b03841683611e85565b90508051600014158015611e65575080806020019051810190611e639190612285565b155b1561195a5782604051635274afe760e01b81526004016102259190612079565b6060611e9383836000611e9c565b90505b92915050565b606081471015611ec1573060405163cd78605960e01b81526004016102259190612079565b600080856001600160a01b03168486604051611edd91906123f9565b60006040518083038185875af1925050503d8060008114611f1a576040519150601f19603f3d011682016040523d82523d6000602084013e611f1f565b606091505b5091509150611f2f868383611f3b565b925050505b9392505050565b606082611f5057611f4b82611f8e565b611f34565b8151158015611f6757506001600160a01b0384163b155b15611f875783604051639996b31560e01b81526004016102259190612079565b5080611f34565b805115611f9e5780518082602001fd5b604051630a12f52160e11b815260040160405180910390fd5b6001600160a01b0381168114611b4d57600080fd5b600060208284031215611fde57600080fd5b8135611f3481611fb7565b600060208284031215611ffb57600080fd5b5035919050565b6000806040838503121561201557600080fd5b823561202081611fb7565b946020939093013593505050565b60008060006060848603121561204357600080fd5b833561204e81611fb7565b9250602084013561205e81611fb7565b9150604084013561206e81611fb7565b809150509250925092565b6001600160a01b0391909116815260200190565b60006020828403121561209f57600080fd5b813560ff81168114611f3457600080fd5b600080604083850312156120c357600080fd5b82356120ce81611fb7565b915060208301356120de81611fb7565b809150509250929050565b600080602083850312156120fc57600080fd5b823567ffffffffffffffff8082111561211457600080fd5b818501915085601f83011261212857600080fd5b81358181111561213757600080fd5b8660208260051b850101111561214c57600080fd5b60209290920196919550909350505050565b60208082526030908201527f5043563a2063616c6c6572206d757374206265206f776e6572206f7220636f7560408201526f6e63696c206f7220747265617375727960801b606082015260800190565b6000602082840312156121c057600080fd5b5051919050565b6020808252601690820152755043563a206e6f7420656e6f75676820746f6b656e7360501b604082015260600190565b634e487b7160e01b600052601160045260246000fd5b8082028115828204841417611e9657611e966121f7565b60008261224157634e487b7160e01b600052601260045260246000fd5b500490565b81810381811115611e9657611e966121f7565b80820180821115611e9657611e966121f7565b6001600160a01b03929092168252602082015260400190565b60006020828403121561229757600080fd5b81518015158114611f3457600080fd5b6020808252601890820152771410d58e881cd95b991a5b99c81b5554d10819985a5b195960421b604082015260600190565b6020808252601990820152781410d58e8810da185b99d9481b9bdd081a5b9a5d1a585d1959603a1b604082015260600190565b6020808252601690820152751410d58e881919589d081b5d5cdd081899481c185a5960521b604082015260600190565b60208082526023908201527f5043563a20726563697069656e74206d75737420626520696e2077686974656c6040820152621a5cdd60ea1b606082015260800190565b60006020828403121561239157600080fd5b8151611f3481611fb7565b60208082526027908201527f5043563a20526563697069656e7473206172726179206d757374206e6f7420626040820152666520656d70747960c81b606082015260800190565b634e487b7160e01b600052603260045260246000fd5b6000825160005b8181101561241a5760208186018101518583015201612400565b50600092019182525091905056fea26469706673582212207bfcd47d0504f5913e29d282645a2aa2cfe4c52e631504ec2d9cb4b915459ba064736f6c63430008180033",
  "devdoc": {
    "errors": {
      "AddressEmptyCode(address)": [
        {
          "details": "There's no code at `target` (it is not a contract)."
        }
      ],
      "AddressInsufficientBalance(address)": [
        {
          "details": "The ETH balance of the account is not enough to perform the operation."
        }
      ],
      "FailedInnerCall()": [
        {
          "details": "A call to an address target failed. The target may have reverted."
        }
      ],
      "OwnableInvalidOwner(address)": [
        {
          "details": "The owner is not a valid owner account. (eg. `address(0)`)"
        }
      ],
      "OwnableUnauthorizedAccount(address)": [
        {
          "details": "The caller account is not authorized to perform an operation."
        }
      ],
      "SafeERC20FailedOperation(address)": [
        {
          "details": "An operation with an ERC20 token failed."
        }
      ]
    },
    "kind": "dev",
    "methods": {
      "owner()": {
        "details": "Returns the address of the current owner."
      },
      "renounceOwnership()": {
        "details": "Leaves the contract without owner. It will not be possible to call `onlyOwner` functions. Can only be called by the current owner. NOTE: Renouncing ownership will leave the contract without an owner, thereby disabling any functionality that is only available to the owner."
      },
      "transferOwnership(address)": {
        "details": "Transfers ownership of the contract to a new account (`newOwner`). Can only be called by the current owner."
      }
    },
    "version": 1
  },
  "userdoc": {
    "kind": "user",
    "methods": {},
    "version": 1
  },
  "storageLayout": {
    "storage": [
      {
        "astId": 8,
        "contract": "contracts/PCV.sol:PCV",
        "label": "_owner",
        "offset": 0,
        "slot": "0",
        "type": "t_address"
      },
      {
        "astId": 9027,
        "contract": "contracts/PCV.sol:PCV",
        "label": "musd",
        "offset": 0,
        "slot": "1",
        "type": "t_contract(IMUSD)29929"
      },
      {
        "astId": 9030,
        "contract": "contracts/PCV.sol:PCV",
        "label": "collateralERC20",
        "offset": 0,
        "slot": "2",
        "type": "t_contract(IERC20)902"
      },
      {
        "astId": 9033,
        "contract": "contracts/PCV.sol:PCV",
        "label": "borrowerOperations",
        "offset": 0,
        "slot": "3",
        "type": "t_contract(BorrowerOperations)7295"
      },
      {
        "astId": 9035,
        "contract": "contracts/PCV.sol:PCV",
        "label": "debtToPay",
        "offset": 0,
        "slot": "4",
        "type": "t_uint256"
      },
      {
        "astId": 9037,
        "contract": "contracts/PCV.sol:PCV",
        "label": "isInitialized",
        "offset": 0,
        "slot": "5",
        "type": "t_bool"
      },
      {
        "astId": 9039,
        "contract": "contracts/PCV.sol:PCV",
        "label": "council",
        "offset": 1,
        "slot": "5",
        "type": "t_address"
      },
      {
        "astId": 9041,
        "contract": "contracts/PCV.sol:PCV",
        "label": "treasury",
        "offset": 0,
        "slot": "6",
        "type": "t_address"
      },
      {
        "astId": 9045,
        "contract": "contracts/PCV.sol:PCV",
        "label": "recipientsWhitelist",
        "offset": 0,
        "slot": "7",
        "type": "t_mapping(t_address,t_bool)"
      },
      {
        "astId": 9047,
        "contract": "contracts/PCV.sol:PCV",
        "label": "pendingCouncilAddress",
        "offset": 0,
        "slot": "8",
        "type": "t_address"
      },
      {
        "astId": 9049,
        "contract": "contracts/PCV.sol:PCV",
        "label": "pendingTreasuryAddress",
        "offset": 0,
        "slot": "9",
        "type": "t_address"
      },
      {
        "astId": 9051,
        "contract": "contracts/PCV.sol:PCV",
        "label": "changingRolesInitiated",
        "offset": 0,
        "slot": "10",
        "type": "t_uint256"
      },
      {
        "astId": 9053,
        "contract": "contracts/PCV.sol:PCV",
        "label": "feeRecipient",
        "offset": 0,
        "slot": "11",
        "type": "t_address"
      },
      {
        "astId": 9055,
        "contract": "contracts/PCV.sol:PCV",
        "label": "feeSplitPercentage",
        "offset": 20,
        "slot": "11",
        "type": "t_uint8"
      }
    ],
    "types": {
      "t_address": {
        "encoding": "inplace",
        "label": "address",
        "numberOfBytes": "20"
      },
      "t_bool": {
        "encoding": "inplace",
        "label": "bool",
        "numberOfBytes": "1"
      },
      "t_contract(BorrowerOperations)7295": {
        "encoding": "inplace",
        "label": "contract BorrowerOperations",
        "numberOfBytes": "20"
      },
      "t_contract(IERC20)902": {
        "encoding": "inplace",
        "label": "contract IERC20",
        "numberOfBytes": "20"
      },
      "t_contract(IMUSD)29929": {
        "encoding": "inplace",
        "label": "contract IMUSD",
        "numberOfBytes": "20"
      },
      "t_mapping(t_address,t_bool)": {
        "encoding": "mapping",
        "key": "t_address",
        "label": "mapping(address => bool)",
        "numberOfBytes": "32",
        "value": "t_bool"
      },
      "t_uint256": {
        "encoding": "inplace",
        "label": "uint256",
        "numberOfBytes": "32"
      },
      "t_uint8": {
        "encoding": "inplace",
        "label": "uint8",
        "numberOfBytes": "1"
      }
    }
  }
}