{
  "address": "0x0bEa898b485086A148cB1AF33da3a9A0bC16d048",
  "abi": [
    {
      "inputs": [],
      "stateMutability": "nonpayable",
      "type": "constructor"
    },
    {
      "inputs": [
        {
          "internalType": "address",
          "name": "owner",
          "type": "address"
        }
      ],
      "name": "OwnableInvalidOwner",
      "type": "error"
    },
    {
      "inputs": [
        {
          "internalType": "address",
          "name": "account",
          "type": "address"
        }
      ],
      "name": "OwnableUnauthorizedAccount",
      "type": "error"
    },
    {
      "anonymous": false,
      "inputs": [
        {
          "indexed": false,
          "internalType": "uint256",
          "name": "_lastGoodPrice",
          "type": "uint256"
        }
      ],
      "name": "LastGoodPriceUpdated",
      "type": "event"
    },
    {
      "anonymous": false,
      "inputs": [
        {
          "indexed": false,
          "internalType": "address",
          "name": "_oracle",
          "type": "address"
        }
      ],
      "name": "NewOracleRegistered",
      "type": "event"
    },
    {
      "anonymous": false,
      "inputs": [
        {
          "indexed": true,
          "internalType": "address",
          "name": "previousOwner",
          "type": "address"
        },
        {
          "indexed": true,
          "internalType": "address",
          "name": "newOwner",
          "type": "address"
        }
      ],
      "name": "OwnershipTransferred",
      "type": "event"
    },
    {
      "inputs": [],
      "name": "TARGET_DIGITS",
      "outputs": [
        {
          "internalType": "uint8",
          "name": "",
          "type": "uint8"
        }
      ],
      "stateMutability": "view",
      "type": "function"
    },
    {
      "inputs": [],
      "name": "fetchPrice",
      "outputs": [
        {
          "internalType": "uint256",
          "name": "",
          "type": "uint256"
        }
      ],
      "stateMutability": "view",
      "type": "function"
    },
    {
      "inputs": [],
      "name": "oracle",
      "outputs": [
        {
          "internalType": "contract ChainlinkAggregatorV3Interface",
          "name": "",
          "type": "address"
        }
      ],
      "stateMutability": "view",
      "type": "function"
    },
    {
      "inputs": [],
      "name": "owner",
      "outputs": [
        {
          "internalType": "address",
          "name": "",
          "type": "address"
        }
      ],
      "stateMutability": "view",
      "type": "function"
    },
    {
      "inputs": [],
      "name": "renounceOwnership",
      "outputs": [],
      "stateMutability": "nonpayable",
      "type": "function"
    },
    {
      "inputs": [
        {
          "internalType": "address",
          "name": "_oracle",
          "type": "address"
        }
      ],
      "name": "setOracle",
      "outputs": [],
      "stateMutability": "nonpayable",
      "type": "function"
    },
    {
      "inputs": [
        {
          "internalType": "address",
          "name": "newOwner",
          "type": "address"
        }
      ],
      "name": "transferOwnership",
      "outputs": [],
      "stateMutability": "nonpayable",
      "type": "function"
    }
  ],
  "transactionHash": "0x32e68c4b10996abb83745b0b6a65bd8177ada9e11290da71140a5c879ff36104",
  "args": [],
  "numDeployments": 1,
  "solcInputHash": "0c7d2ab5f16d38c3b8f7a5740e04cd94",
  "bytecode": "0x608060405234801561001057600080fd5b50338061003757604051631e4fbdf760e01b81526000600482015260240160405180910390fd5b61004081610046565b50610096565b600080546001600160a01b038381166001600160a01b0319831681178455604051919092169283917f8be0079c531659141344cd1fd0a4f28419497f9722a3daafe3b4186f6b6457e09190a35050565b610635806100a56000396000f3fe608060405234801561001057600080fd5b506004361061006d5760003560e01c80630fdb11cf146100725780631be5c92f1461008d578063715018a6146100a75780637adbf973146100b15780637dc0d1d0146100c45780638da5cb5b146100e4578063f2fde38b146100f5575b600080fd5b61007a610108565b6040519081526020015b60405180910390f35b610095601281565b60405160ff9091168152602001610084565b6100af61020e565b005b6100af6100bf366004610513565b610222565b6001546100d7906001600160a01b031681565b6040516100849190610543565b6000546001600160a01b03166100d7565b6100af610103366004610513565b610402565b600080600160009054906101000a90046001600160a01b03166001600160a01b031663feaf968c6040518163ffffffff1660e01b815260040160a060405180830381865afa15801561015e573d6000803e3d6000fd5b505050506040513d601f19601f820116820180604052508101906101829190610576565b50505091505061020881600160009054906101000a90046001600160a01b03166001600160a01b031663313ce5676040518163ffffffff1660e01b8152600401602060405180830381865afa1580156101df573d6000803e3d6000fd5b505050506040513d601f19601f8201168201806040525081019061020391906105c6565b610440565b91505090565b610216610496565b61022060006104c3565b565b61022a610496565b60008190506000816001600160a01b031663313ce5676040518163ffffffff1660e01b8152600401602060405180830381865afa15801561026f573d6000803e3d6000fd5b505050506040513d601f19601f8201168201806040525081019061029391906105c6565b60ff16116102e85760405162461bcd60e51b815260206004820152601c60248201527f496e76616c696420446563696d616c732066726f6d204f7261636c650000000060448201526064015b60405180910390fd5b6000816001600160a01b031663feaf968c6040518163ffffffff1660e01b815260040160a060405180830381865afa158015610328573d6000803e3d6000fd5b505050506040513d601f19601f8201168201806040525081019061034c9190610576565b505050915050806000036103a25760405162461bcd60e51b815260206004820152601a60248201527f4f7261636c652072657475726e73203020666f7220707269636500000000000060448201526064016102df565b600180546001600160a01b0319166001600160a01b0384161790556040517f8de161a8d9b9bbbb4aa311abe721f567c2a31bb35f18894710680ef3923fb640906103ed908590610543565b60405180910390a16103fd61020e565b505050565b61040a610496565b6001600160a01b038116610434576000604051631e4fbdf760e01b81526004016102df9190610543565b61043d816104c3565b50565b6000601260ff8316111561046e576012820360ff16600a0a8381610466576104666105e9565b049050610490565b601260ff8316101561048d578160120360ff16600a0a83029050610490565b50815b92915050565b6000546001600160a01b03163314610220573360405163118cdaa760e01b81526004016102df9190610543565b600080546001600160a01b038381166001600160a01b0319831681178455604051919092169283917f8be0079c531659141344cd1fd0a4f28419497f9722a3daafe3b4186f6b6457e09190a35050565b60006020828403121561052557600080fd5b81356001600160a01b038116811461053c57600080fd5b9392505050565b6001600160a01b0391909116815260200190565b805169ffffffffffffffffffff8116811461057157600080fd5b919050565b600080600080600060a0868803121561058e57600080fd5b61059786610557565b94506020860151935060408601519250606086015191506105ba60808701610557565b90509295509295909350565b6000602082840312156105d857600080fd5b815160ff8116811461053c57600080fd5b634e487b7160e01b600052601260045260246000fdfea2646970667358221220e0b3b33fd98d386a720b8dc76f886fc63a23a90b08a7a88c9ce9ae03b85bd78864736f6c63430008180033",
  "devdoc": {
    "errors": {
      "OwnableInvalidOwner(address)": [
        {
          "details": "The owner is not a valid owner account. (eg. `address(0)`)"
        }
      ],
      "OwnableUnauthorizedAccount(address)": [
        {
          "details": "The caller account is not authorized to perform an operation."
        }
      ]
    },
    "kind": "dev",
    "methods": {
      "owner()": {
        "details": "Returns the address of the current owner."
      },
      "renounceOwnership()": {
        "details": "Leaves the contract without owner. It will not be possible to call `onlyOwner` functions. Can only be called by the current owner. NOTE: Renouncing ownership will leave the contract without an owner, thereby disabling any functionality that is only available to the owner."
      },
      "transferOwnership(address)": {
        "details": "Transfers ownership of the contract to a new account (`newOwner`). Can only be called by the current owner."
      }
    },
    "stateVariables": {
      "TARGET_DIGITS": {
        "details": "Used to convert an oracle price answer to an 18-digit precision uint"
      }
    },
    "version": 1
  },
  "userdoc": {
    "kind": "user",
    "methods": {},
    "version": 1
  },
  "storageLayout": {
    "storage": [
      {
        "astId": 8,
        "contract": "contracts/PriceFeed.sol:PriceFeed",
        "label": "_owner",
        "offset": 0,
        "slot": "0",
        "type": "t_address"
      },
      {
        "astId": 768,
        "contract": "contracts/PriceFeed.sol:PriceFeed",
        "label": "oracle",
        "offset": 0,
        "slot": "1",
        "type": "t_contract(ChainlinkAggregatorV3Interface)1385"
      }
    ],
    "types": {
      "t_address": {
        "encoding": "inplace",
        "label": "address",
        "numberOfBytes": "20"
      },
      "t_contract(ChainlinkAggregatorV3Interface)1385": {
        "encoding": "inplace",
        "label": "contract ChainlinkAggregatorV3Interface",
        "numberOfBytes": "20"
      }
    }
  }
}