{
  "address": "0x6C0b679a4daD22ecbfdAB168ABF23D8FAFc70139",
  "abi": [
    {
      "inputs": [],
      "stateMutability": "nonpayable",
      "type": "constructor"
    },
    {
      "inputs": [
        {
          "internalType": "address",
          "name": "target",
          "type": "address"
        }
      ],
      "name": "AddressEmptyCode",
      "type": "error"
    },
    {
      "inputs": [
        {
          "internalType": "address",
          "name": "account",
          "type": "address"
        }
      ],
      "name": "AddressInsufficientBalance",
      "type": "error"
    },
    {
      "inputs": [],
      "name": "FailedInnerCall",
      "type": "error"
    },
    {
      "inputs": [
        {
          "internalType": "address",
          "name": "owner",
          "type": "address"
        }
      ],
      "name": "OwnableInvalidOwner",
      "type": "error"
    },
    {
      "inputs": [
        {
          "internalType": "address",
          "name": "account",
          "type": "address"
        }
      ],
      "name": "OwnableUnauthorizedAccount",
      "type": "error"
    },
    {
      "inputs": [
        {
          "internalType": "address",
          "name": "token",
          "type": "address"
        }
      ],
      "name": "SafeERC20FailedOperation",
      "type": "error"
    },
    {
      "anonymous": false,
      "inputs": [
        {
          "indexed": false,
          "internalType": "address",
          "name": "_newActivePoolAddress",
          "type": "address"
        }
      ],
      "name": "ActivePoolAddressChanged",
      "type": "event"
    },
    {
      "anonymous": false,
      "inputs": [
        {
          "indexed": false,
          "internalType": "address",
          "name": "_newBorrowerOperationsAddress",
          "type": "address"
        }
      ],
      "name": "BorrowerOperationsAddressChanged",
      "type": "event"
    },
    {
      "anonymous": false,
      "inputs": [
        {
          "indexed": false,
          "internalType": "address",
          "name": "_newCollateralAddress",
          "type": "address"
        }
      ],
      "name": "CollateralAddressChanged",
      "type": "event"
    },
    {
      "anonymous": false,
      "inputs": [
        {
          "indexed": true,
          "internalType": "address",
          "name": "_depositor",
          "type": "address"
        },
        {
          "indexed": false,
          "internalType": "uint256",
          "name": "_collateral",
          "type": "uint256"
        },
        {
          "indexed": false,
          "internalType": "uint256",
          "name": "_MUSDLoss",
          "type": "uint256"
        }
      ],
      "name": "CollateralGainWithdrawn",
      "type": "event"
    },
    {
      "anonymous": false,
      "inputs": [
        {
          "indexed": false,
          "internalType": "address",
          "name": "_to",
          "type": "address"
        },
        {
          "indexed": false,
          "internalType": "uint256",
          "name": "_amount",
          "type": "uint256"
        }
      ],
      "name": "CollateralSent",
      "type": "event"
    },
    {
      "anonymous": false,
      "inputs": [
        {
          "indexed": false,
          "internalType": "address",
          "name": "_newDefaultPoolAddress",
          "type": "address"
        }
      ],
      "name": "DefaultPoolAddressChanged",
      "type": "event"
    },
    {
      "anonymous": false,
      "inputs": [
        {
          "indexed": true,
          "internalType": "address",
          "name": "_depositor",
          "type": "address"
        },
        {
          "indexed": false,
          "internalType": "uint256",
          "name": "_P",
          "type": "uint256"
        },
        {
          "indexed": false,
          "internalType": "uint256",
          "name": "_S",
          "type": "uint256"
        }
      ],
      "name": "DepositSnapshotUpdated",
      "type": "event"
    },
    {
      "anonymous": false,
      "inputs": [
        {
          "indexed": false,
          "internalType": "uint128",
          "name": "_currentEpoch",
          "type": "uint128"
        }
      ],
      "name": "EpochUpdated",
      "type": "event"
    },
    {
      "anonymous": false,
      "inputs": [
        {
          "indexed": false,
          "internalType": "address",
          "name": "_newMUSDTokenAddress",
          "type": "address"
        }
      ],
      "name": "MUSDTokenAddressChanged",
      "type": "event"
    },
    {
      "anonymous": false,
      "inputs": [
        {
          "indexed": true,
          "internalType": "address",
          "name": "previousOwner",
          "type": "address"
        },
        {
          "indexed": true,
          "internalType": "address",
          "name": "newOwner",
          "type": "address"
        }
      ],
      "name": "OwnershipTransferred",
      "type": "event"
    },
    {
      "anonymous": false,
      "inputs": [
        {
          "indexed": false,
          "internalType": "uint256",
          "name": "_P",
          "type": "uint256"
        }
      ],
      "name": "PUpdated",
      "type": "event"
    },
    {
      "anonymous": false,
      "inputs": [
        {
          "indexed": false,
          "internalType": "address",
          "name": "_newPriceFeedAddress",
          "type": "address"
        }
      ],
      "name": "PriceFeedAddressChanged",
      "type": "event"
    },
    {
      "anonymous": false,
      "inputs": [
        {
          "indexed": false,
          "internalType": "uint256",
          "name": "_S",
          "type": "uint256"
        },
        {
          "indexed": false,
          "internalType": "uint128",
          "name": "_epoch",
          "type": "uint128"
        },
        {
          "indexed": false,
          "internalType": "uint128",
          "name": "_scale",
          "type": "uint128"
        }
      ],
      "name": "SUpdated",
      "type": "event"
    },
    {
      "anonymous": false,
      "inputs": [
        {
          "indexed": false,
          "internalType": "uint128",
          "name": "_currentScale",
          "type": "uint128"
        }
      ],
      "name": "ScaleUpdated",
      "type": "event"
    },
    {
      "anonymous": false,
      "inputs": [
        {
          "indexed": false,
          "internalType": "address",
          "name": "_newSortedTrovesAddress",
          "type": "address"
        }
      ],
      "name": "SortedTrovesAddressChanged",
      "type": "event"
    },
    {
      "anonymous": false,
      "inputs": [
        {
          "indexed": false,
          "internalType": "uint256",
          "name": "_newBalance",
          "type": "uint256"
        }
      ],
      "name": "StabilityPoolCollateralBalanceUpdated",
      "type": "event"
    },
    {
      "anonymous": false,
      "inputs": [
        {
          "indexed": false,
          "internalType": "uint256",
          "name": "_newBalance",
          "type": "uint256"
        }
      ],
      "name": "StabilityPoolMUSDBalanceUpdated",
      "type": "event"
    },
    {
      "anonymous": false,
      "inputs": [
        {
          "indexed": false,
          "internalType": "address",
          "name": "_newTroveManagerAddress",
          "type": "address"
        }
      ],
      "name": "TroveManagerAddressChanged",
      "type": "event"
    },
    {
      "anonymous": false,
      "inputs": [
        {
          "indexed": true,
          "internalType": "address",
          "name": "_depositor",
          "type": "address"
        },
        {
          "indexed": false,
          "internalType": "uint256",
          "name": "_newDeposit",
          "type": "uint256"
        }
      ],
      "name": "UserDepositChanged",
      "type": "event"
    },
    {
      "inputs": [],
      "name": "BORROWING_FEE_FLOOR",
      "outputs": [
        {
          "internalType": "uint256",
          "name": "",
          "type": "uint256"
        }
      ],
      "stateMutability": "view",
      "type": "function"
    },
    {
      "inputs": [],
      "name": "CCR",
      "outputs": [
        {
          "internalType": "uint256",
          "name": "",
          "type": "uint256"
        }
      ],
      "stateMutability": "view",
      "type": "function"
    },
    {
      "inputs": [],
      "name": "DECIMAL_PRECISION",
      "outputs": [
        {
          "internalType": "uint256",
          "name": "",
          "type": "uint256"
        }
      ],
      "stateMutability": "view",
      "type": "function"
    },
    {
      "inputs": [],
      "name": "MCR",
      "outputs": [
        {
          "internalType": "uint256",
          "name": "",
          "type": "uint256"
        }
      ],
      "stateMutability": "view",
      "type": "function"
    },
    {
      "inputs": [],
      "name": "MIN_NET_DEBT",
      "outputs": [
        {
          "internalType": "uint256",
          "name": "",
          "type": "uint256"
        }
      ],
      "stateMutability": "view",
      "type": "function"
    },
    {
      "inputs": [],
      "name": "MUSD_GAS_COMPENSATION",
      "outputs": [
        {
          "internalType": "uint256",
          "name": "",
          "type": "uint256"
        }
      ],
      "stateMutability": "view",
      "type": "function"
    },
    {
      "inputs": [],
      "name": "P",
      "outputs": [
        {
          "internalType": "uint256",
          "name": "",
          "type": "uint256"
        }
      ],
      "stateMutability": "view",
      "type": "function"
    },
    {
      "inputs": [],
      "name": "PERCENT_DIVISOR",
      "outputs": [
        {
          "internalType": "uint256",
          "name": "",
          "type": "uint256"
        }
      ],
      "stateMutability": "view",
      "type": "function"
    },
    {
      "inputs": [],
      "name": "SCALE_FACTOR",
      "outputs": [
        {
          "internalType": "uint256",
          "name": "",
          "type": "uint256"
        }
      ],
      "stateMutability": "view",
      "type": "function"
    },
    {
      "inputs": [],
      "name": "_100pct",
      "outputs": [
        {
          "internalType": "uint256",
          "name": "",
          "type": "uint256"
        }
      ],
      "stateMutability": "view",
      "type": "function"
    },
    {
      "inputs": [],
      "name": "activePool",
      "outputs": [
        {
          "internalType": "contract IActivePool",
          "name": "",
          "type": "address"
        }
      ],
      "stateMutability": "view",
      "type": "function"
    },
    {
      "inputs": [],
      "name": "borrowerOperations",
      "outputs": [
        {
          "internalType": "contract IBorrowerOperations",
          "name": "",
          "type": "address"
        }
      ],
      "stateMutability": "view",
      "type": "function"
    },
    {
      "inputs": [],
      "name": "collateralAddress",
      "outputs": [
        {
          "internalType": "address",
          "name": "",
          "type": "address"
        }
      ],
      "stateMutability": "view",
      "type": "function"
    },
    {
      "inputs": [],
      "name": "currentEpoch",
      "outputs": [
        {
          "internalType": "uint128",
          "name": "",
          "type": "uint128"
        }
      ],
      "stateMutability": "view",
      "type": "function"
    },
    {
      "inputs": [],
      "name": "currentScale",
      "outputs": [
        {
          "internalType": "uint128",
          "name": "",
          "type": "uint128"
        }
      ],
      "stateMutability": "view",
      "type": "function"
    },
    {
      "inputs": [],
      "name": "defaultPool",
      "outputs": [
        {
          "internalType": "contract IDefaultPool",
          "name": "",
          "type": "address"
        }
      ],
      "stateMutability": "view",
      "type": "function"
    },
    {
      "inputs": [
        {
          "internalType": "address",
          "name": "",
          "type": "address"
        }
      ],
      "name": "depositSnapshots",
      "outputs": [
        {
          "internalType": "uint256",
          "name": "S",
          "type": "uint256"
        },
        {
          "internalType": "uint256",
          "name": "P",
          "type": "uint256"
        },
        {
          "internalType": "uint128",
          "name": "scale",
          "type": "uint128"
        },
        {
          "internalType": "uint128",
          "name": "epoch",
          "type": "uint128"
        }
      ],
      "stateMutability": "view",
      "type": "function"
    },
    {
      "inputs": [
        {
          "internalType": "address",
          "name": "",
          "type": "address"
        }
      ],
      "name": "deposits",
      "outputs": [
        {
          "internalType": "uint256",
          "name": "",
          "type": "uint256"
        }
      ],
      "stateMutability": "view",
      "type": "function"
    },
    {
      "inputs": [
        {
          "internalType": "uint128",
          "name": "",
          "type": "uint128"
        },
        {
          "internalType": "uint128",
          "name": "",
          "type": "uint128"
        }
      ],
      "name": "epochToScaleToSum",
      "outputs": [
        {
          "internalType": "uint256",
          "name": "",
          "type": "uint256"
        }
      ],
      "stateMutability": "view",
      "type": "function"
    },
    {
      "inputs": [],
      "name": "getCollateralBalance",
      "outputs": [
        {
          "internalType": "uint256",
          "name": "",
          "type": "uint256"
        }
      ],
      "stateMutability": "view",
      "type": "function"
    },
    {
      "inputs": [
        {
          "internalType": "address",
          "name": "_depositor",
          "type": "address"
        }
      ],
      "name": "getCompoundedMUSDDeposit",
      "outputs": [
        {
          "internalType": "uint256",
          "name": "",
          "type": "uint256"
        }
      ],
      "stateMutability": "view",
      "type": "function"
    },
    {
      "inputs": [
        {
          "internalType": "address",
          "name": "_depositor",
          "type": "address"
        }
      ],
      "name": "getDepositorCollateralGain",
      "outputs": [
        {
          "internalType": "uint256",
          "name": "",
          "type": "uint256"
        }
      ],
      "stateMutability": "view",
      "type": "function"
    },
    {
      "inputs": [],
      "name": "getEntireSystemColl",
      "outputs": [
        {
          "internalType": "uint256",
          "name": "entireSystemColl",
          "type": "uint256"
        }
      ],
      "stateMutability": "view",
      "type": "function"
    },
    {
      "inputs": [],
      "name": "getEntireSystemDebt",
      "outputs": [
        {
          "internalType": "uint256",
          "name": "entireSystemDebt",
          "type": "uint256"
        }
      ],
      "stateMutability": "view",
      "type": "function"
    },
    {
      "inputs": [],
      "name": "getTotalMUSDDeposits",
      "outputs": [
        {
          "internalType": "uint256",
          "name": "",
          "type": "uint256"
        }
      ],
      "stateMutability": "view",
      "type": "function"
    },
    {
      "inputs": [],
      "name": "lastCollateralError_Offset",
      "outputs": [
        {
          "internalType": "uint256",
          "name": "",
          "type": "uint256"
        }
      ],
      "stateMutability": "view",
      "type": "function"
    },
    {
      "inputs": [],
      "name": "lastMUSDLossError_Offset",
      "outputs": [
        {
          "internalType": "uint256",
          "name": "",
          "type": "uint256"
        }
      ],
      "stateMutability": "view",
      "type": "function"
    },
    {
      "inputs": [],
      "name": "musd",
      "outputs": [
        {
          "internalType": "contract IMUSD",
          "name": "",
          "type": "address"
        }
      ],
      "stateMutability": "view",
      "type": "function"
    },
    {
      "inputs": [
        {
          "internalType": "uint256",
          "name": "_debtToOffset",
          "type": "uint256"
        },
        {
          "internalType": "uint256",
          "name": "_collToAdd",
          "type": "uint256"
        }
      ],
      "name": "offset",
      "outputs": [],
      "stateMutability": "nonpayable",
      "type": "function"
    },
    {
      "inputs": [],
      "name": "owner",
      "outputs": [
        {
          "internalType": "address",
          "name": "",
          "type": "address"
        }
      ],
      "stateMutability": "view",
      "type": "function"
    },
    {
      "inputs": [],
      "name": "priceFeed",
      "outputs": [
        {
          "internalType": "contract IPriceFeed",
          "name": "",
          "type": "address"
        }
      ],
      "stateMutability": "view",
      "type": "function"
    },
    {
      "inputs": [
        {
          "internalType": "uint256",
          "name": "_amount",
          "type": "uint256"
        }
      ],
      "name": "provideToSP",
      "outputs": [],
      "stateMutability": "nonpayable",
      "type": "function"
    },
    {
      "inputs": [],
      "name": "renounceOwnership",
      "outputs": [],
      "stateMutability": "nonpayable",
      "type": "function"
    },
    {
      "inputs": [
        {
          "internalType": "address",
          "name": "_borrowerOperationsAddress",
          "type": "address"
        },
        {
          "internalType": "address",
          "name": "_troveManagerAddress",
          "type": "address"
        },
        {
          "internalType": "address",
          "name": "_activePoolAddress",
          "type": "address"
        },
        {
          "internalType": "address",
          "name": "_musdTokenAddress",
          "type": "address"
        },
        {
          "internalType": "address",
          "name": "_sortedTrovesAddress",
          "type": "address"
        },
        {
          "internalType": "address",
          "name": "_priceFeedAddress",
          "type": "address"
        },
        {
          "internalType": "address",
          "name": "_collateralAddress",
          "type": "address"
        }
      ],
      "name": "setAddresses",
      "outputs": [],
      "stateMutability": "nonpayable",
      "type": "function"
    },
    {
      "inputs": [],
      "name": "sortedTroves",
      "outputs": [
        {
          "internalType": "contract ISortedTroves",
          "name": "",
          "type": "address"
        }
      ],
      "stateMutability": "view",
      "type": "function"
    },
    {
      "inputs": [
        {
          "internalType": "address",
          "name": "newOwner",
          "type": "address"
        }
      ],
      "name": "transferOwnership",
      "outputs": [],
      "stateMutability": "nonpayable",
      "type": "function"
    },
    {
      "inputs": [],
      "name": "troveManager",
      "outputs": [
        {
          "internalType": "contract ITroveManager",
          "name": "",
          "type": "address"
        }
      ],
      "stateMutability": "view",
      "type": "function"
    },
    {
      "inputs": [
        {
          "internalType": "address",
          "name": "_upperHint",
          "type": "address"
        },
        {
          "internalType": "address",
          "name": "_lowerHint",
          "type": "address"
        }
      ],
      "name": "withdrawCollateralGainToTrove",
      "outputs": [],
      "stateMutability": "nonpayable",
      "type": "function"
    },
    {
      "inputs": [
        {
          "internalType": "uint256",
          "name": "_amount",
          "type": "uint256"
        }
      ],
      "name": "withdrawFromSP",
      "outputs": [],
      "stateMutability": "nonpayable",
      "type": "function"
    },
    {
      "stateMutability": "payable",
      "type": "receive"
    }
  ],
  "transactionHash": "0xdce014590220a6e1c05fee1be3710676481db073a42c1417adf04db39cfa7943",
  "args": [],
  "numDeployments": 1,
  "solcInputHash": "6fc273ee6319c06d6c37be33f008e4d1",
  "bytecode": "0x6080604052670de0b6b3a7640000600d5534801561001c57600080fd5b50338061004357604051631e4fbdf760e01b81526000600482015260240160405180910390fd5b61004c81610052565b506100a4565b600380546001600160a01b038381166001600160a01b0319831681179093556040519116919082907f8be0079c531659141344cd1fd0a4f28419497f9722a3daafe3b4186f6b6457e090600090a35050565b612abe80620000b46000396000f3fe6080604052600436106102235760003560e01c806377553ad41161012e5780638da5cb5b116100ab578063ce4b5bbe1161006f578063ce4b5bbe146106d6578063eaa8ba7f146106ee578063f2fde38b1461070e578063f92d34331461072e578063fc7e286d1461074357600080fd5b80638da5cb5b14610658578063a20baee614610465578063a4e59ac814610676578063ae91875414610696578063cab666d0146106b657600080fd5b80637f7dde4a116100f25780637f7dde4a1461056e57806386da08241461058e578063887105d31461060d5780638b8fbd92146106225780638c4726eb1461063857600080fd5b806377553ad4146104e057806378c77a2414610500578063794e572414610520578063795d26c31461053c5780637af110ba1461055157600080fd5b80633d83908a116101bc578063619aca1411610180578063619aca141461043a578063715018a61461045057806372fe25aa14610465578063741bef1a1461048157806376671808146104a157600080fd5b80633d83908a146103a95780634870dd9a146103c957806348d399e7146103de5780635733d58f146103fe5780635914d0c81461041a57600080fd5b8062ba85b5146102725780631529a6391461029b5780631bf43555146102b057806328a0a04d146102cd5780632e54bf9514610305578063307d361214610327578063309077b314610347578063335525ad1461035c5780633cc742251461037c57600080fd5b3661026d57610230610770565b34600a600082825461024291906126cb565b9091555050600a54604051908152600080516020612a698339815191529060200160405180910390a1005b600080fd5b34801561027e57600080fd5b5061028860105481565b6040519081526020015b60405180910390f35b3480156102a757600080fd5b50600a54610288565b3480156102bc57600080fd5b50610288686194049f30f720000081565b3480156102d957600080fd5b506102886102e83660046126fa565b600f60209081526000928352604080842090915290825290205481565b34801561031157600080fd5b5061032561032036600461272d565b6107e1565b005b34801561033357600080fd5b5061028861034236600461275b565b6108be565b34801561035357600080fd5b50600954610288565b34801561036857600080fd5b50610325610377366004612778565b610951565b34801561038857600080fd5b5060015461039c906001600160a01b031681565b604051610292919061279a565b3480156103b557600080fd5b5060065461039c906001600160a01b031681565b3480156103d557600080fd5b5061028860c881565b3480156103ea57600080fd5b5060045461039c906001600160a01b031681565b34801561040a57600080fd5b506102886714d1120d7b16000081565b34801561042657600080fd5b506103256104353660046127ae565b61099e565b34801561044657600080fd5b5061028860115481565b34801561045c57600080fd5b50610325610baf565b34801561047157600080fd5b50610288670de0b6b3a764000081565b34801561048d57600080fd5b5060025461039c906001600160a01b031681565b3480156104ad57600080fd5b50600e546104c890600160801b90046001600160801b031681565b6040516001600160801b039091168152602001610292565b3480156104ec57600080fd5b5060055461039c906001600160a01b031681565b34801561050c57600080fd5b5061032561051b36600461272d565b610bc1565b34801561052c57600080fd5b50610288670f43fc2c04ee000081565b34801561054857600080fd5b50610288610c78565b34801561055d57600080fd5b50610288680ad78ebc5ac620000081565b34801561057a57600080fd5b5060005461039c906001600160a01b031681565b34801561059a57600080fd5b506105de6105a936600461275b565b600c602052600090815260409020805460018201546002909201549091906001600160801b0380821691600160801b90041684565b6040805194855260208501939093526001600160801b0391821692840192909252166060820152608001610292565b34801561061957600080fd5b50610288610d74565b34801561062e57600080fd5b50610288600d5481565b34801561064457600080fd5b5061028861065336600461275b565b610e39565b34801561066457600080fd5b506003546001600160a01b031661039c565b34801561068257600080fd5b50600e546104c8906001600160801b031681565b3480156106a257600080fd5b5060085461039c906001600160a01b031681565b3480156106c257600080fd5b5060075461039c906001600160a01b031681565b3480156106e257600080fd5b50610288633b9aca0081565b3480156106fa57600080fd5b506103256107093660046127e7565b610ec3565b34801561071a57600080fd5b5061032561072936600461275b565b611379565b34801561073a57600080fd5b506102886113b7565b34801561074f57600080fd5b5061028861075e36600461275b565b600b6020526000908152604090205481565b6000546001600160a01b031633146107df5760405162461bcd60e51b815260206004820152602760248201527f53746162696c697479506f6f6c3a2043616c6c6572206973206e6f74204163746044820152661a5d99541bdbdb60ca1b60648201526084015b60405180910390fd5b565b80156107ef576107ef6113da565b336000908152600b6020526040902054610808816115d0565b6000610813336108be565b9050600061082033610e39565b9050600061082e8583611639565b9050600061083c838661287d565b90506108483383611653565b6000610854838561287d565b905061086033826116e2565b6040518181523390600080516020612a498339815191529060200160405180910390a260408051868152602081018490523391600080516020612a29833981519152910160405180910390a26108b585611819565b50505050505050565b6001600160a01b0381166000908152600b60205260408120548082036108e75750600092915050565b6001600160a01b0383166000908152600c60209081526040808320815160808101835281548152600182015493810193909352600201546001600160801b0380821692840192909252600160801b90041660608201529061094883836118ad565b95945050505050565b610959611990565b600954801580610967575082155b1561097157505050565b60008061097f8486856119fc565b9150915061098d8282611ad1565b6109978486611daa565b5050505050565b336000908152600b60205260409020546109b7816115d0565b6109c033611eda565b6109c933611fe6565b60006109d4336108be565b905060006109e133610e39565b905060006109ef828561287d565b90506109fb33836116e2565b60408051848152602081018390523391600080516020612a29833981519152910160405180910390a26040518281523390600080516020612a498339815191529060200160405180910390a282600a6000828254610a59919061287d565b9091555050600a54604051908152600080516020612a698339815191529060200160405180910390a17f342693d2465f6f44931e41128424a0227e0cbc69d1c3917a839e6de71696d44c3384604051610ab3929190612890565b60405180910390a16004546001600160a01b0316610b3b5760055460405163abfad25d60e01b81526001600160a01b039091169063abfad25d908590610b049033906000908c908c906004016128a9565b6000604051808303818588803b158015610b1d57600080fd5b505af1158015610b31573d6000803e3d6000fd5b5050505050610ba7565b60055460405163abfad25d60e01b81526001600160a01b039091169063abfad25d90600090610b7490339088908c908c906004016128a9565b6000604051808303818588803b158015610b8d57600080fd5b505af1158015610ba1573d6000803e3d6000fd5b50505050505b505050505050565b610bb7612064565b6107df6000612091565b610bca816120e3565b336000818152600b602052604081205491610be4906108be565b90506000610bf133610e39565b90506000610bff828561287d565b90506000610c0d86846126cb565b9050610c1933826116e2565b6040518181523390600080516020612a498339815191529060200160405180910390a260408051858152602081018490523391600080516020612a29833981519152910160405180910390a2610c6f3387612142565b610ba784611819565b60008054604080516314a6bf0f60e01b8152905183926001600160a01b0316916314a6bf0f9160048083019260209291908290030181865afa158015610cc2573d6000803e3d6000fd5b505050506040513d601f19601f82011682018060405250810190610ce691906128d4565b90506000600160009054906101000a90046001600160a01b03166001600160a01b03166314a6bf0f6040518163ffffffff1660e01b8152600401602060405180830381865afa158015610d3d573d6000803e3d6000fd5b505050506040513d601f19601f82011682018060405250810190610d6191906128d4565b9050610d6d81836126cb565b9250505090565b6000805460408051631529a63960e01b8152905183926001600160a01b031691631529a6399160048083019260209291908290030181865afa158015610dbe573d6000803e3d6000fd5b505050506040513d601f19601f82011682018060405250810190610de291906128d4565b90506000600160009054906101000a90046001600160a01b03166001600160a01b0316631529a6396040518163ffffffff1660e01b8152600401602060405180830381865afa158015610d3d573d6000803e3d6000fd5b6001600160a01b0381166000908152600b6020526040812054808203610e625750600092915050565b6001600160a01b0383166000908152600c60209081526040808320815160808101835281548152600182015493810193909352600201546001600160801b0380821692840192909252600160801b900416606082015290610948838361226f565b610ecb612064565b610ed48761235f565b610edd8661235f565b610ee68561235f565b610eef8461235f565b610ef88361235f565b610f018261235f565b6001600160a01b03811615610f1957610f198161235f565b600580546001600160a01b03199081166001600160a01b038a81169182179093556006805483168a85161790556000805483168985161781556007805484168986161790556008805484168886161790556002805484168786161790556004805490931693851693909317825560408051638da5cb5b60e01b815290519192638da5cb5b9282820192602092908290030181865afa158015610fbf573d6000803e3d6000fd5b505050506040513d601f19601f82011682018060405250810190610fe391906128ed565b6001600160a01b031614158061106e5750600554604080516348d399e760e01b815290516001600160a01b038085169316916348d399e79160048083019260209291908290030181865afa15801561103f573d6000803e3d6000fd5b505050506040513d601f19601f8201168201806040525081019061106391906128ed565b6001600160a01b0316145b801561116d575060006001600160a01b0316856001600160a01b0316638da5cb5b6040518163ffffffff1660e01b8152600401602060405180830381865afa1580156110be573d6000803e3d6000fd5b505050506040513d601f19601f820116820180604052508101906110e291906128ed565b6001600160a01b031614158061116d5750600054604080516348d399e760e01b815290516001600160a01b038085169316916348d399e79160048083019260209291908290030181865afa15801561113e573d6000803e3d6000fd5b505050506040513d601f19601f8201168201806040525081019061116291906128ed565b6001600160a01b0316145b6111f05760405162461bcd60e51b815260206004820152604860248201527f5468652073616d6520636f6c6c61746572616c2061646472657373206d75737460448201527f206265207573656420666f722074686520656e7469726520736574206f6620636064820152676f6e74726163747360c01b608482015260a4016107d6565b7f3ca631ffcd2a9b5d9ae18543fc82f58eb4ca33af9e6ab01b7a8e95331e6ed9858760405161121f919061279a565b60405180910390a17f143219c9e69b09e07e095fcc889b43d8f46ca892bba65f08dc3a0050869a567886604051611256919061279a565b60405180910390a17f78f058b189175430c48dc02699e3a0031ea4ff781536dc2fab847de4babdd8828560405161128d919061279a565b60405180910390a17f547e9055f019d1e165f0ca2133494723cb248f8536192c218254285fc43c5668846040516112c4919061279a565b60405180910390a17f65f4cf077bc01e4742eb5ad98326f6e95b63548ea24b17f8d5e823111fe78800836040516112fb919061279a565b60405180910390a17f8c537274438aa850a330284665d81a85dd38267d09e4050d416bfc94142db26482604051611332919061279a565b60405180910390a17ffba7421f3d1a98e80d72491a6e0523133444a5842cc7310951d8b82d075a7dff81604051611369919061279a565b60405180910390a16108b5610baf565b611381612064565b6001600160a01b0381166113ab576000604051631e4fbdf760e01b81526004016107d6919061279a565b6113b481612091565b50565b6103e86113cd670de0b6b3a7640000600561290a565b6113d79190612921565b81565b60025460408051630fdb11cf60e01b815290516000926001600160a01b031691630fdb11cf916004808301926020929190829003018187875af1158015611425573d6000803e3d6000fd5b505050506040513d601f19601f8201168201806040525081019061144991906128d4565b90506000600860009054906101000a90046001600160a01b03166001600160a01b0316634d6228316040518163ffffffff1660e01b8152600401602060405180830381865afa1580156114a0573d6000803e3d6000fd5b505050506040513d601f19601f820116820180604052508101906114c491906128ed565b600654604051630d293c7160e41b81529192506000916001600160a01b039091169063d293c710906114fc9085908790600401612890565b602060405180830381865afa158015611519573d6000803e3d6000fd5b505050506040513d601f19601f8201168201806040525081019061153d91906128d4565b9050670f43fc2c04ee00008110156115cb5760405162461bcd60e51b8152602060048201526044602482018190527f53746162696c697479506f6f6c3a2043616e6e6f742077697468647261772077908201527f68696c65207468657265206172652074726f766573207769746820494352203c6064820152631026a1a960e11b608482015260a4016107d6565b505050565b600081116113b45760405162461bcd60e51b815260206004820152603060248201527f53746162696c697479506f6f6c3a2055736572206d757374206861766520612060448201526f1b9bdb8b5e995c9bc819195c1bdcda5d60821b60648201526084016107d6565b6000818310611648578161164a565b825b90505b92915050565b8060000361165f575050565b60075460405163a9059cbb60e01b81526001600160a01b039091169063a9059cbb906116919085908590600401612890565b6020604051808303816000875af11580156116b0573d6000803e3d6000fd5b505050506040513d601f19601f820116820180604052508101906116d49190612943565b506116de81612404565b5050565b6001600160a01b0382166000908152600b60205260408120829055819003611770576001600160a01b0382166000818152600c602052604080822082815560018101839055600201829055517fc48943df4095f4f20d171fd2872eafdc0eed4d9014ac3672f3bde7fd425449d591611764918190918252602082015260400190565b60405180910390a25050565b600e54600d546001600160801b03600160801b80840482166000818152600f6020908152604080832095909716808352948152868220546001600160a01b038a16808452600c8352928890206001810188905581815594840286176002909501949094558651868152908101849052939591949390917fc48943df4095f4f20d171fd2872eafdc0eed4d9014ac3672f3bde7fd425449d5910160405180910390a2505050505050565b806000036118245750565b600081600a54611834919061287d565b600a819055604051818152909150600080516020612a698339815191529060200160405180910390a17f342693d2465f6f44931e41128424a0227e0cbc69d1c3917a839e6de71696d44c338360405161188e929190612890565b60405180910390a16004546116de906001600160a01b03163384612453565b606081015160408083015183516020808601516001600160801b038087166000908152600f845286812091861681529252938120549094939085906118f390849061287d565b6001600160801b0386166000908152600f6020526040812091925090633b9aca009082611921886001612965565b6001600160801b03166001600160801b031681526020019081526020016000205461194c9190612921565b90506000670de0b6b3a76400008461196484866126cb565b61196e908d61290a565b6119789190612921565b6119829190612921565b9a9950505050505050505050565b6006546001600160a01b031633146107df5760405162461bcd60e51b815260206004820152602960248201527f53746162696c697479506f6f6c3a2043616c6c6572206973206e6f742054726f6044820152683b32a6b0b730b3b2b960b91b60648201526084016107d6565b6000806000601054670de0b6b3a764000087611a18919061290a565b611a2291906126cb565b905083851115611a3457611a3461298c565b838503611a50576000601155670de0b6b3a76400009150611aa5565b601154600090611a68670de0b6b3a76400008861290a565b611a72919061287d565b9050611a7e8582612921565b611a899060016126cb565b925080611a96868561290a565b611aa0919061287d565b601155505b611aaf8482612921565b9250611abb848461290a565b611ac5908261287d565b60105550935093915050565b600d546000670de0b6b3a7640000831115611aee57611aee61298c565b6000611b0284670de0b6b3a764000061287d565b600e546001600160801b03600160801b820481166000818152600f60209081526040808320949095168083529390529283205493945090929091611b46878a61290a565b90506000611b5482846126cb565b6001600160801b038581166000818152600f60209081526040808320948b16808452948252918290208590558151858152908101929092528101919091529091507f070343c785d5991a4938bacac9bfba86825bb9e467be0eadc6a6d15e44d9bd879060600160405180910390a185600003611c7e57611bd5846001612965565b600e80546001600160801b03908116600160801b93821684021791829055604051929091041681527fb50f0f59e7cb5b421dc77581c3a9919e3806e076e5fa78a874c3f120cb7d874d9060200160405180910390a1600e80546001600160801b0319169055604051600081527f1f9dfc70cd666adb18a39d60a797518f7b4febf4b6e24ef37d44f6e1e7219fbe9060200160405180910390a1670de0b6b3a76400009650611d56565b633b9aca00670de0b6b3a7640000611c96888b61290a565b611ca09190612921565b1015611d3657670de0b6b3a7640000633b9aca00611cbe888b61290a565b611cc8919061290a565b611cd29190612921565b9650611cdf856001612965565b600e80546001600160801b0319166001600160801b039290921691821790556040519081527f1f9dfc70cd666adb18a39d60a797518f7b4febf4b6e24ef37d44f6e1e7219fbe9060200160405180910390a1611d56565b670de0b6b3a7640000611d49878a61290a565b611d539190612921565b96505b60008711611d6657611d6661298c565b600d8790556040518781527fe8ab4c88569ba3c05662fd0804472de2f88b936d15c00495f8e13a82cca7a2349060200160405180910390a150505050505050505050565b6000805460405163ab11fadd60e01b81526004810184905260248101929092526001600160a01b031690819063ab11fadd90604401600060405180830381600087803b158015611df957600080fd5b505af1158015611e0d573d6000803e3d6000fd5b50505050611e1a82612404565b600754604051632770a7eb60e21b81526001600160a01b0390911690639dc29fac90611e4c9030908690600401612890565b600060405180830381600087803b158015611e6657600080fd5b505af1158015611e7a573d6000803e3d6000fd5b5050604051636250216960e01b81526001600160a01b038416925063625021699150611eac9030908790600401612890565b600060405180830381600087803b158015611ec657600080fd5b505af11580156108b5573d6000803e3d6000fd5b6006546040516321e3780160e01b81526001916001600160a01b0316906321e3780190611f0b90859060040161279a565b602060405180830381865afa158015611f28573d6000803e3d6000fd5b505050506040513d601f19601f82011682018060405250810190611f4c91906129b8565b6004811115611f5d57611f5d6129a2565b146113b45760405162461bcd60e51b815260206004820152604d60248201527f53746162696c697479506f6f6c3a2063616c6c6572206d75737420686176652060448201527f616e206163746976652074726f766520746f20776974686472617720636f6c6c60648201526c61746572616c4761696e20746f60981b608482015260a4016107d6565b6000611ff1826108be565b9050600081116116de5760405162461bcd60e51b815260206004820152603860248201527f53746162696c697479506f6f6c3a2063616c6c6572206d7573742068617665206044820152773737b716bd32b9379031b7b63630ba32b930b61023b0b4b760411b60648201526084016107d6565b6003546001600160a01b031633146107df573360405163118cdaa760e01b81526004016107d6919061279a565b600380546001600160a01b038381166001600160a01b0319831681179093556040519116919082907f8be0079c531659141344cd1fd0a4f28419497f9722a3daafe3b4186f6b6457e090600090a35050565b600081116113b45760405162461bcd60e51b815260206004820152602660248201527f53746162696c697479506f6f6c3a20416d6f756e74206d757374206265206e6f6044820152656e2d7a65726f60d01b60648201526084016107d6565b60008160095461215291906126cb565b60098190556040518181529091507ffb502a10a442e29149185372d74b953304b5bc0a0d9d431c070905d3dfbc89e39060200160405180910390a16007546040516323b872dd60e01b81526001600160a01b0385811660048301523060248301526044820185905260009216906323b872dd906064016020604051808303816000875af11580156121e7573d6000803e3d6000fd5b505050506040513d601f19601f8201168201806040525081019061220b9190612943565b9050806122695760405162461bcd60e51b815260206004820152602660248201527f4d55534420776173206e6f74207472616e736665727265642073756363657373604482015265333ab6363c9760d11b60648201526084016107d6565b50505050565b602081015160408201516060830151600e546000939291906001600160801b03600160801b909104811690821610156122ae576000935050505061164d565b600e5460009081906122ca9085906001600160801b03166129d9565b9050806001600160801b03166000036122fd5784600d54896122ec919061290a565b6122f69190612921565b9150612331565b806001600160801b031660010361232c57633b9aca0085600d548a612322919061290a565b6122ec9190612921565b600091505b61233f633b9aca0089612921565b8210156123545760009550505050505061164d565b509695505050505050565b6001600160a01b0381166123b55760405162461bcd60e51b815260206004820152601e60248201527f4163636f756e742063616e6e6f74206265207a65726f2061646472657373000060448201526064016107d6565b803b806116de5760405162461bcd60e51b815260206004820181905260248201527f4163636f756e7420636f64652073697a652063616e6e6f74206265207a65726f60448201526064016107d6565b600081600954612414919061287d565b60098190556040518181529091507ffb502a10a442e29149185372d74b953304b5bc0a0d9d431c070905d3dfbc89e39060200160405180910390a15050565b6001600160a01b0383166124f9576000826001600160a01b03168260405160006040518083038185875af1925050503d80600081146124ae576040519150601f19603f3d011682016040523d82523d6000602084013e6124b3565b606091505b50509050806122695760405162461bcd60e51b815260206004820152601260248201527114d95b991a5b99c8109510c819985a5b195960721b60448201526064016107d6565b6115cb6001600160a01b03841683836115cb83846001600160a01b031663a9059cbb858560405160240161252e929190612890565b604051602081830303815290604052915060e01b6020820180516001600160e01b03838183161783525050505060006125706001600160a01b038416836125b5565b905080516000141580156125955750808060200190518101906125939190612943565b155b156115cb5782604051635274afe760e01b81526004016107d6919061279a565b606061164a8383600084600080856001600160a01b031684866040516125db91906129f9565b60006040518083038185875af1925050503d8060008114612618576040519150601f19603f3d011682016040523d82523d6000602084013e61261d565b606091505b509150915061262d868383612639565b925050505b9392505050565b60608261264e576126498261268c565b612632565b815115801561266557506001600160a01b0384163b155b156126855783604051639996b31560e01b81526004016107d6919061279a565b5080612632565b80511561269c5780518082602001fd5b604051630a12f52160e11b815260040160405180910390fd5b634e487b7160e01b600052601160045260246000fd5b8082018082111561164d5761164d6126b5565b80356001600160801b03811681146126f557600080fd5b919050565b6000806040838503121561270d57600080fd5b612716836126de565b9150612724602084016126de565b90509250929050565b60006020828403121561273f57600080fd5b5035919050565b6001600160a01b03811681146113b457600080fd5b60006020828403121561276d57600080fd5b813561263281612746565b6000806040838503121561278b57600080fd5b50508035926020909101359150565b6001600160a01b0391909116815260200190565b600080604083850312156127c157600080fd5b82356127cc81612746565b915060208301356127dc81612746565b809150509250929050565b600080600080600080600060e0888a03121561280257600080fd5b873561280d81612746565b9650602088013561281d81612746565b9550604088013561282d81612746565b9450606088013561283d81612746565b9350608088013561284d81612746565b925060a088013561285d81612746565b915060c088013561286d81612746565b8091505092959891949750929550565b8181038181111561164d5761164d6126b5565b6001600160a01b03929092168252602082015260400190565b6001600160a01b03948516815260208101939093529083166040830152909116606082015260800190565b6000602082840312156128e657600080fd5b5051919050565b6000602082840312156128ff57600080fd5b815161263281612746565b808202811582820484141761164d5761164d6126b5565b60008261293e57634e487b7160e01b600052601260045260246000fd5b500490565b60006020828403121561295557600080fd5b8151801515811461263257600080fd5b6001600160801b03818116838216019080821115612985576129856126b5565b5092915050565b634e487b7160e01b600052600160045260246000fd5b634e487b7160e01b600052602160045260246000fd5b6000602082840312156129ca57600080fd5b81516005811061263257600080fd5b6001600160801b03828116828216039080821115612985576129856126b5565b6000825160005b81811015612a1a5760208186018101518583015201612a00565b50600092019182525091905056fe47647c495a7db9471a1b024b3c6f7555a502a0de4b130d83a4d3c8f9cff25939bce78369dccab09eec1986f4d409ab09ffbb47d65423e5148fcf98411c5111c95745610f99463e502f9c3333585fe329b498e36b00b8c1bdfd8dc87dfe35b5eaa264697066735822122062d4768ba20e08b994f8fc40618db8f1d3c3462d31467172a9134654338f09d064736f6c63430008180033",
  "devdoc": {
    "errors": {
      "AddressEmptyCode(address)": [
        {
          "details": "There's no code at `target` (it is not a contract)."
        }
      ],
      "AddressInsufficientBalance(address)": [
        {
          "details": "The ETH balance of the account is not enough to perform the operation."
        }
      ],
      "FailedInnerCall()": [
        {
          "details": "A call to an address target failed. The target may have reverted."
        }
      ],
      "OwnableInvalidOwner(address)": [
        {
          "details": "The owner is not a valid owner account. (eg. `address(0)`)"
        }
      ],
      "OwnableUnauthorizedAccount(address)": [
        {
          "details": "The caller account is not authorized to perform an operation."
        }
      ],
      "SafeERC20FailedOperation(address)": [
        {
          "details": "An operation with an ERC20 token failed."
        }
      ]
    },
    "kind": "dev",
    "methods": {
      "owner()": {
        "details": "Returns the address of the current owner."
      },
      "renounceOwnership()": {
        "details": "Leaves the contract without owner. It will not be possible to call `onlyOwner` functions. Can only be called by the current owner. NOTE: Renouncing ownership will leave the contract without an owner, thereby disabling any functionality that is only available to the owner."
      },
      "transferOwnership(address)": {
        "details": "Transfers ownership of the contract to a new account (`newOwner`). Can only be called by the current owner."
      }
    },
    "version": 1
  },
  "userdoc": {
    "kind": "user",
    "methods": {},
    "version": 1
  },
  "storageLayout": {
    "storage": [
      {
        "astId": 17350,
        "contract": "contracts/StabilityPool.sol:StabilityPool",
        "label": "activePool",
        "offset": 0,
        "slot": "0",
        "type": "t_contract(IActivePool)17915"
      },
      {
        "astId": 17353,
        "contract": "contracts/StabilityPool.sol:StabilityPool",
        "label": "defaultPool",
        "offset": 0,
        "slot": "1",
        "type": "t_contract(IDefaultPool)18238"
      },
      {
        "astId": 17357,
        "contract": "contracts/StabilityPool.sol:StabilityPool",
        "label": "priceFeed",
        "offset": 0,
        "slot": "2",
        "type": "t_contract(IPriceFeed)18655"
      },
      {
        "astId": 8,
        "contract": "contracts/StabilityPool.sol:StabilityPool",
        "label": "_owner",
        "offset": 0,
        "slot": "3",
        "type": "t_address"
      },
      {
        "astId": 11150,
        "contract": "contracts/StabilityPool.sol:StabilityPool",
        "label": "collateralAddress",
        "offset": 0,
        "slot": "4",
        "type": "t_address"
      },
      {
        "astId": 11153,
        "contract": "contracts/StabilityPool.sol:StabilityPool",
        "label": "borrowerOperations",
        "offset": 0,
        "slot": "5",
        "type": "t_contract(IBorrowerOperations)18128"
      },
      {
        "astId": 11156,
        "contract": "contracts/StabilityPool.sol:StabilityPool",
        "label": "troveManager",
        "offset": 0,
        "slot": "6",
        "type": "t_contract(ITroveManager)19451"
      },
      {
        "astId": 11159,
        "contract": "contracts/StabilityPool.sol:StabilityPool",
        "label": "musd",
        "offset": 0,
        "slot": "7",
        "type": "t_contract(IMUSD)19777"
      },
      {
        "astId": 11162,
        "contract": "contracts/StabilityPool.sol:StabilityPool",
        "label": "sortedTroves",
        "offset": 0,
        "slot": "8",
        "type": "t_contract(ISortedTroves)18787"
      },
      {
        "astId": 11164,
        "contract": "contracts/StabilityPool.sol:StabilityPool",
        "label": "totalMUSDDeposits",
        "offset": 0,
        "slot": "9",
        "type": "t_uint256"
      },
      {
        "astId": 11166,
        "contract": "contracts/StabilityPool.sol:StabilityPool",
        "label": "collateral",
        "offset": 0,
        "slot": "10",
        "type": "t_uint256"
      },
      {
        "astId": 11170,
        "contract": "contracts/StabilityPool.sol:StabilityPool",
        "label": "deposits",
        "offset": 0,
        "slot": "11",
        "type": "t_mapping(t_address,t_uint256)"
      },
      {
        "astId": 11175,
        "contract": "contracts/StabilityPool.sol:StabilityPool",
        "label": "depositSnapshots",
        "offset": 0,
        "slot": "12",
        "type": "t_mapping(t_address,t_struct(Snapshots)11145_storage)"
      },
      {
        "astId": 11178,
        "contract": "contracts/StabilityPool.sol:StabilityPool",
        "label": "P",
        "offset": 0,
        "slot": "13",
        "type": "t_uint256"
      },
      {
        "astId": 11180,
        "contract": "contracts/StabilityPool.sol:StabilityPool",
        "label": "currentScale",
        "offset": 0,
        "slot": "14",
        "type": "t_uint128"
      },
      {
        "astId": 11182,
        "contract": "contracts/StabilityPool.sol:StabilityPool",
        "label": "currentEpoch",
        "offset": 16,
        "slot": "14",
        "type": "t_uint128"
      },
      {
        "astId": 11188,
        "contract": "contracts/StabilityPool.sol:StabilityPool",
        "label": "epochToScaleToSum",
        "offset": 0,
        "slot": "15",
        "type": "t_mapping(t_uint128,t_mapping(t_uint128,t_uint256))"
      },
      {
        "astId": 11190,
        "contract": "contracts/StabilityPool.sol:StabilityPool",
        "label": "lastCollateralError_Offset",
        "offset": 0,
        "slot": "16",
        "type": "t_uint256"
      },
      {
        "astId": 11192,
        "contract": "contracts/StabilityPool.sol:StabilityPool",
        "label": "lastMUSDLossError_Offset",
        "offset": 0,
        "slot": "17",
        "type": "t_uint256"
      }
    ],
    "types": {
      "t_address": {
        "encoding": "inplace",
        "label": "address",
        "numberOfBytes": "20"
      },
      "t_contract(IActivePool)17915": {
        "encoding": "inplace",
        "label": "contract IActivePool",
        "numberOfBytes": "20"
      },
      "t_contract(IBorrowerOperations)18128": {
        "encoding": "inplace",
        "label": "contract IBorrowerOperations",
        "numberOfBytes": "20"
      },
      "t_contract(IDefaultPool)18238": {
        "encoding": "inplace",
        "label": "contract IDefaultPool",
        "numberOfBytes": "20"
      },
      "t_contract(IMUSD)19777": {
        "encoding": "inplace",
        "label": "contract IMUSD",
        "numberOfBytes": "20"
      },
      "t_contract(IPriceFeed)18655": {
        "encoding": "inplace",
        "label": "contract IPriceFeed",
        "numberOfBytes": "20"
      },
      "t_contract(ISortedTroves)18787": {
        "encoding": "inplace",
        "label": "contract ISortedTroves",
        "numberOfBytes": "20"
      },
      "t_contract(ITroveManager)19451": {
        "encoding": "inplace",
        "label": "contract ITroveManager",
        "numberOfBytes": "20"
      },
      "t_mapping(t_address,t_struct(Snapshots)11145_storage)": {
        "encoding": "mapping",
        "key": "t_address",
        "label": "mapping(address => struct StabilityPool.Snapshots)",
        "numberOfBytes": "32",
        "value": "t_struct(Snapshots)11145_storage"
      },
      "t_mapping(t_address,t_uint256)": {
        "encoding": "mapping",
        "key": "t_address",
        "label": "mapping(address => uint256)",
        "numberOfBytes": "32",
        "value": "t_uint256"
      },
      "t_mapping(t_uint128,t_mapping(t_uint128,t_uint256))": {
        "encoding": "mapping",
        "key": "t_uint128",
        "label": "mapping(uint128 => mapping(uint128 => uint256))",
        "numberOfBytes": "32",
        "value": "t_mapping(t_uint128,t_uint256)"
      },
      "t_mapping(t_uint128,t_uint256)": {
        "encoding": "mapping",
        "key": "t_uint128",
        "label": "mapping(uint128 => uint256)",
        "numberOfBytes": "32",
        "value": "t_uint256"
      },
      "t_struct(Snapshots)11145_storage": {
        "encoding": "inplace",
        "label": "struct StabilityPool.Snapshots",
        "members": [
          {
            "astId": 11138,
            "contract": "contracts/StabilityPool.sol:StabilityPool",
            "label": "S",
            "offset": 0,
            "slot": "0",
            "type": "t_uint256"
          },
          {
            "astId": 11140,
            "contract": "contracts/StabilityPool.sol:StabilityPool",
            "label": "P",
            "offset": 0,
            "slot": "1",
            "type": "t_uint256"
          },
          {
            "astId": 11142,
            "contract": "contracts/StabilityPool.sol:StabilityPool",
            "label": "scale",
            "offset": 0,
            "slot": "2",
            "type": "t_uint128"
          },
          {
            "astId": 11144,
            "contract": "contracts/StabilityPool.sol:StabilityPool",
            "label": "epoch",
            "offset": 16,
            "slot": "2",
            "type": "t_uint128"
          }
        ],
        "numberOfBytes": "96"
      },
      "t_uint128": {
        "encoding": "inplace",
        "label": "uint128",
        "numberOfBytes": "16"
      },
      "t_uint256": {
        "encoding": "inplace",
        "label": "uint256",
        "numberOfBytes": "32"
      }
    }
  }
}