{
  "address": "0x1cd89D59208f8E16344eD2D4D98A99e1f208fbec",
  "abi": [
    {
      "inputs": [],
      "stateMutability": "nonpayable",
      "type": "constructor"
    },
    {
      "inputs": [
        {
          "internalType": "address",
          "name": "owner",
          "type": "address"
        }
      ],
      "name": "OwnableInvalidOwner",
      "type": "error"
    },
    {
      "inputs": [
        {
          "internalType": "address",
          "name": "account",
          "type": "address"
        }
      ],
      "name": "OwnableUnauthorizedAccount",
      "type": "error"
    },
    {
      "anonymous": false,
      "inputs": [
        {
          "indexed": false,
          "internalType": "address",
          "name": "_newActivePoolAddress",
          "type": "address"
        }
      ],
      "name": "ActivePoolAddressChanged",
      "type": "event"
    },
    {
      "anonymous": false,
      "inputs": [
        {
          "indexed": false,
          "internalType": "uint256",
          "name": "_collateral",
          "type": "uint256"
        }
      ],
      "name": "ActivePoolCollateralBalanceUpdated",
      "type": "event"
    },
    {
      "anonymous": false,
      "inputs": [
        {
          "indexed": false,
          "internalType": "uint256",
          "name": "_principal",
          "type": "uint256"
        },
        {
          "indexed": false,
          "internalType": "uint256",
          "name": "_interest",
          "type": "uint256"
        }
      ],
      "name": "ActivePoolDebtUpdated",
      "type": "event"
    },
    {
      "anonymous": false,
      "inputs": [
        {
          "indexed": false,
          "internalType": "address",
          "name": "_newBorrowerOperationsAddress",
          "type": "address"
        }
      ],
      "name": "BorrowerOperationsAddressChanged",
      "type": "event"
    },
    {
      "anonymous": false,
      "inputs": [
        {
          "indexed": false,
          "internalType": "address",
          "name": "_newCollSurplusPoolAddress",
          "type": "address"
        }
      ],
      "name": "CollSurplusPoolAddressChanged",
      "type": "event"
    },
    {
      "anonymous": false,
      "inputs": [
        {
          "indexed": false,
          "internalType": "uint256",
          "name": "_newBalance",
          "type": "uint256"
        }
      ],
      "name": "CollateralBalanceUpdated",
      "type": "event"
    },
    {
      "anonymous": false,
      "inputs": [
        {
          "indexed": false,
          "internalType": "address",
          "name": "_to",
          "type": "address"
        },
        {
          "indexed": false,
          "internalType": "uint256",
          "name": "_amount",
          "type": "uint256"
        }
      ],
      "name": "CollateralSent",
      "type": "event"
    },
    {
      "anonymous": false,
      "inputs": [
        {
          "indexed": false,
          "internalType": "address",
          "name": "_newDefaultPoolAddress",
          "type": "address"
        }
      ],
      "name": "DefaultPoolAddressChanged",
      "type": "event"
    },
    {
      "anonymous": false,
      "inputs": [
        {
          "indexed": false,
          "internalType": "address",
          "name": "_interestRateManagerAddress",
          "type": "address"
        }
      ],
      "name": "InterestRateManagerAddressChanged",
      "type": "event"
    },
    {
      "anonymous": false,
      "inputs": [
        {
          "indexed": true,
          "internalType": "address",
          "name": "previousOwner",
          "type": "address"
        },
        {
          "indexed": true,
          "internalType": "address",
          "name": "newOwner",
          "type": "address"
        }
      ],
      "name": "OwnershipTransferred",
      "type": "event"
    },
    {
      "anonymous": false,
      "inputs": [
        {
          "indexed": false,
          "internalType": "address",
          "name": "_newStabilityPoolAddress",
          "type": "address"
        }
      ],
      "name": "StabilityPoolAddressChanged",
      "type": "event"
    },
    {
      "anonymous": false,
      "inputs": [
        {
          "indexed": false,
          "internalType": "address",
          "name": "_newTroveManagerAddress",
          "type": "address"
        }
      ],
      "name": "TroveManagerAddressChanged",
      "type": "event"
    },
    {
      "inputs": [],
      "name": "borrowerOperationsAddress",
      "outputs": [
        {
          "internalType": "address",
          "name": "",
          "type": "address"
        }
      ],
      "stateMutability": "view",
      "type": "function"
    },
    {
      "inputs": [],
      "name": "collSurplusPoolAddress",
      "outputs": [
        {
          "internalType": "address",
          "name": "",
          "type": "address"
        }
      ],
      "stateMutability": "view",
      "type": "function"
    },
    {
      "inputs": [
        {
          "internalType": "uint256",
          "name": "_principal",
          "type": "uint256"
        },
        {
          "internalType": "uint256",
          "name": "_interest",
          "type": "uint256"
        }
      ],
      "name": "decreaseDebt",
      "outputs": [],
      "stateMutability": "nonpayable",
      "type": "function"
    },
    {
      "inputs": [],
      "name": "defaultPoolAddress",
      "outputs": [
        {
          "internalType": "address",
          "name": "",
          "type": "address"
        }
      ],
      "stateMutability": "view",
      "type": "function"
    },
    {
      "inputs": [],
      "name": "getCollateralBalance",
      "outputs": [
        {
          "internalType": "uint256",
          "name": "",
          "type": "uint256"
        }
      ],
      "stateMutability": "view",
      "type": "function"
    },
    {
      "inputs": [],
      "name": "getDebt",
      "outputs": [
        {
          "internalType": "uint256",
          "name": "",
          "type": "uint256"
        }
      ],
      "stateMutability": "view",
      "type": "function"
    },
    {
      "inputs": [],
      "name": "getInterest",
      "outputs": [
        {
          "internalType": "uint256",
          "name": "",
          "type": "uint256"
        }
      ],
      "stateMutability": "view",
      "type": "function"
    },
    {
      "inputs": [],
      "name": "getPrincipal",
      "outputs": [
        {
          "internalType": "uint256",
          "name": "",
          "type": "uint256"
        }
      ],
      "stateMutability": "view",
      "type": "function"
    },
    {
      "inputs": [
        {
          "internalType": "uint256",
          "name": "_principal",
          "type": "uint256"
        },
        {
          "internalType": "uint256",
          "name": "_interest",
          "type": "uint256"
        }
      ],
      "name": "increaseDebt",
      "outputs": [],
      "stateMutability": "nonpayable",
      "type": "function"
    },
    {
      "inputs": [],
      "name": "interestRateManagerAddress",
      "outputs": [
        {
          "internalType": "address",
          "name": "",
          "type": "address"
        }
      ],
      "stateMutability": "view",
      "type": "function"
    },
    {
      "inputs": [],
      "name": "owner",
      "outputs": [
        {
          "internalType": "address",
          "name": "",
          "type": "address"
        }
      ],
      "stateMutability": "view",
      "type": "function"
    },
    {
      "inputs": [],
      "name": "renounceOwnership",
      "outputs": [],
      "stateMutability": "nonpayable",
      "type": "function"
    },
    {
      "inputs": [
        {
          "internalType": "address",
          "name": "_account",
          "type": "address"
        },
        {
          "internalType": "uint256",
          "name": "_amount",
          "type": "uint256"
        }
      ],
      "name": "sendCollateral",
      "outputs": [],
      "stateMutability": "nonpayable",
      "type": "function"
    },
    {
      "inputs": [
        {
          "internalType": "address",
          "name": "_borrowerOperationsAddress",
          "type": "address"
        },
        {
          "internalType": "address",
          "name": "_collSurplusPoolAddress",
          "type": "address"
        },
        {
          "internalType": "address",
          "name": "_defaultPoolAddress",
          "type": "address"
        },
        {
          "internalType": "address",
          "name": "_interestRateManagerAddress",
          "type": "address"
        },
        {
          "internalType": "address",
          "name": "_stabilityPoolAddress",
          "type": "address"
        },
        {
          "internalType": "address",
          "name": "_troveManagerAddress",
          "type": "address"
        }
      ],
      "name": "setAddresses",
      "outputs": [],
      "stateMutability": "nonpayable",
      "type": "function"
    },
    {
      "inputs": [],
      "name": "stabilityPoolAddress",
      "outputs": [
        {
          "internalType": "address",
          "name": "",
          "type": "address"
        }
      ],
      "stateMutability": "view",
      "type": "function"
    },
    {
      "inputs": [
        {
          "internalType": "address",
          "name": "newOwner",
          "type": "address"
        }
      ],
      "name": "transferOwnership",
      "outputs": [],
      "stateMutability": "nonpayable",
      "type": "function"
    },
    {
      "inputs": [],
      "name": "troveManagerAddress",
      "outputs": [
        {
          "internalType": "address",
          "name": "",
          "type": "address"
        }
      ],
      "stateMutability": "view",
      "type": "function"
    },
    {
      "stateMutability": "payable",
      "type": "receive"
    }
  ],
  "transactionHash": "0x7034ec0c8815a0003d0c50515170133f55f74edab1f24c83ada70059c572ca23",
  "args": [],
  "numDeployments": 1,
  "solcInputHash": "a5a5924c8769aaafa5a742bdee21ed0e",
  "bytecode": "0x608060405234801561001057600080fd5b50338061003757604051631e4fbdf760e01b81526000600482015260240160405180910390fd5b61004081610046565b50610096565b600080546001600160a01b038381166001600160a01b0319831681178455604051919092169283917f8be0079c531659141344cd1fd0a4f28419497f9722a3daafe3b4186f6b6457e09190a35050565b610c86806100a56000396000f3fe6080604052600436106100e25760003560e01c8063715018a611610085578063715018a6146102535780637c04cce1146102685780638da5cb5b14610288578063a69bdf16146102a6578063aac1846f146102bb578063ab11fadd146102db578063b7f8cf9b146102fb578063e5a4bed31461031b578063f2fde38b1461033057600080fd5b80630b622ab21461014357806314a6bf0f146101795780631529a6391461019c5780632a9043ec146101b157806354c46661146101d15780635a4d28bb146101f357806362502169146102135780636cfb6bf91461023357600080fd5b3661013e576100ef610350565b34600760008282546101019190610b12565b90915550506007546040519081527f51e7c30439c76308c020a84ca2a666735d3baa69d070e13beaf83e15bb697eb39060200160405180910390a1005b600080fd5b34801561014f57600080fd5b50600554610163906001600160a01b031681565b6040516101709190610b2b565b60405180910390f35b34801561018557600080fd5b5061018e6103f6565b604051908152602001610170565b3480156101a857600080fd5b5060075461018e565b3480156101bd57600080fd5b50600254610163906001600160a01b031681565b3480156101dd57600080fd5b506101f16101ec366004610b3f565b61040d565b005b3480156101ff57600080fd5b50600654610163906001600160a01b031681565b34801561021f57600080fd5b506101f161022e366004610b7d565b61048e565b34801561023f57600080fd5b506101f161024e366004610ba7565b610533565b34801561025f57600080fd5b506101f161072e565b34801561027457600080fd5b50600454610163906001600160a01b031681565b34801561029457600080fd5b506000546001600160a01b0316610163565b3480156102b257600080fd5b5060085461018e565b3480156102c757600080fd5b50600354610163906001600160a01b031681565b3480156102e757600080fd5b506101f16102f6366004610b3f565b610740565b34801561030757600080fd5b50600154610163906001600160a01b031681565b34801561032757600080fd5b5060095461018e565b34801561033c57600080fd5b506101f161034b366004610c1b565b610773565b6001546001600160a01b031633148061037357506003546001600160a01b031633145b6103f45760405162461bcd60e51b815260206004820152604160248201527f416374697665506f6f6c3a2043616c6c6572206973206e65697468657220426f60448201527f72726f7765724f7065726174696f6e73206e6f722044656661756c7420506f6f6064820152601b60fa1b608482015260a4015b60405180910390fd5b565b60006009546008546104089190610b12565b905090565b6104156107b1565b81600860008282546104279190610b12565b9250508190555080600960008282546104409190610b12565b90915550506008546009546040517f9c9231087215d0ccca20a3c98640429f2ea8bdd6498c53843c06d1138b8c94fa9261048292908252602082015260400190565b60405180910390a15050565b610496610877565b80600760008282546104a89190610c3d565b90915550506007546040519081527f51e7c30439c76308c020a84ca2a666735d3baa69d070e13beaf83e15bb697eb39060200160405180910390a1604080516001600160a01b0384168152602081018390527f342693d2465f6f44931e41128424a0227e0cbc69d1c3917a839e6de71696d44c910160405180910390a161052f828261093d565b5050565b61053b6109da565b61054486610a07565b61054d85610a07565b61055684610a07565b61055f83610a07565b61056882610a07565b61057181610a07565b600180546001600160a01b03199081166001600160a01b0389811691909117909255600280548216888416179055600380548216878416179055600480548216868416179055600580548216858416179055600680549091169183169190911790556040517f3ca631ffcd2a9b5d9ae18543fc82f58eb4ca33af9e6ab01b7a8e95331e6ed98590610603908890610b2b565b60405180910390a17fe67f36a6e961157d6eff83b91f3af5a62131ceb6f04954ef74f51c1c05e7f88d8560405161063a9190610b2b565b60405180910390a17f5ee0cae2f063ed938bb55046f6a932fb6ae792bf43624806bb90abe68a50be9b846040516106719190610b2b565b60405180910390a17fb2191e4a555a3a95a1bf9f0b0bdf4846913225862ead8e888d84c6972bf2ec01836040516106a89190610b2b565b60405180910390a17f82966d27eea39b038ee0fa30cd16532bb24f6e65d31cb58fb227aa5766cdcc7f826040516106df9190610b2b565b60405180910390a17f143219c9e69b09e07e095fcc889b43d8f46ca892bba65f08dc3a0050869a5678816040516107169190610b2b565b60405180910390a161072661072e565b505050505050565b6107366109da565b6103f46000610aac565b610748610877565b816008600082825461075a9190610c3d565b9250508190555080600960008282546104409190610c3d565b61077b6109da565b6001600160a01b0381166107a5576000604051631e4fbdf760e01b81526004016103eb9190610b2b565b6107ae81610aac565b50565b6001546001600160a01b03163314806107d457506006546001600160a01b031633145b806107e957506004546001600160a01b031633145b6103f45760405162461bcd60e51b815260206004820152605360248201527f416374697665506f6f6c3a2043616c6c6572206d75737420626520426f72726f60448201527f7765724f7065726174696f6e732c2054726f76654d616e616765722c206f722060648201527224b73a32b932b9ba2930ba32a6b0b730b3b2b960691b608482015260a4016103eb565b6001546001600160a01b031633148061089a57506006546001600160a01b031633145b806108af57506005546001600160a01b031633145b6103f45760405162461bcd60e51b815260206004820152605360248201527f416374697665506f6f6c3a2043616c6c6572206973206e65697468657220426f60448201527f72726f7765724f7065726174696f6e73206e6f722054726f76654d616e6167656064820152721c881b9bdc8814dd18589a5b1a5d1e541bdbdb606a1b608482015260a4016103eb565b6000826001600160a01b03168260405160006040518083038185875af1925050503d806000811461098a576040519150601f19603f3d011682016040523d82523d6000602084013e61098f565b606091505b50509050806109d55760405162461bcd60e51b815260206004820152601260248201527114d95b991a5b99c8109510c819985a5b195960721b60448201526064016103eb565b505050565b6000546001600160a01b031633146103f4573360405163118cdaa760e01b81526004016103eb9190610b2b565b6001600160a01b038116610a5d5760405162461bcd60e51b815260206004820152601e60248201527f4163636f756e742063616e6e6f74206265207a65726f2061646472657373000060448201526064016103eb565b803b8061052f5760405162461bcd60e51b815260206004820181905260248201527f4163636f756e7420636f64652073697a652063616e6e6f74206265207a65726f60448201526064016103eb565b600080546001600160a01b038381166001600160a01b0319831681178455604051919092169283917f8be0079c531659141344cd1fd0a4f28419497f9722a3daafe3b4186f6b6457e09190a35050565b634e487b7160e01b600052601160045260246000fd5b80820180821115610b2557610b25610afc565b92915050565b6001600160a01b0391909116815260200190565b60008060408385031215610b5257600080fd5b50508035926020909101359150565b80356001600160a01b0381168114610b7857600080fd5b919050565b60008060408385031215610b9057600080fd5b610b9983610b61565b946020939093013593505050565b60008060008060008060c08789031215610bc057600080fd5b610bc987610b61565b9550610bd760208801610b61565b9450610be560408801610b61565b9350610bf360608801610b61565b9250610c0160808801610b61565b9150610c0f60a08801610b61565b90509295509295509295565b600060208284031215610c2d57600080fd5b610c3682610b61565b9392505050565b81810381811115610b2557610b25610afc56fea2646970667358221220ca1eb583dbc8552c8b96ce29fc408466e0ae00cad3c253e56af3bd78585ac4c364736f6c63430008180033",
  "devdoc": {
    "errors": {
      "OwnableInvalidOwner(address)": [
        {
          "details": "The owner is not a valid owner account. (eg. `address(0)`)"
        }
      ],
      "OwnableUnauthorizedAccount(address)": [
        {
          "details": "The caller account is not authorized to perform an operation."
        }
      ]
    },
    "kind": "dev",
    "methods": {
      "owner()": {
        "details": "Returns the address of the current owner."
      },
      "renounceOwnership()": {
        "details": "Leaves the contract without owner. It will not be possible to call `onlyOwner` functions. Can only be called by the current owner. NOTE: Renouncing ownership will leave the contract without an owner, thereby disabling any functionality that is only available to the owner."
      },
      "transferOwnership(address)": {
        "details": "Transfers ownership of the contract to a new account (`newOwner`). Can only be called by the current owner."
      }
    },
    "version": 1
  },
  "userdoc": {
    "kind": "user",
    "methods": {},
    "version": 1
  },
  "storageLayout": {
    "storage": [
      {
        "astId": 8,
        "contract": "contracts/ActivePool.sol:ActivePool",
        "label": "_owner",
        "offset": 0,
        "slot": "0",
        "type": "t_address"
      },
      {
        "astId": 3627,
        "contract": "contracts/ActivePool.sol:ActivePool",
        "label": "borrowerOperationsAddress",
        "offset": 0,
        "slot": "1",
        "type": "t_address"
      },
      {
        "astId": 3629,
        "contract": "contracts/ActivePool.sol:ActivePool",
        "label": "collSurplusPoolAddress",
        "offset": 0,
        "slot": "2",
        "type": "t_address"
      },
      {
        "astId": 3631,
        "contract": "contracts/ActivePool.sol:ActivePool",
        "label": "defaultPoolAddress",
        "offset": 0,
        "slot": "3",
        "type": "t_address"
      },
      {
        "astId": 3633,
        "contract": "contracts/ActivePool.sol:ActivePool",
        "label": "interestRateManagerAddress",
        "offset": 0,
        "slot": "4",
        "type": "t_address"
      },
      {
        "astId": 3635,
        "contract": "contracts/ActivePool.sol:ActivePool",
        "label": "stabilityPoolAddress",
        "offset": 0,
        "slot": "5",
        "type": "t_address"
      },
      {
        "astId": 3637,
        "contract": "contracts/ActivePool.sol:ActivePool",
        "label": "troveManagerAddress",
        "offset": 0,
        "slot": "6",
        "type": "t_address"
      },
      {
        "astId": 3639,
        "contract": "contracts/ActivePool.sol:ActivePool",
        "label": "collateral",
        "offset": 0,
        "slot": "7",
        "type": "t_uint256"
      },
      {
        "astId": 3641,
        "contract": "contracts/ActivePool.sol:ActivePool",
        "label": "principal",
        "offset": 0,
        "slot": "8",
        "type": "t_uint256"
      },
      {
        "astId": 3643,
        "contract": "contracts/ActivePool.sol:ActivePool",
        "label": "interest",
        "offset": 0,
        "slot": "9",
        "type": "t_uint256"
      }
    ],
    "types": {
      "t_address": {
        "encoding": "inplace",
        "label": "address",
        "numberOfBytes": "20"
      },
      "t_uint256": {
        "encoding": "inplace",
        "label": "uint256",
        "numberOfBytes": "32"
      }
    }
  }
}