{
  "address": "0xFC623e91a3A638718cDA6dCC108BD60a9F8109E1",
  "abi": [
    {
      "inputs": [],
      "stateMutability": "nonpayable",
      "type": "constructor"
    },
    {
      "inputs": [],
      "name": "ECDSAInvalidSignature",
      "type": "error"
    },
    {
      "inputs": [
        {
          "internalType": "uint256",
          "name": "length",
          "type": "uint256"
        }
      ],
      "name": "ECDSAInvalidSignatureLength",
      "type": "error"
    },
    {
      "inputs": [
        {
          "internalType": "bytes32",
          "name": "s",
          "type": "bytes32"
        }
      ],
      "name": "ECDSAInvalidSignatureS",
      "type": "error"
    },
    {
      "inputs": [],
      "name": "InvalidShortString",
      "type": "error"
    },
    {
      "inputs": [
        {
          "internalType": "address",
          "name": "owner",
          "type": "address"
        }
      ],
      "name": "OwnableInvalidOwner",
      "type": "error"
    },
    {
      "inputs": [
        {
          "internalType": "address",
          "name": "account",
          "type": "address"
        }
      ],
      "name": "OwnableUnauthorizedAccount",
      "type": "error"
    },
    {
      "inputs": [
        {
          "internalType": "string",
          "name": "str",
          "type": "string"
        }
      ],
      "name": "StringTooLong",
      "type": "error"
    },
    {
      "anonymous": false,
      "inputs": [
        {
          "indexed": false,
          "internalType": "address",
          "name": "_activePoolAddress",
          "type": "address"
        }
      ],
      "name": "ActivePoolAddressChanged",
      "type": "event"
    },
    {
      "anonymous": false,
      "inputs": [
        {
          "indexed": true,
          "internalType": "address",
          "name": "_borrower",
          "type": "address"
        },
        {
          "indexed": false,
          "internalType": "uint256",
          "name": "_fee",
          "type": "uint256"
        }
      ],
      "name": "BorrowingFeePaid",
      "type": "event"
    },
    {
      "anonymous": false,
      "inputs": [
        {
          "indexed": false,
          "internalType": "address",
          "name": "_collSurplusPoolAddress",
          "type": "address"
        }
      ],
      "name": "CollSurplusPoolAddressChanged",
      "type": "event"
    },
    {
      "anonymous": false,
      "inputs": [
        {
          "indexed": false,
          "internalType": "address",
          "name": "_defaultPoolAddress",
          "type": "address"
        }
      ],
      "name": "DefaultPoolAddressChanged",
      "type": "event"
    },
    {
      "anonymous": false,
      "inputs": [],
      "name": "EIP712DomainChanged",
      "type": "event"
    },
    {
      "anonymous": false,
      "inputs": [
        {
          "indexed": false,
          "internalType": "address",
          "name": "_gasPoolAddress",
          "type": "address"
        }
      ],
      "name": "GasPoolAddressChanged",
      "type": "event"
    },
    {
      "anonymous": false,
      "inputs": [
        {
          "indexed": false,
          "internalType": "address",
          "name": "_musdTokenAddress",
          "type": "address"
        }
      ],
      "name": "MUSDTokenAddressChanged",
      "type": "event"
    },
    {
      "anonymous": false,
      "inputs": [
        {
          "indexed": true,
          "internalType": "address",
          "name": "previousOwner",
          "type": "address"
        },
        {
          "indexed": true,
          "internalType": "address",
          "name": "newOwner",
          "type": "address"
        }
      ],
      "name": "OwnershipTransferred",
      "type": "event"
    },
    {
      "anonymous": false,
      "inputs": [
        {
          "indexed": false,
          "internalType": "address",
          "name": "_pcvAddress",
          "type": "address"
        }
      ],
      "name": "PCVAddressChanged",
      "type": "event"
    },
    {
      "anonymous": false,
      "inputs": [
        {
          "indexed": false,
          "internalType": "address",
          "name": "_newPriceFeedAddress",
          "type": "address"
        }
      ],
      "name": "PriceFeedAddressChanged",
      "type": "event"
    },
    {
      "anonymous": false,
      "inputs": [
        {
          "indexed": true,
          "internalType": "address",
          "name": "_borrower",
          "type": "address"
        },
        {
          "indexed": false,
          "internalType": "uint256",
          "name": "_fee",
          "type": "uint256"
        }
      ],
      "name": "RefinancingFeePaid",
      "type": "event"
    },
    {
      "anonymous": false,
      "inputs": [
        {
          "indexed": false,
          "internalType": "address",
          "name": "_sortedTrovesAddress",
          "type": "address"
        }
      ],
      "name": "SortedTrovesAddressChanged",
      "type": "event"
    },
    {
      "anonymous": false,
      "inputs": [
        {
          "indexed": false,
          "internalType": "address",
          "name": "_stabilityPoolAddress",
          "type": "address"
        }
      ],
      "name": "StabilityPoolAddressChanged",
      "type": "event"
    },
    {
      "anonymous": false,
      "inputs": [
        {
          "indexed": true,
          "internalType": "address",
          "name": "_borrower",
          "type": "address"
        },
        {
          "indexed": false,
          "internalType": "uint256",
          "name": "arrayIndex",
          "type": "uint256"
        }
      ],
      "name": "TroveCreated",
      "type": "event"
    },
    {
      "anonymous": false,
      "inputs": [
        {
          "indexed": false,
          "internalType": "address",
          "name": "_newTroveManagerAddress",
          "type": "address"
        }
      ],
      "name": "TroveManagerAddressChanged",
      "type": "event"
    },
    {
      "anonymous": false,
      "inputs": [
        {
          "indexed": true,
          "internalType": "address",
          "name": "_borrower",
          "type": "address"
        },
        {
          "indexed": false,
          "internalType": "uint256",
          "name": "_principal",
          "type": "uint256"
        },
        {
          "indexed": false,
          "internalType": "uint256",
          "name": "_interest",
          "type": "uint256"
        },
        {
          "indexed": false,
          "internalType": "uint256",
          "name": "_coll",
          "type": "uint256"
        },
        {
          "indexed": false,
          "internalType": "uint256",
          "name": "stake",
          "type": "uint256"
        },
        {
          "indexed": false,
          "internalType": "uint8",
          "name": "operation",
          "type": "uint8"
        }
      ],
      "name": "TroveUpdated",
      "type": "event"
    },
    {
      "inputs": [],
      "name": "BORROWING_FEE_FLOOR",
      "outputs": [
        {
          "internalType": "uint256",
          "name": "",
          "type": "uint256"
        }
      ],
      "stateMutability": "view",
      "type": "function"
    },
    {
      "inputs": [],
      "name": "CCR",
      "outputs": [
        {
          "internalType": "uint256",
          "name": "",
          "type": "uint256"
        }
      ],
      "stateMutability": "view",
      "type": "function"
    },
    {
      "inputs": [],
      "name": "DECIMAL_PRECISION",
      "outputs": [
        {
          "internalType": "uint256",
          "name": "",
          "type": "uint256"
        }
      ],
      "stateMutability": "view",
      "type": "function"
    },
    {
      "inputs": [],
      "name": "MCR",
      "outputs": [
        {
          "internalType": "uint256",
          "name": "",
          "type": "uint256"
        }
      ],
      "stateMutability": "view",
      "type": "function"
    },
    {
      "inputs": [],
      "name": "MIN_NET_DEBT",
      "outputs": [
        {
          "internalType": "uint256",
          "name": "",
          "type": "uint256"
        }
      ],
      "stateMutability": "view",
      "type": "function"
    },
    {
      "inputs": [],
      "name": "MUSD_GAS_COMPENSATION",
      "outputs": [
        {
          "internalType": "uint256",
          "name": "",
          "type": "uint256"
        }
      ],
      "stateMutability": "view",
      "type": "function"
    },
    {
      "inputs": [],
      "name": "PERCENT_DIVISOR",
      "outputs": [
        {
          "internalType": "uint256",
          "name": "",
          "type": "uint256"
        }
      ],
      "stateMutability": "view",
      "type": "function"
    },
    {
      "inputs": [],
      "name": "_100pct",
      "outputs": [
        {
          "internalType": "uint256",
          "name": "",
          "type": "uint256"
        }
      ],
      "stateMutability": "view",
      "type": "function"
    },
    {
      "inputs": [],
      "name": "activePool",
      "outputs": [
        {
          "internalType": "contract IActivePool",
          "name": "",
          "type": "address"
        }
      ],
      "stateMutability": "view",
      "type": "function"
    },
    {
      "inputs": [
        {
          "internalType": "uint256",
          "name": "_assetAmount",
          "type": "uint256"
        },
        {
          "internalType": "address",
          "name": "_upperHint",
          "type": "address"
        },
        {
          "internalType": "address",
          "name": "_lowerHint",
          "type": "address"
        }
      ],
      "name": "addColl",
      "outputs": [],
      "stateMutability": "payable",
      "type": "function"
    },
    {
      "inputs": [
        {
          "internalType": "uint256",
          "name": "_maxFeePercentage",
          "type": "uint256"
        },
        {
          "internalType": "uint256",
          "name": "_collWithdrawal",
          "type": "uint256"
        },
        {
          "internalType": "uint256",
          "name": "_debtChange",
          "type": "uint256"
        },
        {
          "internalType": "bool",
          "name": "_isDebtIncrease",
          "type": "bool"
        },
        {
          "internalType": "uint256",
          "name": "_assetAmount",
          "type": "uint256"
        },
        {
          "internalType": "address",
          "name": "_upperHint",
          "type": "address"
        },
        {
          "internalType": "address",
          "name": "_lowerHint",
          "type": "address"
        }
      ],
      "name": "adjustTrove",
      "outputs": [],
      "stateMutability": "payable",
      "type": "function"
    },
    {
      "inputs": [
        {
          "internalType": "uint256",
          "name": "_musdToBurn",
          "type": "uint256"
        }
      ],
      "name": "burnDebtFromPCV",
      "outputs": [],
      "stateMutability": "nonpayable",
      "type": "function"
    },
    {
      "inputs": [],
      "name": "claimCollateral",
      "outputs": [],
      "stateMutability": "nonpayable",
      "type": "function"
    },
    {
      "inputs": [],
      "name": "closeTrove",
      "outputs": [],
      "stateMutability": "nonpayable",
      "type": "function"
    },
    {
      "inputs": [],
      "name": "collSurplusPool",
      "outputs": [
        {
          "internalType": "contract ICollSurplusPool",
          "name": "",
          "type": "address"
        }
      ],
      "stateMutability": "view",
      "type": "function"
    },
    {
      "inputs": [],
      "name": "defaultPool",
      "outputs": [
        {
          "internalType": "contract IDefaultPool",
          "name": "",
          "type": "address"
        }
      ],
      "stateMutability": "view",
      "type": "function"
    },
    {
      "inputs": [],
      "name": "eip712Domain",
      "outputs": [
        {
          "internalType": "bytes1",
          "name": "fields",
          "type": "bytes1"
        },
        {
          "internalType": "string",
          "name": "name",
          "type": "string"
        },
        {
          "internalType": "string",
          "name": "version",
          "type": "string"
        },
        {
          "internalType": "uint256",
          "name": "chainId",
          "type": "uint256"
        },
        {
          "internalType": "address",
          "name": "verifyingContract",
          "type": "address"
        },
        {
          "internalType": "bytes32",
          "name": "salt",
          "type": "bytes32"
        },
        {
          "internalType": "uint256[]",
          "name": "extensions",
          "type": "uint256[]"
        }
      ],
      "stateMutability": "view",
      "type": "function"
    },
    {
      "inputs": [],
      "name": "gasPoolAddress",
      "outputs": [
        {
          "internalType": "address",
          "name": "",
          "type": "address"
        }
      ],
      "stateMutability": "view",
      "type": "function"
    },
    {
      "inputs": [
        {
          "internalType": "uint256",
          "name": "_debt",
          "type": "uint256"
        }
      ],
      "name": "getCompositeDebt",
      "outputs": [
        {
          "internalType": "uint256",
          "name": "",
          "type": "uint256"
        }
      ],
      "stateMutability": "pure",
      "type": "function"
    },
    {
      "inputs": [],
      "name": "getEntireSystemColl",
      "outputs": [
        {
          "internalType": "uint256",
          "name": "entireSystemColl",
          "type": "uint256"
        }
      ],
      "stateMutability": "view",
      "type": "function"
    },
    {
      "inputs": [],
      "name": "getEntireSystemDebt",
      "outputs": [
        {
          "internalType": "uint256",
          "name": "entireSystemDebt",
          "type": "uint256"
        }
      ],
      "stateMutability": "view",
      "type": "function"
    },
    {
      "inputs": [
        {
          "internalType": "address",
          "name": "user",
          "type": "address"
        }
      ],
      "name": "getNonce",
      "outputs": [
        {
          "internalType": "uint256",
          "name": "",
          "type": "uint256"
        }
      ],
      "stateMutability": "view",
      "type": "function"
    },
    {
      "inputs": [],
      "name": "interestRateManager",
      "outputs": [
        {
          "internalType": "contract IInterestRateManager",
          "name": "",
          "type": "address"
        }
      ],
      "stateMutability": "view",
      "type": "function"
    },
    {
      "inputs": [
        {
          "internalType": "uint256",
          "name": "_musdToMint",
          "type": "uint256"
        }
      ],
      "name": "mintBootstrapLoanFromPCV",
      "outputs": [],
      "stateMutability": "nonpayable",
      "type": "function"
    },
    {
      "inputs": [
        {
          "internalType": "address",
          "name": "_borrower",
          "type": "address"
        },
        {
          "internalType": "uint256",
          "name": "_assetAmount",
          "type": "uint256"
        },
        {
          "internalType": "address",
          "name": "_upperHint",
          "type": "address"
        },
        {
          "internalType": "address",
          "name": "_lowerHint",
          "type": "address"
        }
      ],
      "name": "moveCollateralGainToTrove",
      "outputs": [],
      "stateMutability": "payable",
      "type": "function"
    },
    {
      "inputs": [],
      "name": "musd",
      "outputs": [
        {
          "internalType": "contract IMUSD",
          "name": "",
          "type": "address"
        }
      ],
      "stateMutability": "view",
      "type": "function"
    },
    {
      "inputs": [],
      "name": "name",
      "outputs": [
        {
          "internalType": "string",
          "name": "",
          "type": "string"
        }
      ],
      "stateMutability": "view",
      "type": "function"
    },
    {
      "inputs": [
        {
          "internalType": "uint256",
          "name": "_maxFeePercentage",
          "type": "uint256"
        },
        {
          "internalType": "uint256",
          "name": "_debtAmount",
          "type": "uint256"
        },
        {
          "internalType": "uint256",
          "name": "_assetAmount",
          "type": "uint256"
        },
        {
          "internalType": "address",
          "name": "_upperHint",
          "type": "address"
        },
        {
          "internalType": "address",
          "name": "_lowerHint",
          "type": "address"
        }
      ],
      "name": "openTrove",
      "outputs": [],
      "stateMutability": "payable",
      "type": "function"
    },
    {
      "inputs": [
        {
          "internalType": "uint256",
          "name": "_maxFeePercentage",
          "type": "uint256"
        },
        {
          "internalType": "uint256",
          "name": "_debtAmount",
          "type": "uint256"
        },
        {
          "internalType": "uint256",
          "name": "_assetAmount",
          "type": "uint256"
        },
        {
          "internalType": "address",
          "name": "_upperHint",
          "type": "address"
        },
        {
          "internalType": "address",
          "name": "_lowerHint",
          "type": "address"
        },
        {
          "internalType": "address",
          "name": "_borrower",
          "type": "address"
        },
        {
          "internalType": "bytes",
          "name": "_signature",
          "type": "bytes"
        },
        {
          "internalType": "uint256",
          "name": "_deadline",
          "type": "uint256"
        }
      ],
      "name": "openTroveWithSignature",
      "outputs": [],
      "stateMutability": "payable",
      "type": "function"
    },
    {
      "inputs": [],
      "name": "owner",
      "outputs": [
        {
          "internalType": "address",
          "name": "",
          "type": "address"
        }
      ],
      "stateMutability": "view",
      "type": "function"
    },
    {
      "inputs": [],
      "name": "pcv",
      "outputs": [
        {
          "internalType": "contract IPCV",
          "name": "",
          "type": "address"
        }
      ],
      "stateMutability": "view",
      "type": "function"
    },
    {
      "inputs": [],
      "name": "pcvAddress",
      "outputs": [
        {
          "internalType": "address",
          "name": "",
          "type": "address"
        }
      ],
      "stateMutability": "view",
      "type": "function"
    },
    {
      "inputs": [],
      "name": "priceFeed",
      "outputs": [
        {
          "internalType": "contract IPriceFeed",
          "name": "",
          "type": "address"
        }
      ],
      "stateMutability": "view",
      "type": "function"
    },
    {
      "inputs": [
        {
          "internalType": "uint256",
          "name": "_maxFeePercentage",
          "type": "uint256"
        }
      ],
      "name": "refinance",
      "outputs": [],
      "stateMutability": "nonpayable",
      "type": "function"
    },
    {
      "inputs": [],
      "name": "refinancingFeePercentage",
      "outputs": [
        {
          "internalType": "uint8",
          "name": "",
          "type": "uint8"
        }
      ],
      "stateMutability": "view",
      "type": "function"
    },
    {
      "inputs": [],
      "name": "renounceOwnership",
      "outputs": [],
      "stateMutability": "nonpayable",
      "type": "function"
    },
    {
      "inputs": [
        {
          "internalType": "uint256",
          "name": "_amount",
          "type": "uint256"
        },
        {
          "internalType": "address",
          "name": "_upperHint",
          "type": "address"
        },
        {
          "internalType": "address",
          "name": "_lowerHint",
          "type": "address"
        }
      ],
      "name": "repayMUSD",
      "outputs": [],
      "stateMutability": "nonpayable",
      "type": "function"
    },
    {
      "inputs": [
        {
          "internalType": "address",
          "name": "_activePoolAddress",
          "type": "address"
        },
        {
          "internalType": "address",
          "name": "_collSurplusPoolAddress",
          "type": "address"
        },
        {
          "internalType": "address",
          "name": "_defaultPoolAddress",
          "type": "address"
        },
        {
          "internalType": "address",
          "name": "_gasPoolAddress",
          "type": "address"
        },
        {
          "internalType": "address",
          "name": "_interestRateManagerAddress",
          "type": "address"
        },
        {
          "internalType": "address",
          "name": "_musdTokenAddress",
          "type": "address"
        },
        {
          "internalType": "address",
          "name": "_pcvAddress",
          "type": "address"
        },
        {
          "internalType": "address",
          "name": "_priceFeedAddress",
          "type": "address"
        },
        {
          "internalType": "address",
          "name": "_sortedTrovesAddress",
          "type": "address"
        },
        {
          "internalType": "address",
          "name": "_stabilityPoolAddress",
          "type": "address"
        },
        {
          "internalType": "address",
          "name": "_troveManagerAddress",
          "type": "address"
        }
      ],
      "name": "setAddresses",
      "outputs": [],
      "stateMutability": "nonpayable",
      "type": "function"
    },
    {
      "inputs": [
        {
          "internalType": "uint8",
          "name": "_refinanceFeePercentage",
          "type": "uint8"
        }
      ],
      "name": "setRefinancingFeePercentage",
      "outputs": [],
      "stateMutability": "nonpayable",
      "type": "function"
    },
    {
      "inputs": [],
      "name": "sortedTroves",
      "outputs": [
        {
          "internalType": "contract ISortedTroves",
          "name": "",
          "type": "address"
        }
      ],
      "stateMutability": "view",
      "type": "function"
    },
    {
      "inputs": [],
      "name": "stabilityPoolAddress",
      "outputs": [
        {
          "internalType": "address",
          "name": "",
          "type": "address"
        }
      ],
      "stateMutability": "view",
      "type": "function"
    },
    {
      "inputs": [
        {
          "internalType": "address",
          "name": "newOwner",
          "type": "address"
        }
      ],
      "name": "transferOwnership",
      "outputs": [],
      "stateMutability": "nonpayable",
      "type": "function"
    },
    {
      "inputs": [],
      "name": "troveManager",
      "outputs": [
        {
          "internalType": "contract ITroveManager",
          "name": "",
          "type": "address"
        }
      ],
      "stateMutability": "view",
      "type": "function"
    },
    {
      "inputs": [
        {
          "internalType": "uint256",
          "name": "_amount",
          "type": "uint256"
        },
        {
          "internalType": "address",
          "name": "_upperHint",
          "type": "address"
        },
        {
          "internalType": "address",
          "name": "_lowerHint",
          "type": "address"
        }
      ],
      "name": "withdrawColl",
      "outputs": [],
      "stateMutability": "nonpayable",
      "type": "function"
    },
    {
      "inputs": [
        {
          "internalType": "uint256",
          "name": "_maxFeePercentage",
          "type": "uint256"
        },
        {
          "internalType": "uint256",
          "name": "_amount",
          "type": "uint256"
        },
        {
          "internalType": "address",
          "name": "_upperHint",
          "type": "address"
        },
        {
          "internalType": "address",
          "name": "_lowerHint",
          "type": "address"
        }
      ],
      "name": "withdrawMUSD",
      "outputs": [],
      "stateMutability": "nonpayable",
      "type": "function"
    }
  ],
  "transactionHash": "0x052c5d992118c935c852c43d423d7fa5e01622010bd25d69ec4c8d3348db9bce",
  "args": [],
  "numDeployments": 1,
  "solcInputHash": "96e3b946fdc3a11ca783ffdd136d7119",
  "bytecode": "0x6101606040526007805460ff191660141790553480156200001f57600080fd5b506040805180820182526012815271426f72726f7765724f7065726174696f6e7360701b602080830191909152825180840190935260018352603160f81b908301529033806200008a57604051631e4fbdf760e01b8152600060048201526024015b60405180910390fd5b620000958162000151565b50620000a3826004620001a3565b61012052620000b4816005620001a3565b61014052815160208084019190912060e052815190820120610100524660a0526200014260e05161010051604080517f8b73c3c69bb8fe3d512ecc4cf759cc79239f7b179b0ffacaa9a75d522b39400f60208201529081019290925260608201524660808201523060a082015260009060c00160405160208183030381529060405280519060200120905090565b60805250503060c05262000408565b600380546001600160a01b038381166001600160a01b0319831681179093556040519116919082907f8be0079c531659141344cd1fd0a4f28419497f9722a3daafe3b4186f6b6457e090600090a35050565b6000602083511015620001c357620001bb83620001dc565b9050620001d6565b81620001d08482620002c6565b5060ff90505b92915050565b600080829050601f815111156200020a578260405163305a27a960e01b815260040162000081919062000392565b80516200021782620003e3565b179392505050565b634e487b7160e01b600052604160045260246000fd5b600181811c908216806200024a57607f821691505b6020821081036200026b57634e487b7160e01b600052602260045260246000fd5b50919050565b601f821115620002c1576000816000526020600020601f850160051c810160208610156200029c5750805b601f850160051c820191505b81811015620002bd57828155600101620002a8565b5050505b505050565b81516001600160401b03811115620002e257620002e26200021f565b620002fa81620002f3845462000235565b8462000271565b602080601f831160018114620003325760008415620003195750858301515b600019600386901b1c1916600185901b178555620002bd565b600085815260208120601f198616915b82811015620003635788860151825594840194600190910190840162000342565b5085821015620003825787850151600019600388901b60f8161c191681555b5050505050600190811b01905550565b60006020808352835180602085015260005b81811015620003c257858101830151858201604001528201620003a4565b506000604082860101526040601f19601f8301168501019250505092915050565b805160208083015191908110156200026b5760001960209190910360031b1b16919050565b60805160a05160c05160e051610100516101205161014051614d3862000463600039600061302701526000612ff501526000613f7401526000613f4c01526000613ea701526000613ed101526000613efb0152614d386000f3fe6080604052600436106102725760003560e01c8063795d26c31161014f578063ae918754116100c1578063d56d6bbe1161007a578063d56d6bbe1461072d578063dc283bb314610740578063eb1207eb14610760578063f2fde38b14610780578063f92d3433146107a0578063fe9d0323146107b557600080fd5b8063ae9187541461067a578063ae9d445c1461069a578063b064b0b7146106ba578063b5a77ca2146106da578063cab666d0146106ed578063cda775f91461070d57600080fd5b8063887105d311610113578063887105d31461060e5780638da5cb5b146106235780638e54c119146106415780638f09162b14610654578063a20baee61461051c578063abfad25d1461066757600080fd5b8063795d26c3146105745780637985c5e4146105895780637af110ba146105a95780637f7dde4a146105c657806384b0196e146105e657600080fd5b80635530273c116101e85780636c2f041b116101ac5780636c2f041b146104d25780636f0b0c1c146104f2578063715018a61461050757806372fe25aa1461051c578063741bef1a14610538578063794e57241461055857600080fd5b80635530273c1461042a5780635733d58f1461044a5780635b9fb3cd146104665780635f705f69146104865780636246d497146104a657600080fd5b80633cc742251161023a5780633cc74225146103705780633d83908a146103905780633db008c7146103b55780634597f6ed146103d55780634870dd9a146103f55780634ff814431461040a57600080fd5b806306fdde03146102775780630b622ab2146102cb5780630e704d50146102f85780631bf435551461030f5780632d0335ab1461033a575b600080fd5b34801561028357600080fd5b506102b560405180604001604052806012815260200171426f72726f7765724f7065726174696f6e7360701b81525081565b6040516102c29190614584565b60405180910390f35b3480156102d757600080fd5b50600a546102eb906001600160a01b031681565b6040516102c29190614597565b34801561030457600080fd5b5061030d6107d5565b005b34801561031b57600080fd5b5061032c686194049f30f720000081565b6040519081526020016102c2565b34801561034657600080fd5b5061032c6103553660046145d0565b6001600160a01b031660009081526006602052604090205490565b34801561037c57600080fd5b506001546102eb906001600160a01b031681565b34801561039c57600080fd5b506007546102eb9061010090046001600160a01b031681565b3480156103c157600080fd5b506009546102eb906001600160a01b031681565b3480156103e157600080fd5b50600d546102eb906001600160a01b031681565b34801561040157600080fd5b5061032c60c881565b34801561041657600080fd5b5061032c6104253660046145ed565b610dd0565b34801561043657600080fd5b5061030d610445366004614606565b610de1565b34801561045657600080fd5b5061032c6714d1120d7b16000081565b34801561047257600080fd5b50600e546102eb906001600160a01b031681565b34801561049257600080fd5b5061030d6104a1366004614648565b610df9565b3480156104b257600080fd5b506007546104c09060ff1681565b60405160ff90911681526020016102c2565b3480156104de57600080fd5b5061030d6104ed3660046145ed565b610e12565b3480156104fe57600080fd5b5061030d61156f565b34801561051357600080fd5b5061030d6115cd565b34801561052857600080fd5b5061032c670de0b6b3a764000081565b34801561054457600080fd5b506002546102eb906001600160a01b031681565b34801561056457600080fd5b5061032c670f43fc2c04ee000081565b34801561058057600080fd5b5061032c6115e1565b34801561059557600080fd5b5061030d6105a4366004614692565b6116dd565b3480156105b557600080fd5b5061032c680ad78ebc5ac620000081565b3480156105d257600080fd5b506000546102eb906001600160a01b031681565b3480156105f257600080fd5b506105fb611a40565b6040516102c29796959493929190614770565b34801561061a57600080fd5b5061032c611a86565b34801561062f57600080fd5b506003546001600160a01b03166102eb565b61030d61064f366004614817565b611b4b565b61030d610662366004614889565b611b67565b61030d6106753660046148df565b611b7c565b34801561068657600080fd5b50600f546102eb906001600160a01b031681565b3480156106a657600080fd5b5061030d6106b53660046145ed565b611b9a565b3480156106c657600080fd5b5061030d6106d53660046145ed565b611c31565b61030d6106e836600461492d565b611c91565b3480156106f957600080fd5b50600c546102eb906001600160a01b031681565b34801561071957600080fd5b50600b546102eb906001600160a01b031681565b61030d61073b366004614606565b611ebf565b34801561074c57600080fd5b5061030d61075b366004614606565b611ed5565b34801561076c57600080fd5b5061030d61077b366004614a3d565b611ee8565b34801561078c57600080fd5b5061030d61079b3660046145d0565b6120f6565b3480156107ac57600080fd5b5061032c612134565b3480156107c157600080fd5b506008546102eb906001600160a01b031681565b60075460008054600c54604051635f7a196360e11b81526101009094046001600160a01b039081169492811693911691829063bef432c69061081b903090600401614597565b602060405180830381865afa158015610838573d6000803e3d6000fd5b505050506040513d601f19601f8201168201806040525081019061085c9190614a60565b604051636328fec360e11b81529091506001600160a01b0385169063c651fd869061088b903390600401614597565b600060405180830381600087803b1580156108a557600080fd5b505af11580156108b9573d6000803e3d6000fd5b505050506108c78433612157565b60025460408051630fdb11cf60e01b815290516000926001600160a01b031691630fdb11cf916004808301926020929190829003018187875af1158015610912573d6000803e3d6000fd5b505050506040513d601f19601f820116820180604052508101906109369190614a7d565b905081156109475761094781612241565b604051630b07655760e01b81526001600160a01b03861690630b07655790610973903390600401614597565b600060405180830381600087803b15801561098d57600080fd5b505af11580156109a1573d6000803e3d6000fd5b50506040516309019aaf60e31b8152600092506001600160a01b038816915063480cd578906109d4903390600401614597565b602060405180830381865afa1580156109f1573d6000803e3d6000fd5b505050506040513d601f19601f82011682018060405250810190610a159190614a7d565b90506000866001600160a01b031663d66a2553336040518263ffffffff1660e01b8152600401610a459190614597565b602060405180830381865afa158015610a62573d6000803e3d6000fd5b505050506040513d601f19601f82011682018060405250810190610a869190614a7d565b90506000876001600160a01b03166385a43ca8336040518263ffffffff1660e01b8152600401610ab69190614597565b602060405180830381865afa158015610ad3573d6000803e3d6000fd5b505050506040513d601f19601f82011682018060405250810190610af79190614a7d565b9050610b168633610b11680ad78ebc5ac620000086614aac565b6122b9565b8415610b3a576000610b2d8460008560008961239c565b9050610b388161240f565b505b604051631fc5750960e31b81526001600160a01b0389169063fe2ba84890610b66903390600401614597565b600060405180830381600087803b158015610b8057600080fd5b505af1158015610b94573d6000803e3d6000fd5b50506040516365e89c5760e11b81526001600160a01b038b16925063cbd138ae9150610bc4903390600401614597565b600060405180830381600087803b158015610bde57600080fd5b505af1158015610bf2573d6000803e3d6000fd5b50506040805160008082526020820181905281830181905260608201526001608082015290513393507ff575eb5cdee005607f56587351e18943ddacd11756b9d37980ec251797ff136c92509081900360a00190a26001600160a01b03871663ab11fadd82610c6a680ad78ebc5ac620000086614aac565b610c749190614aac565b836040518363ffffffff1660e01b8152600401610c9b929190918252602082015260400190565b600060405180830381600087803b158015610cb557600080fd5b505af1158015610cc9573d6000803e3d6000fd5b50505050856001600160a01b0316639dc29fac33680ad78ebc5ac620000085610cf29190614aac565b6040518363ffffffff1660e01b8152600401610d0f929190614ad5565b600060405180830381600087803b158015610d2957600080fd5b505af1158015610d3d573d6000803e3d6000fd5b5050600854610d66925089915088906001600160a01b0316680ad78ebc5ac6200000600061249f565b604051636250216960e01b81526001600160a01b03881690636250216990610d949033908790600401614ad5565b600060405180830381600087803b158015610dae57600080fd5b505af1158015610dc2573d6000803e3d6000fd5b505050505050505050505050565b6000610ddb82612572565b92915050565b610df43384600080600087876000612587565b505050565b610e0c336000856001600087878b612587565b50505050565b600754600e546001600160a01b0361010090920482169116610e348233612157565b604051636328fec360e11b81526001600160a01b0383169063c651fd8690610e60903390600401614597565b600060405180830381600087803b158015610e7a57600080fd5b505af1158015610e8e573d6000803e3d6000fd5b50506040516392b7659b60e01b8152600092506001600160a01b03851691506392b7659b90610ec1903390600401614597565b602060405180830381865afa158015610ede573d6000803e3d6000fd5b505050506040513d601f19601f82011682018060405250810190610f029190614aee565b90506000836001600160a01b03166385a43ca8336040518263ffffffff1660e01b8152600401610f329190614597565b602060405180830381865afa158015610f4f573d6000803e3d6000fd5b505050506040513d601f19601f82011682018060405250810190610f739190614a7d565b90506000846001600160a01b031663d66a2553336040518263ffffffff1660e01b8152600401610fa39190614597565b602060405180830381865afa158015610fc0573d6000803e3d6000fd5b505050506040513d601f19601f82011682018060405250810190610fe49190614a7d565b600754909150600090606490610ffe90849060ff16614b12565b6110089190614b29565b600c549091506000906110279088906001600160a01b0316848b612d62565b604051639976cf4560e01b81529091506001600160a01b03881690639976cf45906110589033908590600401614ad5565b6020604051808303816000875af1158015611077573d6000803e3d6000fd5b505050506040513d601f19601f8201168201806040525081019061109b9190614a7d565b506040516339b3e85d60e21b81526000906001600160a01b0389169063e6cfa174906110cb903390600401614597565b602060405180830381865afa1580156110e8573d6000803e3d6000fd5b505050506040513d601f19601f8201168201806040525081019061110c9190614a7d565b6040516323cc9ed960e21b815261ffff88166004820152602481018790529091506001600160a01b03881690638f327b6490604401600060405180830381600087803b15801561115b57600080fd5b505af115801561116f573d6000803e3d6000fd5b5050604051635c30639760e11b815261ffff89166004820152602481018490526001600160a01b038a16925063b860c72e9150604401600060405180830381600087803b1580156111bf57600080fd5b505af11580156111d3573d6000803e3d6000fd5b505050506000876001600160a01b0316637c3a00fd6040518163ffffffff1660e01b8152600401602060405180830381865afa158015611217573d6000803e3d6000fd5b505050506040513d601f19601f8201168201806040525081019061123b9190614aee565b604051635b5e7c1960e11b815261ffff82166004820152602481018890529091506001600160a01b0389169063b6bcf83290604401600060405180830381600087803b15801561128a57600080fd5b505af115801561129e573d6000803e3d6000fd5b50506040516379b381e360e01b815261ffff84166004820152602481018590526001600160a01b038b1692506379b381e39150604401600060405180830381600087803b1580156112ee57600080fd5b505af1158015611302573d6000803e3d6000fd5b50505050886001600160a01b0316637412e008338a6001600160a01b0316637c3a00fd6040518163ffffffff1660e01b8152600401602060405180830381865afa158015611354573d6000803e3d6000fd5b505050506040513d601f19601f820116820180604052508101906113789190614aee565b6040516001600160e01b031960e085901b1681526001600160a01b03909216600483015261ffff166024820152604401600060405180830381600087803b1580156113c257600080fd5b505af11580156113d6573d6000803e3d6000fd5b5050505060006114ca8a6001600160a01b031663480cd578336040518263ffffffff1660e01b815260040161140b9190614597565b602060405180830381865afa158015611428573d6000803e3d6000fd5b505050506040513d601f19601f8201168201806040525081019061144c9190614a7d565b600260009054906101000a90046001600160a01b03166001600160a01b0316630fdb11cf6040518163ffffffff1660e01b81526004016020604051808303816000875af11580156114a1573d6000803e3d6000fd5b505050506040513d601f19601f820116820180604052508101906114c59190614a7d565b612ea0565b604051632f8a426f60e21b81529091506001600160a01b038b169063be2909bc906114fb9033908590600401614ad5565b600060405180830381600087803b15801561151557600080fd5b505af1158015611529573d6000803e3d6000fd5b50506040518681523392507fde81352e4f17b151de0a2f2a30a50eeb111a437414e8f241248158063302a551915060200160405180910390a25050505050505050505050565b600b5460405163b32beb5b60e01b81526001600160a01b039091169063b32beb5b9061159f903390600401614597565b600060405180830381600087803b1580156115b957600080fd5b505af1158015610e0c573d6000803e3d6000fd5b6115d5612ec6565b6115df6000612ef3565b565b60008054604080516314a6bf0f60e01b8152905183926001600160a01b0316916314a6bf0f9160048083019260209291908290030181865afa15801561162b573d6000803e3d6000fd5b505050506040513d601f19601f8201168201806040525081019061164f9190614a7d565b90506000600160009054906101000a90046001600160a01b03166001600160a01b03166314a6bf0f6040518163ffffffff1660e01b8152600401602060405180830381865afa1580156116a6573d6000803e3d6000fd5b505050506040513d601f19601f820116820180604052508101906116ca9190614a7d565b90506116d68183614b4b565b9250505090565b6116e5612ec6565b6116ee8b612f45565b6116f78a612f45565b61170089612f45565b61170988612f45565b61171287612f45565b61171b86612f45565b61172485612f45565b61172d84612f45565b61173683612f45565b61173f82612f45565b61174881612f45565b600080546001600160a01b03199081166001600160a01b038e811691909117909255600b805482168d84161790556001805482168c84161790556008805482168b8416179055600e805482168a8416179055600c80548216898416179055600d805482168884169081179091556009805483169091179055600280548216878416179055600f80548216868416179055600a805490911684831617905560078054610100600160a81b031916610100928416929092029190911790556040517f78f058b189175430c48dc02699e3a0031ea4ff781536dc2fab847de4babdd88290611834908d90614597565b60405180910390a17fe67f36a6e961157d6eff83b91f3af5a62131ceb6f04954ef74f51c1c05e7f88d8a60405161186b9190614597565b60405180910390a17f5ee0cae2f063ed938bb55046f6a932fb6ae792bf43624806bb90abe68a50be9b896040516118a29190614597565b60405180910390a17fcfb07d791fcafc032b35837b50eb84b74df518cf4cc287e8084f47630fa70fa0886040516118d99190614597565b60405180910390a17f547e9055f019d1e165f0ca2133494723cb248f8536192c218254285fc43c5668866040516119109190614597565b60405180910390a17f38335c64466e2376ab931166337e19127650d842036ebe01da1ba3e5c1255ebb856040516119479190614597565b60405180910390a17f8c537274438aa850a330284665d81a85dd38267d09e4050d416bfc94142db2648460405161197e9190614597565b60405180910390a17f65f4cf077bc01e4742eb5ad98326f6e95b63548ea24b17f8d5e823111fe78800836040516119b59190614597565b60405180910390a17f82966d27eea39b038ee0fa30cd16532bb24f6e65d31cb58fb227aa5766cdcc7f826040516119ec9190614597565b60405180910390a17f143219c9e69b09e07e095fcc889b43d8f46ca892bba65f08dc3a0050869a567881604051611a239190614597565b60405180910390a1611a336115cd565b5050505050505050505050565b600060608060008060006060611a54612fee565b611a5c613020565b60408051600080825260208201909252600f60f81b9b939a50919850469750309650945092509050565b6000805460408051631529a63960e01b8152905183926001600160a01b031691631529a6399160048083019260209291908290030181865afa158015611ad0573d6000803e3d6000fd5b505050506040513d601f19601f82011682018060405250810190611af49190614a7d565b90506000600160009054906101000a90046001600160a01b03166001600160a01b0316631529a6396040518163ffffffff1660e01b8152600401602060405180830381865afa1580156116a6573d6000803e3d6000fd5b349250611b5e338787878787878e612587565b50505050505050565b611b7533868686868661304d565b5050505050565b611b84613252565b349250610e0c8460008060008787876000612587565b6009546001600160a01b03163314611bcd5760405162461bcd60e51b8152600401611bc490614b74565b60405180910390fd5b600c54600954604051632770a7eb60e21b81526001600160a01b0392831692639dc29fac92611c03929116908590600401614ad5565b600060405180830381600087803b158015611c1d57600080fd5b505af1158015611b75573d6000803e3d6000fd5b6009546001600160a01b03163314611c5b5760405162461bcd60e51b8152600401611bc490614b74565b600c546009546040516340c10f1960e01b81526001600160a01b03928316926340c10f1992611c03929116908590600401614ad5565b80421115611cd55760405162461bcd60e51b815260206004820152601160248201527014da59db985d1d5c9948195e1c1a5c9959607a1b6044820152606401611bc4565b600060066000856001600160a01b03166001600160a01b031681526020019081526020016000205490506000604051806101000160405280866001600160a01b031681526020018b81526020018a8152602001898152602001886001600160a01b03168152602001876001600160a01b031681526020018381526020018481525090506000611e237fc51759bb583f819da22d0a6b9a911f15449cdd06dd90a890b898704cd5f6b206836000015184602001518560400151866060015187608001518860a001518960c001518a60e00151604051602001611e08999897969594939291909889526001600160a01b0397881660208a0152604089019690965260608801949094526080870192909252841660a086015290921660c084015260e08301919091526101008201526101200190565b604051602081830303815290604052805190602001206132be565b90506000611e3182876132eb565b9050866001600160a01b0316816001600160a01b031614611e885760405162461bcd60e51b8152602060048201526011602482015270496e76616c6964207369676e617475726560781b6044820152606401611bc4565b6001600160a01b0387166000908152600660205260408120805491611eac83614bba565b9190505550610dc2878d8d8d8d8d61304d565b349250610df43360008060008787876000612587565b610df43360008560008087876000612587565b600d60009054906101000a90046001600160a01b03166001600160a01b031663e2c6d41c6040518163ffffffff1660e01b8152600401602060405180830381865afa158015611f3b573d6000803e3d6000fd5b505050506040513d601f19601f82011682018060405250810190611f5f9190614bd3565b6001600160a01b0316336001600160a01b031614806120055750600d60009054906101000a90046001600160a01b03166001600160a01b03166361d027b36040518163ffffffff1660e01b8152600401602060405180830381865afa158015611fcc573d6000803e3d6000fd5b505050506040513d601f19601f82011682018060405250810190611ff09190614bd3565b6001600160a01b0316336001600160a01b0316145b61206d5760405162461bcd60e51b815260206004820152603360248201527f426f72726f7765724f70733a204f6e6c7920676f7665726e616e63652063616e6044820152721031b0b636103a3434b990333ab731ba34b7b760691b6064820152608401611bc4565b60648160ff1611156120e05760405162461bcd60e51b815260206004820152603660248201527f426f72726f7765724f70733a20526566696e616e63696e672066656520706572604482015275063656e74616765206d757374206265203c3d203130360541b6064820152608401611bc4565b6007805460ff191660ff92909216919091179055565b6120fe612ec6565b6001600160a01b038116612128576000604051631e4fbdf760e01b8152600401611bc49190614597565b61213181612ef3565b50565b6103e861214a670de0b6b3a76400006005614b12565b6121549190614b29565b81565b6040516321e3780160e01b81526000906001600160a01b038416906321e3780190612186908590600401614597565b602060405180830381865afa1580156121a3573d6000803e3d6000fd5b505050506040513d601f19601f820116820180604052508101906121c79190614bf0565b905060018160048111156121dd576121dd614abf565b14610df45760405162461bcd60e51b815260206004820152602e60248201527f426f72726f7765724f70733a2054726f766520646f6573206e6f74206578697360448201526d1d081bdc881a5cc818db1bdcd95960921b6064820152608401611bc4565b61224a81613315565b156121315760405162461bcd60e51b815260206004820152603960248201527f426f72726f7765724f70733a204f7065726174696f6e206e6f74207065726d696044820152787474656420647572696e67205265636f76657279204d6f646560381b6064820152608401611bc4565b6040516370a0823160e01b815281906001600160a01b038516906370a08231906122e7908690600401614597565b602060405180830381865afa158015612304573d6000803e3d6000fd5b505050506040513d601f19601f820116820180604052508101906123289190614a7d565b1015610df45760405162461bcd60e51b815260206004820152603d60248201527f426f72726f7765724f70733a2043616c6c657220646f65736e7420686176652060448201527f656e6f756768206d55534420746f206d616b652072657061796d656e740000006064820152608401611bc4565b6000806123a7611a86565b905060006123b36115e1565b9050866123c9576123c48883614aac565b6123d3565b6123d38883614b4b565b9150846123e9576123e48682614aac565b6123f3565b6123f38682614b4b565b90506000612402838387613332565b9998505050505050505050565b6714d1120d7b1600008110156121315760405162461bcd60e51b815260206004820152604960248201527f426f72726f7765724f70733a20416e206f7065726174696f6e2074686174207760448201527f6f756c6420726573756c7420696e20544352203c20434352206973206e6f74206064820152681c195c9b5a5d1d195960ba1b608482015260a401611bc4565b60405163ab11fadd60e01b815260048101839052602481018290526001600160a01b0386169063ab11fadd90604401600060405180830381600087803b1580156124e857600080fd5b505af11580156124fc573d6000803e3d6000fd5b50505050836001600160a01b0316639dc29fac84838561251c9190614b4b565b6040518363ffffffff1660e01b8152600401612539929190614ad5565b600060405180830381600087803b15801561255357600080fd5b505af1158015612567573d6000803e3d6000fd5b505050505050505050565b6000610ddb680ad78ebc5ac620000083614b4b565b604080516080810182526007546001600160a01b03610100909104811680835260005482166020840152600c54821683850152600e5490911660608301529151636328fec360e11b815290919063c651fd86906125e8908c90600401614597565b600060405180830381600087803b15801561260257600080fd5b505af1158015612616573d6000803e3d6000fd5b505050506126ac604051806102400160405280600081526020016000815260200160008152602001600015158152602001600081526020016000815260200160008152602001600081526020016000815260200160008152602001600081526020016000815260200160008152602001600081526020016000815260200160008152602001600081526020016000151581525090565b81516040516310b4879560e31b81526001600160a01b03909116906385a43ca8906126db908d90600401614597565b602060405180830381865afa1580156126f8573d6000803e3d6000fd5b505050506040513d601f19601f8201168201806040525081019061271c9190614a7d565b6101c0820181905260608301516040516321ddc20f60e01b81526004810192909252602482018a90526001600160a01b0316906321ddc20f906044016040805180830381865afa158015612774573d6000803e3d6000fd5b505050506040513d601f19601f820116820180604052508101906127989190614c11565b6102008301526101e082015260025460408051630fdb11cf60e01b815290516001600160a01b0390921691630fdb11cf9160048082019260209290919082900301816000875af11580156127f0573d6000803e3d6000fd5b505050506040513d601f19601f820116820180604052508101906128149190614a7d565b80825261282090613315565b151561022082015286156128465761283d83826102200151613365565b6128468861347d565b61285089876134ed565b61285b89898861355d565b8151612867908b612157565b336001600160a01b038b16148061289d5750600a546001600160a01b0316331480156128935750600086115b801561289d575087155b6128a9576128a9614b5e565b8151604051630b07655760e01b81526001600160a01b0390911690630b076557906128d8908d90600401614597565b600060405180830381600087803b1580156128f257600080fd5b505af1158015612906573d6000803e3d6000fd5b50505050612914868a6135f5565b151560608301526020820152604081018890528680156129375750806102200151155b1561296d57612950826000015183604001518a86612d62565b6101208201819052604082018051612969908390614b4b565b9052505b815160405163d66a255360e01b81526001600160a01b039091169063d66a25539061299c908d90600401614597565b602060405180830381865afa1580156129b9573d6000803e3d6000fd5b505050506040513d601f19601f820116820180604052508101906129dd9190614a7d565b608082015281516040516309019aaf60e31b81526001600160a01b039091169063480cd57890612a11908d90600401614597565b602060405180830381865afa158015612a2e573d6000803e3d6000fd5b505050506040513d601f19601f82011682018060405250810190612a529190614a7d565b60a0820181905260808201518251612a6b929190613332565b8160c0018181525050612a9b8160a0015182608001518360200151846060015185604001518c8760000151613614565b60e082015260a0810151891115612ab457612ab4614b5e565b612ac58161022001518a8984613647565b86158015612ad35750600088115b15612b2157612afc8160400151612aed8360800151613667565b612af79190614aac565b61367c565b612b0e816080015182604001516136fb565b612b2182604001518b83604001516122b9565b612b3f82600001518b8360200151846060015185604001518c61378f565b6101808401526101608301526101408201528151604051630c7940bd60e11b81526001600160a01b03909116906318f2817a90612b80908d90600401614597565b6020604051808303816000875af1158015612b9f573d6000803e3d6000fd5b505050506040513d601f19601f82011682018060405250810190612bc39190614a7d565b816101a00181815250506000612bf18260a0015183608001518460200151856060015186604001518d613982565b600f5460405163015f109360e51b81526001600160a01b038e811660048301526024820184905289811660448301528881166064830152929350911690632be2126090608401600060405180830381600087803b158015612c5157600080fd5b505af1158015612c65573d6000803e3d6000fd5b505050508a6001600160a01b03167ff575eb5cdee005607f56587351e18943ddacd11756b9d37980ec251797ff136c836101600151846101800151856101400151866101a00151600280811115612cbe57612cbe614abf565b60408051958652602086019490945292840191909152606083015260ff16608082015260a00160405180910390a261012082015160405190815233907f5d032cf8244d18503d44f7171954f352ff41fa2df69660eb897f4db36efe808e9060200160405180910390a2611a338360200151846040015133856020015186606001518d612d4f57876101e00151612d51565b8e5b8861020001518f8a604001516139a3565b6000846001600160a01b0316635dba4c4a6040518163ffffffff1660e01b8152600401600060405180830381600087803b158015612d9f57600080fd5b505af1158015612db3573d6000803e3d6000fd5b5050604051630631203b60e41b815260048101869052600092506001600160a01b038816915063631203b090602401602060405180830381865afa158015612dff573d6000803e3d6000fd5b505050506040513d601f19601f82011682018060405250810190612e239190614a7d565b9050612e30818585613a48565b6009546040516340c10f1960e01b81526001600160a01b03878116926340c10f1992612e6492909116908590600401614ad5565b600060405180830381600087803b158015612e7e57600080fd5b505af1158015612e92573d6000803e3d6000fd5b509298975050505050505050565b6000670f43fc2c04ee0000612eb58385614b12565b612ebf9190614b29565b9392505050565b6003546001600160a01b031633146115df573360405163118cdaa760e01b8152600401611bc49190614597565b600380546001600160a01b038381166001600160a01b0319831681179093556040519116919082907f8be0079c531659141344cd1fd0a4f28419497f9722a3daafe3b4186f6b6457e090600090a35050565b6001600160a01b038116612f9b5760405162461bcd60e51b815260206004820152601e60248201527f4163636f756e742063616e6e6f74206265207a65726f206164647265737300006044820152606401611bc4565b803b80612fea5760405162461bcd60e51b815260206004820181905260248201527f4163636f756e7420636f64652073697a652063616e6e6f74206265207a65726f6044820152606401611bc4565b5050565b606061301b7f00000000000000000000000000000000000000000000000000000000000000006004613ab9565b905090565b606061301b7f00000000000000000000000000000000000000000000000000000000000000006005613ab9565b60408051608080820183526007546001600160a01b036101009182900481168452600080548216602080870191909152600c54831686880152600e54831660608088019190915287519485018852828552848201839052848801839052840182905293830181905260a0830181905260c0830181905260e083018190526002548651630fdb11cf60e01b8152965195969395921693630fdb11cf9360048082019492939183900301908290875af115801561310c573d6000803e3d6000fd5b505050506040513d601f19601f820116820180604052508101906131309190614a7d565b80825260009061313f90613315565b905061314b8882613365565b8251613157908a613b64565b60408201879052806131935761317783600001518460400151898b612d62565b6020830181905260408301805161318f908390614b4b565b9052505b6131a0826040015161367c565b6131ad8260400151612572565b606083018190526131c0576131c0614b5e565b3495506131d68683606001518460000151613332565b608083015260608201516131eb908790613c37565b60a083015260006131fb87613c66565b6132088460600151613c66565b6132158560a00151613c66565b60405160200161322793929190614c35565b60405160208183030381529060405290508060405162461bcd60e51b8152600401611bc49190614584565b600a546001600160a01b031633146115df5760405162461bcd60e51b815260206004820152602960248201527f426f72726f7765724f70733a2043616c6c6572206973206e6f742053746162696044820152681b1a5d1e48141bdbdb60ba1b6064820152608401611bc4565b6000610ddb6132cb613e9a565b8360405161190160f01b8152600281019290925260228201526042902090565b6000806000806132fb8686613fc5565b92509250925061330b8282614012565b5090949350505050565b600080613321836140cb565b6714d1120d7b160000119392505050565b6000821561335a576000836133478487614b12565b6133519190614b29565b9150612ebf9050565b506000199392505050565b80156133e157670de0b6b3a7640000821115612fea5760405162461bcd60e51b815260206004820152603560248201527f4d6178206665652070657263656e74616765206d757374206265206c657373206044820152747468616e206f7220657175616c20746f203130302560581b6064820152608401611bc4565b6103e86133f7670de0b6b3a76400006005614b12565b6134019190614b29565b82101580156134185750670de0b6b3a76400008211155b612fea5760405162461bcd60e51b815260206004820152603060248201527f4d6178206665652070657263656e74616765206d75737420626520626574776560448201526f656e20302e352520616e64203130302560801b6064820152608401611bc4565b600081116121315760405162461bcd60e51b815260206004820152603760248201527f426f72726f7765724f70733a204465627420696e637265617365207265717569604482015276726573206e6f6e2d7a65726f20646562744368616e676560481b6064820152608401611bc4565b8015806134f8575081155b612fea5760405162461bcd60e51b815260206004820152603060248201527f426f72726f7765724f7065726174696f6e733a2043616e6e6f7420776974686460448201526f1c985dc8185b99081859190818dbdb1b60821b6064820152608401611bc4565b8015158061356a57508215155b8061357457508115155b610df45760405162461bcd60e51b815260206004820152604660248201527f426f72726f7765724f70733a205468657265206d75737420626520656974686560448201527f72206120636f6c6c61746572616c206368616e6765206f7220612064656274206064820152656368616e676560d01b608482015260a401611bc4565b60008083156136095750829050600161360d565b8291505b9250929050565b60008060006136278a8a8a8a8a8a6140f7565b915091506000613638838387613332565b9b9a5050505050505050505050565b831561365d57613658838383614145565b610e0c565b610e0c8282614173565b6000610ddb680ad78ebc5ac620000083614aac565b686194049f30f72000008110156121315760405162461bcd60e51b815260206004820152603a60248201527f426f72726f7765724f70733a2054726f76652773206e65742064656274206d7560448201527f73742062652067726561746572207468616e206d696e696d756d0000000000006064820152608401611bc4565b61370e680ad78ebc5ac620000083614aac565b811115612fea5760405162461bcd60e51b815260206004820152604360248201527f426f72726f7765724f70733a20416d6f756e7420726570616964206d7573742060448201527f6e6f74206265206c6172676572207468616e207468652054726f76652773206460648201526219589d60ea1b608482015260a401611bc4565b60008060008561380f5760405163d3d6f84360e01b81526001600160a01b038a169063d3d6f843906137c7908b908b90600401614ad5565b6020604051808303816000875af11580156137e6573d6000803e3d6000fd5b505050506040513d601f19601f8201168201806040525081019061380a9190614a7d565b613880565b6040516372423c1760e01b81526001600160a01b038a16906372423c179061383d908b908b90600401614ad5565b6020604051808303816000875af115801561385c573d6000803e3d6000fd5b505050506040513d601f19601f820116820180604052508101906138809190614a7d565b9250831561390057604051639976cf4560e01b81526001600160a01b038a1690639976cf45906138b6908b908990600401614ad5565b6020604051808303816000875af11580156138d5573d6000803e3d6000fd5b505050506040513d601f19601f820116820180604052508101906138f99190614a7d565b9150613976565b604051630930874960e11b81526001600160a01b038a16906312610e929061392e908b908990600401614ad5565b60408051808303816000875af115801561394c573d6000803e3d6000fd5b505050506040513d601f19601f820116820180604052508101906139709190614c11565b90925090505b96509650969350505050565b60008060006139958989898989896140f7565b915091506124028282613c37565b81156139bb576139b68989898785613e0b565b6139c8565b6139c8898989878761249f565b84156139dd576139d88987613e01565b612567565b604051636250216960e01b81526001600160a01b038a1690636250216990613a0b908a908a90600401614ad5565b600060405180830381600087803b158015613a2557600080fd5b505af1158015613a39573d6000803e3d6000fd5b50505050505050505050505050565b600082613a5d670de0b6b3a764000086614b12565b613a679190614b29565b905081811115610e0c5760405162461bcd60e51b815260206004820152601d60248201527f4665652065786365656465642070726f7669646564206d6178696d756d0000006044820152606401611bc4565b606060ff8314613ad357613acc836141ae565b9050610ddb565b818054613adf90614cc8565b80601f0160208091040260200160405190810160405280929190818152602001828054613b0b90614cc8565b8015613b585780601f10613b2d57610100808354040283529160200191613b58565b820191906000526020600020905b815481529060010190602001808311613b3b57829003601f168201915b50505050509050610ddb565b6040516321e3780160e01b81526000906001600160a01b038416906321e3780190613b93908590600401614597565b602060405180830381865afa158015613bb0573d6000803e3d6000fd5b505050506040513d601f19601f82011682018060405250810190613bd49190614bf0565b90506001816004811115613bea57613bea614abf565b03610df45760405162461bcd60e51b815260206004820152601c60248201527f426f72726f7765724f70733a2054726f766520697320616374697665000000006044820152606401611bc4565b60008115613c5d5781613c5368056bc75e2d6310000085614b12565b613acc9190614b29565b50600019610ddb565b60606000613c73836141ed565b600101905060008167ffffffffffffffff811115613c9357613c93614917565b6040519080825280601f01601f191660200182016040528015613cbd576020820181803683370190505b5090508181016020015b600019016f181899199a1a9b1b9c1cb0b131b232b360811b600a86061a8153600a8504945084613cc757509392505050565b6714d1120d7b1600008110156121315760405162461bcd60e51b815260206004820152603760248201527f426f72726f7765724f70733a204f7065726174696f6e206d757374206c65617660448201527632903a3937bb32903bb4ba341024a1a9101f1e9021a1a960491b6064820152608401611bc4565b670f43fc2c04ee00008110156121315760405162461bcd60e51b815260206004820152604960248201527f426f72726f7765724f70733a20416e206f7065726174696f6e2074686174207760448201527f6f756c6420726573756c7420696e20494352203c204d4352206973206e6f74206064820152681c195c9b5a5d1d195960ba1b608482015260a401611bc4565b612fea82826142c5565b6040516354c4666160e01b815260048101829052600060248201526001600160a01b038616906354c4666190604401600060405180830381600087803b158015613e5457600080fd5b505af1158015613e68573d6000803e3d6000fd5b50506040516340c10f1960e01b81526001600160a01b03871692506340c10f1991506125399086908690600401614ad5565b6000306001600160a01b037f000000000000000000000000000000000000000000000000000000000000000016148015613ef357507f000000000000000000000000000000000000000000000000000000000000000046145b15613f1d57507f000000000000000000000000000000000000000000000000000000000000000090565b61301b604080517f8b73c3c69bb8fe3d512ecc4cf759cc79239f7b179b0ffacaa9a75d522b39400f60208201527f0000000000000000000000000000000000000000000000000000000000000000918101919091527f000000000000000000000000000000000000000000000000000000000000000060608201524660808201523060a082015260009060c00160405160208183030381529060405280519060200120905090565b60008060008351604103613fff5760208401516040850151606086015160001a613ff18882858561435d565b95509550955050505061400b565b50508151600091506002905b9250925092565b600082600381111561402657614026614abf565b0361402f575050565b600182600381111561404357614043614abf565b036140615760405163f645eedf60e01b815260040160405180910390fd5b600282600381111561407557614075614abf565b036140965760405163fce698f760e01b815260048101829052602401611bc4565b60038260038111156140aa576140aa614abf565b03612fea576040516335e2f38360e21b815260048101829052602401611bc4565b6000806140d6611a86565b905060006140e26115e1565b90506140ef828286613332565b949350505050565b6000808461410e576141098689614aac565b614118565b6141188689614b4b565b91508261412e576141298488614aac565b614138565b6141388488614b4b565b9050965096945050505050565b61414e83614422565b8115610df4576141618160e00151613cf9565b610df48160e001518260c00151614496565b6141808160e00151613d71565b61419d81602001518260600151836040015185856000015161239c565b6101008201819052612fea9061240f565b606060006141bb8361450c565b604080516020808252818301909252919250600091906020820181803683375050509182525060208101929092525090565b60008072184f03e93ff9f4daa797ed6e38ed64bf6a1f0160401b831061422c5772184f03e93ff9f4daa797ed6e38ed64bf6a1f0160401b830492506040015b6d04ee2d6d415b85acef81000000008310614258576d04ee2d6d415b85acef8100000000830492506020015b662386f26fc10000831061427657662386f26fc10000830492506010015b6305f5e100831061428e576305f5e100830492506008015b61271083106142a257612710830492506004015b606483106142b4576064830492506002015b600a8310610ddb5760010192915050565b6000826001600160a01b03168260405160006040518083038185875af1925050503d8060008114614312576040519150601f19603f3d011682016040523d82523d6000602084013e614317565b606091505b5050905080610df45760405162461bcd60e51b815260206004820152601260248201527114d95b991a5b99c8109510c819985a5b195960721b6044820152606401611bc4565b600080806fa2a8918ca85bafe22016d0b997e4df60600160ff1b0384111561438e5750600091506003905082614418565b604080516000808252602082018084528a905260ff891692820192909252606081018790526080810186905260019060a0016020604051602081039080840390855afa1580156143e2573d6000803e3d6000fd5b5050604051601f1901519150506001600160a01b03811661440e57506000925060019150829050614418565b9250600091508190505b9450945094915050565b80156121315760405162461bcd60e51b815260206004820152603e60248201527f426f72726f7765724f70733a20436f6c6c61746572616c20776974686472617760448201527f616c206e6f74207065726d6974746564205265636f76657279204d6f646500006064820152608401611bc4565b80821015612fea5760405162461bcd60e51b815260206004820152603e60248201527f426f72726f7765724f70733a2043616e6e6f7420646563726561736520796f7560448201527f722054726f766527732049435220696e205265636f76657279204d6f646500006064820152608401611bc4565b600060ff8216601f811115610ddb57604051632cd44ac360e21b815260040160405180910390fd5b60005b8381101561454f578181015183820152602001614537565b50506000910152565b60008151808452614570816020860160208601614534565b601f01601f19169290920160200192915050565b602081526000612ebf6020830184614558565b6001600160a01b0391909116815260200190565b6001600160a01b038116811461213157600080fd5b80356145cb816145ab565b919050565b6000602082840312156145e257600080fd5b8135612ebf816145ab565b6000602082840312156145ff57600080fd5b5035919050565b60008060006060848603121561461b57600080fd5b83359250602084013561462d816145ab565b9150604084013561463d816145ab565b809150509250925092565b6000806000806080858703121561465e57600080fd5b84359350602085013592506040850135614677816145ab565b91506060850135614687816145ab565b939692955090935050565b60008060008060008060008060008060006101608c8e0312156146b457600080fd5b8b356146bf816145ab565b9a5060208c01356146cf816145ab565b995060408c01356146df816145ab565b985060608c01356146ef816145ab565b975060808c01356146ff816145ab565b965060a08c013561470f816145ab565b955060c08c013561471f816145ab565b945060e08c013561472f816145ab565b93506101008c0135614740816145ab565b925061474f6101208d016145c0565b915061475e6101408d016145c0565b90509295989b509295989b9093969950565b60ff60f81b881681526000602060e0602084015261479160e084018a614558565b83810360408501526147a3818a614558565b606085018990526001600160a01b038816608086015260a0850187905284810360c08601528551808252602080880193509091019060005b818110156147f7578351835292840192918401916001016147db565b50909c9b505050505050505050505050565b801515811461213157600080fd5b600080600080600080600060e0888a03121561483257600080fd5b873596506020880135955060408801359450606088013561485281614809565b93506080880135925060a0880135614869816145ab565b915060c0880135614879816145ab565b8091505092959891949750929550565b600080600080600060a086880312156148a157600080fd5b85359450602086013593506040860135925060608601356148c1816145ab565b915060808601356148d1816145ab565b809150509295509295909350565b600080600080608085870312156148f557600080fd5b8435614900816145ab565b9350602085013592506040850135614677816145ab565b634e487b7160e01b600052604160045260246000fd5b600080600080600080600080610100898b03121561494a57600080fd5b883597506020890135965060408901359550606089013561496a816145ab565b9450608089013561497a816145ab565b935060a089013561498a816145ab565b925060c089013567ffffffffffffffff808211156149a757600080fd5b818b0191508b601f8301126149bb57600080fd5b8135818111156149cd576149cd614917565b604051601f8201601f19908116603f011681019083821181831017156149f5576149f5614917565b816040528281528e6020848701011115614a0e57600080fd5b82602086016020830137600060208483010152809650505050505060e089013590509295985092959890939650565b600060208284031215614a4f57600080fd5b813560ff81168114612ebf57600080fd5b600060208284031215614a7257600080fd5b8151612ebf81614809565b600060208284031215614a8f57600080fd5b5051919050565b634e487b7160e01b600052601160045260246000fd5b81810381811115610ddb57610ddb614a96565b634e487b7160e01b600052602160045260246000fd5b6001600160a01b03929092168252602082015260400190565b600060208284031215614b0057600080fd5b815161ffff81168114612ebf57600080fd5b8082028115828204841417610ddb57610ddb614a96565b600082614b4657634e487b7160e01b600052601260045260246000fd5b500490565b80820180821115610ddb57610ddb614a96565b634e487b7160e01b600052600160045260246000fd5b60208082526026908201527f426f72726f7765724f7065726174696f6e733a2063616c6c6572206d757374206040820152653132902821ab60d11b606082015260800190565b600060018201614bcc57614bcc614a96565b5060010190565b600060208284031215614be557600080fd5b8151612ebf816145ab565b600060208284031215614c0257600080fd5b815160058110612ebf57600080fd5b60008060408385031215614c2457600080fd5b505080516020909101519092909150565b6d020b9b9b2ba1030b6b7bab73a1d160951b815260008451614c5e81600e850160208901614534565b8083019050710161021b7b6b837b9b4ba32903232b13a1d160751b600e8201528451614c91816020840160208901614534565b80820191505067016102724a1a91d160c51b60208201528351614cbb816028840160208801614534565b0160280195945050505050565b600181811c90821680614cdc57607f821691505b602082108103614cfc57634e487b7160e01b600052602260045260246000fd5b5091905056fea2646970667358221220f5186ecf877ac829b5ae7097eb9cab4717abbd43cbfb930cd7e70bb3e8fb043264736f6c63430008180033",
  "devdoc": {
    "errors": {
      "ECDSAInvalidSignature()": [
        {
          "details": "The signature derives the `address(0)`."
        }
      ],
      "ECDSAInvalidSignatureLength(uint256)": [
        {
          "details": "The signature has an invalid length."
        }
      ],
      "ECDSAInvalidSignatureS(bytes32)": [
        {
          "details": "The signature has an S value that is in the upper half order."
        }
      ],
      "OwnableInvalidOwner(address)": [
        {
          "details": "The owner is not a valid owner account. (eg. `address(0)`)"
        }
      ],
      "OwnableUnauthorizedAccount(address)": [
        {
          "details": "The caller account is not authorized to perform an operation."
        }
      ]
    },
    "events": {
      "EIP712DomainChanged()": {
        "details": "MAY be emitted to signal that the domain could have changed."
      }
    },
    "kind": "dev",
    "methods": {
      "eip712Domain()": {
        "details": "See {IERC-5267}."
      },
      "owner()": {
        "details": "Returns the address of the current owner."
      },
      "renounceOwnership()": {
        "details": "Leaves the contract without owner. It will not be possible to call `onlyOwner` functions. Can only be called by the current owner. NOTE: Renouncing ownership will leave the contract without an owner, thereby disabling any functionality that is only available to the owner."
      },
      "transferOwnership(address)": {
        "details": "Transfers ownership of the contract to a new account (`newOwner`). Can only be called by the current owner."
      }
    },
    "version": 1
  },
  "userdoc": {
    "kind": "user",
    "methods": {},
    "version": 1
  },
  "storageLayout": {
    "storage": [
      {
        "astId": 6292,
        "contract": "contracts/BorrowerOperations.sol:BorrowerOperations",
        "label": "activePool",
        "offset": 0,
        "slot": "0",
        "type": "t_contract(IActivePool)6751"
      },
      {
        "astId": 6295,
        "contract": "contracts/BorrowerOperations.sol:BorrowerOperations",
        "label": "defaultPool",
        "offset": 0,
        "slot": "1",
        "type": "t_contract(IDefaultPool)7062"
      },
      {
        "astId": 6299,
        "contract": "contracts/BorrowerOperations.sol:BorrowerOperations",
        "label": "priceFeed",
        "offset": 0,
        "slot": "2",
        "type": "t_contract(IPriceFeed)7449"
      },
      {
        "astId": 8,
        "contract": "contracts/BorrowerOperations.sol:BorrowerOperations",
        "label": "_owner",
        "offset": 0,
        "slot": "3",
        "type": "t_address"
      },
      {
        "astId": 1309,
        "contract": "contracts/BorrowerOperations.sol:BorrowerOperations",
        "label": "_nameFallback",
        "offset": 0,
        "slot": "4",
        "type": "t_string_storage"
      },
      {
        "astId": 1311,
        "contract": "contracts/BorrowerOperations.sol:BorrowerOperations",
        "label": "_versionFallback",
        "offset": 0,
        "slot": "5",
        "type": "t_string_storage"
      },
      {
        "astId": 2864,
        "contract": "contracts/BorrowerOperations.sol:BorrowerOperations",
        "label": "_nonces",
        "offset": 0,
        "slot": "6",
        "type": "t_mapping(t_address,t_uint256)"
      },
      {
        "astId": 2872,
        "contract": "contracts/BorrowerOperations.sol:BorrowerOperations",
        "label": "refinancingFeePercentage",
        "offset": 0,
        "slot": "7",
        "type": "t_uint8"
      },
      {
        "astId": 2875,
        "contract": "contracts/BorrowerOperations.sol:BorrowerOperations",
        "label": "troveManager",
        "offset": 1,
        "slot": "7",
        "type": "t_contract(ITroveManager)8234"
      },
      {
        "astId": 2877,
        "contract": "contracts/BorrowerOperations.sol:BorrowerOperations",
        "label": "gasPoolAddress",
        "offset": 0,
        "slot": "8",
        "type": "t_address"
      },
      {
        "astId": 2879,
        "contract": "contracts/BorrowerOperations.sol:BorrowerOperations",
        "label": "pcvAddress",
        "offset": 0,
        "slot": "9",
        "type": "t_address"
      },
      {
        "astId": 2881,
        "contract": "contracts/BorrowerOperations.sol:BorrowerOperations",
        "label": "stabilityPoolAddress",
        "offset": 0,
        "slot": "10",
        "type": "t_address"
      },
      {
        "astId": 2884,
        "contract": "contracts/BorrowerOperations.sol:BorrowerOperations",
        "label": "collSurplusPool",
        "offset": 0,
        "slot": "11",
        "type": "t_contract(ICollSurplusPool)7032"
      },
      {
        "astId": 2887,
        "contract": "contracts/BorrowerOperations.sol:BorrowerOperations",
        "label": "musd",
        "offset": 0,
        "slot": "12",
        "type": "t_contract(IMUSD)8343"
      },
      {
        "astId": 2890,
        "contract": "contracts/BorrowerOperations.sol:BorrowerOperations",
        "label": "pcv",
        "offset": 0,
        "slot": "13",
        "type": "t_contract(IPCV)7369"
      },
      {
        "astId": 2893,
        "contract": "contracts/BorrowerOperations.sol:BorrowerOperations",
        "label": "interestRateManager",
        "offset": 0,
        "slot": "14",
        "type": "t_contract(IInterestRateManager)7215"
      },
      {
        "astId": 2896,
        "contract": "contracts/BorrowerOperations.sol:BorrowerOperations",
        "label": "sortedTroves",
        "offset": 0,
        "slot": "15",
        "type": "t_contract(ISortedTroves)7581"
      }
    ],
    "types": {
      "t_address": {
        "encoding": "inplace",
        "label": "address",
        "numberOfBytes": "20"
      },
      "t_contract(IActivePool)6751": {
        "encoding": "inplace",
        "label": "contract IActivePool",
        "numberOfBytes": "20"
      },
      "t_contract(ICollSurplusPool)7032": {
        "encoding": "inplace",
        "label": "contract ICollSurplusPool",
        "numberOfBytes": "20"
      },
      "t_contract(IDefaultPool)7062": {
        "encoding": "inplace",
        "label": "contract IDefaultPool",
        "numberOfBytes": "20"
      },
      "t_contract(IInterestRateManager)7215": {
        "encoding": "inplace",
        "label": "contract IInterestRateManager",
        "numberOfBytes": "20"
      },
      "t_contract(IMUSD)8343": {
        "encoding": "inplace",
        "label": "contract IMUSD",
        "numberOfBytes": "20"
      },
      "t_contract(IPCV)7369": {
        "encoding": "inplace",
        "label": "contract IPCV",
        "numberOfBytes": "20"
      },
      "t_contract(IPriceFeed)7449": {
        "encoding": "inplace",
        "label": "contract IPriceFeed",
        "numberOfBytes": "20"
      },
      "t_contract(ISortedTroves)7581": {
        "encoding": "inplace",
        "label": "contract ISortedTroves",
        "numberOfBytes": "20"
      },
      "t_contract(ITroveManager)8234": {
        "encoding": "inplace",
        "label": "contract ITroveManager",
        "numberOfBytes": "20"
      },
      "t_mapping(t_address,t_uint256)": {
        "encoding": "mapping",
        "key": "t_address",
        "label": "mapping(address => uint256)",
        "numberOfBytes": "32",
        "value": "t_uint256"
      },
      "t_string_storage": {
        "encoding": "bytes",
        "label": "string",
        "numberOfBytes": "32"
      },
      "t_uint256": {
        "encoding": "inplace",
        "label": "uint256",
        "numberOfBytes": "32"
      },
      "t_uint8": {
        "encoding": "inplace",
        "label": "uint8",
        "numberOfBytes": "1"
      }
    }
  }
}