{
  "address": "0x7F1667b13768D15fedD4ab3B006B4C2174410593",
  "abi": [
    {
      "inputs": [],
      "stateMutability": "nonpayable",
      "type": "constructor"
    },
    {
      "inputs": [
        {
          "internalType": "address",
          "name": "owner",
          "type": "address"
        }
      ],
      "name": "OwnableInvalidOwner",
      "type": "error"
    },
    {
      "inputs": [
        {
          "internalType": "address",
          "name": "account",
          "type": "address"
        }
      ],
      "name": "OwnableUnauthorizedAccount",
      "type": "error"
    },
    {
      "anonymous": false,
      "inputs": [
        {
          "indexed": false,
          "internalType": "address",
          "name": "_newActivePoolAddress",
          "type": "address"
        }
      ],
      "name": "ActivePoolAddressChanged",
      "type": "event"
    },
    {
      "anonymous": false,
      "inputs": [
        {
          "indexed": false,
          "internalType": "address",
          "name": "_newBorrowerOperationsAddress",
          "type": "address"
        }
      ],
      "name": "BorrowerOperationsAddressChanged",
      "type": "event"
    },
    {
      "anonymous": false,
      "inputs": [
        {
          "indexed": true,
          "internalType": "address",
          "name": "_account",
          "type": "address"
        },
        {
          "indexed": false,
          "internalType": "uint256",
          "name": "_newBalance",
          "type": "uint256"
        }
      ],
      "name": "CollBalanceUpdated",
      "type": "event"
    },
    {
      "anonymous": false,
      "inputs": [
        {
          "indexed": false,
          "internalType": "address",
          "name": "_to",
          "type": "address"
        },
        {
          "indexed": false,
          "internalType": "uint256",
          "name": "_amount",
          "type": "uint256"
        }
      ],
      "name": "CollateralSent",
      "type": "event"
    },
    {
      "anonymous": false,
      "inputs": [
        {
          "indexed": true,
          "internalType": "address",
          "name": "previousOwner",
          "type": "address"
        },
        {
          "indexed": true,
          "internalType": "address",
          "name": "newOwner",
          "type": "address"
        }
      ],
      "name": "OwnershipTransferred",
      "type": "event"
    },
    {
      "anonymous": false,
      "inputs": [
        {
          "indexed": false,
          "internalType": "address",
          "name": "_newTroveManagerAddress",
          "type": "address"
        }
      ],
      "name": "TroveManagerAddressChanged",
      "type": "event"
    },
    {
      "inputs": [],
      "name": "NAME",
      "outputs": [
        {
          "internalType": "string",
          "name": "",
          "type": "string"
        }
      ],
      "stateMutability": "view",
      "type": "function"
    },
    {
      "inputs": [
        {
          "internalType": "address",
          "name": "_account",
          "type": "address"
        },
        {
          "internalType": "uint256",
          "name": "_amount",
          "type": "uint256"
        }
      ],
      "name": "accountSurplus",
      "outputs": [],
      "stateMutability": "nonpayable",
      "type": "function"
    },
    {
      "inputs": [],
      "name": "activePoolAddress",
      "outputs": [
        {
          "internalType": "address",
          "name": "",
          "type": "address"
        }
      ],
      "stateMutability": "view",
      "type": "function"
    },
    {
      "inputs": [],
      "name": "borrowerOperationsAddress",
      "outputs": [
        {
          "internalType": "address",
          "name": "",
          "type": "address"
        }
      ],
      "stateMutability": "view",
      "type": "function"
    },
    {
      "inputs": [
        {
          "internalType": "address",
          "name": "_account",
          "type": "address"
        }
      ],
      "name": "claimColl",
      "outputs": [],
      "stateMutability": "nonpayable",
      "type": "function"
    },
    {
      "inputs": [
        {
          "internalType": "address",
          "name": "_account",
          "type": "address"
        }
      ],
      "name": "getCollateral",
      "outputs": [
        {
          "internalType": "uint256",
          "name": "",
          "type": "uint256"
        }
      ],
      "stateMutability": "view",
      "type": "function"
    },
    {
      "inputs": [],
      "name": "getCollateralBalance",
      "outputs": [
        {
          "internalType": "uint256",
          "name": "",
          "type": "uint256"
        }
      ],
      "stateMutability": "view",
      "type": "function"
    },
    {
      "inputs": [],
      "name": "owner",
      "outputs": [
        {
          "internalType": "address",
          "name": "",
          "type": "address"
        }
      ],
      "stateMutability": "view",
      "type": "function"
    },
    {
      "inputs": [],
      "name": "renounceOwnership",
      "outputs": [],
      "stateMutability": "nonpayable",
      "type": "function"
    },
    {
      "inputs": [
        {
          "internalType": "address",
          "name": "_activePoolAddress",
          "type": "address"
        },
        {
          "internalType": "address",
          "name": "_borrowerOperationsAddress",
          "type": "address"
        },
        {
          "internalType": "address",
          "name": "_troveManagerAddress",
          "type": "address"
        }
      ],
      "name": "setAddresses",
      "outputs": [],
      "stateMutability": "nonpayable",
      "type": "function"
    },
    {
      "inputs": [
        {
          "internalType": "address",
          "name": "newOwner",
          "type": "address"
        }
      ],
      "name": "transferOwnership",
      "outputs": [],
      "stateMutability": "nonpayable",
      "type": "function"
    },
    {
      "inputs": [],
      "name": "troveManagerAddress",
      "outputs": [
        {
          "internalType": "address",
          "name": "",
          "type": "address"
        }
      ],
      "stateMutability": "view",
      "type": "function"
    },
    {
      "stateMutability": "payable",
      "type": "receive"
    }
  ],
  "transactionHash": "0x27555387b4daef2e372a232b6d80c12de2883f278dc6290faefae9a3356321f5",
  "args": [],
  "numDeployments": 1,
  "solcInputHash": "a5a5924c8769aaafa5a742bdee21ed0e",
  "bytecode": "0x608060405234801561001057600080fd5b50338061003757604051631e4fbdf760e01b81526000600482015260240160405180910390fd5b61004081610046565b50610096565b600080546001600160a01b038381166001600160a01b0319831681178455604051919092169283917f8be0079c531659141344cd1fd0a4f28419497f9722a3daafe3b4186f6b6457e09190a35050565b610a5b806100a56000396000f3fe6080604052600436106100ab5760003560e01c80639b56d6c9116100645780639b56d6c91461019d578063a3f4df7e146101d3578063b08bc7221461021b578063b32beb5b1461023b578063b7f8cf9b1461025b578063f2fde38b1461027b57600080fd5b80631529a639146100d7578063363bf964146100fb5780633f10abab1461011d5780635a4d28bb1461013d578063715018a61461016a5780638da5cb5b1461017f57600080fd5b366100d2576100b861029b565b34600460008282546100ca91906108eb565b925050819055005b600080fd5b3480156100e357600080fd5b506004545b6040519081526020015b60405180910390f35b34801561010757600080fd5b5061011b610116366004610920565b61030f565b005b34801561012957600080fd5b5061011b610138366004610963565b610422565b34801561014957600080fd5b5060035461015d906001600160a01b031681565b6040516100f2919061098d565b34801561017657600080fd5b5061011b6104ac565b34801561018b57600080fd5b506000546001600160a01b031661015d565b3480156101a957600080fd5b506100e86101b83660046109a1565b6001600160a01b031660009081526005602052604090205490565b3480156101df57600080fd5b5061020e6040518060400160405280600f81526020016e10dbdb1b14dd5c9c1b1d5cd41bdbdb608a1b81525081565b6040516100f291906109c3565b34801561022757600080fd5b5060015461015d906001600160a01b031681565b34801561024757600080fd5b5061011b6102563660046109a1565b6104be565b34801561026757600080fd5b5060025461015d906001600160a01b031681565b34801561028757600080fd5b5061011b6102963660046109a1565b6105fa565b6001546001600160a01b0316331461030d5760405162461bcd60e51b815260206004820152602a60248201527f436f6c6c537572706c7573506f6f6c3a2043616c6c6572206973206e6f74204160448201526918dd1a5d9948141bdbdb60b21b60648201526084015b60405180910390fd5b565b610317610638565b61032082610665565b61032981610665565b61033283610665565b600280546001600160a01b038085166001600160a01b0319928316179092556003805484841690831617905560018054928616929091169190911790556040517f3ca631ffcd2a9b5d9ae18543fc82f58eb4ca33af9e6ab01b7a8e95331e6ed9859061039f90849061098d565b60405180910390a17f143219c9e69b09e07e095fcc889b43d8f46ca892bba65f08dc3a0050869a5678816040516103d6919061098d565b60405180910390a17f78f058b189175430c48dc02699e3a0031ea4ff781536dc2fab847de4babdd8828360405161040d919061098d565b60405180910390a161041d6104ac565b505050565b61042a61070a565b6001600160a01b03821660009081526005602052604081205461044e9083906108eb565b6001600160a01b0384166000818152600560205260409081902083905551919250907ff0393a34d05e6567686ad4e097f9d9d2781565957394f1f0d984e5d8e6378f209061049f9084815260200190565b60405180910390a2505050565b6104b4610638565b61030d6000610778565b6104c66107c8565b6001600160a01b038116600090815260056020526040902054806105465760405162461bcd60e51b815260206004820152603160248201527f436f6c6c537572706c7573506f6f6c3a204e6f20636f6c6c61746572616c20616044820152707661696c61626c6520746f20636c61696d60781b6064820152608401610304565b6001600160a01b0382166000818152600560209081526040808320839055519182527ff0393a34d05e6567686ad4e097f9d9d2781565957394f1f0d984e5d8e6378f20910160405180910390a280600460008282546105a59190610a12565b9091555050604080516001600160a01b0384168152602081018390527f342693d2465f6f44931e41128424a0227e0cbc69d1c3917a839e6de71696d44c910160405180910390a16105f6828261083d565b5050565b610602610638565b6001600160a01b03811661062c576000604051631e4fbdf760e01b8152600401610304919061098d565b61063581610778565b50565b6000546001600160a01b0316331461030d573360405163118cdaa760e01b8152600401610304919061098d565b6001600160a01b0381166106bb5760405162461bcd60e51b815260206004820152601e60248201527f4163636f756e742063616e6e6f74206265207a65726f206164647265737300006044820152606401610304565b803b806105f65760405162461bcd60e51b815260206004820181905260248201527f4163636f756e7420636f64652073697a652063616e6e6f74206265207a65726f6044820152606401610304565b6003546001600160a01b0316331461030d5760405162461bcd60e51b815260206004820152602b60248201527f436f6c6c537572706c7573506f6f6c3a2043616c6c6572206973206e6f74205460448201526a3937bb32a6b0b730b3b2b960a91b6064820152608401610304565b600080546001600160a01b038381166001600160a01b0319831681178455604051919092169283917f8be0079c531659141344cd1fd0a4f28419497f9722a3daafe3b4186f6b6457e09190a35050565b6002546001600160a01b0316331461030d5760405162461bcd60e51b815260206004820152603260248201527f436f6c6c537572706c7573506f6f6c3a2043616c6c6572206973206e6f7420426044820152716f72726f776572204f7065726174696f6e7360701b6064820152608401610304565b6000826001600160a01b03168260405160006040518083038185875af1925050503d806000811461088a576040519150601f19603f3d011682016040523d82523d6000602084013e61088f565b606091505b505090508061041d5760405162461bcd60e51b815260206004820152601260248201527114d95b991a5b99c8109510c819985a5b195960721b6044820152606401610304565b634e487b7160e01b600052601160045260246000fd5b808201808211156108fe576108fe6108d5565b92915050565b80356001600160a01b038116811461091b57600080fd5b919050565b60008060006060848603121561093557600080fd5b61093e84610904565b925061094c60208501610904565b915061095a60408501610904565b90509250925092565b6000806040838503121561097657600080fd5b61097f83610904565b946020939093013593505050565b6001600160a01b0391909116815260200190565b6000602082840312156109b357600080fd5b6109bc82610904565b9392505050565b60006020808352835180602085015260005b818110156109f1578581018301518582016040015282016109d5565b506000604082860101526040601f19601f8301168501019250505092915050565b818103818111156108fe576108fe6108d556fea264697066735822122060242a0d611a107ed4b902555c73513f13285c3f44a516a6ac877a72eb47363a64736f6c63430008180033",
  "devdoc": {
    "errors": {
      "OwnableInvalidOwner(address)": [
        {
          "details": "The owner is not a valid owner account. (eg. `address(0)`)"
        }
      ],
      "OwnableUnauthorizedAccount(address)": [
        {
          "details": "The caller account is not authorized to perform an operation."
        }
      ]
    },
    "kind": "dev",
    "methods": {
      "owner()": {
        "details": "Returns the address of the current owner."
      },
      "renounceOwnership()": {
        "details": "Leaves the contract without owner. It will not be possible to call `onlyOwner` functions. Can only be called by the current owner. NOTE: Renouncing ownership will leave the contract without an owner, thereby disabling any functionality that is only available to the owner."
      },
      "transferOwnership(address)": {
        "details": "Transfers ownership of the contract to a new account (`newOwner`). Can only be called by the current owner."
      }
    },
    "version": 1
  },
  "userdoc": {
    "kind": "user",
    "methods": {},
    "version": 1
  },
  "storageLayout": {
    "storage": [
      {
        "astId": 8,
        "contract": "contracts/CollSurplusPool.sol:CollSurplusPool",
        "label": "_owner",
        "offset": 0,
        "slot": "0",
        "type": "t_address"
      },
      {
        "astId": 6658,
        "contract": "contracts/CollSurplusPool.sol:CollSurplusPool",
        "label": "activePoolAddress",
        "offset": 0,
        "slot": "1",
        "type": "t_address"
      },
      {
        "astId": 6660,
        "contract": "contracts/CollSurplusPool.sol:CollSurplusPool",
        "label": "borrowerOperationsAddress",
        "offset": 0,
        "slot": "2",
        "type": "t_address"
      },
      {
        "astId": 6662,
        "contract": "contracts/CollSurplusPool.sol:CollSurplusPool",
        "label": "troveManagerAddress",
        "offset": 0,
        "slot": "3",
        "type": "t_address"
      },
      {
        "astId": 6664,
        "contract": "contracts/CollSurplusPool.sol:CollSurplusPool",
        "label": "collateral",
        "offset": 0,
        "slot": "4",
        "type": "t_uint256"
      },
      {
        "astId": 6668,
        "contract": "contracts/CollSurplusPool.sol:CollSurplusPool",
        "label": "balances",
        "offset": 0,
        "slot": "5",
        "type": "t_mapping(t_address,t_uint256)"
      }
    ],
    "types": {
      "t_address": {
        "encoding": "inplace",
        "label": "address",
        "numberOfBytes": "20"
      },
      "t_mapping(t_address,t_uint256)": {
        "encoding": "mapping",
        "key": "t_address",
        "label": "mapping(address => uint256)",
        "numberOfBytes": "32",
        "value": "t_uint256"
      },
      "t_uint256": {
        "encoding": "inplace",
        "label": "uint256",
        "numberOfBytes": "32"
      }
    }
  }
}