{
  "address": "0x318e6b0D4E8112aF08e9BfbECfb14e152fE7855d",
  "abi": [
    {
      "inputs": [],
      "stateMutability": "nonpayable",
      "type": "constructor"
    },
    {
      "inputs": [
        {
          "internalType": "address",
          "name": "owner",
          "type": "address"
        }
      ],
      "name": "OwnableInvalidOwner",
      "type": "error"
    },
    {
      "inputs": [
        {
          "internalType": "address",
          "name": "account",
          "type": "address"
        }
      ],
      "name": "OwnableUnauthorizedAccount",
      "type": "error"
    },
    {
      "anonymous": false,
      "inputs": [
        {
          "indexed": false,
          "internalType": "address",
          "name": "_newActivePoolAddress",
          "type": "address"
        }
      ],
      "name": "ActivePoolAddressChanged",
      "type": "event"
    },
    {
      "anonymous": false,
      "inputs": [
        {
          "indexed": false,
          "internalType": "uint256",
          "name": "_newBalance",
          "type": "uint256"
        }
      ],
      "name": "CollateralBalanceUpdated",
      "type": "event"
    },
    {
      "anonymous": false,
      "inputs": [
        {
          "indexed": false,
          "internalType": "address",
          "name": "_to",
          "type": "address"
        },
        {
          "indexed": false,
          "internalType": "uint256",
          "name": "_amount",
          "type": "uint256"
        }
      ],
      "name": "CollateralSent",
      "type": "event"
    },
    {
      "anonymous": false,
      "inputs": [
        {
          "indexed": false,
          "internalType": "address",
          "name": "_newDefaultPoolAddress",
          "type": "address"
        }
      ],
      "name": "DefaultPoolAddressChanged",
      "type": "event"
    },
    {
      "anonymous": false,
      "inputs": [
        {
          "indexed": false,
          "internalType": "uint256",
          "name": "_collateral",
          "type": "uint256"
        }
      ],
      "name": "DefaultPoolCollateralBalanceUpdated",
      "type": "event"
    },
    {
      "anonymous": false,
      "inputs": [
        {
          "indexed": false,
          "internalType": "uint256",
          "name": "_principal",
          "type": "uint256"
        },
        {
          "indexed": false,
          "internalType": "uint256",
          "name": "_interest",
          "type": "uint256"
        }
      ],
      "name": "DefaultPoolDebtUpdated",
      "type": "event"
    },
    {
      "anonymous": false,
      "inputs": [
        {
          "indexed": true,
          "internalType": "address",
          "name": "previousOwner",
          "type": "address"
        },
        {
          "indexed": true,
          "internalType": "address",
          "name": "newOwner",
          "type": "address"
        }
      ],
      "name": "OwnershipTransferred",
      "type": "event"
    },
    {
      "anonymous": false,
      "inputs": [
        {
          "indexed": false,
          "internalType": "address",
          "name": "_newStabilityPoolAddress",
          "type": "address"
        }
      ],
      "name": "StabilityPoolAddressChanged",
      "type": "event"
    },
    {
      "anonymous": false,
      "inputs": [
        {
          "indexed": false,
          "internalType": "address",
          "name": "_newTroveManagerAddress",
          "type": "address"
        }
      ],
      "name": "TroveManagerAddressChanged",
      "type": "event"
    },
    {
      "inputs": [],
      "name": "activePoolAddress",
      "outputs": [
        {
          "internalType": "address",
          "name": "",
          "type": "address"
        }
      ],
      "stateMutability": "view",
      "type": "function"
    },
    {
      "inputs": [
        {
          "internalType": "uint256",
          "name": "_principal",
          "type": "uint256"
        },
        {
          "internalType": "uint256",
          "name": "_interest",
          "type": "uint256"
        }
      ],
      "name": "decreaseDebt",
      "outputs": [],
      "stateMutability": "nonpayable",
      "type": "function"
    },
    {
      "inputs": [],
      "name": "getCollateralBalance",
      "outputs": [
        {
          "internalType": "uint256",
          "name": "",
          "type": "uint256"
        }
      ],
      "stateMutability": "view",
      "type": "function"
    },
    {
      "inputs": [],
      "name": "getDebt",
      "outputs": [
        {
          "internalType": "uint256",
          "name": "",
          "type": "uint256"
        }
      ],
      "stateMutability": "view",
      "type": "function"
    },
    {
      "inputs": [],
      "name": "getInterest",
      "outputs": [
        {
          "internalType": "uint256",
          "name": "",
          "type": "uint256"
        }
      ],
      "stateMutability": "view",
      "type": "function"
    },
    {
      "inputs": [],
      "name": "getLastInterestUpdatedTime",
      "outputs": [
        {
          "internalType": "uint256",
          "name": "",
          "type": "uint256"
        }
      ],
      "stateMutability": "view",
      "type": "function"
    },
    {
      "inputs": [],
      "name": "getPrincipal",
      "outputs": [
        {
          "internalType": "uint256",
          "name": "",
          "type": "uint256"
        }
      ],
      "stateMutability": "view",
      "type": "function"
    },
    {
      "inputs": [
        {
          "internalType": "uint256",
          "name": "_principal",
          "type": "uint256"
        },
        {
          "internalType": "uint256",
          "name": "_interest",
          "type": "uint256"
        }
      ],
      "name": "increaseDebt",
      "outputs": [],
      "stateMutability": "nonpayable",
      "type": "function"
    },
    {
      "inputs": [],
      "name": "owner",
      "outputs": [
        {
          "internalType": "address",
          "name": "",
          "type": "address"
        }
      ],
      "stateMutability": "view",
      "type": "function"
    },
    {
      "inputs": [],
      "name": "renounceOwnership",
      "outputs": [],
      "stateMutability": "nonpayable",
      "type": "function"
    },
    {
      "inputs": [
        {
          "internalType": "uint256",
          "name": "_amount",
          "type": "uint256"
        }
      ],
      "name": "sendCollateralToActivePool",
      "outputs": [],
      "stateMutability": "nonpayable",
      "type": "function"
    },
    {
      "inputs": [
        {
          "internalType": "address",
          "name": "_activePoolAddress",
          "type": "address"
        },
        {
          "internalType": "address",
          "name": "_troveManagerAddress",
          "type": "address"
        }
      ],
      "name": "setAddresses",
      "outputs": [],
      "stateMutability": "nonpayable",
      "type": "function"
    },
    {
      "inputs": [
        {
          "internalType": "address",
          "name": "newOwner",
          "type": "address"
        }
      ],
      "name": "transferOwnership",
      "outputs": [],
      "stateMutability": "nonpayable",
      "type": "function"
    },
    {
      "inputs": [],
      "name": "troveManagerAddress",
      "outputs": [
        {
          "internalType": "address",
          "name": "",
          "type": "address"
        }
      ],
      "stateMutability": "view",
      "type": "function"
    },
    {
      "stateMutability": "payable",
      "type": "receive"
    }
  ],
  "transactionHash": "0xedb8d0a64a5c467a3cb8962eabd5d8263e437b614db037df31f120bb6edcf605",
  "args": [],
  "numDeployments": 1,
  "solcInputHash": "a5a5924c8769aaafa5a742bdee21ed0e",
  "bytecode": "0x608060405234801561001057600080fd5b50338061003757604051631e4fbdf760e01b81526000600482015260240160405180910390fd5b61004081610046565b50610096565b600080546001600160a01b038381166001600160a01b0319831681178455604051919092169283917f8be0079c531659141344cd1fd0a4f28419497f9722a3daafe3b4186f6b6457e09190a35050565b61092b806100a56000396000f3fe6080604052600436106100c15760003560e01c80638da5cb5b1161006f5780638da5cb5b146101f457806390107afe14610212578063a69bdf1614610232578063ab11fadd14610247578063b08bc72214610267578063e5a4bed314610287578063f2fde38b1461029c57600080fd5b806310710f721461012257806314a6bf0f146101465780631529a6391461015b57806354c46661146101705780635a4d28bb14610192578063715018a6146101bf5780637df17502146101d457600080fd5b3661011d576100ce6102bc565b34600360008282546100e09190610809565b90915550506003546040519081527fa7a66beb44646a3c65a43d8f42c1a68514ad28ce06bf8777e6209712ea56d8079060200160405180910390a1005b600080fd5b34801561012e57600080fd5b506006545b6040519081526020015b60405180910390f35b34801561015257600080fd5b5061013361032f565b34801561016757600080fd5b50600354610133565b34801561017c57600080fd5b5061019061018b366004610822565b610346565b005b34801561019e57600080fd5b506002546101b2906001600160a01b031681565b60405161013d9190610844565b3480156101cb57600080fd5b506101906103cb565b3480156101e057600080fd5b506101906101ef366004610858565b6103dd565b34801561020057600080fd5b506000546001600160a01b03166101b2565b34801561021e57600080fd5b5061019061022d36600461088d565b610494565b34801561023e57600080fd5b50600454610133565b34801561025357600080fd5b50610190610262366004610822565b610555565b34801561027357600080fd5b506001546101b2906001600160a01b031681565b34801561029357600080fd5b50600554610133565b3480156102a857600080fd5b506101906102b73660046108c0565b610588565b6001546001600160a01b0316331461032d5760405162461bcd60e51b815260206004820152602960248201527f44656661756c74506f6f6c3a2043616c6c6572206973206e6f7420746865204160448201526818dd1a5d99541bdbdb60ba1b60648201526084015b60405180910390fd5b565b60006005546004546103419190610809565b905090565b61034e6105c6565b81600460008282546103609190610809565b9250508190555080600560008282546103799190610809565b9091555050426006556004546005546040517f709cd28e2d49c68e97accc2eef5d6d07cc43b0a04c3d112aa6966a6da123b367926103bf92908252602082015260400190565b60405180910390a15050565b6103d3610634565b61032d6000610661565b6103e56105c6565b600154600380546001600160a01b03909216918391906000906104099084906108e2565b90915550506003546040519081527fa7a66beb44646a3c65a43d8f42c1a68514ad28ce06bf8777e6209712ea56d8079060200160405180910390a1604080516001600160a01b0383168152602081018490527f342693d2465f6f44931e41128424a0227e0cbc69d1c3917a839e6de71696d44c910160405180910390a161049081836106b1565b5050565b61049c610634565b6104a58261074e565b6104ae8161074e565b600180546001600160a01b038085166001600160a01b03199283161790925560028054928416929091169190911790556040517f143219c9e69b09e07e095fcc889b43d8f46ca892bba65f08dc3a0050869a56789061050e908390610844565b60405180910390a17f78f058b189175430c48dc02699e3a0031ea4ff781536dc2fab847de4babdd882826040516105459190610844565b60405180910390a16104906103cb565b61055d6105c6565b816004600082825461056f91906108e2565b92505081905550806005600082825461037991906108e2565b610590610634565b6001600160a01b0381166105ba576000604051631e4fbdf760e01b81526004016103249190610844565b6105c381610661565b50565b6002546001600160a01b0316331461032d5760405162461bcd60e51b815260206004820152602b60248201527f44656661756c74506f6f6c3a2043616c6c6572206973206e6f7420746865205460448201526a3937bb32a6b0b730b3b2b960a91b6064820152608401610324565b6000546001600160a01b0316331461032d573360405163118cdaa760e01b81526004016103249190610844565b600080546001600160a01b038381166001600160a01b0319831681178455604051919092169283917f8be0079c531659141344cd1fd0a4f28419497f9722a3daafe3b4186f6b6457e09190a35050565b6000826001600160a01b03168260405160006040518083038185875af1925050503d80600081146106fe576040519150601f19603f3d011682016040523d82523d6000602084013e610703565b606091505b50509050806107495760405162461bcd60e51b815260206004820152601260248201527114d95b991a5b99c8109510c819985a5b195960721b6044820152606401610324565b505050565b6001600160a01b0381166107a45760405162461bcd60e51b815260206004820152601e60248201527f4163636f756e742063616e6e6f74206265207a65726f206164647265737300006044820152606401610324565b803b806104905760405162461bcd60e51b815260206004820181905260248201527f4163636f756e7420636f64652073697a652063616e6e6f74206265207a65726f6044820152606401610324565b634e487b7160e01b600052601160045260246000fd5b8082018082111561081c5761081c6107f3565b92915050565b6000806040838503121561083557600080fd5b50508035926020909101359150565b6001600160a01b0391909116815260200190565b60006020828403121561086a57600080fd5b5035919050565b80356001600160a01b038116811461088857600080fd5b919050565b600080604083850312156108a057600080fd5b6108a983610871565b91506108b760208401610871565b90509250929050565b6000602082840312156108d257600080fd5b6108db82610871565b9392505050565b8181038181111561081c5761081c6107f356fea26469706673582212205e47b95a048b36835e143aa385bcc7e41abfd70543e75291ed7a47a676a7ea4264736f6c63430008180033",
  "devdoc": {
    "errors": {
      "OwnableInvalidOwner(address)": [
        {
          "details": "The owner is not a valid owner account. (eg. `address(0)`)"
        }
      ],
      "OwnableUnauthorizedAccount(address)": [
        {
          "details": "The caller account is not authorized to perform an operation."
        }
      ]
    },
    "kind": "dev",
    "methods": {
      "owner()": {
        "details": "Returns the address of the current owner."
      },
      "renounceOwnership()": {
        "details": "Leaves the contract without owner. It will not be possible to call `onlyOwner` functions. Can only be called by the current owner. NOTE: Renouncing ownership will leave the contract without an owner, thereby disabling any functionality that is only available to the owner."
      },
      "transferOwnership(address)": {
        "details": "Transfers ownership of the contract to a new account (`newOwner`). Can only be called by the current owner."
      }
    },
    "version": 1
  },
  "userdoc": {
    "kind": "user",
    "methods": {},
    "version": 1
  },
  "storageLayout": {
    "storage": [
      {
        "astId": 8,
        "contract": "contracts/DefaultPool.sol:DefaultPool",
        "label": "_owner",
        "offset": 0,
        "slot": "0",
        "type": "t_address"
      },
      {
        "astId": 6896,
        "contract": "contracts/DefaultPool.sol:DefaultPool",
        "label": "activePoolAddress",
        "offset": 0,
        "slot": "1",
        "type": "t_address"
      },
      {
        "astId": 6898,
        "contract": "contracts/DefaultPool.sol:DefaultPool",
        "label": "troveManagerAddress",
        "offset": 0,
        "slot": "2",
        "type": "t_address"
      },
      {
        "astId": 6900,
        "contract": "contracts/DefaultPool.sol:DefaultPool",
        "label": "collateral",
        "offset": 0,
        "slot": "3",
        "type": "t_uint256"
      },
      {
        "astId": 6902,
        "contract": "contracts/DefaultPool.sol:DefaultPool",
        "label": "principal",
        "offset": 0,
        "slot": "4",
        "type": "t_uint256"
      },
      {
        "astId": 6904,
        "contract": "contracts/DefaultPool.sol:DefaultPool",
        "label": "interest",
        "offset": 0,
        "slot": "5",
        "type": "t_uint256"
      },
      {
        "astId": 6906,
        "contract": "contracts/DefaultPool.sol:DefaultPool",
        "label": "lastInterestUpdatedTime",
        "offset": 0,
        "slot": "6",
        "type": "t_uint256"
      }
    ],
    "types": {
      "t_address": {
        "encoding": "inplace",
        "label": "address",
        "numberOfBytes": "20"
      },
      "t_uint256": {
        "encoding": "inplace",
        "label": "uint256",
        "numberOfBytes": "32"
      }
    }
  }
}