{
  "address": "0xA2e37Cc979911806a70f583697bCfCB31B989b08",
  "abi": [
    {
      "inputs": [
        {
          "internalType": "address",
          "name": "_troveManagerAddress",
          "type": "address"
        },
        {
          "internalType": "address",
          "name": "_stabilityPoolAddress",
          "type": "address"
        },
        {
          "internalType": "address",
          "name": "_borrowerOperationsAddress",
          "type": "address"
        },
        {
          "internalType": "address",
          "name": "_interestRateManagerAddress",
          "type": "address"
        },
        {
          "internalType": "uint256",
          "name": "_governanceTimeDelay",
          "type": "uint256"
        }
      ],
      "stateMutability": "nonpayable",
      "type": "constructor"
    },
    {
      "inputs": [],
      "name": "ECDSAInvalidSignature",
      "type": "error"
    },
    {
      "inputs": [
        {
          "internalType": "uint256",
          "name": "length",
          "type": "uint256"
        }
      ],
      "name": "ECDSAInvalidSignatureLength",
      "type": "error"
    },
    {
      "inputs": [
        {
          "internalType": "bytes32",
          "name": "s",
          "type": "bytes32"
        }
      ],
      "name": "ECDSAInvalidSignatureS",
      "type": "error"
    },
    {
      "inputs": [
        {
          "internalType": "address",
          "name": "spender",
          "type": "address"
        },
        {
          "internalType": "uint256",
          "name": "allowance",
          "type": "uint256"
        },
        {
          "internalType": "uint256",
          "name": "needed",
          "type": "uint256"
        }
      ],
      "name": "ERC20InsufficientAllowance",
      "type": "error"
    },
    {
      "inputs": [
        {
          "internalType": "address",
          "name": "sender",
          "type": "address"
        },
        {
          "internalType": "uint256",
          "name": "balance",
          "type": "uint256"
        },
        {
          "internalType": "uint256",
          "name": "needed",
          "type": "uint256"
        }
      ],
      "name": "ERC20InsufficientBalance",
      "type": "error"
    },
    {
      "inputs": [
        {
          "internalType": "address",
          "name": "approver",
          "type": "address"
        }
      ],
      "name": "ERC20InvalidApprover",
      "type": "error"
    },
    {
      "inputs": [
        {
          "internalType": "address",
          "name": "receiver",
          "type": "address"
        }
      ],
      "name": "ERC20InvalidReceiver",
      "type": "error"
    },
    {
      "inputs": [
        {
          "internalType": "address",
          "name": "sender",
          "type": "address"
        }
      ],
      "name": "ERC20InvalidSender",
      "type": "error"
    },
    {
      "inputs": [
        {
          "internalType": "address",
          "name": "spender",
          "type": "address"
        }
      ],
      "name": "ERC20InvalidSpender",
      "type": "error"
    },
    {
      "inputs": [
        {
          "internalType": "uint256",
          "name": "deadline",
          "type": "uint256"
        }
      ],
      "name": "ERC2612ExpiredSignature",
      "type": "error"
    },
    {
      "inputs": [
        {
          "internalType": "address",
          "name": "signer",
          "type": "address"
        },
        {
          "internalType": "address",
          "name": "owner",
          "type": "address"
        }
      ],
      "name": "ERC2612InvalidSigner",
      "type": "error"
    },
    {
      "inputs": [
        {
          "internalType": "address",
          "name": "account",
          "type": "address"
        },
        {
          "internalType": "uint256",
          "name": "currentNonce",
          "type": "uint256"
        }
      ],
      "name": "InvalidAccountNonce",
      "type": "error"
    },
    {
      "inputs": [],
      "name": "InvalidShortString",
      "type": "error"
    },
    {
      "inputs": [
        {
          "internalType": "address",
          "name": "owner",
          "type": "address"
        }
      ],
      "name": "OwnableInvalidOwner",
      "type": "error"
    },
    {
      "inputs": [
        {
          "internalType": "address",
          "name": "account",
          "type": "address"
        }
      ],
      "name": "OwnableUnauthorizedAccount",
      "type": "error"
    },
    {
      "inputs": [
        {
          "internalType": "string",
          "name": "str",
          "type": "string"
        }
      ],
      "name": "StringTooLong",
      "type": "error"
    },
    {
      "anonymous": false,
      "inputs": [
        {
          "indexed": true,
          "internalType": "address",
          "name": "owner",
          "type": "address"
        },
        {
          "indexed": true,
          "internalType": "address",
          "name": "spender",
          "type": "address"
        },
        {
          "indexed": false,
          "internalType": "uint256",
          "name": "value",
          "type": "uint256"
        }
      ],
      "name": "Approval",
      "type": "event"
    },
    {
      "anonymous": false,
      "inputs": [
        {
          "indexed": false,
          "internalType": "address",
          "name": "_user",
          "type": "address"
        },
        {
          "indexed": false,
          "internalType": "uint256",
          "name": "_amount",
          "type": "uint256"
        }
      ],
      "name": "BalanceUpdated",
      "type": "event"
    },
    {
      "anonymous": false,
      "inputs": [
        {
          "indexed": false,
          "internalType": "address",
          "name": "_newBorrowerOperationsAddress",
          "type": "address"
        }
      ],
      "name": "BorrowerOperationsAddressAdded",
      "type": "event"
    },
    {
      "anonymous": false,
      "inputs": [],
      "name": "EIP712DomainChanged",
      "type": "event"
    },
    {
      "anonymous": false,
      "inputs": [
        {
          "indexed": false,
          "internalType": "address",
          "name": "_interestRateManagerAddress",
          "type": "address"
        }
      ],
      "name": "InterestRateManagerAddressAdded",
      "type": "event"
    },
    {
      "anonymous": false,
      "inputs": [
        {
          "indexed": true,
          "internalType": "address",
          "name": "previousOwner",
          "type": "address"
        },
        {
          "indexed": true,
          "internalType": "address",
          "name": "newOwner",
          "type": "address"
        }
      ],
      "name": "OwnershipTransferred",
      "type": "event"
    },
    {
      "anonymous": false,
      "inputs": [
        {
          "indexed": false,
          "internalType": "address",
          "name": "_newStabilityPoolAddress",
          "type": "address"
        }
      ],
      "name": "StabilityPoolAddressAdded",
      "type": "event"
    },
    {
      "anonymous": false,
      "inputs": [
        {
          "indexed": true,
          "internalType": "address",
          "name": "from",
          "type": "address"
        },
        {
          "indexed": true,
          "internalType": "address",
          "name": "to",
          "type": "address"
        },
        {
          "indexed": false,
          "internalType": "uint256",
          "name": "value",
          "type": "uint256"
        }
      ],
      "name": "Transfer",
      "type": "event"
    },
    {
      "anonymous": false,
      "inputs": [
        {
          "indexed": false,
          "internalType": "address",
          "name": "_troveManagerAddress",
          "type": "address"
        }
      ],
      "name": "TroveManagerAddressAdded",
      "type": "event"
    },
    {
      "inputs": [],
      "name": "DOMAIN_SEPARATOR",
      "outputs": [
        {
          "internalType": "bytes32",
          "name": "",
          "type": "bytes32"
        }
      ],
      "stateMutability": "view",
      "type": "function"
    },
    {
      "inputs": [],
      "name": "addContractsInitiated",
      "outputs": [
        {
          "internalType": "uint256",
          "name": "",
          "type": "uint256"
        }
      ],
      "stateMutability": "view",
      "type": "function"
    },
    {
      "inputs": [],
      "name": "addMintListInitiated",
      "outputs": [
        {
          "internalType": "uint256",
          "name": "",
          "type": "uint256"
        }
      ],
      "stateMutability": "view",
      "type": "function"
    },
    {
      "inputs": [
        {
          "internalType": "address",
          "name": "owner",
          "type": "address"
        },
        {
          "internalType": "address",
          "name": "spender",
          "type": "address"
        }
      ],
      "name": "allowance",
      "outputs": [
        {
          "internalType": "uint256",
          "name": "",
          "type": "uint256"
        }
      ],
      "stateMutability": "view",
      "type": "function"
    },
    {
      "inputs": [
        {
          "internalType": "address",
          "name": "spender",
          "type": "address"
        },
        {
          "internalType": "uint256",
          "name": "value",
          "type": "uint256"
        }
      ],
      "name": "approve",
      "outputs": [
        {
          "internalType": "bool",
          "name": "",
          "type": "bool"
        }
      ],
      "stateMutability": "nonpayable",
      "type": "function"
    },
    {
      "inputs": [
        {
          "internalType": "address",
          "name": "account",
          "type": "address"
        }
      ],
      "name": "balanceOf",
      "outputs": [
        {
          "internalType": "uint256",
          "name": "",
          "type": "uint256"
        }
      ],
      "stateMutability": "view",
      "type": "function"
    },
    {
      "inputs": [
        {
          "internalType": "address",
          "name": "_account",
          "type": "address"
        },
        {
          "internalType": "uint256",
          "name": "_amount",
          "type": "uint256"
        }
      ],
      "name": "burn",
      "outputs": [],
      "stateMutability": "nonpayable",
      "type": "function"
    },
    {
      "inputs": [
        {
          "internalType": "address",
          "name": "",
          "type": "address"
        }
      ],
      "name": "burnList",
      "outputs": [
        {
          "internalType": "bool",
          "name": "",
          "type": "bool"
        }
      ],
      "stateMutability": "view",
      "type": "function"
    },
    {
      "inputs": [
        {
          "internalType": "address",
          "name": "owner",
          "type": "address"
        },
        {
          "internalType": "address",
          "name": "spender",
          "type": "address"
        },
        {
          "internalType": "uint256",
          "name": "amount",
          "type": "uint256"
        }
      ],
      "name": "callInternalApprove",
      "outputs": [],
      "stateMutability": "nonpayable",
      "type": "function"
    },
    {
      "inputs": [],
      "name": "cancelAddContracts",
      "outputs": [],
      "stateMutability": "nonpayable",
      "type": "function"
    },
    {
      "inputs": [],
      "name": "cancelAddMintList",
      "outputs": [],
      "stateMutability": "nonpayable",
      "type": "function"
    },
    {
      "inputs": [],
      "name": "cancelRevokeBurnList",
      "outputs": [],
      "stateMutability": "nonpayable",
      "type": "function"
    },
    {
      "inputs": [],
      "name": "cancelRevokeMintList",
      "outputs": [],
      "stateMutability": "nonpayable",
      "type": "function"
    },
    {
      "inputs": [],
      "name": "decimals",
      "outputs": [
        {
          "internalType": "uint8",
          "name": "",
          "type": "uint8"
        }
      ],
      "stateMutability": "view",
      "type": "function"
    },
    {
      "inputs": [],
      "name": "eip712Domain",
      "outputs": [
        {
          "internalType": "bytes1",
          "name": "fields",
          "type": "bytes1"
        },
        {
          "internalType": "string",
          "name": "name",
          "type": "string"
        },
        {
          "internalType": "string",
          "name": "version",
          "type": "string"
        },
        {
          "internalType": "uint256",
          "name": "chainId",
          "type": "uint256"
        },
        {
          "internalType": "address",
          "name": "verifyingContract",
          "type": "address"
        },
        {
          "internalType": "bytes32",
          "name": "salt",
          "type": "bytes32"
        },
        {
          "internalType": "uint256[]",
          "name": "extensions",
          "type": "uint256[]"
        }
      ],
      "stateMutability": "view",
      "type": "function"
    },
    {
      "inputs": [],
      "name": "finalizeAddContracts",
      "outputs": [],
      "stateMutability": "nonpayable",
      "type": "function"
    },
    {
      "inputs": [],
      "name": "finalizeAddMintList",
      "outputs": [],
      "stateMutability": "nonpayable",
      "type": "function"
    },
    {
      "inputs": [],
      "name": "finalizeRevokeBurnList",
      "outputs": [],
      "stateMutability": "nonpayable",
      "type": "function"
    },
    {
      "inputs": [],
      "name": "finalizeRevokeMintList",
      "outputs": [],
      "stateMutability": "nonpayable",
      "type": "function"
    },
    {
      "inputs": [],
      "name": "governanceTimeDelay",
      "outputs": [
        {
          "internalType": "uint256",
          "name": "",
          "type": "uint256"
        }
      ],
      "stateMutability": "view",
      "type": "function"
    },
    {
      "inputs": [
        {
          "internalType": "address",
          "name": "_account",
          "type": "address"
        },
        {
          "internalType": "uint256",
          "name": "_amount",
          "type": "uint256"
        }
      ],
      "name": "mint",
      "outputs": [],
      "stateMutability": "nonpayable",
      "type": "function"
    },
    {
      "inputs": [
        {
          "internalType": "address",
          "name": "",
          "type": "address"
        }
      ],
      "name": "mintList",
      "outputs": [
        {
          "internalType": "bool",
          "name": "",
          "type": "bool"
        }
      ],
      "stateMutability": "view",
      "type": "function"
    },
    {
      "inputs": [],
      "name": "name",
      "outputs": [
        {
          "internalType": "string",
          "name": "",
          "type": "string"
        }
      ],
      "stateMutability": "view",
      "type": "function"
    },
    {
      "inputs": [
        {
          "internalType": "address",
          "name": "owner",
          "type": "address"
        }
      ],
      "name": "nonces",
      "outputs": [
        {
          "internalType": "uint256",
          "name": "",
          "type": "uint256"
        }
      ],
      "stateMutability": "view",
      "type": "function"
    },
    {
      "inputs": [],
      "name": "owner",
      "outputs": [
        {
          "internalType": "address",
          "name": "",
          "type": "address"
        }
      ],
      "stateMutability": "view",
      "type": "function"
    },
    {
      "inputs": [],
      "name": "pendingAddedMintAddress",
      "outputs": [
        {
          "internalType": "address",
          "name": "",
          "type": "address"
        }
      ],
      "stateMutability": "view",
      "type": "function"
    },
    {
      "inputs": [],
      "name": "pendingBorrowerOperations",
      "outputs": [
        {
          "internalType": "address",
          "name": "",
          "type": "address"
        }
      ],
      "stateMutability": "view",
      "type": "function"
    },
    {
      "inputs": [],
      "name": "pendingInterestRateManager",
      "outputs": [
        {
          "internalType": "address",
          "name": "",
          "type": "address"
        }
      ],
      "stateMutability": "view",
      "type": "function"
    },
    {
      "inputs": [],
      "name": "pendingRevokedBurnAddress",
      "outputs": [
        {
          "internalType": "address",
          "name": "",
          "type": "address"
        }
      ],
      "stateMutability": "view",
      "type": "function"
    },
    {
      "inputs": [],
      "name": "pendingRevokedMintAddress",
      "outputs": [
        {
          "internalType": "address",
          "name": "",
          "type": "address"
        }
      ],
      "stateMutability": "view",
      "type": "function"
    },
    {
      "inputs": [],
      "name": "pendingStabilityPool",
      "outputs": [
        {
          "internalType": "address",
          "name": "",
          "type": "address"
        }
      ],
      "stateMutability": "view",
      "type": "function"
    },
    {
      "inputs": [],
      "name": "pendingTroveManager",
      "outputs": [
        {
          "internalType": "address",
          "name": "",
          "type": "address"
        }
      ],
      "stateMutability": "view",
      "type": "function"
    },
    {
      "inputs": [
        {
          "internalType": "address",
          "name": "owner",
          "type": "address"
        },
        {
          "internalType": "address",
          "name": "spender",
          "type": "address"
        },
        {
          "internalType": "uint256",
          "name": "value",
          "type": "uint256"
        },
        {
          "internalType": "uint256",
          "name": "deadline",
          "type": "uint256"
        },
        {
          "internalType": "uint8",
          "name": "v",
          "type": "uint8"
        },
        {
          "internalType": "bytes32",
          "name": "r",
          "type": "bytes32"
        },
        {
          "internalType": "bytes32",
          "name": "s",
          "type": "bytes32"
        }
      ],
      "name": "permit",
      "outputs": [],
      "stateMutability": "nonpayable",
      "type": "function"
    },
    {
      "inputs": [],
      "name": "renounceOwnership",
      "outputs": [],
      "stateMutability": "nonpayable",
      "type": "function"
    },
    {
      "inputs": [],
      "name": "revokeBurnListInitiated",
      "outputs": [
        {
          "internalType": "uint256",
          "name": "",
          "type": "uint256"
        }
      ],
      "stateMutability": "view",
      "type": "function"
    },
    {
      "inputs": [],
      "name": "revokeMintListInitiated",
      "outputs": [
        {
          "internalType": "uint256",
          "name": "",
          "type": "uint256"
        }
      ],
      "stateMutability": "view",
      "type": "function"
    },
    {
      "inputs": [
        {
          "internalType": "address",
          "name": "_troveManagerAddress",
          "type": "address"
        },
        {
          "internalType": "address",
          "name": "_stabilityPoolAddress",
          "type": "address"
        },
        {
          "internalType": "address",
          "name": "_borrowerOperationsAddress",
          "type": "address"
        },
        {
          "internalType": "address",
          "name": "_interestRateManagerAddress",
          "type": "address"
        }
      ],
      "name": "startAddContracts",
      "outputs": [],
      "stateMutability": "nonpayable",
      "type": "function"
    },
    {
      "inputs": [
        {
          "internalType": "address",
          "name": "_account",
          "type": "address"
        }
      ],
      "name": "startAddMintList",
      "outputs": [],
      "stateMutability": "nonpayable",
      "type": "function"
    },
    {
      "inputs": [
        {
          "internalType": "address",
          "name": "_account",
          "type": "address"
        }
      ],
      "name": "startRevokeBurnList",
      "outputs": [],
      "stateMutability": "nonpayable",
      "type": "function"
    },
    {
      "inputs": [
        {
          "internalType": "address",
          "name": "_account",
          "type": "address"
        }
      ],
      "name": "startRevokeMintList",
      "outputs": [],
      "stateMutability": "nonpayable",
      "type": "function"
    },
    {
      "inputs": [],
      "name": "symbol",
      "outputs": [
        {
          "internalType": "string",
          "name": "",
          "type": "string"
        }
      ],
      "stateMutability": "view",
      "type": "function"
    },
    {
      "inputs": [],
      "name": "totalSupply",
      "outputs": [
        {
          "internalType": "uint256",
          "name": "",
          "type": "uint256"
        }
      ],
      "stateMutability": "view",
      "type": "function"
    },
    {
      "inputs": [
        {
          "internalType": "address",
          "name": "to",
          "type": "address"
        },
        {
          "internalType": "uint256",
          "name": "amount",
          "type": "uint256"
        }
      ],
      "name": "transfer",
      "outputs": [
        {
          "internalType": "bool",
          "name": "",
          "type": "bool"
        }
      ],
      "stateMutability": "nonpayable",
      "type": "function"
    },
    {
      "inputs": [
        {
          "internalType": "address",
          "name": "from",
          "type": "address"
        },
        {
          "internalType": "address",
          "name": "to",
          "type": "address"
        },
        {
          "internalType": "uint256",
          "name": "amount",
          "type": "uint256"
        }
      ],
      "name": "transferFrom",
      "outputs": [
        {
          "internalType": "bool",
          "name": "",
          "type": "bool"
        }
      ],
      "stateMutability": "nonpayable",
      "type": "function"
    },
    {
      "inputs": [
        {
          "internalType": "address",
          "name": "newOwner",
          "type": "address"
        }
      ],
      "name": "transferOwnership",
      "outputs": [],
      "stateMutability": "nonpayable",
      "type": "function"
    },
    {
      "inputs": [
        {
          "internalType": "address",
          "name": "_account",
          "type": "address"
        },
        {
          "internalType": "uint256",
          "name": "_amount",
          "type": "uint256"
        }
      ],
      "name": "unprotectedBurn",
      "outputs": [],
      "stateMutability": "nonpayable",
      "type": "function"
    },
    {
      "inputs": [
        {
          "internalType": "address",
          "name": "_account",
          "type": "address"
        },
        {
          "internalType": "uint256",
          "name": "_amount",
          "type": "uint256"
        }
      ],
      "name": "unprotectedMint",
      "outputs": [],
      "stateMutability": "nonpayable",
      "type": "function"
    }
  ],
  "transactionHash": "0xb96aa5d15e37645fedc6177bb52f46f3470f0ecb86c67a0824e3b895e26ae8cf",
  "args": [
    "0x3DaD300A888CE2c31925079c1EBEb54feEE847B9",
    "0x971Ff2D85DA8FE1e1533204cE2F3EA36F7d27c66",
    "0xFC623e91a3A638718cDA6dCC108BD60a9F8109E1",
    "0x3B22f0466d98bE3040d2c51dE89b0479FDD48910",
    10
  ],
  "numDeployments": 1,
  "solcInputHash": "a5a5924c8769aaafa5a742bdee21ed0e",
  "bytecode": "0x6101806040523480156200001257600080fd5b506040516200288138038062002881833981016040819052620000359162000564565b6040518060400160405280600881526020016713595e9bc81554d160c21b81525060405180604001604052806004815260200163135554d160e21b8152508686868686338780604051806040016040528060018152602001603160f81b8152508a8a8160039081620000a8919062000672565b506004620000b7828262000672565b50620000c9915083905060056200022a565b61012052620000da8160066200022a565b61014052815160208084019190912060e052815190820120610100524660a0526200016860e05161010051604080517f8b73c3c69bb8fe3d512ecc4cf759cc79239f7b179b0ffacaa9a75d522b39400f60208201529081019290925260608201524660808201523060a082015260009060c00160405160208183030381529060405280519060200120905090565b60805250503060c052506001600160a01b038116620001a257604051631e4fbdf760e01b8152600060048201526024015b60405180910390fd5b620001ad8162000263565b50620001bc85858585620002b5565b610160819052630114db00811115620002185760405162461bcd60e51b815260206004820152601b60248201527f476f7665726e616e63652064656c617920697320746f6f206269670000000000604482015260640162000199565b505050505050505050505050620007b4565b60006020835110156200024a57620002428362000457565b90506200025d565b8162000257848262000672565b5060ff90505b92915050565b600880546001600160a01b038381166001600160a01b0319831681179093556040519116919082907f8be0079c531659141344cd1fd0a4f28419497f9722a3daafe3b4186f6b6457e090600090a35050565b620002c0846200049a565b620002cb836200049a565b620002d6826200049a565b620002e1816200049a565b6001600160a01b038416600081815260096020908152604091829020805460ff1916600117905590519182527f552e6c3035c33f04f1890bc312cbff2a7785b2e14ba719e635c5a8a754705647910160405180910390a16001600160a01b038316600081815260096020908152604091829020805460ff1916600117905590519182527fd5aac92b48f52fdc22e5b14b07e3cbbd61e939d86cec15efe7db4fd82a8d1911910160405180910390a16001600160a01b03821660008181526009602090815260408083208054600160ff199182168117909255600a84529382902080549094161790925590519182527f5f1db3103369b41aebc8a140eb5553e5a21d3df288ff446278b59eb15d59e2a4910160405180910390a16001600160a01b0381166000818152600a6020908152604091829020805460ff1916600117905590519182527f1bce83b105a2da08f37d270613188d0fdc6a0382528b49f666143207f88425ea910160405180910390a150505050565b600080829050601f8151111562000485578260405163305a27a960e01b81526004016200019991906200073e565b805162000492826200078f565b179392505050565b6001600160a01b038116620004f25760405162461bcd60e51b815260206004820152601e60248201527f4163636f756e742063616e6e6f74206265207a65726f20616464726573730000604482015260640162000199565b803b80620005435760405162461bcd60e51b815260206004820181905260248201527f4163636f756e7420636f64652073697a652063616e6e6f74206265207a65726f604482015260640162000199565b5050565b80516001600160a01b03811681146200055f57600080fd5b919050565b600080600080600060a086880312156200057d57600080fd5b620005888662000547565b9450620005986020870162000547565b9350620005a86040870162000547565b9250620005b86060870162000547565b9150608086015190509295509295909350565b634e487b7160e01b600052604160045260246000fd5b600181811c90821680620005f657607f821691505b6020821081036200061757634e487b7160e01b600052602260045260246000fd5b50919050565b601f8211156200066d576000816000526020600020601f850160051c81016020861015620006485750805b601f850160051c820191505b81811015620006695782815560010162000654565b5050505b505050565b81516001600160401b038111156200068e576200068e620005cb565b620006a6816200069f8454620005e1565b846200061d565b602080601f831160018114620006de5760008415620006c55750858301515b600019600386901b1c1916600185901b17855562000669565b600085815260208120601f198616915b828110156200070f57888601518255948401946001909101908401620006ee565b50858210156200072e5787850151600019600388901b60f8161c191681555b5050505050600190811b01905550565b60006020808352835180602085015260005b818110156200076e5785810183015185820160400152820162000750565b506000604082860101526040601f19601f8301168501019250505092915050565b80516020808301519190811015620006175760001960209190910360031b1b16919050565b60805160a05160c05160e0516101005161012051610140516101605161204b620008366000396000818161051001528181610624015281816107f101528181610aab01526110690152600061160e015260006115e10152600061125a015260006112320152600061118d015260006111b7015260006111e1015261204b6000f3fe608060405234801561001057600080fd5b50600436106102955760003560e01c806370a0823111610167578063af301923116100ce578063d505accf11610087578063d505accf14610584578063d5414ba214610597578063dd62ed3e146105aa578063e228406e146105bd578063e5f95ad0146105c5578063f2fde38b146105d857600080fd5b8063af301923146104f8578063afe5bf931461050b578063b1c6c18214610532578063b427cd4e14610545578063bef432c614610558578063cd33973a1461057b57600080fd5b806395d89b411161012057806395d89b41146104b15780639ce922ff146104b95780639dc29fac146104c2578063a7936437146104d5578063a866eaf7146104dd578063a9059cbb146104e557600080fd5b806370a082311461042e578063715018a6146104575780637ecebe001461045f57806384b0196e146104725780638961cb241461048d5780638da5cb5b146104a057600080fd5b80633ab605821161020b578063560a0b8e116101c4578063560a0b8e146103cd57806358f2f1cf146103f05780635fef0e5814610403578063660edfd81461040b5780636720c945146104135780636d3aa16a1461042657600080fd5b80633ab605821461036557806340c10f1914610378578063432fb3981461038b578063441633f21461039e57806348581f39146103b15780635099f99f146103ba57600080fd5b80631d9d708b1161025d5780631d9d708b1461030a5780631f0b0ab11461031357806323b872dd14610333578063313ce5671461034657806333ebbfef146103555780633644e5151461035d57600080fd5b8063011104791461029a57806303d99946146102a457806306fdde03146102b7578063095ea7b3146102d557806318160ddd146102f8575b600080fd5b6102a26105eb565b005b6102a26102b2366004611bde565b6106a2565b6102bf6106b2565b6040516102cc9190611c60565b60405180910390f35b6102e86102e3366004611c73565b610744565b60405190151581526020016102cc565b6002545b6040519081526020016102cc565b6102fc60135481565b600e54610326906001600160a01b031681565b6040516102cc9190611c9d565b6102e8610341366004611bde565b61075e565b604051601281526020016102cc565b6102a26107c1565b6102fc61086c565b6102a2610373366004611c73565b61087b565b6102a2610386366004611c73565b610889565b6102a2610399366004611cb1565b6108f2565b6102a26103ac366004611d05565b610969565b6102fc60125481565b6102a26103c8366004611c73565b6108e8565b6102e86103db366004611d05565b60096020526000908152604090205460ff1681565b600f54610326906001600160a01b031681565b6102a26109fb565b6102a2610a7b565b600d54610326906001600160a01b031681565b6102a2610b4b565b6102fc61043c366004611d05565b6001600160a01b031660009081526020819052604090205490565b6102a2610bd8565b6102fc61046d366004611d05565b610bec565b61047a610bf7565b6040516102cc9796959493929190611d20565b6102a261049b366004611d05565b610c3d565b6008546001600160a01b0316610326565b6102bf610ca3565b6102fc60145481565b6102a26104d0366004611c73565b610cb2565b6102a2610d11565b6102a2610d91565b6102e86104f3366004611c73565b610e0d565b600c54610326906001600160a01b031681565b6102fc7f000000000000000000000000000000000000000000000000000000000000000081565b6102a2610540366004611d05565b610e6e565b600b54610326906001600160a01b031681565b6102e8610566366004611d05565b600a6020526000908152604090205460ff1681565b6102fc60155481565b6102a2610592366004611db9565b610ed4565b601154610326906001600160a01b031681565b6102fc6105b8366004611e2c565b61100e565b6102a2611039565b601054610326906001600160a01b031681565b6102a26105e6366004611d05565b6110e4565b6105f3611122565b6015546000811161061f5760405162461bcd60e51b815260040161061690611e5f565b60405180910390fd5b6106497f000000000000000000000000000000000000000000000000000000000000000082611e8d565b4210156106685760405162461bcd60e51b815260040161061690611eae565b50601180546001600160a01b03166000908152600a60205260408120805460ff1916600117905560155580546001600160a01b0319169055565b6106ad83838361114f565b505050565b6060600380546106c190611ee3565b80601f01602080910402602001604051908101604052809291908181526020018280546106ed90611ee3565b801561073a5780601f1061070f5761010080835404028352916020019161073a565b820191906000526020600020905b81548152906001019060200180831161071d57829003601f168201915b5050505050905090565b60003361075281858561114f565b60019150505b92915050565b60006001600160a01b0383166107865760405162461bcd60e51b815260040161061690611f1d565b306001600160a01b038416036107ae5760405162461bcd60e51b815260040161061690611f60565b6107b984848461115c565b949350505050565b6107c9611122565b601354600081116107ec5760405162461bcd60e51b815260040161061690611e5f565b6108167f000000000000000000000000000000000000000000000000000000000000000082611e8d565b4210156108355760405162461bcd60e51b815260040161061690611eae565b50601080546001600160a01b03166000908152600960205260408120805460ff1916905560135580546001600160a01b0319169055565b6000610876611180565b905090565b61088582826112ab565b5050565b336000908152600a602052604090205460ff166108e85760405162461bcd60e51b815260206004820181905260248201527f4d5553443a2043616c6c6572206e6f7420616c6c6f77656420746f206d696e746044820152606401610616565b61088582826112e1565b6108fa611122565b61090384611317565b61090c83611317565b61091582611317565b600b80546001600160a01b039586166001600160a01b031991821617909155600c805494861694821694909417909355600d805492851692841692909217909155600e805491909316911617905542601455565b610971611122565b6001600160a01b0381166000908152600a602052604090205460ff16156109d55760405162461bcd60e51b8152602060048201526018602482015277125b98dbdc9c9958dd081859191c995cdcc81d1bc818591960421b6044820152606401610616565b42601555601180546001600160a01b0319166001600160a01b0392909216919091179055565b610a03611122565b601354600003610a645760405162461bcd60e51b815260206004820152602660248201527f5265766f6b696e672066726f6d206275726e206c697374206973206e6f7420736044820152651d185c9d195960d21b6064820152608401610616565b6000601355601080546001600160a01b0319169055565b610a83611122565b60145460008111610aa65760405162461bcd60e51b815260040161061690611e5f565b610ad07f000000000000000000000000000000000000000000000000000000000000000082611e8d565b421015610aef5760405162461bcd60e51b815260040161061690611eae565b600b54600c54600d54600e54610b17936001600160a01b0390811693811692811691166113bc565b506000601455600b80546001600160a01b0319908116909155600c805482169055600d805482169055600e80549091169055565b610b53611122565b601454600003610ba55760405162461bcd60e51b815260206004820152601f60248201527f416464696e6720636f6e747261637473206973206e6f742073746172746564006044820152606401610616565b6000601455600b80546001600160a01b0319908116909155600c805482169055600d805482169055600e80549091169055565b610be0611122565b610bea600061156a565b565b6000610758826115bc565b600060608060008060006060610c0b6115da565b610c13611607565b60408051600080825260208201909252600f60f81b9b939a50919850469750309650945092509050565b610c45611122565b6001600160a01b0381166000908152600a602052604090205460ff16610c7d5760405162461bcd60e51b815260040161061690611fa7565b42601255600f80546001600160a01b0319166001600160a01b0392909216919091179055565b6060600480546106c190611ee3565b3360009081526009602052604090205460ff1661087b5760405162461bcd60e51b815260206004820181905260248201527f4d5553443a2043616c6c6572206e6f7420616c6c6f77656420746f206275726e6044820152606401610616565b610d19611122565b601254600003610d7a5760405162461bcd60e51b815260206004820152602660248201527f5265766f6b696e672066726f6d206d696e74206c697374206973206e6f7420736044820152651d185c9d195960d21b6064820152608401610616565b6000601255600f80546001600160a01b0319169055565b610d99611122565b601554600003610df65760405162461bcd60e51b815260206004820152602260248201527f416464696e6720746f206d696e74206c697374206973206e6f74207374617274604482015261195960f21b6064820152608401610616565b6000601555601180546001600160a01b0319169055565b60006001600160a01b038316610e355760405162461bcd60e51b815260040161061690611f1d565b306001600160a01b03841603610e5d5760405162461bcd60e51b815260040161061690611f60565b610e678383611634565b9392505050565b610e76611122565b6001600160a01b03811660009081526009602052604090205460ff16610eae5760405162461bcd60e51b815260040161061690611fa7565b42601355601080546001600160a01b0319166001600160a01b0392909216919091179055565b83421115610ef85760405163313c898160e11b815260048101859052602401610616565b60007f6e71edae12b1b97f4d1f60370fef10105fa2faae0126114a169c64845d6126c9888888610f458c6001600160a01b0316600090815260076020526040902080546001810190915590565b6040805160208101969096526001600160a01b0394851690860152929091166060840152608083015260a082015260c0810186905260e0016040516020818303038152906040528051906020012090506000610fa082611642565b90506000610fb08287878761166f565b9050896001600160a01b0316816001600160a01b031614610ff7576040516325c0072360e11b81526001600160a01b0380831660048301528b166024820152604401610616565b6110028a8a8a61114f565b50505050505050505050565b6001600160a01b03918216600090815260016020908152604080832093909416825291909152205490565b611041611122565b601254600081116110645760405162461bcd60e51b815260040161061690611e5f565b61108e7f000000000000000000000000000000000000000000000000000000000000000082611e8d565b4210156110ad5760405162461bcd60e51b815260040161061690611eae565b50600f80546001600160a01b03166000908152600a60205260408120805460ff1916905560125580546001600160a01b0319169055565b6110ec611122565b6001600160a01b038116611116576000604051631e4fbdf760e01b81526004016106169190611c9d565b61111f8161156a565b50565b6008546001600160a01b03163314610bea573360405163118cdaa760e01b81526004016106169190611c9d565b6106ad838383600161169d565b60003361116a858285611773565b6111758585856117c0565b506001949350505050565b6000306001600160a01b037f0000000000000000000000000000000000000000000000000000000000000000161480156111d957507f000000000000000000000000000000000000000000000000000000000000000046145b1561120357507f000000000000000000000000000000000000000000000000000000000000000090565b610876604080517f8b73c3c69bb8fe3d512ecc4cf759cc79239f7b179b0ffacaa9a75d522b39400f60208201527f0000000000000000000000000000000000000000000000000000000000000000918101919091527f000000000000000000000000000000000000000000000000000000000000000060608201524660808201523060a082015260009060c00160405160208183030381529060405280519060200120905090565b6001600160a01b0382166112d5576000604051634b637e8f60e11b81526004016106169190611c9d565b6108858260008361181b565b6001600160a01b03821661130b57600060405163ec442f0560e01b81526004016106169190611c9d565b6108856000838361181b565b6001600160a01b03811661136d5760405162461bcd60e51b815260206004820152601e60248201527f4163636f756e742063616e6e6f74206265207a65726f206164647265737300006044820152606401610616565b803b806108855760405162461bcd60e51b815260206004820181905260248201527f4163636f756e7420636f64652073697a652063616e6e6f74206265207a65726f6044820152606401610616565b6113c584611317565b6113ce83611317565b6113d782611317565b6113e081611317565b6001600160a01b03841660009081526009602052604090819020805460ff19166001179055517f552e6c3035c33f04f1890bc312cbff2a7785b2e14ba719e635c5a8a75470564790611433908690611c9d565b60405180910390a16001600160a01b03831660009081526009602052604090819020805460ff19166001179055517fd5aac92b48f52fdc22e5b14b07e3cbbd61e939d86cec15efe7db4fd82a8d19119061148e908590611c9d565b60405180910390a16001600160a01b03821660009081526009602090815260408083208054600160ff199182168117909255600a9093529281902080549092169092179055517f5f1db3103369b41aebc8a140eb5553e5a21d3df288ff446278b59eb15d59e2a490611501908490611c9d565b60405180910390a16001600160a01b0381166000908152600a602052604090819020805460ff19166001179055517f1bce83b105a2da08f37d270613188d0fdc6a0382528b49f666143207f88425ea9061155c908390611c9d565b60405180910390a150505050565b600880546001600160a01b038381166001600160a01b0319831681179093556040519116919082907f8be0079c531659141344cd1fd0a4f28419497f9722a3daafe3b4186f6b6457e090600090a35050565b6001600160a01b038116600090815260076020526040812054610758565b60606108767f00000000000000000000000000000000000000000000000000000000000000006005611932565b60606108767f00000000000000000000000000000000000000000000000000000000000000006006611932565b6000336107528185856117c0565b600061075861164f611180565b8360405161190160f01b8152600281019290925260228201526042902090565b600080600080611681888888886119dd565b9250925092506116918282611aa2565b50909695505050505050565b6001600160a01b0384166116c757600060405163e602df0560e01b81526004016106169190611c9d565b6001600160a01b0383166116f1576000604051634a1406b160e11b81526004016106169190611c9d565b6001600160a01b038085166000908152600160209081526040808320938716835292905220829055801561176d57826001600160a01b0316846001600160a01b03167f8c5be1e5ebec7d5bd14f71427d1e84f3dd0314c0f7b2291e5b200ac8c7c3b9258460405161176491815260200190565b60405180910390a35b50505050565b600061177f848461100e565b9050600019811461176d57818110156117b157828183604051637dc7a0d960e11b815260040161061693929190611fde565b61176d8484848403600061169d565b6001600160a01b0383166117ea576000604051634b637e8f60e11b81526004016106169190611c9d565b6001600160a01b03821661181457600060405163ec442f0560e01b81526004016106169190611c9d565b6106ad8383835b6001600160a01b03831661184657806002600082825461183b9190611e8d565b909155506118a59050565b6001600160a01b038316600090815260208190526040902054818110156118865783818360405163391434e360e21b815260040161061693929190611fde565b6001600160a01b03841660009081526020819052604090209082900390555b6001600160a01b0382166118c1576002805482900390556118e0565b6001600160a01b03821660009081526020819052604090208054820190555b816001600160a01b0316836001600160a01b03167fddf252ad1be2c89b69c2b068fc378daa952ba7f163c4a11628f55a4df523b3ef8360405161192591815260200190565b60405180910390a3505050565b606060ff831461194c5761194583611b5b565b9050610758565b81805461195890611ee3565b80601f016020809104026020016040519081016040528092919081815260200182805461198490611ee3565b80156119d15780601f106119a6576101008083540402835291602001916119d1565b820191906000526020600020905b8154815290600101906020018083116119b457829003601f168201915b50505050509050610758565b600080806fa2a8918ca85bafe22016d0b997e4df60600160ff1b03841115611a0e5750600091506003905082611a98565b604080516000808252602082018084528a905260ff891692820192909252606081018790526080810186905260019060a0016020604051602081039080840390855afa158015611a62573d6000803e3d6000fd5b5050604051601f1901519150506001600160a01b038116611a8e57506000925060019150829050611a98565b9250600091508190505b9450945094915050565b6000826003811115611ab657611ab6611fff565b03611abf575050565b6001826003811115611ad357611ad3611fff565b03611af15760405163f645eedf60e01b815260040160405180910390fd5b6002826003811115611b0557611b05611fff565b03611b265760405163fce698f760e01b815260048101829052602401610616565b6003826003811115611b3a57611b3a611fff565b03610885576040516335e2f38360e21b815260048101829052602401610616565b60606000611b6883611b9a565b604080516020808252818301909252919250600091906020820181803683375050509182525060208101929092525090565b600060ff8216601f81111561075857604051632cd44ac360e21b815260040160405180910390fd5b80356001600160a01b0381168114611bd957600080fd5b919050565b600080600060608486031215611bf357600080fd5b611bfc84611bc2565b9250611c0a60208501611bc2565b9150604084013590509250925092565b6000815180845260005b81811015611c4057602081850181015186830182015201611c24565b506000602082860101526020601f19601f83011685010191505092915050565b602081526000610e676020830184611c1a565b60008060408385031215611c8657600080fd5b611c8f83611bc2565b946020939093013593505050565b6001600160a01b0391909116815260200190565b60008060008060808587031215611cc757600080fd5b611cd085611bc2565b9350611cde60208601611bc2565b9250611cec60408601611bc2565b9150611cfa60608601611bc2565b905092959194509250565b600060208284031215611d1757600080fd5b610e6782611bc2565b60ff60f81b881681526000602060e06020840152611d4160e084018a611c1a565b8381036040850152611d53818a611c1a565b606085018990526001600160a01b038816608086015260a0850187905284810360c08601528551808252602080880193509091019060005b81811015611da757835183529284019291840191600101611d8b565b50909c9b505050505050505050505050565b600080600080600080600060e0888a031215611dd457600080fd5b611ddd88611bc2565b9650611deb60208901611bc2565b95506040880135945060608801359350608088013560ff81168114611e0f57600080fd5b9699959850939692959460a0840135945060c09093013592915050565b60008060408385031215611e3f57600080fd5b611e4883611bc2565b9150611e5660208401611bc2565b90509250929050565b60208082526014908201527310da185b99d9481b9bdd081a5b9a5d1a585d195960621b604082015260600190565b8082018082111561075857634e487b7160e01b600052601160045260246000fd5b6020808252818101527f476f7665726e616e63652064656c617920686173206e6f7420656c6170736564604082015260600190565b600181811c90821680611ef757607f821691505b602082108103611f1757634e487b7160e01b600052602260045260246000fd5b50919050565b60208082526023908201527f45524332303a207472616e7366657220746f20746865207a65726f206164647260408201526265737360e81b606082015260800190565b60208082526027908201527f45524332303a207472616e7366657220746f2074686520636f6e7472616374206040820152666164647265737360c81b606082015260800190565b6020808252601b908201527f496e636f7272656374206164647265737320746f207265766f6b650000000000604082015260600190565b6001600160a01b039390931683526020830191909152604082015260600190565b634e487b7160e01b600052602160045260246000fdfea2646970667358221220df7046f3b2f0a0b24e293e13bd33d6bd2a7f2b3c6e5649284b24963202a3ecac64736f6c63430008180033",
  "devdoc": {
    "errors": {
      "ECDSAInvalidSignature()": [
        {
          "details": "The signature derives the `address(0)`."
        }
      ],
      "ECDSAInvalidSignatureLength(uint256)": [
        {
          "details": "The signature has an invalid length."
        }
      ],
      "ECDSAInvalidSignatureS(bytes32)": [
        {
          "details": "The signature has an S value that is in the upper half order."
        }
      ],
      "ERC20InsufficientAllowance(address,uint256,uint256)": [
        {
          "details": "Indicates a failure with the `spender`s `allowance`. Used in transfers.",
          "params": {
            "allowance": "Amount of tokens a `spender` is allowed to operate with.",
            "needed": "Minimum amount required to perform a transfer.",
            "spender": "Address that may be allowed to operate on tokens without being their owner."
          }
        }
      ],
      "ERC20InsufficientBalance(address,uint256,uint256)": [
        {
          "details": "Indicates an error related to the current `balance` of a `sender`. Used in transfers.",
          "params": {
            "balance": "Current balance for the interacting account.",
            "needed": "Minimum amount required to perform a transfer.",
            "sender": "Address whose tokens are being transferred."
          }
        }
      ],
      "ERC20InvalidApprover(address)": [
        {
          "details": "Indicates a failure with the `approver` of a token to be approved. Used in approvals.",
          "params": {
            "approver": "Address initiating an approval operation."
          }
        }
      ],
      "ERC20InvalidReceiver(address)": [
        {
          "details": "Indicates a failure with the token `receiver`. Used in transfers.",
          "params": {
            "receiver": "Address to which tokens are being transferred."
          }
        }
      ],
      "ERC20InvalidSender(address)": [
        {
          "details": "Indicates a failure with the token `sender`. Used in transfers.",
          "params": {
            "sender": "Address whose tokens are being transferred."
          }
        }
      ],
      "ERC20InvalidSpender(address)": [
        {
          "details": "Indicates a failure with the `spender` to be approved. Used in approvals.",
          "params": {
            "spender": "Address that may be allowed to operate on tokens without being their owner."
          }
        }
      ],
      "ERC2612ExpiredSignature(uint256)": [
        {
          "details": "Permit deadline has expired."
        }
      ],
      "ERC2612InvalidSigner(address,address)": [
        {
          "details": "Mismatched signature."
        }
      ],
      "InvalidAccountNonce(address,uint256)": [
        {
          "details": "The nonce used for an `account` is not the expected current nonce."
        }
      ],
      "OwnableInvalidOwner(address)": [
        {
          "details": "The owner is not a valid owner account. (eg. `address(0)`)"
        }
      ],
      "OwnableUnauthorizedAccount(address)": [
        {
          "details": "The caller account is not authorized to perform an operation."
        }
      ]
    },
    "events": {
      "Approval(address,address,uint256)": {
        "details": "Emitted when the allowance of a `spender` for an `owner` is set by a call to {approve}. `value` is the new allowance."
      },
      "EIP712DomainChanged()": {
        "details": "MAY be emitted to signal that the domain could have changed."
      },
      "Transfer(address,address,uint256)": {
        "details": "Emitted when `value` tokens are moved from one account (`from`) to another (`to`). Note that `value` may be zero."
      }
    },
    "kind": "dev",
    "methods": {
      "DOMAIN_SEPARATOR()": {
        "details": "Returns the domain separator used in the encoding of the signature for {permit}, as defined by {EIP712}."
      },
      "allowance(address,address)": {
        "details": "See {IERC20-allowance}."
      },
      "approve(address,uint256)": {
        "details": "See {IERC20-approve}. NOTE: If `value` is the maximum `uint256`, the allowance is not updated on `transferFrom`. This is semantically equivalent to an infinite approval. Requirements: - `spender` cannot be the zero address."
      },
      "balanceOf(address)": {
        "details": "See {IERC20-balanceOf}."
      },
      "decimals()": {
        "details": "Returns the number of decimals used to get its user representation. For example, if `decimals` equals `2`, a balance of `505` tokens should be displayed to a user as `5.05` (`505 / 10 ** 2`). Tokens usually opt for a value of 18, imitating the relationship between Ether and Wei. This is the default value returned by this function, unless it's overridden. NOTE: This information is only used for _display_ purposes: it in no way affects any of the arithmetic of the contract, including {IERC20-balanceOf} and {IERC20-transfer}."
      },
      "eip712Domain()": {
        "details": "See {IERC-5267}."
      },
      "name()": {
        "details": "Returns the name of the token."
      },
      "owner()": {
        "details": "Returns the address of the current owner."
      },
      "permit(address,address,uint256,uint256,uint8,bytes32,bytes32)": {
        "details": "Sets `value` as the allowance of `spender` over ``owner``'s tokens, given ``owner``'s signed approval. IMPORTANT: The same issues {IERC20-approve} has related to transaction ordering also apply here. Emits an {Approval} event. Requirements: - `spender` cannot be the zero address. - `deadline` must be a timestamp in the future. - `v`, `r` and `s` must be a valid `secp256k1` signature from `owner` over the EIP712-formatted function arguments. - the signature must use ``owner``'s current nonce (see {nonces}). For more information on the signature format, see the https://eips.ethereum.org/EIPS/eip-2612#specification[relevant EIP section]. CAUTION: See Security Considerations above."
      },
      "renounceOwnership()": {
        "details": "Leaves the contract without owner. It will not be possible to call `onlyOwner` functions. Can only be called by the current owner. NOTE: Renouncing ownership will leave the contract without an owner, thereby disabling any functionality that is only available to the owner."
      },
      "symbol()": {
        "details": "Returns the symbol of the token, usually a shorter version of the name."
      },
      "totalSupply()": {
        "details": "See {IERC20-totalSupply}."
      },
      "transferOwnership(address)": {
        "details": "Transfers ownership of the contract to a new account (`newOwner`). Can only be called by the current owner."
      }
    },
    "version": 1
  },
  "userdoc": {
    "kind": "user",
    "methods": {},
    "version": 1
  },
  "storageLayout": {
    "storage": [
      {
        "astId": 332,
        "contract": "contracts/tests/MUSDTester.sol:MUSDTester",
        "label": "_balances",
        "offset": 0,
        "slot": "0",
        "type": "t_mapping(t_address,t_uint256)"
      },
      {
        "astId": 338,
        "contract": "contracts/tests/MUSDTester.sol:MUSDTester",
        "label": "_allowances",
        "offset": 0,
        "slot": "1",
        "type": "t_mapping(t_address,t_mapping(t_address,t_uint256))"
      },
      {
        "astId": 340,
        "contract": "contracts/tests/MUSDTester.sol:MUSDTester",
        "label": "_totalSupply",
        "offset": 0,
        "slot": "2",
        "type": "t_uint256"
      },
      {
        "astId": 342,
        "contract": "contracts/tests/MUSDTester.sol:MUSDTester",
        "label": "_name",
        "offset": 0,
        "slot": "3",
        "type": "t_string_storage"
      },
      {
        "astId": 344,
        "contract": "contracts/tests/MUSDTester.sol:MUSDTester",
        "label": "_symbol",
        "offset": 0,
        "slot": "4",
        "type": "t_string_storage"
      },
      {
        "astId": 2183,
        "contract": "contracts/tests/MUSDTester.sol:MUSDTester",
        "label": "_nameFallback",
        "offset": 0,
        "slot": "5",
        "type": "t_string_storage"
      },
      {
        "astId": 2185,
        "contract": "contracts/tests/MUSDTester.sol:MUSDTester",
        "label": "_versionFallback",
        "offset": 0,
        "slot": "6",
        "type": "t_string_storage"
      },
      {
        "astId": 1162,
        "contract": "contracts/tests/MUSDTester.sol:MUSDTester",
        "label": "_nonces",
        "offset": 0,
        "slot": "7",
        "type": "t_mapping(t_address,t_uint256)"
      },
      {
        "astId": 8,
        "contract": "contracts/tests/MUSDTester.sol:MUSDTester",
        "label": "_owner",
        "offset": 0,
        "slot": "8",
        "type": "t_address"
      },
      {
        "astId": 28883,
        "contract": "contracts/tests/MUSDTester.sol:MUSDTester",
        "label": "burnList",
        "offset": 0,
        "slot": "9",
        "type": "t_mapping(t_address,t_bool)"
      },
      {
        "astId": 28887,
        "contract": "contracts/tests/MUSDTester.sol:MUSDTester",
        "label": "mintList",
        "offset": 0,
        "slot": "10",
        "type": "t_mapping(t_address,t_bool)"
      },
      {
        "astId": 28891,
        "contract": "contracts/tests/MUSDTester.sol:MUSDTester",
        "label": "pendingTroveManager",
        "offset": 0,
        "slot": "11",
        "type": "t_address"
      },
      {
        "astId": 28893,
        "contract": "contracts/tests/MUSDTester.sol:MUSDTester",
        "label": "pendingStabilityPool",
        "offset": 0,
        "slot": "12",
        "type": "t_address"
      },
      {
        "astId": 28895,
        "contract": "contracts/tests/MUSDTester.sol:MUSDTester",
        "label": "pendingBorrowerOperations",
        "offset": 0,
        "slot": "13",
        "type": "t_address"
      },
      {
        "astId": 28897,
        "contract": "contracts/tests/MUSDTester.sol:MUSDTester",
        "label": "pendingInterestRateManager",
        "offset": 0,
        "slot": "14",
        "type": "t_address"
      },
      {
        "astId": 28899,
        "contract": "contracts/tests/MUSDTester.sol:MUSDTester",
        "label": "pendingRevokedMintAddress",
        "offset": 0,
        "slot": "15",
        "type": "t_address"
      },
      {
        "astId": 28901,
        "contract": "contracts/tests/MUSDTester.sol:MUSDTester",
        "label": "pendingRevokedBurnAddress",
        "offset": 0,
        "slot": "16",
        "type": "t_address"
      },
      {
        "astId": 28903,
        "contract": "contracts/tests/MUSDTester.sol:MUSDTester",
        "label": "pendingAddedMintAddress",
        "offset": 0,
        "slot": "17",
        "type": "t_address"
      },
      {
        "astId": 28905,
        "contract": "contracts/tests/MUSDTester.sol:MUSDTester",
        "label": "revokeMintListInitiated",
        "offset": 0,
        "slot": "18",
        "type": "t_uint256"
      },
      {
        "astId": 28907,
        "contract": "contracts/tests/MUSDTester.sol:MUSDTester",
        "label": "revokeBurnListInitiated",
        "offset": 0,
        "slot": "19",
        "type": "t_uint256"
      },
      {
        "astId": 28909,
        "contract": "contracts/tests/MUSDTester.sol:MUSDTester",
        "label": "addContractsInitiated",
        "offset": 0,
        "slot": "20",
        "type": "t_uint256"
      },
      {
        "astId": 28911,
        "contract": "contracts/tests/MUSDTester.sol:MUSDTester",
        "label": "addMintListInitiated",
        "offset": 0,
        "slot": "21",
        "type": "t_uint256"
      }
    ],
    "types": {
      "t_address": {
        "encoding": "inplace",
        "label": "address",
        "numberOfBytes": "20"
      },
      "t_bool": {
        "encoding": "inplace",
        "label": "bool",
        "numberOfBytes": "1"
      },
      "t_mapping(t_address,t_bool)": {
        "encoding": "mapping",
        "key": "t_address",
        "label": "mapping(address => bool)",
        "numberOfBytes": "32",
        "value": "t_bool"
      },
      "t_mapping(t_address,t_mapping(t_address,t_uint256))": {
        "encoding": "mapping",
        "key": "t_address",
        "label": "mapping(address => mapping(address => uint256))",
        "numberOfBytes": "32",
        "value": "t_mapping(t_address,t_uint256)"
      },
      "t_mapping(t_address,t_uint256)": {
        "encoding": "mapping",
        "key": "t_address",
        "label": "mapping(address => uint256)",
        "numberOfBytes": "32",
        "value": "t_uint256"
      },
      "t_string_storage": {
        "encoding": "bytes",
        "label": "string",
        "numberOfBytes": "32"
      },
      "t_uint256": {
        "encoding": "inplace",
        "label": "uint256",
        "numberOfBytes": "32"
      }
    }
  }
}