{
  "address": "0x092BcdA35Ef2e5CAcc6F4937e2135ac5dF32b33B",
  "abi": [
    {
      "inputs": [
        {
          "internalType": "uint256",
          "name": "_governanceTimeDelay",
          "type": "uint256"
        }
      ],
      "stateMutability": "nonpayable",
      "type": "constructor"
    },
    {
      "inputs": [
        {
          "internalType": "address",
          "name": "owner",
          "type": "address"
        }
      ],
      "name": "OwnableInvalidOwner",
      "type": "error"
    },
    {
      "inputs": [
        {
          "internalType": "address",
          "name": "account",
          "type": "address"
        }
      ],
      "name": "OwnableUnauthorizedAccount",
      "type": "error"
    },
    {
      "anonymous": false,
      "inputs": [
        {
          "indexed": false,
          "internalType": "address",
          "name": "_borrowerOperationsAddress",
          "type": "address"
        }
      ],
      "name": "BorrowerOperationsAddressSet",
      "type": "event"
    },
    {
      "anonymous": false,
      "inputs": [
        {
          "indexed": false,
          "internalType": "address",
          "name": "_recipient",
          "type": "address"
        },
        {
          "indexed": false,
          "internalType": "uint256",
          "name": "_collateralAmount",
          "type": "uint256"
        }
      ],
      "name": "CollateralWithdraw",
      "type": "event"
    },
    {
      "anonymous": false,
      "inputs": [
        {
          "indexed": false,
          "internalType": "address",
          "name": "_musdTokenAddress",
          "type": "address"
        }
      ],
      "name": "MUSDTokenAddressSet",
      "type": "event"
    },
    {
      "anonymous": false,
      "inputs": [
        {
          "indexed": false,
          "internalType": "address",
          "name": "_recipient",
          "type": "address"
        },
        {
          "indexed": false,
          "internalType": "uint256",
          "name": "_amount",
          "type": "uint256"
        }
      ],
      "name": "MUSDWithdraw",
      "type": "event"
    },
    {
      "anonymous": false,
      "inputs": [
        {
          "indexed": true,
          "internalType": "address",
          "name": "previousOwner",
          "type": "address"
        },
        {
          "indexed": true,
          "internalType": "address",
          "name": "newOwner",
          "type": "address"
        }
      ],
      "name": "OwnershipTransferred",
      "type": "event"
    },
    {
      "anonymous": false,
      "inputs": [
        {
          "indexed": false,
          "internalType": "uint256",
          "name": "_paidDebt",
          "type": "uint256"
        }
      ],
      "name": "PCVDebtPaid",
      "type": "event"
    },
    {
      "anonymous": false,
      "inputs": [
        {
          "indexed": false,
          "internalType": "address",
          "name": "_recipient",
          "type": "address"
        },
        {
          "indexed": false,
          "internalType": "uint256",
          "name": "_amount",
          "type": "uint256"
        }
      ],
      "name": "PCVFeePaid",
      "type": "event"
    },
    {
      "anonymous": false,
      "inputs": [
        {
          "indexed": false,
          "internalType": "address",
          "name": "_recipient",
          "type": "address"
        }
      ],
      "name": "RecipientAdded",
      "type": "event"
    },
    {
      "anonymous": false,
      "inputs": [
        {
          "indexed": false,
          "internalType": "address",
          "name": "_recipient",
          "type": "address"
        }
      ],
      "name": "RecipientRemoved",
      "type": "event"
    },
    {
      "anonymous": false,
      "inputs": [
        {
          "indexed": false,
          "internalType": "address",
          "name": "_council",
          "type": "address"
        },
        {
          "indexed": false,
          "internalType": "address",
          "name": "_treasury",
          "type": "address"
        }
      ],
      "name": "RolesSet",
      "type": "event"
    },
    {
      "inputs": [],
      "name": "BOOTSTRAP_LOAN",
      "outputs": [
        {
          "internalType": "uint256",
          "name": "",
          "type": "uint256"
        }
      ],
      "stateMutability": "view",
      "type": "function"
    },
    {
      "inputs": [],
      "name": "FEE_SPLIT_MAX",
      "outputs": [
        {
          "internalType": "uint8",
          "name": "",
          "type": "uint8"
        }
      ],
      "stateMutability": "view",
      "type": "function"
    },
    {
      "inputs": [
        {
          "internalType": "address",
          "name": "_recipient",
          "type": "address"
        }
      ],
      "name": "addRecipientToWhitelist",
      "outputs": [],
      "stateMutability": "nonpayable",
      "type": "function"
    },
    {
      "inputs": [
        {
          "internalType": "address[]",
          "name": "_recipients",
          "type": "address[]"
        }
      ],
      "name": "addRecipientsToWhitelist",
      "outputs": [],
      "stateMutability": "nonpayable",
      "type": "function"
    },
    {
      "inputs": [],
      "name": "borrowerOperations",
      "outputs": [
        {
          "internalType": "contract BorrowerOperations",
          "name": "",
          "type": "address"
        }
      ],
      "stateMutability": "view",
      "type": "function"
    },
    {
      "inputs": [],
      "name": "cancelChangingRoles",
      "outputs": [],
      "stateMutability": "nonpayable",
      "type": "function"
    },
    {
      "inputs": [],
      "name": "changingRolesInitiated",
      "outputs": [
        {
          "internalType": "uint256",
          "name": "",
          "type": "uint256"
        }
      ],
      "stateMutability": "view",
      "type": "function"
    },
    {
      "inputs": [],
      "name": "council",
      "outputs": [
        {
          "internalType": "address",
          "name": "",
          "type": "address"
        }
      ],
      "stateMutability": "view",
      "type": "function"
    },
    {
      "inputs": [],
      "name": "debtToPay",
      "outputs": [
        {
          "internalType": "uint256",
          "name": "",
          "type": "uint256"
        }
      ],
      "stateMutability": "view",
      "type": "function"
    },
    {
      "inputs": [
        {
          "internalType": "uint256",
          "name": "_amount",
          "type": "uint256"
        }
      ],
      "name": "depositToStabilityPool",
      "outputs": [],
      "stateMutability": "nonpayable",
      "type": "function"
    },
    {
      "inputs": [],
      "name": "feeRecipient",
      "outputs": [
        {
          "internalType": "address",
          "name": "",
          "type": "address"
        }
      ],
      "stateMutability": "view",
      "type": "function"
    },
    {
      "inputs": [],
      "name": "feeSplitPercentage",
      "outputs": [
        {
          "internalType": "uint8",
          "name": "",
          "type": "uint8"
        }
      ],
      "stateMutability": "view",
      "type": "function"
    },
    {
      "inputs": [],
      "name": "finalizeChangingRoles",
      "outputs": [],
      "stateMutability": "nonpayable",
      "type": "function"
    },
    {
      "inputs": [],
      "name": "governanceTimeDelay",
      "outputs": [
        {
          "internalType": "uint256",
          "name": "",
          "type": "uint256"
        }
      ],
      "stateMutability": "view",
      "type": "function"
    },
    {
      "inputs": [],
      "name": "initialize",
      "outputs": [],
      "stateMutability": "nonpayable",
      "type": "function"
    },
    {
      "inputs": [],
      "name": "isInitialized",
      "outputs": [
        {
          "internalType": "bool",
          "name": "",
          "type": "bool"
        }
      ],
      "stateMutability": "view",
      "type": "function"
    },
    {
      "inputs": [],
      "name": "musd",
      "outputs": [
        {
          "internalType": "contract IMUSD",
          "name": "",
          "type": "address"
        }
      ],
      "stateMutability": "view",
      "type": "function"
    },
    {
      "inputs": [],
      "name": "owner",
      "outputs": [
        {
          "internalType": "address",
          "name": "",
          "type": "address"
        }
      ],
      "stateMutability": "view",
      "type": "function"
    },
    {
      "inputs": [
        {
          "internalType": "uint256",
          "name": "_musdToBurn",
          "type": "uint256"
        }
      ],
      "name": "payDebt",
      "outputs": [],
      "stateMutability": "nonpayable",
      "type": "function"
    },
    {
      "inputs": [],
      "name": "pendingCouncilAddress",
      "outputs": [
        {
          "internalType": "address",
          "name": "",
          "type": "address"
        }
      ],
      "stateMutability": "view",
      "type": "function"
    },
    {
      "inputs": [],
      "name": "pendingTreasuryAddress",
      "outputs": [
        {
          "internalType": "address",
          "name": "",
          "type": "address"
        }
      ],
      "stateMutability": "view",
      "type": "function"
    },
    {
      "inputs": [
        {
          "internalType": "address",
          "name": "",
          "type": "address"
        }
      ],
      "name": "recipientsWhitelist",
      "outputs": [
        {
          "internalType": "bool",
          "name": "",
          "type": "bool"
        }
      ],
      "stateMutability": "view",
      "type": "function"
    },
    {
      "inputs": [
        {
          "internalType": "address",
          "name": "_recipient",
          "type": "address"
        }
      ],
      "name": "removeRecipientFromWhitelist",
      "outputs": [],
      "stateMutability": "nonpayable",
      "type": "function"
    },
    {
      "inputs": [
        {
          "internalType": "address[]",
          "name": "_recipients",
          "type": "address[]"
        }
      ],
      "name": "removeRecipientsFromWhitelist",
      "outputs": [],
      "stateMutability": "nonpayable",
      "type": "function"
    },
    {
      "inputs": [],
      "name": "renounceOwnership",
      "outputs": [],
      "stateMutability": "nonpayable",
      "type": "function"
    },
    {
      "inputs": [
        {
          "internalType": "address",
          "name": "_borrowerOperations",
          "type": "address"
        },
        {
          "internalType": "address",
          "name": "_musdTokenAddress",
          "type": "address"
        }
      ],
      "name": "setAddresses",
      "outputs": [],
      "stateMutability": "nonpayable",
      "type": "function"
    },
    {
      "inputs": [
        {
          "internalType": "address",
          "name": "_feeRecipient",
          "type": "address"
        }
      ],
      "name": "setFeeRecipient",
      "outputs": [],
      "stateMutability": "nonpayable",
      "type": "function"
    },
    {
      "inputs": [
        {
          "internalType": "uint8",
          "name": "_feeSplitPercentage",
          "type": "uint8"
        }
      ],
      "name": "setFeeSplit",
      "outputs": [],
      "stateMutability": "nonpayable",
      "type": "function"
    },
    {
      "inputs": [
        {
          "internalType": "address",
          "name": "_council",
          "type": "address"
        },
        {
          "internalType": "address",
          "name": "_treasury",
          "type": "address"
        }
      ],
      "name": "startChangingRoles",
      "outputs": [],
      "stateMutability": "nonpayable",
      "type": "function"
    },
    {
      "inputs": [
        {
          "internalType": "address",
          "name": "newOwner",
          "type": "address"
        }
      ],
      "name": "transferOwnership",
      "outputs": [],
      "stateMutability": "nonpayable",
      "type": "function"
    },
    {
      "inputs": [],
      "name": "treasury",
      "outputs": [
        {
          "internalType": "address",
          "name": "",
          "type": "address"
        }
      ],
      "stateMutability": "view",
      "type": "function"
    },
    {
      "inputs": [
        {
          "internalType": "address",
          "name": "_recipient",
          "type": "address"
        },
        {
          "internalType": "uint256",
          "name": "_collateralAmount",
          "type": "uint256"
        }
      ],
      "name": "withdrawCollateral",
      "outputs": [],
      "stateMutability": "nonpayable",
      "type": "function"
    },
    {
      "inputs": [
        {
          "internalType": "address",
          "name": "_recipient",
          "type": "address"
        },
        {
          "internalType": "uint256",
          "name": "_amount",
          "type": "uint256"
        }
      ],
      "name": "withdrawMUSD",
      "outputs": [],
      "stateMutability": "nonpayable",
      "type": "function"
    },
    {
      "stateMutability": "payable",
      "type": "receive"
    }
  ],
  "transactionHash": "0xe3aae660d31dea22aca09346a7ed17c9201a7a5f46590f1232e38f6497342d66",
  "args": [
    7200
  ],
  "numDeployments": 1,
  "solcInputHash": "eee02db02c96e71526bd1578f2081ba6",
  "bytecode": "0x60a06040523480156200001157600080fd5b506040516200215a3803806200215a83398101604081905262000034916200011a565b33806200005c57604051631e4fbdf760e01b8152600060048201526024015b60405180910390fd5b6200006781620000ca565b506080819052630114db00811115620000c35760405162461bcd60e51b815260206004820152601b60248201527f476f7665726e616e63652064656c617920697320746f6f206269670000000000604482015260640162000053565b5062000134565b600080546001600160a01b038381166001600160a01b0319831681178455604051919092169283917f8be0079c531659141344cd1fd0a4f28419497f9722a3daafe3b4186f6b6457e09190a35050565b6000602082840312156200012d57600080fd5b5051919050565b608051611ffc6200015e6000396000818161046c0152818161101901526117390152611ffc6000f3fe6080604052600436106101b25760003560e01c80638a74de29116100ed578063cab666d011610090578063cab666d0146104d4578063ceba3caf146104f4578063d549e61814610514578063e2c6d41c14610529578063e46a3a4f1461054e578063e74b981b1461056e578063e7c88cda1461058e578063f2fde38b146105ae578063fd388be2146105ce57600080fd5b80638a74de29146103c55780638da5cb5b146103e557806390107afe146103fa578063977ade351461041a578063addf4dd11461043a578063afe5bf931461045a578063b3ae0af61461048e578063c5444061146104a457600080fd5b8063469048401161015557806346904840146102d45780634fdb7d31146102f457806361d027b31461031457806369cee75814610334578063715018a6146103545780637539d4dc1461036957806377553ad4146103905780638129fc1c146103b057600080fd5b80630aa7c21e146101be57806316fc3297146101e05780631bf1758b146102005780631ecc497514610232578063350c35e914610247578063369931fa14610267578063392e53cd1461027d5780633a150ed2146102a757600080fd5b366101b957005b600080fd5b3480156101ca57600080fd5b506101de6101d9366004611bd7565b6105ef565b005b3480156101ec57600080fd5b506101de6101fb366004611bfb565b6106de565b34801561020c57600080fd5b5061021f6a52b7d2dcc80cd2e400000081565b6040519081526020015b60405180910390f35b34801561023e57600080fd5b506101de610a73565b34801561025357600080fd5b506101de610262366004611c14565b610ac0565b34801561027357600080fd5b5061021f60035481565b34801561028957600080fd5b506004546102979060ff1681565b6040519015158152602001610229565b3480156102b357600080fd5b506007546102c7906001600160a01b031681565b6040516102299190611c40565b3480156102e057600080fd5b50600a546102c7906001600160a01b031681565b34801561030057600080fd5b506101de61030f366004611c54565b610bd7565b34801561032057600080fd5b506005546102c7906001600160a01b031681565b34801561034057600080fd5b506101de61034f366004611bd7565b610d3b565b34801561036057600080fd5b506101de610e06565b34801561037557600080fd5b5061037e603281565b60405160ff9091168152602001610229565b34801561039c57600080fd5b506001546102c7906001600160a01b031681565b3480156103bc57600080fd5b506101de610e1a565b3480156103d157600080fd5b506101de6103e0366004611c77565b610f63565b3480156103f157600080fd5b506102c761107d565b34801561040657600080fd5b506101de610415366004611c77565b61108c565b34801561042657600080fd5b506101de610435366004611bfb565b61119e565b34801561044657600080fd5b506101de610455366004611c14565b61148a565b34801561046657600080fd5b5061021f7f000000000000000000000000000000000000000000000000000000000000000081565b34801561049a57600080fd5b5061021f60095481565b3480156104b057600080fd5b506102976104bf366004611bd7565b60066020526000908152604090205460ff1681565b3480156104e057600080fd5b506002546102c7906001600160a01b031681565b34801561050057600080fd5b506101de61050f366004611cb0565b6116ab565b34801561052057600080fd5b506101de61170d565b34801561053557600080fd5b506004546102c79061010090046001600160a01b031681565b34801561055a57600080fd5b506008546102c7906001600160a01b031681565b34801561057a57600080fd5b506101de610589366004611bd7565b611869565b34801561059a57600080fd5b506101de6105a9366004611cb0565b61195f565b3480156105ba57600080fd5b506101de6105c9366004611bd7565b6119c1565b3480156105da57600080fd5b50600a5461037e90600160a01b900460ff1681565b6105f76119ff565b6001600160a01b03811660009081526006602052604090205460ff16156106805760405162461bcd60e51b815260206004820152603260248201527f5043563a20526563697069656e742068617320616c7265616479206265656e206044820152711859191959081d1bc81dda1a5d195b1a5cdd60721b60648201526084015b60405180910390fd5b6001600160a01b03811660009081526006602052604090819020805460ff19166001179055517f4205b1cf2b33c8147cc02b8fb0c9d3ff098218a686b0dd94b1e35d3c3968ad8c906106d3908390611c40565b60405180910390a150565b6106e661107d565b6001600160a01b0316336001600160a01b03161480610714575060045461010090046001600160a01b031633145b8061072957506005546001600160a01b031633145b6107455760405162461bcd60e51b815260040161067790611d25565b600060035411806107605750600a546001600160a01b031615155b6107ac5760405162461bcd60e51b815260206004820152601a60248201527f5043563a20646562742068617320616c726561647920706169640000000000006044820152606401610677565b6002546040516370a0823160e01b81526001600160a01b03909116906370a08231906107dc903090600401611c40565b602060405180830381865afa1580156107f9573d6000803e3d6000fd5b505050506040513d601f19601f8201168201806040525081019061081d9190611d75565b81111561083c5760405162461bcd60e51b815260040161067790611d8e565b60035460000361085a57600a805460ff60a01b1916601960a21b1790555b600a5460009060649061087790600160a01b900460ff1684611dd4565b6108819190611df1565b9050600061088f8284611e13565b90506003548111156108ba576003546108a89082611e13565b6108b29083611e26565b915060035490505b80600360008282546108cc9190611e13565b9091555050600a546001600160a01b0316158015906108f65750600a54600160a01b900460ff1615155b1561099057600254600a5460405163a9059cbb60e01b81526001600160a01b039283169263a9059cbb92610931929116908690600401611e39565b6020604051808303816000875af1158015610950573d6000803e3d6000fd5b505050506040513d601f19601f820116820180604052508101906109749190611e52565b6109905760405162461bcd60e51b815260040161067790611e74565b600154604051632ba7511760e21b8152600481018390526001600160a01b039091169063ae9d445c90602401600060405180830381600087803b1580156109d657600080fd5b505af11580156109ea573d6000803e3d6000fd5b505050507f3707046ba5d439e45ec51fb4596b88edce7802ede659f36e89931cd34c1cc05681604051610a1f91815260200190565b60405180910390a1600a546040517fdb7984dcab3b8cbd65e301ae592b73ad576c3607e1c32f65a93dbaf5d34b786091610a66916001600160a01b03909116908590611e39565b60405180910390a1505050565b610a7b6119ff565b600954600003610a9d5760405162461bcd60e51b815260040161067790611ea6565b6000600955600780546001600160a01b0319908116909155600880549091169055565b60045460ff168015610ad25750600354155b610aee5760405162461bcd60e51b815260040161067790611ed9565b610af661107d565b6001600160a01b0316336001600160a01b03161480610b24575060045461010090046001600160a01b031633145b80610b3957506005546001600160a01b031633145b610b555760405162461bcd60e51b815260040161067790611d25565b6001600160a01b038216600090815260066020526040902054829060ff16610b8f5760405162461bcd60e51b815260040161067790611f09565b7f92682d28e4c16f4a2ddb833ecdd2bab2f2da69e2f325cda58d421e7d634b8e278383604051610bc0929190611e39565b60405180910390a1610bd28383611a31565b505050565b610bdf61107d565b6001600160a01b0316336001600160a01b03161480610c0d575060045461010090046001600160a01b031633145b80610c2257506005546001600160a01b031633145b610c3e5760405162461bcd60e51b815260040161067790611d25565b600060035411610ca95760405162461bcd60e51b815260206004820152603060248201527f5043563a204d7573742068617665206465627420696e206f7264657220746f2060448201526f39b2ba1030903332b29039b83634ba1760811b6064820152608401610677565b603260ff82161115610d1b5760405162461bcd60e51b815260206004820152603560248201527f5043563a204665652073706c6974206d757374206265206174206d6f7374203560448201527418103bb434b632903232b13a103932b6b0b4b7399760591b6064820152608401610677565b600a805460ff909216600160a01b0260ff60a01b19909216919091179055565b610d436119ff565b6001600160a01b03811660009081526006602052604090205460ff16610db65760405162461bcd60e51b815260206004820152602260248201527f5043563a20526563697069656e74206973206e6f7420696e2077686974656c696044820152611cdd60f21b6064820152608401610677565b6001600160a01b03811660009081526006602052604090819020805460ff19169055517f8176fc5412eb5076fee7f1a264915b808c24d495c2698c189030e5200e707d25906106d3908390611c40565b610e0e6119ff565b610e186000611ac9565b565b610e2261107d565b6001600160a01b0316336001600160a01b03161480610e50575060045461010090046001600160a01b031633145b80610e6557506005546001600160a01b031633145b610e815760405162461bcd60e51b815260040161067790611d25565b60045460ff1615610ecf5760405162461bcd60e51b81526020600482015260186024820152771410d58e88185b1c9958591e481a5b9a5d1a585b1a5e995960421b6044820152606401610677565b6a52b7d2dcc80cd2e400000060038190556004805460ff1916600190811782555460405163b064b0b760e01b81526001600160a01b039091169263b064b0b792610f1d920190815260200190565b600060405180830381600087803b158015610f3757600080fd5b505af1158015610f4b573d6000803e3d6000fd5b50505050610e186a52b7d2dcc80cd2e400000061119e565b610f6b6119ff565b6004546001600160a01b0383811661010090920416141580610f9b57506005546001600160a01b03828116911614155b610fe75760405162461bcd60e51b815260206004820152601c60248201527f5043563a20746865736520726f6c657320616c726561647920736574000000006044820152606401610677565b4260095560045461010090046001600160a01b031615801561101257506005546001600160a01b0316155b1561104f577f0000000000000000000000000000000000000000000000000000000000000000600960008282546110499190611e13565b90915550505b600780546001600160a01b039384166001600160a01b03199182161790915560088054929093169116179055565b6000546001600160a01b031690565b6110946119ff565b6002546001600160a01b0316156110e95760405162461bcd60e51b81526020600482015260196024820152781410d58e8818dbdb9d1858dd1cc8185b1c9958591e481cd95d603a1b6044820152606401610677565b6110f282611b19565b6110fb81611b19565b600180546001600160a01b038085166001600160a01b03199283161790925560028054928416929091169190911790556040517f5962f8af633c4df1ab230096f773a514ee5adf7785c621ecdcdb764cb7f6e3919061115b908490611c40565b60405180910390a17f1d45a7bae601fb3bdd4955d0de1d3a7f87c82d5e0109f47435776fa0ed5c5303816040516111929190611c40565b60405180910390a15050565b6111a661107d565b6001600160a01b0316336001600160a01b031614806111d4575060045461010090046001600160a01b031633145b806111e957506005546001600160a01b031633145b6112055760405162461bcd60e51b815260040161067790611d25565b6002546040516370a0823160e01b81526001600160a01b03909116906370a0823190611235903090600401611c40565b602060405180830381865afa158015611252573d6000803e3d6000fd5b505050506040513d601f19601f820116820180604052508101906112769190611d75565b8111156112955760405162461bcd60e51b815260040161067790611d8e565b600254600154604080516305b1155960e11b815290516001600160a01b039384169363095ea7b3931691630b622ab29160048083019260209291908290030181865afa1580156112e9573d6000803e3d6000fd5b505050506040513d601f19601f8201168201806040525081019061130d9190611f4c565b836040518363ffffffff1660e01b815260040161132b929190611e39565b6020604051808303816000875af115801561134a573d6000803e3d6000fd5b505050506040513d601f19601f8201168201806040525081019061136e9190611e52565b6113b15760405162461bcd60e51b81526020600482015260146024820152731410d58e88105c1c1c9bdd985b0819985a5b195960621b6044820152606401610677565b600160009054906101000a90046001600160a01b03166001600160a01b0316630b622ab26040518163ffffffff1660e01b8152600401602060405180830381865afa158015611404573d6000803e3d6000fd5b505050506040513d601f19601f820116820180604052508101906114289190611f4c565b6001600160a01b03166378c77a24826040518263ffffffff1660e01b815260040161145591815260200190565b600060405180830381600087803b15801561146f57600080fd5b505af1158015611483573d6000803e3d6000fd5b5050505050565b60045460ff16801561149c5750600354155b6114b85760405162461bcd60e51b815260040161067790611ed9565b6114c061107d565b6001600160a01b0316336001600160a01b031614806114ee575060045461010090046001600160a01b031633145b8061150357506005546001600160a01b031633145b61151f5760405162461bcd60e51b815260040161067790611d25565b6001600160a01b038216600090815260066020526040902054829060ff166115595760405162461bcd60e51b815260040161067790611f09565b6002546040516370a0823160e01b81526001600160a01b03909116906370a0823190611589903090600401611c40565b602060405180830381865afa1580156115a6573d6000803e3d6000fd5b505050506040513d601f19601f820116820180604052508101906115ca9190611d75565b8211156115e95760405162461bcd60e51b815260040161067790611d8e565b60025460405163a9059cbb60e01b81526001600160a01b039091169063a9059cbb9061161b9086908690600401611e39565b6020604051808303816000875af115801561163a573d6000803e3d6000fd5b505050506040513d601f19601f8201168201806040525081019061165e9190611e52565b61167a5760405162461bcd60e51b815260040161067790611e74565b7f224dc11ebff077175e89868ae3e43dbfb345b0fec71aaadf10ccd9de4f60b68f8383604051610a66929190611e39565b6116b36119ff565b806116d05760405162461bcd60e51b815260040161067790611f69565b60005b81811015610bd2576117058383838181106116f0576116f0611fb0565b905060200201602081019061034f9190611bd7565b6001016116d3565b6117156119ff565b6000600954116117375760405162461bcd60e51b815260040161067790611ea6565b7f00000000000000000000000000000000000000000000000000000000000000006009546117659190611e26565b4210156117c25760405162461bcd60e51b815260206004820152602560248201527f5043563a20476f7665726e616e63652064656c617920686173206e6f7420656c604482015264185c1cd95960da1b6064820152608401610677565b60075460048054610100600160a81b0319166101006001600160a01b0393841681029190911791829055600854600580549185166001600160a01b0319909216821790556040805192909304909316815260208101929092527f59c75b5339bba5e93a172203f9379bc69e8a051519504a7e71c467e818a41ced910160405180910390a16000600955600780546001600160a01b0319908116909155600880549091169055565b61187161107d565b6001600160a01b0316336001600160a01b0316148061189f575060045461010090046001600160a01b031633145b806118b457506005546001600160a01b031633145b6118d05760405162461bcd60e51b815260040161067790611d25565b6001600160a01b03811661193d5760405162461bcd60e51b815260206004820152602e60248201527f5043563a2046656520726563697069656e742063616e6e6f742062652074686560448201526d103d32b9379030b2323932b9b99760911b6064820152608401610677565b600a80546001600160a01b0319166001600160a01b0392909216919091179055565b6119676119ff565b806119845760405162461bcd60e51b815260040161067790611f69565b60005b81811015610bd2576119b98383838181106119a4576119a4611fb0565b90506020020160208101906101d99190611bd7565b600101611987565b6119c96119ff565b6001600160a01b0381166119f3576000604051631e4fbdf760e01b81526004016106779190611c40565b6119fc81611ac9565b50565b33611a0861107d565b6001600160a01b031614610e18573360405163118cdaa760e01b81526004016106779190611c40565b6000826001600160a01b03168260405160006040518083038185875af1925050503d8060008114611a7e576040519150601f19603f3d011682016040523d82523d6000602084013e611a83565b606091505b5050905080610bd25760405162461bcd60e51b815260206004820152601260248201527114d95b991a5b99c8109510c819985a5b195960721b6044820152606401610677565b600080546001600160a01b038381166001600160a01b0319831681178455604051919092169283917f8be0079c531659141344cd1fd0a4f28419497f9722a3daafe3b4186f6b6457e09190a35050565b6001600160a01b038116611b6f5760405162461bcd60e51b815260206004820152601e60248201527f4163636f756e742063616e6e6f74206265207a65726f206164647265737300006044820152606401610677565b803b80611bbe5760405162461bcd60e51b815260206004820181905260248201527f4163636f756e7420636f64652073697a652063616e6e6f74206265207a65726f6044820152606401610677565b5050565b6001600160a01b03811681146119fc57600080fd5b600060208284031215611be957600080fd5b8135611bf481611bc2565b9392505050565b600060208284031215611c0d57600080fd5b5035919050565b60008060408385031215611c2757600080fd5b8235611c3281611bc2565b946020939093013593505050565b6001600160a01b0391909116815260200190565b600060208284031215611c6657600080fd5b813560ff81168114611bf457600080fd5b60008060408385031215611c8a57600080fd5b8235611c9581611bc2565b91506020830135611ca581611bc2565b809150509250929050565b60008060208385031215611cc357600080fd5b823567ffffffffffffffff80821115611cdb57600080fd5b818501915085601f830112611cef57600080fd5b813581811115611cfe57600080fd5b8660208260051b8501011115611d1357600080fd5b60209290920196919550909350505050565b60208082526030908201527f5043563a2063616c6c6572206d757374206265206f776e6572206f7220636f7560408201526f6e63696c206f7220747265617375727960801b606082015260800190565b600060208284031215611d8757600080fd5b5051919050565b6020808252601690820152755043563a206e6f7420656e6f75676820746f6b656e7360501b604082015260600190565b634e487b7160e01b600052601160045260246000fd5b8082028115828204841417611deb57611deb611dbe565b92915050565b600082611e0e57634e487b7160e01b600052601260045260246000fd5b500490565b81810381811115611deb57611deb611dbe565b80820180821115611deb57611deb611dbe565b6001600160a01b03929092168252602082015260400190565b600060208284031215611e6457600080fd5b81518015158114611bf457600080fd5b6020808252601890820152771410d58e881cd95b991a5b99c81b5554d10819985a5b195960421b604082015260600190565b6020808252601990820152781410d58e8810da185b99d9481b9bdd081a5b9a5d1a585d1959603a1b604082015260600190565b6020808252601690820152751410d58e881919589d081b5d5cdd081899481c185a5960521b604082015260600190565b60208082526023908201527f5043563a20726563697069656e74206d75737420626520696e2077686974656c6040820152621a5cdd60ea1b606082015260800190565b600060208284031215611f5e57600080fd5b8151611bf481611bc2565b60208082526027908201527f5043563a20526563697069656e7473206172726179206d757374206e6f7420626040820152666520656d70747960c81b606082015260800190565b634e487b7160e01b600052603260045260246000fdfea26469706673582212201f52f92620d14690e6d1bb9554132abc10a789153fa0a3eb67feab966682a1f464736f6c63430008180033",
  "devdoc": {
    "errors": {
      "OwnableInvalidOwner(address)": [
        {
          "details": "The owner is not a valid owner account. (eg. `address(0)`)"
        }
      ],
      "OwnableUnauthorizedAccount(address)": [
        {
          "details": "The caller account is not authorized to perform an operation."
        }
      ]
    },
    "kind": "dev",
    "methods": {
      "owner()": {
        "details": "Returns the address of the current owner."
      },
      "renounceOwnership()": {
        "details": "Leaves the contract without owner. It will not be possible to call `onlyOwner` functions. Can only be called by the current owner. NOTE: Renouncing ownership will leave the contract without an owner, thereby disabling any functionality that is only available to the owner."
      },
      "transferOwnership(address)": {
        "details": "Transfers ownership of the contract to a new account (`newOwner`). Can only be called by the current owner."
      }
    },
    "version": 1
  },
  "userdoc": {
    "kind": "user",
    "methods": {},
    "version": 1
  },
  "storageLayout": {
    "storage": [
      {
        "astId": 8,
        "contract": "contracts/PCV.sol:PCV",
        "label": "_owner",
        "offset": 0,
        "slot": "0",
        "type": "t_address"
      },
      {
        "astId": 5489,
        "contract": "contracts/PCV.sol:PCV",
        "label": "borrowerOperations",
        "offset": 0,
        "slot": "1",
        "type": "t_contract(BorrowerOperations)5464"
      },
      {
        "astId": 5492,
        "contract": "contracts/PCV.sol:PCV",
        "label": "musd",
        "offset": 0,
        "slot": "2",
        "type": "t_contract(IMUSD)8346"
      },
      {
        "astId": 5494,
        "contract": "contracts/PCV.sol:PCV",
        "label": "debtToPay",
        "offset": 0,
        "slot": "3",
        "type": "t_uint256"
      },
      {
        "astId": 5496,
        "contract": "contracts/PCV.sol:PCV",
        "label": "isInitialized",
        "offset": 0,
        "slot": "4",
        "type": "t_bool"
      },
      {
        "astId": 5498,
        "contract": "contracts/PCV.sol:PCV",
        "label": "council",
        "offset": 1,
        "slot": "4",
        "type": "t_address"
      },
      {
        "astId": 5500,
        "contract": "contracts/PCV.sol:PCV",
        "label": "treasury",
        "offset": 0,
        "slot": "5",
        "type": "t_address"
      },
      {
        "astId": 5504,
        "contract": "contracts/PCV.sol:PCV",
        "label": "recipientsWhitelist",
        "offset": 0,
        "slot": "6",
        "type": "t_mapping(t_address,t_bool)"
      },
      {
        "astId": 5506,
        "contract": "contracts/PCV.sol:PCV",
        "label": "pendingCouncilAddress",
        "offset": 0,
        "slot": "7",
        "type": "t_address"
      },
      {
        "astId": 5508,
        "contract": "contracts/PCV.sol:PCV",
        "label": "pendingTreasuryAddress",
        "offset": 0,
        "slot": "8",
        "type": "t_address"
      },
      {
        "astId": 5510,
        "contract": "contracts/PCV.sol:PCV",
        "label": "changingRolesInitiated",
        "offset": 0,
        "slot": "9",
        "type": "t_uint256"
      },
      {
        "astId": 5512,
        "contract": "contracts/PCV.sol:PCV",
        "label": "feeRecipient",
        "offset": 0,
        "slot": "10",
        "type": "t_address"
      },
      {
        "astId": 5514,
        "contract": "contracts/PCV.sol:PCV",
        "label": "feeSplitPercentage",
        "offset": 20,
        "slot": "10",
        "type": "t_uint8"
      }
    ],
    "types": {
      "t_address": {
        "encoding": "inplace",
        "label": "address",
        "numberOfBytes": "20"
      },
      "t_bool": {
        "encoding": "inplace",
        "label": "bool",
        "numberOfBytes": "1"
      },
      "t_contract(BorrowerOperations)5464": {
        "encoding": "inplace",
        "label": "contract BorrowerOperations",
        "numberOfBytes": "20"
      },
      "t_contract(IMUSD)8346": {
        "encoding": "inplace",
        "label": "contract IMUSD",
        "numberOfBytes": "20"
      },
      "t_mapping(t_address,t_bool)": {
        "encoding": "mapping",
        "key": "t_address",
        "label": "mapping(address => bool)",
        "numberOfBytes": "32",
        "value": "t_bool"
      },
      "t_uint256": {
        "encoding": "inplace",
        "label": "uint256",
        "numberOfBytes": "32"
      },
      "t_uint8": {
        "encoding": "inplace",
        "label": "uint8",
        "numberOfBytes": "1"
      }
    }
  }
}