{
  "address": "0xC4407fbaA0FF4fF5ed89A91860FB9e9d33ea56CC",
  "abi": [
    {
      "inputs": [],
      "stateMutability": "nonpayable",
      "type": "constructor"
    },
    {
      "inputs": [
        {
          "internalType": "address",
          "name": "owner",
          "type": "address"
        }
      ],
      "name": "OwnableInvalidOwner",
      "type": "error"
    },
    {
      "inputs": [
        {
          "internalType": "address",
          "name": "account",
          "type": "address"
        }
      ],
      "name": "OwnableUnauthorizedAccount",
      "type": "error"
    },
    {
      "anonymous": false,
      "inputs": [
        {
          "indexed": false,
          "internalType": "address",
          "name": "_borrowerOperationsAddress",
          "type": "address"
        }
      ],
      "name": "BorrowerOperationsAddressChanged",
      "type": "event"
    },
    {
      "anonymous": false,
      "inputs": [
        {
          "indexed": false,
          "internalType": "address",
          "name": "_id",
          "type": "address"
        },
        {
          "indexed": false,
          "internalType": "uint256",
          "name": "_NICR",
          "type": "uint256"
        }
      ],
      "name": "NodeAdded",
      "type": "event"
    },
    {
      "anonymous": false,
      "inputs": [
        {
          "indexed": false,
          "internalType": "address",
          "name": "_id",
          "type": "address"
        }
      ],
      "name": "NodeRemoved",
      "type": "event"
    },
    {
      "anonymous": false,
      "inputs": [
        {
          "indexed": true,
          "internalType": "address",
          "name": "previousOwner",
          "type": "address"
        },
        {
          "indexed": true,
          "internalType": "address",
          "name": "newOwner",
          "type": "address"
        }
      ],
      "name": "OwnershipTransferred",
      "type": "event"
    },
    {
      "anonymous": false,
      "inputs": [
        {
          "indexed": false,
          "internalType": "address",
          "name": "_sortedDoublyLLAddress",
          "type": "address"
        }
      ],
      "name": "SortedTrovesAddressChanged",
      "type": "event"
    },
    {
      "anonymous": false,
      "inputs": [
        {
          "indexed": false,
          "internalType": "address",
          "name": "_troveManagerAddress",
          "type": "address"
        }
      ],
      "name": "TroveManagerAddressChanged",
      "type": "event"
    },
    {
      "inputs": [],
      "name": "borrowerOperationsAddress",
      "outputs": [
        {
          "internalType": "address",
          "name": "",
          "type": "address"
        }
      ],
      "stateMutability": "view",
      "type": "function"
    },
    {
      "inputs": [
        {
          "internalType": "address",
          "name": "_id",
          "type": "address"
        }
      ],
      "name": "contains",
      "outputs": [
        {
          "internalType": "bool",
          "name": "",
          "type": "bool"
        }
      ],
      "stateMutability": "view",
      "type": "function"
    },
    {
      "inputs": [],
      "name": "data",
      "outputs": [
        {
          "internalType": "address",
          "name": "head",
          "type": "address"
        },
        {
          "internalType": "address",
          "name": "tail",
          "type": "address"
        },
        {
          "internalType": "uint256",
          "name": "maxSize",
          "type": "uint256"
        },
        {
          "internalType": "uint256",
          "name": "size",
          "type": "uint256"
        }
      ],
      "stateMutability": "view",
      "type": "function"
    },
    {
      "inputs": [
        {
          "internalType": "uint256",
          "name": "_NICR",
          "type": "uint256"
        },
        {
          "internalType": "address",
          "name": "_prevId",
          "type": "address"
        },
        {
          "internalType": "address",
          "name": "_nextId",
          "type": "address"
        }
      ],
      "name": "findInsertPosition",
      "outputs": [
        {
          "internalType": "address",
          "name": "",
          "type": "address"
        },
        {
          "internalType": "address",
          "name": "",
          "type": "address"
        }
      ],
      "stateMutability": "view",
      "type": "function"
    },
    {
      "inputs": [],
      "name": "getFirst",
      "outputs": [
        {
          "internalType": "address",
          "name": "",
          "type": "address"
        }
      ],
      "stateMutability": "view",
      "type": "function"
    },
    {
      "inputs": [],
      "name": "getLast",
      "outputs": [
        {
          "internalType": "address",
          "name": "",
          "type": "address"
        }
      ],
      "stateMutability": "view",
      "type": "function"
    },
    {
      "inputs": [],
      "name": "getMaxSize",
      "outputs": [
        {
          "internalType": "uint256",
          "name": "",
          "type": "uint256"
        }
      ],
      "stateMutability": "view",
      "type": "function"
    },
    {
      "inputs": [
        {
          "internalType": "address",
          "name": "_id",
          "type": "address"
        }
      ],
      "name": "getNext",
      "outputs": [
        {
          "internalType": "address",
          "name": "",
          "type": "address"
        }
      ],
      "stateMutability": "view",
      "type": "function"
    },
    {
      "inputs": [
        {
          "internalType": "address",
          "name": "_id",
          "type": "address"
        }
      ],
      "name": "getPrev",
      "outputs": [
        {
          "internalType": "address",
          "name": "",
          "type": "address"
        }
      ],
      "stateMutability": "view",
      "type": "function"
    },
    {
      "inputs": [],
      "name": "getSize",
      "outputs": [
        {
          "internalType": "uint256",
          "name": "",
          "type": "uint256"
        }
      ],
      "stateMutability": "view",
      "type": "function"
    },
    {
      "inputs": [
        {
          "internalType": "address",
          "name": "_id",
          "type": "address"
        },
        {
          "internalType": "uint256",
          "name": "_NICR",
          "type": "uint256"
        },
        {
          "internalType": "address",
          "name": "_prevId",
          "type": "address"
        },
        {
          "internalType": "address",
          "name": "_nextId",
          "type": "address"
        }
      ],
      "name": "insert",
      "outputs": [],
      "stateMutability": "nonpayable",
      "type": "function"
    },
    {
      "inputs": [],
      "name": "isEmpty",
      "outputs": [
        {
          "internalType": "bool",
          "name": "",
          "type": "bool"
        }
      ],
      "stateMutability": "view",
      "type": "function"
    },
    {
      "inputs": [],
      "name": "isFull",
      "outputs": [
        {
          "internalType": "bool",
          "name": "",
          "type": "bool"
        }
      ],
      "stateMutability": "view",
      "type": "function"
    },
    {
      "inputs": [],
      "name": "owner",
      "outputs": [
        {
          "internalType": "address",
          "name": "",
          "type": "address"
        }
      ],
      "stateMutability": "view",
      "type": "function"
    },
    {
      "inputs": [
        {
          "internalType": "address",
          "name": "_id",
          "type": "address"
        },
        {
          "internalType": "uint256",
          "name": "_newNICR",
          "type": "uint256"
        },
        {
          "internalType": "address",
          "name": "_prevId",
          "type": "address"
        },
        {
          "internalType": "address",
          "name": "_nextId",
          "type": "address"
        }
      ],
      "name": "reInsert",
      "outputs": [],
      "stateMutability": "nonpayable",
      "type": "function"
    },
    {
      "inputs": [
        {
          "internalType": "address",
          "name": "_id",
          "type": "address"
        }
      ],
      "name": "remove",
      "outputs": [],
      "stateMutability": "nonpayable",
      "type": "function"
    },
    {
      "inputs": [],
      "name": "renounceOwnership",
      "outputs": [],
      "stateMutability": "nonpayable",
      "type": "function"
    },
    {
      "inputs": [
        {
          "internalType": "uint256",
          "name": "_size",
          "type": "uint256"
        },
        {
          "internalType": "address",
          "name": "_borrowerOperationsAddress",
          "type": "address"
        },
        {
          "internalType": "address",
          "name": "_troveManagerAddress",
          "type": "address"
        }
      ],
      "name": "setParams",
      "outputs": [],
      "stateMutability": "nonpayable",
      "type": "function"
    },
    {
      "inputs": [
        {
          "internalType": "address",
          "name": "newOwner",
          "type": "address"
        }
      ],
      "name": "transferOwnership",
      "outputs": [],
      "stateMutability": "nonpayable",
      "type": "function"
    },
    {
      "inputs": [],
      "name": "troveManager",
      "outputs": [
        {
          "internalType": "contract ITroveManager",
          "name": "",
          "type": "address"
        }
      ],
      "stateMutability": "view",
      "type": "function"
    },
    {
      "inputs": [
        {
          "internalType": "uint256",
          "name": "_NICR",
          "type": "uint256"
        },
        {
          "internalType": "address",
          "name": "_prevId",
          "type": "address"
        },
        {
          "internalType": "address",
          "name": "_nextId",
          "type": "address"
        }
      ],
      "name": "validInsertPosition",
      "outputs": [
        {
          "internalType": "bool",
          "name": "",
          "type": "bool"
        }
      ],
      "stateMutability": "view",
      "type": "function"
    }
  ],
  "transactionHash": "0xab444abd3d8b676a772b0d461bffd9e610cd1c2a839f9e5481b4a862bfb64627",
  "args": [],
  "numDeployments": 1,
  "solcInputHash": "9a56c8a191626db66ed2594e5e05779c",
  "bytecode": "0x608060405234801561001057600080fd5b50338061003757604051631e4fbdf760e01b81526000600482015260240160405180910390fd5b61004081610046565b50610096565b600080546001600160a01b038381166001600160a01b0319831681178455604051919092169283917f8be0079c531659141344cd1fd0a4f28419497f9722a3daafe3b4186f6b6457e09190a35050565b61185e806100a56000396000f3fe608060405234801561001057600080fd5b50600436106101375760003560e01c8063681fe70c116100b8578063b72703ac1161007c578063b72703ac146102d9578063b7f8cf9b14610308578063babd3d9a1461031b578063de8fa43114610327578063f2fde38b1461032f578063f376d7981461034257600080fd5b8063681fe70c14610239578063715018a61461024257806373d4a13a1461024a578063765e0159146102975780638da5cb5b146102c857600080fd5b8063416980dc116100ff578063416980dc146101bd57806346f7cf87146101f05780634d622831146102035780635dbe47e81461021457806363e1d57c1461022757600080fd5b80631e2231431461013c57806329092d0e1461015f5780632be21260146101745780633d83908a146101875780633fce12d51461019a575b600080fd5b6003546001600160a01b03165b6040516101569190611616565b60405180910390f35b61017261016d366004611646565b610355565b005b610172610182366004611668565b610369565b600254610149906001600160a01b031681565b6101ad6101a83660046116b5565b6103e9565b6040519015158152602001610156565b6101d06101cb3660046116b5565b61040c565b604080516001600160a01b03938416815292909116602083015201610156565b6101726101fe366004611668565b610436565b6004546001600160a01b0316610149565b6101ad610222366004611646565b61044f565b6005545b604051908152602001610156565b600654156101ad565b61017261046d565b60035460045460055460065461026c936001600160a01b039081169316919084565b604080516001600160a01b039586168152949093166020850152918301526060820152608001610156565b6101496102a5366004611646565b6001600160a01b0390811660009081526007602052604090205461010090041690565b6000546001600160a01b0316610149565b6101496102e7366004611646565b6001600160a01b039081166000908152600760205260409020600101541690565b600154610149906001600160a01b031681565b600554600654146101ad565b60065461022b565b61017261033d366004611646565b610481565b6101726103503660046116b5565b6104bc565b61035d6105c7565b61036681610636565b50565b6002546001600160a01b031661037e81610844565b6103878561044f565b6103ac5760405162461bcd60e51b81526004016103a3906116f1565b60405180910390fd5b600084116103cc5760405162461bcd60e51b81526004016103a39061173b565b6103d585610636565b6103e281868686866108c7565b5050505050565b600254600090610404906001600160a01b0316858585610c7f565b949350505050565b6002546000908190610429906001600160a01b0316868686610f61565b915091505b935093915050565b6002546001600160a01b03166103e281868686866108c7565b6001600160a01b031660009081526007602052604090205460ff1690565b61047561115f565b61047f600061118c565b565b61048961115f565b6001600160a01b0381166104b3576000604051631e4fbdf760e01b81526004016103a39190611616565b6103668161118c565b6000831161050c5760405162461bcd60e51b815260206004820152601f60248201527f536f7274656454726f7665733a2053697a652063616e74206265207a65726f0060448201526064016103a3565b610515816111dc565b61051e826111dc565b6005839055600180546001600160a01b038085166001600160a01b03199283161790925560028054928416929091169190911790556040517f3ca631ffcd2a9b5d9ae18543fc82f58eb4ca33af9e6ab01b7a8e95331e6ed98590610583908490611616565b60405180910390a17f143219c9e69b09e07e095fcc889b43d8f46ca892bba65f08dc3a0050869a5678816040516105ba9190611616565b60405180910390a1505050565b6002546001600160a01b0316331461047f5760405162461bcd60e51b815260206004820152602c60248201527f536f7274656454726f7665733a2043616c6c6572206973206e6f74207468652060448201526b2a3937bb32a6b0b730b3b2b960a11b60648201526084016103a3565b61063f8161044f565b61065b5760405162461bcd60e51b81526004016103a3906116f1565b6006546001101561079b576003546001600160a01b03908116908216036106c8576001600160a01b0380821660009081526007602052604080822054600380546001600160a01b0319908116610100909304909516918217905582529020600101805490911690556107b8565b6004546001600160a01b039081169082160361072c576001600160a01b0380821660009081526007602052604080822060010154600480546001600160a01b03191691909416908117909355918152208054610100600160a81b03191690556107b8565b6001600160a01b038082166000908152600760205260408082208054600180830180548716865284862080546101009485900489168502610100600160a81b03199091161790555492549190910485168452919092200180546001600160a01b031916919092161790556107b8565b600380546001600160a01b03199081169091556004805490911690555b6001600160a01b038116600090815260076020526040812080546001600160a81b0319168155600190810180546001600160a01b03191690556006805491929091610804908490611794565b90915550506040517fcfc24166db4bb677e857cacabd1541fb2b30645021b27c5130419589b84db52b90610839908390611616565b60405180910390a150565b6001546001600160a01b03163314806108655750336001600160a01b038216145b6103665760405162461bcd60e51b815260206004820152602d60248201527f536f7274656454726f7665733a2043616c6c6572206973206e6569746865722060448201526c424f206e6f722054726f76654d60981b60648201526084016103a3565b6005546006540361091a5760405162461bcd60e51b815260206004820152601a60248201527f536f7274656454726f7665733a204c6973742069732066756c6c00000000000060448201526064016103a3565b6109238461044f565b156109855760405162461bcd60e51b815260206004820152602c60248201527f536f7274656454726f7665733a204c69737420616c726561647920636f6e746160448201526b696e7320746865206e6f646560a01b60648201526084016103a3565b6001600160a01b0384166109db5760405162461bcd60e51b815260206004820152601f60248201527f536f7274656454726f7665733a2049642063616e6e6f74206265207a65726f0060448201526064016103a3565b600083116109fb5760405162461bcd60e51b81526004016103a39061173b565b8181610a0987868484610c7f565b610a5757610a456040518060400160405280601781526020017624b73b30b634b21034b739b2b93a103837b9b4ba34b7b760491b815250611285565b610a5187868484610f61565b90925090505b6001600160a01b038087166000908152600760205260409020805460ff191660011790558216158015610a9157506001600160a01b038116155b15610ac657600380546001600160a01b0388166001600160a01b03199182168117909255600480549091169091179055610c1a565b6001600160a01b038216610b3a57600380546001600160a01b03888116600081815260076020526040808220805495851661010002610100600160a81b0319909616959095179094558454909216825291902060010180546001600160a01b03199081168317909155825416179055610c1a565b6001600160a01b038116610baa57600480546001600160a01b0388811660008181526007602052604080822060010180549585166001600160a01b031996871617905585549093168152919091208054610100600160a81b03191661010083021790558254909116179055610c1a565b6001600160a01b038087166000818152600760205260408082208054858716610100818102610100600160a81b031993841617845560019384018054988b166001600160a01b0319998a168117909155865284862080549188029190931617909155835291200180549092161790555b6001600380016000828254610c2f91906117ad565b9091555050604080516001600160a01b0388168152602081018790527fe02b43adbee0c123de070a04554a71877a0007e2fc161466299cae3c094fe82f910160405180910390a150505050505050565b60006001600160a01b038316158015610c9f57506001600160a01b038216155b15610cb057600654155b9050610404565b6001600160a01b038316610d4d576003546001600160a01b038381169116148015610ca9575060405163b0d8e18160e01b81526001600160a01b0386169063b0d8e18190610d02908590600401611616565b602060405180830381865afa158015610d1f573d6000803e3d6000fd5b505050506040513d601f19601f82011682018060405250810190610d4391906117c0565b8410159050610404565b6001600160a01b038216610dea576004546001600160a01b038481169116148015610ca9575060405163b0d8e18160e01b81526001600160a01b0386169063b0d8e18190610d9f908690600401611616565b602060405180830381865afa158015610dbc573d6000803e3d6000fd5b505050506040513d601f19601f82011682018060405250810190610de091906117c0565b8411159050610404565b60405163b0d8e18160e01b8152610e60906001600160a01b0387169063b0d8e18190610e1a908790600401611616565b602060405180830381865afa158015610e37573d6000803e3d6000fd5b505050506040513d601f19601f82011682018060405250810190610e5b91906117c0565b6112c8565b60405163b0d8e18160e01b8152610e90906001600160a01b0387169063b0d8e18190610e1a908690600401611616565b6001600160a01b0383811660009081526007602052604090205461010090048116908316148015610f2e575060405163b0d8e18160e01b815284906001600160a01b0387169063b0d8e18190610eea908790600401611616565b602060405180830381865afa158015610f07573d6000803e3d6000fd5b505050506040513d601f19601f82011682018060405250810190610f2b91906117c0565b10155b8015610ca9575060405163b0d8e18160e01b81526001600160a01b0386169063b0d8e18190610d02908590600401611616565b6040805180820190915260178152762334b73234b7339034b739b2b93a103837b9b4ba34b7b760491b6020820152600090819084908490610fa190611285565b6001600160a01b0382161561103a57610fb98261044f565b1580611030575060405163b0d8e18160e01b81526001600160a01b0389169063b0d8e18190610fec908590600401611616565b602060405180830381865afa158015611009573d6000803e3d6000fd5b505050506040513d601f19601f8201168201806040525081019061102d91906117c0565b87115b1561103a57600091505b6001600160a01b038116156110d2576110528161044f565b15806110c9575060405163b0d8e18160e01b81526001600160a01b0389169063b0d8e18190611085908490600401611616565b602060405180830381865afa1580156110a2573d6000803e3d6000fd5b505050506040513d601f19601f820116820180604052508101906110c691906117c0565b87105b156110d2575060005b6001600160a01b0382161580156110f057506001600160a01b038116155b156111195760035461110e90899089906001600160a01b031661130d565b935093505050611156565b6001600160a01b0382166111325761110e88888361149e565b6001600160a01b03811661114b5761110e88888461130d565b61110e88888461130d565b94509492505050565b6000546001600160a01b0316331461047f573360405163118cdaa760e01b81526004016103a39190611616565b600080546001600160a01b038381166001600160a01b0319831681178455604051919092169283917f8be0079c531659141344cd1fd0a4f28419497f9722a3daafe3b4186f6b6457e09190a35050565b6001600160a01b0381166112325760405162461bcd60e51b815260206004820152601e60248201527f4163636f756e742063616e6e6f74206265207a65726f2061646472657373000060448201526064016103a3565b803b806112815760405162461bcd60e51b815260206004820181905260248201527f4163636f756e7420636f64652073697a652063616e6e6f74206265207a65726f60448201526064016103a3565b5050565b6103668160405160240161129991906117d9565b60408051601f198184030181529190526020810180516001600160e01b031663104c13eb60e21b1790526115f1565b610366816040516024016112de91815260200190565b60408051601f198184030181529190526020810180516001600160e01b031663f82c50f160e01b1790526115f1565b6000806113456040518060400160405280601481526020017311195cd8d95b99081b1a5cdd08195b9d195c995960621b815250611285565b6003546001600160a01b0384811691161480156113ce575060405163b0d8e18160e01b81526001600160a01b0386169063b0d8e18190611389908690600401611616565b602060405180830381865afa1580156113a6573d6000803e3d6000fd5b505050506040513d601f19601f820116820180604052508101906113ca91906117c0565b8410155b156113de5750600090508161042e565b6001600160a01b038084166000908152600760205260409020548491610100909104165b6001600160a01b03821615801590611423575061142187878484610c7f565b155b156114925761145a60405180604001604052806011815260200170044657363656e64206c697374206c6f6f7607c1b815250611285565b506001600160a01b03908116600090815260076020526040808220546101009081900484168084529190922054909291900416611402565b90969095509350505050565b6000806114d06040518060400160405280600e81526020016d105cd8d95b991a5b99c81b1a5cdd60921b815250611285565b6004546001600160a01b038481169116148015611559575060405163b0d8e18160e01b81526001600160a01b0386169063b0d8e18190611514908690600401611616565b602060405180830381865afa158015611531573d6000803e3d6000fd5b505050506040513d601f19601f8201168201806040525081019061155591906117c0565b8411155b156115695750819050600061042e565b6001600160a01b038084166000908152600760205260409020600101548491165b6001600160a01b038216158015906115ab57506115a987878385610c7f565b155b156115e657506001600160a01b039081166000908152600760205260408082206001908101548416808452919092209091015490911661158a565b969095509350505050565b6103668160006a636f6e736f6c652e6c6f679050600080835160208501845afa505050565b6001600160a01b0391909116815260200190565b80356001600160a01b038116811461164157600080fd5b919050565b60006020828403121561165857600080fd5b6116618261162a565b9392505050565b6000806000806080858703121561167e57600080fd5b6116878561162a565b93506020850135925061169c6040860161162a565b91506116aa6060860161162a565b905092959194509250565b6000806000606084860312156116ca57600080fd5b833592506116da6020850161162a565b91506116e86040850161162a565b90509250925092565b6020808252602a908201527f536f7274656454726f7665733a204c69737420646f6573206e6f7420636f6e74604082015269185a5b881d1a19481a5960b21b606082015260800190565b60208082526023908201527f536f7274656454726f7665733a204e494352206d75737420626520706f73697460408201526269766560e81b606082015260800190565b634e487b7160e01b600052601160045260246000fd5b818103818111156117a7576117a761177e565b92915050565b808201808211156117a7576117a761177e565b6000602082840312156117d257600080fd5b5051919050565b60006020808352835180602085015260005b81811015611807578581018301518582016040015282016117eb565b506000604082860101526040601f19601f830116850101925050509291505056fea26469706673582212208661d650670b5ac51790f0579a82020018a5f05daf4f964f9099513d751b05b564736f6c63430008180033",
  "devdoc": {
    "errors": {
      "OwnableInvalidOwner(address)": [
        {
          "details": "The owner is not a valid owner account. (eg. `address(0)`)"
        }
      ],
      "OwnableUnauthorizedAccount(address)": [
        {
          "details": "The caller account is not authorized to perform an operation."
        }
      ]
    },
    "kind": "dev",
    "methods": {
      "owner()": {
        "details": "Returns the address of the current owner."
      },
      "renounceOwnership()": {
        "details": "Leaves the contract without owner. It will not be possible to call `onlyOwner` functions. Can only be called by the current owner. NOTE: Renouncing ownership will leave the contract without an owner, thereby disabling any functionality that is only available to the owner."
      },
      "transferOwnership(address)": {
        "details": "Transfers ownership of the contract to a new account (`newOwner`). Can only be called by the current owner."
      }
    },
    "version": 1
  },
  "userdoc": {
    "kind": "user",
    "methods": {},
    "version": 1
  },
  "storageLayout": {
    "storage": [
      {
        "astId": 8,
        "contract": "contracts/SortedTroves.sol:SortedTroves",
        "label": "_owner",
        "offset": 0,
        "slot": "0",
        "type": "t_address"
      },
      {
        "astId": 353,
        "contract": "contracts/SortedTroves.sol:SortedTroves",
        "label": "borrowerOperationsAddress",
        "offset": 0,
        "slot": "1",
        "type": "t_address"
      },
      {
        "astId": 356,
        "contract": "contracts/SortedTroves.sol:SortedTroves",
        "label": "troveManager",
        "offset": 0,
        "slot": "2",
        "type": "t_contract(ITroveManager)2482"
      },
      {
        "astId": 359,
        "contract": "contracts/SortedTroves.sol:SortedTroves",
        "label": "data",
        "offset": 0,
        "slot": "3",
        "type": "t_struct(Data)351_storage"
      }
    ],
    "types": {
      "t_address": {
        "encoding": "inplace",
        "label": "address",
        "numberOfBytes": "20"
      },
      "t_bool": {
        "encoding": "inplace",
        "label": "bool",
        "numberOfBytes": "1"
      },
      "t_contract(ITroveManager)2482": {
        "encoding": "inplace",
        "label": "contract ITroveManager",
        "numberOfBytes": "20"
      },
      "t_mapping(t_address,t_struct(Node)337_storage)": {
        "encoding": "mapping",
        "key": "t_address",
        "label": "mapping(address => struct SortedTroves.Node)",
        "numberOfBytes": "32",
        "value": "t_struct(Node)337_storage"
      },
      "t_struct(Data)351_storage": {
        "encoding": "inplace",
        "label": "struct SortedTroves.Data",
        "members": [
          {
            "astId": 339,
            "contract": "contracts/SortedTroves.sol:SortedTroves",
            "label": "head",
            "offset": 0,
            "slot": "0",
            "type": "t_address"
          },
          {
            "astId": 341,
            "contract": "contracts/SortedTroves.sol:SortedTroves",
            "label": "tail",
            "offset": 0,
            "slot": "1",
            "type": "t_address"
          },
          {
            "astId": 343,
            "contract": "contracts/SortedTroves.sol:SortedTroves",
            "label": "maxSize",
            "offset": 0,
            "slot": "2",
            "type": "t_uint256"
          },
          {
            "astId": 345,
            "contract": "contracts/SortedTroves.sol:SortedTroves",
            "label": "size",
            "offset": 0,
            "slot": "3",
            "type": "t_uint256"
          },
          {
            "astId": 350,
            "contract": "contracts/SortedTroves.sol:SortedTroves",
            "label": "nodes",
            "offset": 0,
            "slot": "4",
            "type": "t_mapping(t_address,t_struct(Node)337_storage)"
          }
        ],
        "numberOfBytes": "160"
      },
      "t_struct(Node)337_storage": {
        "encoding": "inplace",
        "label": "struct SortedTroves.Node",
        "members": [
          {
            "astId": 332,
            "contract": "contracts/SortedTroves.sol:SortedTroves",
            "label": "exists",
            "offset": 0,
            "slot": "0",
            "type": "t_bool"
          },
          {
            "astId": 334,
            "contract": "contracts/SortedTroves.sol:SortedTroves",
            "label": "nextId",
            "offset": 1,
            "slot": "0",
            "type": "t_address"
          },
          {
            "astId": 336,
            "contract": "contracts/SortedTroves.sol:SortedTroves",
            "label": "prevId",
            "offset": 0,
            "slot": "1",
            "type": "t_address"
          }
        ],
        "numberOfBytes": "64"
      },
      "t_uint256": {
        "encoding": "inplace",
        "label": "uint256",
        "numberOfBytes": "32"
      }
    }
  }
}