{
  "address": "0x971Ff2D85DA8FE1e1533204cE2F3EA36F7d27c66",
  "abi": [
    {
      "inputs": [],
      "stateMutability": "nonpayable",
      "type": "constructor"
    },
    {
      "inputs": [
        {
          "internalType": "address",
          "name": "owner",
          "type": "address"
        }
      ],
      "name": "OwnableInvalidOwner",
      "type": "error"
    },
    {
      "inputs": [
        {
          "internalType": "address",
          "name": "account",
          "type": "address"
        }
      ],
      "name": "OwnableUnauthorizedAccount",
      "type": "error"
    },
    {
      "anonymous": false,
      "inputs": [
        {
          "indexed": false,
          "internalType": "address",
          "name": "_newActivePoolAddress",
          "type": "address"
        }
      ],
      "name": "ActivePoolAddressChanged",
      "type": "event"
    },
    {
      "anonymous": false,
      "inputs": [
        {
          "indexed": false,
          "internalType": "address",
          "name": "_newBorrowerOperationsAddress",
          "type": "address"
        }
      ],
      "name": "BorrowerOperationsAddressChanged",
      "type": "event"
    },
    {
      "anonymous": false,
      "inputs": [
        {
          "indexed": true,
          "internalType": "address",
          "name": "_depositor",
          "type": "address"
        },
        {
          "indexed": false,
          "internalType": "uint256",
          "name": "_collateral",
          "type": "uint256"
        },
        {
          "indexed": false,
          "internalType": "uint256",
          "name": "_MUSDLoss",
          "type": "uint256"
        }
      ],
      "name": "CollateralGainWithdrawn",
      "type": "event"
    },
    {
      "anonymous": false,
      "inputs": [
        {
          "indexed": false,
          "internalType": "address",
          "name": "_to",
          "type": "address"
        },
        {
          "indexed": false,
          "internalType": "uint256",
          "name": "_amount",
          "type": "uint256"
        }
      ],
      "name": "CollateralSent",
      "type": "event"
    },
    {
      "anonymous": false,
      "inputs": [
        {
          "indexed": false,
          "internalType": "address",
          "name": "_newDefaultPoolAddress",
          "type": "address"
        }
      ],
      "name": "DefaultPoolAddressChanged",
      "type": "event"
    },
    {
      "anonymous": false,
      "inputs": [
        {
          "indexed": true,
          "internalType": "address",
          "name": "_depositor",
          "type": "address"
        },
        {
          "indexed": false,
          "internalType": "uint256",
          "name": "_P",
          "type": "uint256"
        },
        {
          "indexed": false,
          "internalType": "uint256",
          "name": "_S",
          "type": "uint256"
        }
      ],
      "name": "DepositSnapshotUpdated",
      "type": "event"
    },
    {
      "anonymous": false,
      "inputs": [
        {
          "indexed": false,
          "internalType": "uint128",
          "name": "_currentEpoch",
          "type": "uint128"
        }
      ],
      "name": "EpochUpdated",
      "type": "event"
    },
    {
      "anonymous": false,
      "inputs": [
        {
          "indexed": false,
          "internalType": "address",
          "name": "_newMUSDTokenAddress",
          "type": "address"
        }
      ],
      "name": "MUSDTokenAddressChanged",
      "type": "event"
    },
    {
      "anonymous": false,
      "inputs": [
        {
          "indexed": true,
          "internalType": "address",
          "name": "previousOwner",
          "type": "address"
        },
        {
          "indexed": true,
          "internalType": "address",
          "name": "newOwner",
          "type": "address"
        }
      ],
      "name": "OwnershipTransferred",
      "type": "event"
    },
    {
      "anonymous": false,
      "inputs": [
        {
          "indexed": false,
          "internalType": "uint256",
          "name": "_P",
          "type": "uint256"
        }
      ],
      "name": "PUpdated",
      "type": "event"
    },
    {
      "anonymous": false,
      "inputs": [
        {
          "indexed": false,
          "internalType": "address",
          "name": "_newPriceFeedAddress",
          "type": "address"
        }
      ],
      "name": "PriceFeedAddressChanged",
      "type": "event"
    },
    {
      "anonymous": false,
      "inputs": [
        {
          "indexed": false,
          "internalType": "uint256",
          "name": "_S",
          "type": "uint256"
        },
        {
          "indexed": false,
          "internalType": "uint128",
          "name": "_epoch",
          "type": "uint128"
        },
        {
          "indexed": false,
          "internalType": "uint128",
          "name": "_scale",
          "type": "uint128"
        }
      ],
      "name": "SUpdated",
      "type": "event"
    },
    {
      "anonymous": false,
      "inputs": [
        {
          "indexed": false,
          "internalType": "uint128",
          "name": "_currentScale",
          "type": "uint128"
        }
      ],
      "name": "ScaleUpdated",
      "type": "event"
    },
    {
      "anonymous": false,
      "inputs": [
        {
          "indexed": false,
          "internalType": "address",
          "name": "_newSortedTrovesAddress",
          "type": "address"
        }
      ],
      "name": "SortedTrovesAddressChanged",
      "type": "event"
    },
    {
      "anonymous": false,
      "inputs": [
        {
          "indexed": false,
          "internalType": "uint256",
          "name": "_newBalance",
          "type": "uint256"
        }
      ],
      "name": "StabilityPoolCollateralBalanceUpdated",
      "type": "event"
    },
    {
      "anonymous": false,
      "inputs": [
        {
          "indexed": false,
          "internalType": "uint256",
          "name": "_newBalance",
          "type": "uint256"
        }
      ],
      "name": "StabilityPoolMUSDBalanceUpdated",
      "type": "event"
    },
    {
      "anonymous": false,
      "inputs": [
        {
          "indexed": false,
          "internalType": "address",
          "name": "_newTroveManagerAddress",
          "type": "address"
        }
      ],
      "name": "TroveManagerAddressChanged",
      "type": "event"
    },
    {
      "anonymous": false,
      "inputs": [
        {
          "indexed": true,
          "internalType": "address",
          "name": "_depositor",
          "type": "address"
        },
        {
          "indexed": false,
          "internalType": "uint256",
          "name": "_newDeposit",
          "type": "uint256"
        }
      ],
      "name": "UserDepositChanged",
      "type": "event"
    },
    {
      "inputs": [],
      "name": "BORROWING_FEE_FLOOR",
      "outputs": [
        {
          "internalType": "uint256",
          "name": "",
          "type": "uint256"
        }
      ],
      "stateMutability": "view",
      "type": "function"
    },
    {
      "inputs": [],
      "name": "CCR",
      "outputs": [
        {
          "internalType": "uint256",
          "name": "",
          "type": "uint256"
        }
      ],
      "stateMutability": "view",
      "type": "function"
    },
    {
      "inputs": [],
      "name": "DECIMAL_PRECISION",
      "outputs": [
        {
          "internalType": "uint256",
          "name": "",
          "type": "uint256"
        }
      ],
      "stateMutability": "view",
      "type": "function"
    },
    {
      "inputs": [],
      "name": "MCR",
      "outputs": [
        {
          "internalType": "uint256",
          "name": "",
          "type": "uint256"
        }
      ],
      "stateMutability": "view",
      "type": "function"
    },
    {
      "inputs": [],
      "name": "MIN_NET_DEBT",
      "outputs": [
        {
          "internalType": "uint256",
          "name": "",
          "type": "uint256"
        }
      ],
      "stateMutability": "view",
      "type": "function"
    },
    {
      "inputs": [],
      "name": "MUSD_GAS_COMPENSATION",
      "outputs": [
        {
          "internalType": "uint256",
          "name": "",
          "type": "uint256"
        }
      ],
      "stateMutability": "view",
      "type": "function"
    },
    {
      "inputs": [],
      "name": "P",
      "outputs": [
        {
          "internalType": "uint256",
          "name": "",
          "type": "uint256"
        }
      ],
      "stateMutability": "view",
      "type": "function"
    },
    {
      "inputs": [],
      "name": "PERCENT_DIVISOR",
      "outputs": [
        {
          "internalType": "uint256",
          "name": "",
          "type": "uint256"
        }
      ],
      "stateMutability": "view",
      "type": "function"
    },
    {
      "inputs": [],
      "name": "SCALE_FACTOR",
      "outputs": [
        {
          "internalType": "uint256",
          "name": "",
          "type": "uint256"
        }
      ],
      "stateMutability": "view",
      "type": "function"
    },
    {
      "inputs": [],
      "name": "_100pct",
      "outputs": [
        {
          "internalType": "uint256",
          "name": "",
          "type": "uint256"
        }
      ],
      "stateMutability": "view",
      "type": "function"
    },
    {
      "inputs": [],
      "name": "activePool",
      "outputs": [
        {
          "internalType": "contract IActivePool",
          "name": "",
          "type": "address"
        }
      ],
      "stateMutability": "view",
      "type": "function"
    },
    {
      "inputs": [],
      "name": "borrowerOperations",
      "outputs": [
        {
          "internalType": "contract IBorrowerOperations",
          "name": "",
          "type": "address"
        }
      ],
      "stateMutability": "view",
      "type": "function"
    },
    {
      "inputs": [],
      "name": "currentEpoch",
      "outputs": [
        {
          "internalType": "uint128",
          "name": "",
          "type": "uint128"
        }
      ],
      "stateMutability": "view",
      "type": "function"
    },
    {
      "inputs": [],
      "name": "currentScale",
      "outputs": [
        {
          "internalType": "uint128",
          "name": "",
          "type": "uint128"
        }
      ],
      "stateMutability": "view",
      "type": "function"
    },
    {
      "inputs": [],
      "name": "defaultPool",
      "outputs": [
        {
          "internalType": "contract IDefaultPool",
          "name": "",
          "type": "address"
        }
      ],
      "stateMutability": "view",
      "type": "function"
    },
    {
      "inputs": [
        {
          "internalType": "address",
          "name": "",
          "type": "address"
        }
      ],
      "name": "depositSnapshots",
      "outputs": [
        {
          "internalType": "uint256",
          "name": "S",
          "type": "uint256"
        },
        {
          "internalType": "uint256",
          "name": "P",
          "type": "uint256"
        },
        {
          "internalType": "uint128",
          "name": "scale",
          "type": "uint128"
        },
        {
          "internalType": "uint128",
          "name": "epoch",
          "type": "uint128"
        }
      ],
      "stateMutability": "view",
      "type": "function"
    },
    {
      "inputs": [
        {
          "internalType": "address",
          "name": "",
          "type": "address"
        }
      ],
      "name": "deposits",
      "outputs": [
        {
          "internalType": "uint256",
          "name": "",
          "type": "uint256"
        }
      ],
      "stateMutability": "view",
      "type": "function"
    },
    {
      "inputs": [
        {
          "internalType": "uint128",
          "name": "",
          "type": "uint128"
        },
        {
          "internalType": "uint128",
          "name": "",
          "type": "uint128"
        }
      ],
      "name": "epochToScaleToSum",
      "outputs": [
        {
          "internalType": "uint256",
          "name": "",
          "type": "uint256"
        }
      ],
      "stateMutability": "view",
      "type": "function"
    },
    {
      "inputs": [],
      "name": "getCollateralBalance",
      "outputs": [
        {
          "internalType": "uint256",
          "name": "",
          "type": "uint256"
        }
      ],
      "stateMutability": "view",
      "type": "function"
    },
    {
      "inputs": [
        {
          "internalType": "address",
          "name": "_depositor",
          "type": "address"
        }
      ],
      "name": "getCompoundedMUSDDeposit",
      "outputs": [
        {
          "internalType": "uint256",
          "name": "",
          "type": "uint256"
        }
      ],
      "stateMutability": "view",
      "type": "function"
    },
    {
      "inputs": [
        {
          "internalType": "address",
          "name": "_depositor",
          "type": "address"
        }
      ],
      "name": "getDepositorCollateralGain",
      "outputs": [
        {
          "internalType": "uint256",
          "name": "",
          "type": "uint256"
        }
      ],
      "stateMutability": "view",
      "type": "function"
    },
    {
      "inputs": [],
      "name": "getEntireSystemColl",
      "outputs": [
        {
          "internalType": "uint256",
          "name": "entireSystemColl",
          "type": "uint256"
        }
      ],
      "stateMutability": "view",
      "type": "function"
    },
    {
      "inputs": [],
      "name": "getEntireSystemDebt",
      "outputs": [
        {
          "internalType": "uint256",
          "name": "entireSystemDebt",
          "type": "uint256"
        }
      ],
      "stateMutability": "view",
      "type": "function"
    },
    {
      "inputs": [],
      "name": "getTotalMUSDDeposits",
      "outputs": [
        {
          "internalType": "uint256",
          "name": "",
          "type": "uint256"
        }
      ],
      "stateMutability": "view",
      "type": "function"
    },
    {
      "inputs": [],
      "name": "lastCollateralError_Offset",
      "outputs": [
        {
          "internalType": "uint256",
          "name": "",
          "type": "uint256"
        }
      ],
      "stateMutability": "view",
      "type": "function"
    },
    {
      "inputs": [],
      "name": "lastMUSDLossError_Offset",
      "outputs": [
        {
          "internalType": "uint256",
          "name": "",
          "type": "uint256"
        }
      ],
      "stateMutability": "view",
      "type": "function"
    },
    {
      "inputs": [],
      "name": "musd",
      "outputs": [
        {
          "internalType": "contract IMUSD",
          "name": "",
          "type": "address"
        }
      ],
      "stateMutability": "view",
      "type": "function"
    },
    {
      "inputs": [
        {
          "internalType": "uint256",
          "name": "_debtToOffset",
          "type": "uint256"
        },
        {
          "internalType": "uint256",
          "name": "_collToAdd",
          "type": "uint256"
        }
      ],
      "name": "offset",
      "outputs": [],
      "stateMutability": "nonpayable",
      "type": "function"
    },
    {
      "inputs": [],
      "name": "owner",
      "outputs": [
        {
          "internalType": "address",
          "name": "",
          "type": "address"
        }
      ],
      "stateMutability": "view",
      "type": "function"
    },
    {
      "inputs": [],
      "name": "priceFeed",
      "outputs": [
        {
          "internalType": "contract IPriceFeed",
          "name": "",
          "type": "address"
        }
      ],
      "stateMutability": "view",
      "type": "function"
    },
    {
      "inputs": [
        {
          "internalType": "uint256",
          "name": "_amount",
          "type": "uint256"
        }
      ],
      "name": "provideToSP",
      "outputs": [],
      "stateMutability": "nonpayable",
      "type": "function"
    },
    {
      "inputs": [],
      "name": "renounceOwnership",
      "outputs": [],
      "stateMutability": "nonpayable",
      "type": "function"
    },
    {
      "inputs": [
        {
          "internalType": "address",
          "name": "_activePoolAddress",
          "type": "address"
        },
        {
          "internalType": "address",
          "name": "_borrowerOperationsAddress",
          "type": "address"
        },
        {
          "internalType": "address",
          "name": "_musdTokenAddress",
          "type": "address"
        },
        {
          "internalType": "address",
          "name": "_priceFeedAddress",
          "type": "address"
        },
        {
          "internalType": "address",
          "name": "_sortedTrovesAddress",
          "type": "address"
        },
        {
          "internalType": "address",
          "name": "_troveManagerAddress",
          "type": "address"
        }
      ],
      "name": "setAddresses",
      "outputs": [],
      "stateMutability": "nonpayable",
      "type": "function"
    },
    {
      "inputs": [],
      "name": "sortedTroves",
      "outputs": [
        {
          "internalType": "contract ISortedTroves",
          "name": "",
          "type": "address"
        }
      ],
      "stateMutability": "view",
      "type": "function"
    },
    {
      "inputs": [
        {
          "internalType": "address",
          "name": "newOwner",
          "type": "address"
        }
      ],
      "name": "transferOwnership",
      "outputs": [],
      "stateMutability": "nonpayable",
      "type": "function"
    },
    {
      "inputs": [],
      "name": "troveManager",
      "outputs": [
        {
          "internalType": "contract ITroveManager",
          "name": "",
          "type": "address"
        }
      ],
      "stateMutability": "view",
      "type": "function"
    },
    {
      "inputs": [
        {
          "internalType": "address",
          "name": "_upperHint",
          "type": "address"
        },
        {
          "internalType": "address",
          "name": "_lowerHint",
          "type": "address"
        }
      ],
      "name": "withdrawCollateralGainToTrove",
      "outputs": [],
      "stateMutability": "nonpayable",
      "type": "function"
    },
    {
      "inputs": [
        {
          "internalType": "uint256",
          "name": "_amount",
          "type": "uint256"
        }
      ],
      "name": "withdrawFromSP",
      "outputs": [],
      "stateMutability": "nonpayable",
      "type": "function"
    },
    {
      "stateMutability": "payable",
      "type": "receive"
    }
  ],
  "transactionHash": "0x73a3090cbab61ede76b9cc90c6c93d8d5c7d26492c04e0828a24fd89f006fcfa",
  "args": [],
  "numDeployments": 1,
  "solcInputHash": "a5a5924c8769aaafa5a742bdee21ed0e",
  "bytecode": "0x6080604052670de0b6b3a7640000600c5534801561001c57600080fd5b50338061004357604051631e4fbdf760e01b81526000600482015260240160405180910390fd5b61004c81610052565b506100a4565b600380546001600160a01b038381166001600160a01b0319831681179093556040519116919082907f8be0079c531659141344cd1fd0a4f28419497f9722a3daafe3b4186f6b6457e090600090a35050565b612515806100b36000396000f3fe6080604052600436106102085760003560e01c806377553ad4116101135780638c4726eb116100ab578063cab666d01161006f578063cab666d01461069b578063ce4b5bbe146106bb578063f2fde38b146106d3578063f92d3433146106f3578063fc7e286d1461070857600080fd5b80638c4726eb1461061d5780638da5cb5b1461063d578063a20baee61461044a578063a4e59ac81461065b578063ae9187541461067b57600080fd5b806377553ad4146104c557806378c77a24146104e5578063794e572414610505578063795d26c3146105215780637af110ba146105365780637f7dde4a1461055357806386da082414610573578063887105d3146105f25780638b8fbd921461060757600080fd5b80633d83908a116101a15780636cfb6bf9116101655780636cfb6bf914610415578063715018a61461043557806372fe25aa1461044a578063741bef1a14610466578063766718081461048657600080fd5b80633d83908a1461038e5780634870dd9a146103ae5780635733d58f146103c35780635914d0c8146103df578063619aca14146103ff57600080fd5b8062ba85b5146102575780631529a639146102805780631bf435551461029557806328a0a04d146102b25780632e54bf95146102ea578063307d36121461030c578063309077b31461032c578063335525ad146103415780633cc742251461036157600080fd5b3661025257610215610735565b34600960008282546102279190612189565b90915550506009546040519081526000805160206124c08339815191529060200160405180910390a1005b600080fd5b34801561026357600080fd5b5061026d600f5481565b6040519081526020015b60405180910390f35b34801561028c57600080fd5b5060095461026d565b3480156102a157600080fd5b5061026d686194049f30f720000081565b3480156102be57600080fd5b5061026d6102cd3660046121b8565b600e60209081526000928352604080842090915290825290205481565b3480156102f657600080fd5b5061030a6103053660046121eb565b6107a6565b005b34801561031857600080fd5b5061026d610327366004612219565b610883565b34801561033857600080fd5b5060085461026d565b34801561034d57600080fd5b5061030a61035c36600461223d565b610916565b34801561036d57600080fd5b50600154610381906001600160a01b031681565b604051610277919061225f565b34801561039a57600080fd5b50600754610381906001600160a01b031681565b3480156103ba57600080fd5b5061026d60c881565b3480156103cf57600080fd5b5061026d6714d1120d7b16000081565b3480156103eb57600080fd5b5061030a6103fa366004612273565b610963565b34801561040b57600080fd5b5061026d60105481565b34801561042157600080fd5b5061030a6104303660046122ac565b610aff565b34801561044157600080fd5b5061030a610cfa565b34801561045657600080fd5b5061026d670de0b6b3a764000081565b34801561047257600080fd5b50600254610381906001600160a01b031681565b34801561049257600080fd5b50600d546104ad90600160801b90046001600160801b031681565b6040516001600160801b039091168152602001610277565b3480156104d157600080fd5b50600454610381906001600160a01b031681565b3480156104f157600080fd5b5061030a6105003660046121eb565b610d0c565b34801561051157600080fd5b5061026d670f43fc2c04ee000081565b34801561052d57600080fd5b5061026d610dc3565b34801561054257600080fd5b5061026d680ad78ebc5ac620000081565b34801561055f57600080fd5b50600054610381906001600160a01b031681565b34801561057f57600080fd5b506105c361058e366004612219565b600b602052600090815260409020805460018201546002909201549091906001600160801b0380821691600160801b90041684565b6040805194855260208501939093526001600160801b0391821692840192909252166060820152608001610277565b3480156105fe57600080fd5b5061026d610ebf565b34801561061357600080fd5b5061026d600c5481565b34801561062957600080fd5b5061026d610638366004612219565b610f84565b34801561064957600080fd5b506003546001600160a01b0316610381565b34801561066757600080fd5b50600d546104ad906001600160801b031681565b34801561068757600080fd5b50600654610381906001600160a01b031681565b3480156106a757600080fd5b50600554610381906001600160a01b031681565b3480156106c757600080fd5b5061026d633b9aca0081565b3480156106df57600080fd5b5061030a6106ee366004612219565b61100e565b3480156106ff57600080fd5b5061026d61104c565b34801561071457600080fd5b5061026d610723366004612219565b600a6020526000908152604090205481565b6000546001600160a01b031633146107a45760405162461bcd60e51b815260206004820152602760248201527f53746162696c697479506f6f6c3a2043616c6c6572206973206e6f74204163746044820152661a5d99541bdbdb60ca1b60648201526084015b60405180910390fd5b565b80156107b4576107b461106f565b336000908152600a60205260409020546107cd81611265565b60006107d833610883565b905060006107e533610f84565b905060006107f385836112ce565b90506000610801838661232e565b905061080d33836112e8565b6000610819838561232e565b90506108253382611377565b60405181815233906000805160206124a08339815191529060200160405180910390a260408051868152602081018490523391600080516020612480833981519152910160405180910390a261087a856114ae565b50505050505050565b6001600160a01b0381166000908152600a60205260408120548082036108ac5750600092915050565b6001600160a01b0383166000908152600b60209081526040808320815160808101835281548152600182015493810193909352600201546001600160801b0380821692840192909252600160801b90041660608201529061090d8383611535565b95945050505050565b61091e611618565b60085480158061092c575082155b1561093657505050565b600080610944848685611684565b915091506109528282611759565b61095c8486611a32565b5050505050565b336000908152600a602052604090205461097c81611265565b61098533611b62565b61098e33611c6e565b600061099933610883565b905060006109a633610f84565b905060006109b4828561232e565b90506109c03383611377565b60408051848152602081018390523391600080516020612480833981519152910160405180910390a260405182815233906000805160206124a08339815191529060200160405180910390a28260096000828254610a1e919061232e565b90915550506009546040519081526000805160206124c08339815191529060200160405180910390a17f342693d2465f6f44931e41128424a0227e0cbc69d1c3917a839e6de71696d44c3384604051610a78929190612341565b60405180910390a16004805460405163abfad25d60e01b81523392810192909252600060248301526001600160a01b0388811660448401528781166064840152169063abfad25d9085906084016000604051808303818588803b158015610ade57600080fd5b505af1158015610af2573d6000803e3d6000fd5b5050505050505050505050565b610b07611cec565b610b1086611d19565b610b1985611d19565b610b2284611d19565b610b2b83611d19565b610b3482611d19565b610b3d81611d19565b600080546001600160a01b03199081166001600160a01b0389811691909117909255600480548216888416179055600580548216878416179055600280548216868416179055600680548216858416179055600780549091169183169190911790556040517f78f058b189175430c48dc02699e3a0031ea4ff781536dc2fab847de4babdd88290610bcf90889061225f565b60405180910390a17f3ca631ffcd2a9b5d9ae18543fc82f58eb4ca33af9e6ab01b7a8e95331e6ed98585604051610c06919061225f565b60405180910390a17f547e9055f019d1e165f0ca2133494723cb248f8536192c218254285fc43c566884604051610c3d919061225f565b60405180910390a17f8c537274438aa850a330284665d81a85dd38267d09e4050d416bfc94142db26483604051610c74919061225f565b60405180910390a17f65f4cf077bc01e4742eb5ad98326f6e95b63548ea24b17f8d5e823111fe7880082604051610cab919061225f565b60405180910390a17f143219c9e69b09e07e095fcc889b43d8f46ca892bba65f08dc3a0050869a567881604051610ce2919061225f565b60405180910390a1610cf2610cfa565b505050505050565b610d02611cec565b6107a46000611dbe565b610d1581611e10565b336000818152600a602052604081205491610d2f90610883565b90506000610d3c33610f84565b90506000610d4a828561232e565b90506000610d588684612189565b9050610d643382611377565b60405181815233906000805160206124a08339815191529060200160405180910390a260408051858152602081018490523391600080516020612480833981519152910160405180910390a2610dba3387611e6f565b610cf2846114ae565b60008054604080516314a6bf0f60e01b8152905183926001600160a01b0316916314a6bf0f9160048083019260209291908290030181865afa158015610e0d573d6000803e3d6000fd5b505050506040513d601f19601f82011682018060405250810190610e31919061235a565b90506000600160009054906101000a90046001600160a01b03166001600160a01b03166314a6bf0f6040518163ffffffff1660e01b8152600401602060405180830381865afa158015610e88573d6000803e3d6000fd5b505050506040513d601f19601f82011682018060405250810190610eac919061235a565b9050610eb88183612189565b9250505090565b6000805460408051631529a63960e01b8152905183926001600160a01b031691631529a6399160048083019260209291908290030181865afa158015610f09573d6000803e3d6000fd5b505050506040513d601f19601f82011682018060405250810190610f2d919061235a565b90506000600160009054906101000a90046001600160a01b03166001600160a01b0316631529a6396040518163ffffffff1660e01b8152600401602060405180830381865afa158015610e88573d6000803e3d6000fd5b6001600160a01b0381166000908152600a6020526040812054808203610fad5750600092915050565b6001600160a01b0383166000908152600b60209081526040808320815160808101835281548152600182015493810193909352600201546001600160801b0380821692840192909252600160801b90041660608201529061090d8383611f9c565b611016611cec565b6001600160a01b038116611040576000604051631e4fbdf760e01b815260040161079b919061225f565b61104981611dbe565b50565b6103e8611062670de0b6b3a76400006005612373565b61106c919061238a565b81565b60025460408051630fdb11cf60e01b815290516000926001600160a01b031691630fdb11cf916004808301926020929190829003018187875af11580156110ba573d6000803e3d6000fd5b505050506040513d601f19601f820116820180604052508101906110de919061235a565b90506000600660009054906101000a90046001600160a01b03166001600160a01b0316634d6228316040518163ffffffff1660e01b8152600401602060405180830381865afa158015611135573d6000803e3d6000fd5b505050506040513d601f19601f8201168201806040525081019061115991906123ac565b600754604051630d293c7160e41b81529192506000916001600160a01b039091169063d293c710906111919085908790600401612341565b602060405180830381865afa1580156111ae573d6000803e3d6000fd5b505050506040513d601f19601f820116820180604052508101906111d2919061235a565b9050670f43fc2c04ee00008110156112605760405162461bcd60e51b8152602060048201526044602482018190527f53746162696c697479506f6f6c3a2043616e6e6f742077697468647261772077908201527f68696c65207468657265206172652074726f766573207769746820494352203c6064820152631026a1a960e11b608482015260a40161079b565b505050565b600081116110495760405162461bcd60e51b815260206004820152603060248201527f53746162696c697479506f6f6c3a2055736572206d757374206861766520612060448201526f1b9bdb8b5e995c9bc819195c1bdcda5d60821b606482015260840161079b565b60008183106112dd57816112df565b825b90505b92915050565b806000036112f4575050565b60055460405163a9059cbb60e01b81526001600160a01b039091169063a9059cbb906113269085908590600401612341565b6020604051808303816000875af1158015611345573d6000803e3d6000fd5b505050506040513d601f19601f8201168201806040525081019061136991906123c9565b506113738161208c565b5050565b6001600160a01b0382166000908152600a60205260408120829055819003611405576001600160a01b0382166000818152600b602052604080822082815560018101839055600201829055517fc48943df4095f4f20d171fd2872eafdc0eed4d9014ac3672f3bde7fd425449d5916113f9918190918252602082015260400190565b60405180910390a25050565b600d54600c546001600160801b03600160801b80840482166000818152600e6020908152604080832095909716808352948152868220546001600160a01b038a16808452600b8352928890206001810188905581815594840286176002909501949094558651868152908101849052939591949390917fc48943df4095f4f20d171fd2872eafdc0eed4d9014ac3672f3bde7fd425449d5910160405180910390a2505050505050565b806000036114b95750565b6000816009546114c9919061232e565b60098190556040518181529091506000805160206124c08339815191529060200160405180910390a17f342693d2465f6f44931e41128424a0227e0cbc69d1c3917a839e6de71696d44c3383604051611523929190612341565b60405180910390a161137333836120db565b606081015160408083015183516020808601516001600160801b038087166000908152600e8452868120918616815292529381205490949390859061157b90849061232e565b6001600160801b0386166000908152600e6020526040812091925090633b9aca0090826115a98860016123eb565b6001600160801b03166001600160801b03168152602001908152602001600020546115d4919061238a565b90506000670de0b6b3a7640000846115ec8486612189565b6115f6908d612373565b611600919061238a565b61160a919061238a565b9a9950505050505050505050565b6007546001600160a01b031633146107a45760405162461bcd60e51b815260206004820152602960248201527f53746162696c697479506f6f6c3a2043616c6c6572206973206e6f742054726f6044820152683b32a6b0b730b3b2b960b91b606482015260840161079b565b6000806000600f54670de0b6b3a7640000876116a09190612373565b6116aa9190612189565b9050838511156116bc576116bc612412565b8385036116d8576000601055670de0b6b3a7640000915061172d565b6010546000906116f0670de0b6b3a764000088612373565b6116fa919061232e565b9050611706858261238a565b611711906001612189565b92508061171e8685612373565b611728919061232e565b601055505b611737848261238a565b92506117438484612373565b61174d908261232e565b600f5550935093915050565b600c546000670de0b6b3a764000083111561177657611776612412565b600061178a84670de0b6b3a764000061232e565b600d546001600160801b03600160801b820481166000818152600e602090815260408083209490951680835293905292832054939450909290916117ce878a612373565b905060006117dc8284612189565b6001600160801b038581166000818152600e60209081526040808320948b16808452948252918290208590558151858152908101929092528101919091529091507f070343c785d5991a4938bacac9bfba86825bb9e467be0eadc6a6d15e44d9bd879060600160405180910390a1856000036119065761185d8460016123eb565b600d80546001600160801b03908116600160801b93821684021791829055604051929091041681527fb50f0f59e7cb5b421dc77581c3a9919e3806e076e5fa78a874c3f120cb7d874d9060200160405180910390a1600d80546001600160801b0319169055604051600081527f1f9dfc70cd666adb18a39d60a797518f7b4febf4b6e24ef37d44f6e1e7219fbe9060200160405180910390a1670de0b6b3a764000096506119de565b633b9aca00670de0b6b3a764000061191e888b612373565b611928919061238a565b10156119be57670de0b6b3a7640000633b9aca00611946888b612373565b6119509190612373565b61195a919061238a565b96506119678560016123eb565b600d80546001600160801b0319166001600160801b039290921691821790556040519081527f1f9dfc70cd666adb18a39d60a797518f7b4febf4b6e24ef37d44f6e1e7219fbe9060200160405180910390a16119de565b670de0b6b3a76400006119d1878a612373565b6119db919061238a565b96505b600087116119ee576119ee612412565b600c8790556040518781527fe8ab4c88569ba3c05662fd0804472de2f88b936d15c00495f8e13a82cca7a2349060200160405180910390a150505050505050505050565b6000805460405163ab11fadd60e01b81526004810184905260248101929092526001600160a01b031690819063ab11fadd90604401600060405180830381600087803b158015611a8157600080fd5b505af1158015611a95573d6000803e3d6000fd5b50505050611aa28261208c565b600554604051632770a7eb60e21b81526001600160a01b0390911690639dc29fac90611ad49030908690600401612341565b600060405180830381600087803b158015611aee57600080fd5b505af1158015611b02573d6000803e3d6000fd5b5050604051636250216960e01b81526001600160a01b038416925063625021699150611b349030908790600401612341565b600060405180830381600087803b158015611b4e57600080fd5b505af115801561087a573d6000803e3d6000fd5b6007546040516321e3780160e01b81526001916001600160a01b0316906321e3780190611b9390859060040161225f565b602060405180830381865afa158015611bb0573d6000803e3d6000fd5b505050506040513d601f19601f82011682018060405250810190611bd4919061243e565b6004811115611be557611be5612428565b146110495760405162461bcd60e51b815260206004820152604d60248201527f53746162696c697479506f6f6c3a2063616c6c6572206d75737420686176652060448201527f616e206163746976652074726f766520746f20776974686472617720636f6c6c60648201526c61746572616c4761696e20746f60981b608482015260a40161079b565b6000611c7982610883565b9050600081116113735760405162461bcd60e51b815260206004820152603860248201527f53746162696c697479506f6f6c3a2063616c6c6572206d7573742068617665206044820152773737b716bd32b9379031b7b63630ba32b930b61023b0b4b760411b606482015260840161079b565b6003546001600160a01b031633146107a4573360405163118cdaa760e01b815260040161079b919061225f565b6001600160a01b038116611d6f5760405162461bcd60e51b815260206004820152601e60248201527f4163636f756e742063616e6e6f74206265207a65726f20616464726573730000604482015260640161079b565b803b806113735760405162461bcd60e51b815260206004820181905260248201527f4163636f756e7420636f64652073697a652063616e6e6f74206265207a65726f604482015260640161079b565b600380546001600160a01b038381166001600160a01b0319831681179093556040519116919082907f8be0079c531659141344cd1fd0a4f28419497f9722a3daafe3b4186f6b6457e090600090a35050565b600081116110495760405162461bcd60e51b815260206004820152602660248201527f53746162696c697479506f6f6c3a20416d6f756e74206d757374206265206e6f6044820152656e2d7a65726f60d01b606482015260840161079b565b600081600854611e7f9190612189565b60088190556040518181529091507ffb502a10a442e29149185372d74b953304b5bc0a0d9d431c070905d3dfbc89e39060200160405180910390a16005546040516323b872dd60e01b81526001600160a01b0385811660048301523060248301526044820185905260009216906323b872dd906064016020604051808303816000875af1158015611f14573d6000803e3d6000fd5b505050506040513d601f19601f82011682018060405250810190611f3891906123c9565b905080611f965760405162461bcd60e51b815260206004820152602660248201527f4d55534420776173206e6f74207472616e736665727265642073756363657373604482015265333ab6363c9760d11b606482015260840161079b565b50505050565b602081015160408201516060830151600d546000939291906001600160801b03600160801b90910481169082161015611fdb57600093505050506112e2565b600d546000908190611ff79085906001600160801b031661245f565b9050806001600160801b031660000361202a5784600c54896120199190612373565b612023919061238a565b915061205e565b806001600160801b031660010361205957633b9aca0085600c548a61204f9190612373565b612019919061238a565b600091505b61206c633b9aca008961238a565b821015612081576000955050505050506112e2565b509695505050505050565b60008160085461209c919061232e565b60088190556040518181529091507ffb502a10a442e29149185372d74b953304b5bc0a0d9d431c070905d3dfbc89e39060200160405180910390a15050565b6000826001600160a01b03168260405160006040518083038185875af1925050503d8060008114612128576040519150601f19603f3d011682016040523d82523d6000602084013e61212d565b606091505b50509050806112605760405162461bcd60e51b815260206004820152601260248201527114d95b991a5b99c8109510c819985a5b195960721b604482015260640161079b565b634e487b7160e01b600052601160045260246000fd5b808201808211156112e2576112e2612173565b80356001600160801b03811681146121b357600080fd5b919050565b600080604083850312156121cb57600080fd5b6121d48361219c565b91506121e26020840161219c565b90509250929050565b6000602082840312156121fd57600080fd5b5035919050565b6001600160a01b038116811461104957600080fd5b60006020828403121561222b57600080fd5b813561223681612204565b9392505050565b6000806040838503121561225057600080fd5b50508035926020909101359150565b6001600160a01b0391909116815260200190565b6000806040838503121561228657600080fd5b823561229181612204565b915060208301356122a181612204565b809150509250929050565b60008060008060008060c087890312156122c557600080fd5b86356122d081612204565b955060208701356122e081612204565b945060408701356122f081612204565b9350606087013561230081612204565b9250608087013561231081612204565b915060a087013561232081612204565b809150509295509295509295565b818103818111156112e2576112e2612173565b6001600160a01b03929092168252602082015260400190565b60006020828403121561236c57600080fd5b5051919050565b80820281158282048414176112e2576112e2612173565b6000826123a757634e487b7160e01b600052601260045260246000fd5b500490565b6000602082840312156123be57600080fd5b815161223681612204565b6000602082840312156123db57600080fd5b8151801515811461223657600080fd5b6001600160801b0381811683821601908082111561240b5761240b612173565b5092915050565b634e487b7160e01b600052600160045260246000fd5b634e487b7160e01b600052602160045260246000fd5b60006020828403121561245057600080fd5b81516005811061223657600080fd5b6001600160801b0382811682821603908082111561240b5761240b61217356fe47647c495a7db9471a1b024b3c6f7555a502a0de4b130d83a4d3c8f9cff25939bce78369dccab09eec1986f4d409ab09ffbb47d65423e5148fcf98411c5111c95745610f99463e502f9c3333585fe329b498e36b00b8c1bdfd8dc87dfe35b5eaa264697066735822122009c81938348c92517eca4d962073fd41a2445c3bcce8a95bfec7a2732ff266c264736f6c63430008180033",
  "devdoc": {
    "errors": {
      "OwnableInvalidOwner(address)": [
        {
          "details": "The owner is not a valid owner account. (eg. `address(0)`)"
        }
      ],
      "OwnableUnauthorizedAccount(address)": [
        {
          "details": "The caller account is not authorized to perform an operation."
        }
      ]
    },
    "kind": "dev",
    "methods": {
      "owner()": {
        "details": "Returns the address of the current owner."
      },
      "renounceOwnership()": {
        "details": "Leaves the contract without owner. It will not be possible to call `onlyOwner` functions. Can only be called by the current owner. NOTE: Renouncing ownership will leave the contract without an owner, thereby disabling any functionality that is only available to the owner."
      },
      "transferOwnership(address)": {
        "details": "Transfers ownership of the contract to a new account (`newOwner`). Can only be called by the current owner."
      }
    },
    "version": 1
  },
  "userdoc": {
    "kind": "user",
    "methods": {},
    "version": 1
  },
  "storageLayout": {
    "storage": [
      {
        "astId": 26367,
        "contract": "contracts/StabilityPool.sol:StabilityPool",
        "label": "activePool",
        "offset": 0,
        "slot": "0",
        "type": "t_contract(IActivePool)26847"
      },
      {
        "astId": 26370,
        "contract": "contracts/StabilityPool.sol:StabilityPool",
        "label": "defaultPool",
        "offset": 0,
        "slot": "1",
        "type": "t_contract(IDefaultPool)27174"
      },
      {
        "astId": 26374,
        "contract": "contracts/StabilityPool.sol:StabilityPool",
        "label": "priceFeed",
        "offset": 0,
        "slot": "2",
        "type": "t_contract(IPriceFeed)27579"
      },
      {
        "astId": 8,
        "contract": "contracts/StabilityPool.sol:StabilityPool",
        "label": "_owner",
        "offset": 0,
        "slot": "3",
        "type": "t_address"
      },
      {
        "astId": 10293,
        "contract": "contracts/StabilityPool.sol:StabilityPool",
        "label": "borrowerOperations",
        "offset": 0,
        "slot": "4",
        "type": "t_contract(IBorrowerOperations)27084"
      },
      {
        "astId": 10296,
        "contract": "contracts/StabilityPool.sol:StabilityPool",
        "label": "musd",
        "offset": 0,
        "slot": "5",
        "type": "t_contract(IMUSD)28865"
      },
      {
        "astId": 10299,
        "contract": "contracts/StabilityPool.sol:StabilityPool",
        "label": "sortedTroves",
        "offset": 0,
        "slot": "6",
        "type": "t_contract(ISortedTroves)27727"
      },
      {
        "astId": 10302,
        "contract": "contracts/StabilityPool.sol:StabilityPool",
        "label": "troveManager",
        "offset": 0,
        "slot": "7",
        "type": "t_contract(ITroveManager)28380"
      },
      {
        "astId": 10304,
        "contract": "contracts/StabilityPool.sol:StabilityPool",
        "label": "totalMUSDDeposits",
        "offset": 0,
        "slot": "8",
        "type": "t_uint256"
      },
      {
        "astId": 10306,
        "contract": "contracts/StabilityPool.sol:StabilityPool",
        "label": "collateral",
        "offset": 0,
        "slot": "9",
        "type": "t_uint256"
      },
      {
        "astId": 10310,
        "contract": "contracts/StabilityPool.sol:StabilityPool",
        "label": "deposits",
        "offset": 0,
        "slot": "10",
        "type": "t_mapping(t_address,t_uint256)"
      },
      {
        "astId": 10315,
        "contract": "contracts/StabilityPool.sol:StabilityPool",
        "label": "depositSnapshots",
        "offset": 0,
        "slot": "11",
        "type": "t_mapping(t_address,t_struct(Snapshots)10287_storage)"
      },
      {
        "astId": 10318,
        "contract": "contracts/StabilityPool.sol:StabilityPool",
        "label": "P",
        "offset": 0,
        "slot": "12",
        "type": "t_uint256"
      },
      {
        "astId": 10320,
        "contract": "contracts/StabilityPool.sol:StabilityPool",
        "label": "currentScale",
        "offset": 0,
        "slot": "13",
        "type": "t_uint128"
      },
      {
        "astId": 10322,
        "contract": "contracts/StabilityPool.sol:StabilityPool",
        "label": "currentEpoch",
        "offset": 16,
        "slot": "13",
        "type": "t_uint128"
      },
      {
        "astId": 10328,
        "contract": "contracts/StabilityPool.sol:StabilityPool",
        "label": "epochToScaleToSum",
        "offset": 0,
        "slot": "14",
        "type": "t_mapping(t_uint128,t_mapping(t_uint128,t_uint256))"
      },
      {
        "astId": 10330,
        "contract": "contracts/StabilityPool.sol:StabilityPool",
        "label": "lastCollateralError_Offset",
        "offset": 0,
        "slot": "15",
        "type": "t_uint256"
      },
      {
        "astId": 10332,
        "contract": "contracts/StabilityPool.sol:StabilityPool",
        "label": "lastMUSDLossError_Offset",
        "offset": 0,
        "slot": "16",
        "type": "t_uint256"
      }
    ],
    "types": {
      "t_address": {
        "encoding": "inplace",
        "label": "address",
        "numberOfBytes": "20"
      },
      "t_contract(IActivePool)26847": {
        "encoding": "inplace",
        "label": "contract IActivePool",
        "numberOfBytes": "20"
      },
      "t_contract(IBorrowerOperations)27084": {
        "encoding": "inplace",
        "label": "contract IBorrowerOperations",
        "numberOfBytes": "20"
      },
      "t_contract(IDefaultPool)27174": {
        "encoding": "inplace",
        "label": "contract IDefaultPool",
        "numberOfBytes": "20"
      },
      "t_contract(IMUSD)28865": {
        "encoding": "inplace",
        "label": "contract IMUSD",
        "numberOfBytes": "20"
      },
      "t_contract(IPriceFeed)27579": {
        "encoding": "inplace",
        "label": "contract IPriceFeed",
        "numberOfBytes": "20"
      },
      "t_contract(ISortedTroves)27727": {
        "encoding": "inplace",
        "label": "contract ISortedTroves",
        "numberOfBytes": "20"
      },
      "t_contract(ITroveManager)28380": {
        "encoding": "inplace",
        "label": "contract ITroveManager",
        "numberOfBytes": "20"
      },
      "t_mapping(t_address,t_struct(Snapshots)10287_storage)": {
        "encoding": "mapping",
        "key": "t_address",
        "label": "mapping(address => struct StabilityPool.Snapshots)",
        "numberOfBytes": "32",
        "value": "t_struct(Snapshots)10287_storage"
      },
      "t_mapping(t_address,t_uint256)": {
        "encoding": "mapping",
        "key": "t_address",
        "label": "mapping(address => uint256)",
        "numberOfBytes": "32",
        "value": "t_uint256"
      },
      "t_mapping(t_uint128,t_mapping(t_uint128,t_uint256))": {
        "encoding": "mapping",
        "key": "t_uint128",
        "label": "mapping(uint128 => mapping(uint128 => uint256))",
        "numberOfBytes": "32",
        "value": "t_mapping(t_uint128,t_uint256)"
      },
      "t_mapping(t_uint128,t_uint256)": {
        "encoding": "mapping",
        "key": "t_uint128",
        "label": "mapping(uint128 => uint256)",
        "numberOfBytes": "32",
        "value": "t_uint256"
      },
      "t_struct(Snapshots)10287_storage": {
        "encoding": "inplace",
        "label": "struct StabilityPool.Snapshots",
        "members": [
          {
            "astId": 10280,
            "contract": "contracts/StabilityPool.sol:StabilityPool",
            "label": "S",
            "offset": 0,
            "slot": "0",
            "type": "t_uint256"
          },
          {
            "astId": 10282,
            "contract": "contracts/StabilityPool.sol:StabilityPool",
            "label": "P",
            "offset": 0,
            "slot": "1",
            "type": "t_uint256"
          },
          {
            "astId": 10284,
            "contract": "contracts/StabilityPool.sol:StabilityPool",
            "label": "scale",
            "offset": 0,
            "slot": "2",
            "type": "t_uint128"
          },
          {
            "astId": 10286,
            "contract": "contracts/StabilityPool.sol:StabilityPool",
            "label": "epoch",
            "offset": 16,
            "slot": "2",
            "type": "t_uint128"
          }
        ],
        "numberOfBytes": "96"
      },
      "t_uint128": {
        "encoding": "inplace",
        "label": "uint128",
        "numberOfBytes": "16"
      },
      "t_uint256": {
        "encoding": "inplace",
        "label": "uint256",
        "numberOfBytes": "32"
      }
    }
  }
}