{
  "address": "0x3DaD300A888CE2c31925079c1EBEb54feEE847B9",
  "abi": [
    {
      "inputs": [
        {
          "internalType": "address",
          "name": "owner",
          "type": "address"
        }
      ],
      "name": "OwnableInvalidOwner",
      "type": "error"
    },
    {
      "inputs": [
        {
          "internalType": "address",
          "name": "account",
          "type": "address"
        }
      ],
      "name": "OwnableUnauthorizedAccount",
      "type": "error"
    },
    {
      "anonymous": false,
      "inputs": [
        {
          "indexed": false,
          "internalType": "address",
          "name": "_activePoolAddress",
          "type": "address"
        }
      ],
      "name": "ActivePoolAddressChanged",
      "type": "event"
    },
    {
      "anonymous": false,
      "inputs": [
        {
          "indexed": false,
          "internalType": "uint256",
          "name": "_baseRate",
          "type": "uint256"
        }
      ],
      "name": "BaseRateUpdated",
      "type": "event"
    },
    {
      "anonymous": false,
      "inputs": [
        {
          "indexed": false,
          "internalType": "address",
          "name": "_newBorrowerOperationsAddress",
          "type": "address"
        }
      ],
      "name": "BorrowerOperationsAddressChanged",
      "type": "event"
    },
    {
      "anonymous": false,
      "inputs": [
        {
          "indexed": false,
          "internalType": "address",
          "name": "_collSurplusPoolAddress",
          "type": "address"
        }
      ],
      "name": "CollSurplusPoolAddressChanged",
      "type": "event"
    },
    {
      "anonymous": false,
      "inputs": [
        {
          "indexed": false,
          "internalType": "address",
          "name": "_defaultPoolAddress",
          "type": "address"
        }
      ],
      "name": "DefaultPoolAddressChanged",
      "type": "event"
    },
    {
      "anonymous": false,
      "inputs": [
        {
          "indexed": false,
          "internalType": "address",
          "name": "_gasPoolAddress",
          "type": "address"
        }
      ],
      "name": "GasPoolAddressChanged",
      "type": "event"
    },
    {
      "anonymous": false,
      "inputs": [
        {
          "indexed": false,
          "internalType": "address",
          "name": "_interestRateManagerAddress",
          "type": "address"
        }
      ],
      "name": "InterestRateManagerAddressChanged",
      "type": "event"
    },
    {
      "anonymous": false,
      "inputs": [
        {
          "indexed": false,
          "internalType": "uint256",
          "name": "_L_Collateral",
          "type": "uint256"
        },
        {
          "indexed": false,
          "internalType": "uint256",
          "name": "_L_Principal",
          "type": "uint256"
        },
        {
          "indexed": false,
          "internalType": "uint256",
          "name": "_L_Interest",
          "type": "uint256"
        }
      ],
      "name": "LTermsUpdated",
      "type": "event"
    },
    {
      "anonymous": false,
      "inputs": [
        {
          "indexed": false,
          "internalType": "uint256",
          "name": "_lastFeeOpTime",
          "type": "uint256"
        }
      ],
      "name": "LastFeeOpTimeUpdated",
      "type": "event"
    },
    {
      "anonymous": false,
      "inputs": [
        {
          "indexed": false,
          "internalType": "uint256",
          "name": "_liquidatedPrincipal",
          "type": "uint256"
        },
        {
          "indexed": false,
          "internalType": "uint256",
          "name": "_liquidatedInterest",
          "type": "uint256"
        },
        {
          "indexed": false,
          "internalType": "uint256",
          "name": "_liquidatedColl",
          "type": "uint256"
        },
        {
          "indexed": false,
          "internalType": "uint256",
          "name": "_collGasCompensation",
          "type": "uint256"
        },
        {
          "indexed": false,
          "internalType": "uint256",
          "name": "_gasCompensation",
          "type": "uint256"
        }
      ],
      "name": "Liquidation",
      "type": "event"
    },
    {
      "anonymous": false,
      "inputs": [
        {
          "indexed": false,
          "internalType": "address",
          "name": "_newMUSDTokenAddress",
          "type": "address"
        }
      ],
      "name": "MUSDTokenAddressChanged",
      "type": "event"
    },
    {
      "anonymous": false,
      "inputs": [
        {
          "indexed": true,
          "internalType": "address",
          "name": "previousOwner",
          "type": "address"
        },
        {
          "indexed": true,
          "internalType": "address",
          "name": "newOwner",
          "type": "address"
        }
      ],
      "name": "OwnershipTransferred",
      "type": "event"
    },
    {
      "anonymous": false,
      "inputs": [
        {
          "indexed": false,
          "internalType": "address",
          "name": "_pcvAddress",
          "type": "address"
        }
      ],
      "name": "PCVAddressChanged",
      "type": "event"
    },
    {
      "anonymous": false,
      "inputs": [
        {
          "indexed": false,
          "internalType": "address",
          "name": "_newPriceFeedAddress",
          "type": "address"
        }
      ],
      "name": "PriceFeedAddressChanged",
      "type": "event"
    },
    {
      "anonymous": false,
      "inputs": [
        {
          "indexed": false,
          "internalType": "uint256",
          "name": "_attemptedAmount",
          "type": "uint256"
        },
        {
          "indexed": false,
          "internalType": "uint256",
          "name": "_actualAmount",
          "type": "uint256"
        },
        {
          "indexed": false,
          "internalType": "uint256",
          "name": "_collateralSent",
          "type": "uint256"
        },
        {
          "indexed": false,
          "internalType": "uint256",
          "name": "_collateralFee",
          "type": "uint256"
        }
      ],
      "name": "Redemption",
      "type": "event"
    },
    {
      "anonymous": false,
      "inputs": [
        {
          "indexed": false,
          "internalType": "address",
          "name": "_sortedTrovesAddress",
          "type": "address"
        }
      ],
      "name": "SortedTrovesAddressChanged",
      "type": "event"
    },
    {
      "anonymous": false,
      "inputs": [
        {
          "indexed": false,
          "internalType": "address",
          "name": "_stabilityPoolAddress",
          "type": "address"
        }
      ],
      "name": "StabilityPoolAddressChanged",
      "type": "event"
    },
    {
      "anonymous": false,
      "inputs": [
        {
          "indexed": false,
          "internalType": "uint256",
          "name": "_totalStakesSnapshot",
          "type": "uint256"
        },
        {
          "indexed": false,
          "internalType": "uint256",
          "name": "_totalCollateralSnapshot",
          "type": "uint256"
        }
      ],
      "name": "SystemSnapshotsUpdated",
      "type": "event"
    },
    {
      "anonymous": false,
      "inputs": [
        {
          "indexed": false,
          "internalType": "uint256",
          "name": "_newTotalStakes",
          "type": "uint256"
        }
      ],
      "name": "TotalStakesUpdated",
      "type": "event"
    },
    {
      "anonymous": false,
      "inputs": [
        {
          "indexed": false,
          "internalType": "address",
          "name": "_borrower",
          "type": "address"
        },
        {
          "indexed": false,
          "internalType": "uint256",
          "name": "_newIndex",
          "type": "uint256"
        }
      ],
      "name": "TroveIndexUpdated",
      "type": "event"
    },
    {
      "anonymous": false,
      "inputs": [
        {
          "indexed": true,
          "internalType": "address",
          "name": "_borrower",
          "type": "address"
        },
        {
          "indexed": false,
          "internalType": "uint256",
          "name": "_debt",
          "type": "uint256"
        },
        {
          "indexed": false,
          "internalType": "uint256",
          "name": "_coll",
          "type": "uint256"
        },
        {
          "indexed": false,
          "internalType": "uint8",
          "name": "operation",
          "type": "uint8"
        }
      ],
      "name": "TroveLiquidated",
      "type": "event"
    },
    {
      "anonymous": false,
      "inputs": [
        {
          "indexed": false,
          "internalType": "uint256",
          "name": "_L_Collateral",
          "type": "uint256"
        },
        {
          "indexed": false,
          "internalType": "uint256",
          "name": "_L_Principal",
          "type": "uint256"
        },
        {
          "indexed": false,
          "internalType": "uint256",
          "name": "_L_Interest",
          "type": "uint256"
        }
      ],
      "name": "TroveSnapshotsUpdated",
      "type": "event"
    },
    {
      "anonymous": false,
      "inputs": [
        {
          "indexed": true,
          "internalType": "address",
          "name": "_borrower",
          "type": "address"
        },
        {
          "indexed": false,
          "internalType": "uint256",
          "name": "_principal",
          "type": "uint256"
        },
        {
          "indexed": false,
          "internalType": "uint256",
          "name": "_interest",
          "type": "uint256"
        },
        {
          "indexed": false,
          "internalType": "uint256",
          "name": "_coll",
          "type": "uint256"
        },
        {
          "indexed": false,
          "internalType": "uint256",
          "name": "stake",
          "type": "uint256"
        },
        {
          "indexed": false,
          "internalType": "uint8",
          "name": "operation",
          "type": "uint8"
        }
      ],
      "name": "TroveUpdated",
      "type": "event"
    },
    {
      "inputs": [],
      "name": "BETA",
      "outputs": [
        {
          "internalType": "uint256",
          "name": "",
          "type": "uint256"
        }
      ],
      "stateMutability": "view",
      "type": "function"
    },
    {
      "inputs": [],
      "name": "BORROWING_FEE_FLOOR",
      "outputs": [
        {
          "internalType": "uint256",
          "name": "",
          "type": "uint256"
        }
      ],
      "stateMutability": "view",
      "type": "function"
    },
    {
      "inputs": [],
      "name": "CCR",
      "outputs": [
        {
          "internalType": "uint256",
          "name": "",
          "type": "uint256"
        }
      ],
      "stateMutability": "view",
      "type": "function"
    },
    {
      "inputs": [],
      "name": "DECIMAL_PRECISION",
      "outputs": [
        {
          "internalType": "uint256",
          "name": "",
          "type": "uint256"
        }
      ],
      "stateMutability": "view",
      "type": "function"
    },
    {
      "inputs": [],
      "name": "L_Collateral",
      "outputs": [
        {
          "internalType": "uint256",
          "name": "",
          "type": "uint256"
        }
      ],
      "stateMutability": "view",
      "type": "function"
    },
    {
      "inputs": [],
      "name": "L_Interest",
      "outputs": [
        {
          "internalType": "uint256",
          "name": "",
          "type": "uint256"
        }
      ],
      "stateMutability": "view",
      "type": "function"
    },
    {
      "inputs": [],
      "name": "L_Principal",
      "outputs": [
        {
          "internalType": "uint256",
          "name": "",
          "type": "uint256"
        }
      ],
      "stateMutability": "view",
      "type": "function"
    },
    {
      "inputs": [],
      "name": "MAX_BORROWING_FEE",
      "outputs": [
        {
          "internalType": "uint256",
          "name": "",
          "type": "uint256"
        }
      ],
      "stateMutability": "view",
      "type": "function"
    },
    {
      "inputs": [],
      "name": "MCR",
      "outputs": [
        {
          "internalType": "uint256",
          "name": "",
          "type": "uint256"
        }
      ],
      "stateMutability": "view",
      "type": "function"
    },
    {
      "inputs": [],
      "name": "MINUTE_DECAY_FACTOR",
      "outputs": [
        {
          "internalType": "uint256",
          "name": "",
          "type": "uint256"
        }
      ],
      "stateMutability": "view",
      "type": "function"
    },
    {
      "inputs": [],
      "name": "MIN_NET_DEBT",
      "outputs": [
        {
          "internalType": "uint256",
          "name": "",
          "type": "uint256"
        }
      ],
      "stateMutability": "view",
      "type": "function"
    },
    {
      "inputs": [],
      "name": "MUSD_GAS_COMPENSATION",
      "outputs": [
        {
          "internalType": "uint256",
          "name": "",
          "type": "uint256"
        }
      ],
      "stateMutability": "view",
      "type": "function"
    },
    {
      "inputs": [],
      "name": "PERCENT_DIVISOR",
      "outputs": [
        {
          "internalType": "uint256",
          "name": "",
          "type": "uint256"
        }
      ],
      "stateMutability": "view",
      "type": "function"
    },
    {
      "inputs": [],
      "name": "REDEMPTION_FEE_FLOOR",
      "outputs": [
        {
          "internalType": "uint256",
          "name": "",
          "type": "uint256"
        }
      ],
      "stateMutability": "view",
      "type": "function"
    },
    {
      "inputs": [
        {
          "internalType": "uint256",
          "name": "",
          "type": "uint256"
        }
      ],
      "name": "TroveOwners",
      "outputs": [
        {
          "internalType": "address",
          "name": "",
          "type": "address"
        }
      ],
      "stateMutability": "view",
      "type": "function"
    },
    {
      "inputs": [
        {
          "internalType": "address",
          "name": "",
          "type": "address"
        }
      ],
      "name": "Troves",
      "outputs": [
        {
          "internalType": "uint256",
          "name": "coll",
          "type": "uint256"
        },
        {
          "internalType": "uint256",
          "name": "principal",
          "type": "uint256"
        },
        {
          "internalType": "uint256",
          "name": "interestOwed",
          "type": "uint256"
        },
        {
          "internalType": "uint256",
          "name": "stake",
          "type": "uint256"
        },
        {
          "internalType": "enum ITroveManager.Status",
          "name": "status",
          "type": "uint8"
        },
        {
          "internalType": "uint16",
          "name": "interestRate",
          "type": "uint16"
        },
        {
          "internalType": "uint256",
          "name": "lastInterestUpdateTime",
          "type": "uint256"
        },
        {
          "internalType": "uint256",
          "name": "maxBorrowingCapacity",
          "type": "uint256"
        },
        {
          "internalType": "uint128",
          "name": "arrayIndex",
          "type": "uint128"
        }
      ],
      "stateMutability": "view",
      "type": "function"
    },
    {
      "inputs": [],
      "name": "_100pct",
      "outputs": [
        {
          "internalType": "uint256",
          "name": "",
          "type": "uint256"
        }
      ],
      "stateMutability": "view",
      "type": "function"
    },
    {
      "inputs": [],
      "name": "activePool",
      "outputs": [
        {
          "internalType": "contract IActivePool",
          "name": "",
          "type": "address"
        }
      ],
      "stateMutability": "view",
      "type": "function"
    },
    {
      "inputs": [
        {
          "internalType": "address",
          "name": "_borrower",
          "type": "address"
        }
      ],
      "name": "addTroveOwnerToArray",
      "outputs": [
        {
          "internalType": "uint256",
          "name": "index",
          "type": "uint256"
        }
      ],
      "stateMutability": "nonpayable",
      "type": "function"
    },
    {
      "inputs": [
        {
          "internalType": "address",
          "name": "_borrower",
          "type": "address"
        }
      ],
      "name": "applyPendingRewards",
      "outputs": [],
      "stateMutability": "nonpayable",
      "type": "function"
    },
    {
      "inputs": [],
      "name": "baseRate",
      "outputs": [
        {
          "internalType": "uint256",
          "name": "",
          "type": "uint256"
        }
      ],
      "stateMutability": "view",
      "type": "function"
    },
    {
      "inputs": [
        {
          "internalType": "address[]",
          "name": "_troveArray",
          "type": "address[]"
        }
      ],
      "name": "batchLiquidateTroves",
      "outputs": [],
      "stateMutability": "nonpayable",
      "type": "function"
    },
    {
      "inputs": [],
      "name": "borrowerOperationsAddress",
      "outputs": [
        {
          "internalType": "address",
          "name": "",
          "type": "address"
        }
      ],
      "stateMutability": "view",
      "type": "function"
    },
    {
      "inputs": [],
      "name": "callUpdateDefaultPoolInterest",
      "outputs": [],
      "stateMutability": "nonpayable",
      "type": "function"
    },
    {
      "inputs": [
        {
          "internalType": "uint256",
          "name": "_price",
          "type": "uint256"
        }
      ],
      "name": "checkRecoveryMode",
      "outputs": [
        {
          "internalType": "bool",
          "name": "",
          "type": "bool"
        }
      ],
      "stateMutability": "view",
      "type": "function"
    },
    {
      "inputs": [
        {
          "internalType": "address",
          "name": "_borrower",
          "type": "address"
        }
      ],
      "name": "closeTrove",
      "outputs": [],
      "stateMutability": "nonpayable",
      "type": "function"
    },
    {
      "inputs": [],
      "name": "collSurplusPool",
      "outputs": [
        {
          "internalType": "contract ICollSurplusPool",
          "name": "",
          "type": "address"
        }
      ],
      "stateMutability": "view",
      "type": "function"
    },
    {
      "inputs": [
        {
          "internalType": "uint256",
          "name": "_coll",
          "type": "uint256"
        },
        {
          "internalType": "uint256",
          "name": "_debt",
          "type": "uint256"
        },
        {
          "internalType": "uint256",
          "name": "_price",
          "type": "uint256"
        }
      ],
      "name": "computeICR",
      "outputs": [
        {
          "internalType": "uint256",
          "name": "",
          "type": "uint256"
        }
      ],
      "stateMutability": "pure",
      "type": "function"
    },
    {
      "inputs": [],
      "name": "decayBaseRateFromBorrowing",
      "outputs": [],
      "stateMutability": "nonpayable",
      "type": "function"
    },
    {
      "inputs": [
        {
          "internalType": "address",
          "name": "_borrower",
          "type": "address"
        },
        {
          "internalType": "uint256",
          "name": "_collDecrease",
          "type": "uint256"
        }
      ],
      "name": "decreaseTroveColl",
      "outputs": [
        {
          "internalType": "uint256",
          "name": "",
          "type": "uint256"
        }
      ],
      "stateMutability": "nonpayable",
      "type": "function"
    },
    {
      "inputs": [
        {
          "internalType": "address",
          "name": "_borrower",
          "type": "address"
        },
        {
          "internalType": "uint256",
          "name": "_debtDecrease",
          "type": "uint256"
        }
      ],
      "name": "decreaseTroveDebt",
      "outputs": [
        {
          "internalType": "uint256",
          "name": "",
          "type": "uint256"
        },
        {
          "internalType": "uint256",
          "name": "",
          "type": "uint256"
        }
      ],
      "stateMutability": "nonpayable",
      "type": "function"
    },
    {
      "inputs": [],
      "name": "defaultPool",
      "outputs": [
        {
          "internalType": "contract IDefaultPool",
          "name": "",
          "type": "address"
        }
      ],
      "stateMutability": "view",
      "type": "function"
    },
    {
      "inputs": [],
      "name": "gasPoolAddress",
      "outputs": [
        {
          "internalType": "address",
          "name": "",
          "type": "address"
        }
      ],
      "stateMutability": "view",
      "type": "function"
    },
    {
      "inputs": [
        {
          "internalType": "uint256",
          "name": "_debt",
          "type": "uint256"
        }
      ],
      "name": "getBorrowingFee",
      "outputs": [
        {
          "internalType": "uint256",
          "name": "",
          "type": "uint256"
        }
      ],
      "stateMutability": "view",
      "type": "function"
    },
    {
      "inputs": [
        {
          "internalType": "uint256",
          "name": "_debt",
          "type": "uint256"
        }
      ],
      "name": "getBorrowingFeeWithDecay",
      "outputs": [
        {
          "internalType": "uint256",
          "name": "",
          "type": "uint256"
        }
      ],
      "stateMutability": "view",
      "type": "function"
    },
    {
      "inputs": [],
      "name": "getBorrowingRate",
      "outputs": [
        {
          "internalType": "uint256",
          "name": "",
          "type": "uint256"
        }
      ],
      "stateMutability": "view",
      "type": "function"
    },
    {
      "inputs": [],
      "name": "getBorrowingRateWithDecay",
      "outputs": [
        {
          "internalType": "uint256",
          "name": "",
          "type": "uint256"
        }
      ],
      "stateMutability": "view",
      "type": "function"
    },
    {
      "inputs": [
        {
          "internalType": "uint256",
          "name": "_debt",
          "type": "uint256"
        }
      ],
      "name": "getCompositeDebt",
      "outputs": [
        {
          "internalType": "uint256",
          "name": "",
          "type": "uint256"
        }
      ],
      "stateMutability": "pure",
      "type": "function"
    },
    {
      "inputs": [
        {
          "internalType": "address",
          "name": "_borrower",
          "type": "address"
        },
        {
          "internalType": "uint256",
          "name": "_price",
          "type": "uint256"
        }
      ],
      "name": "getCurrentICR",
      "outputs": [
        {
          "internalType": "uint256",
          "name": "",
          "type": "uint256"
        }
      ],
      "stateMutability": "view",
      "type": "function"
    },
    {
      "inputs": [
        {
          "internalType": "address",
          "name": "_borrower",
          "type": "address"
        }
      ],
      "name": "getEntireDebtAndColl",
      "outputs": [
        {
          "internalType": "uint256",
          "name": "coll",
          "type": "uint256"
        },
        {
          "internalType": "uint256",
          "name": "principal",
          "type": "uint256"
        },
        {
          "internalType": "uint256",
          "name": "interest",
          "type": "uint256"
        },
        {
          "internalType": "uint256",
          "name": "pendingCollateral",
          "type": "uint256"
        },
        {
          "internalType": "uint256",
          "name": "pendingPrincipal",
          "type": "uint256"
        },
        {
          "internalType": "uint256",
          "name": "pendingInterest",
          "type": "uint256"
        }
      ],
      "stateMutability": "view",
      "type": "function"
    },
    {
      "inputs": [],
      "name": "getEntireSystemColl",
      "outputs": [
        {
          "internalType": "uint256",
          "name": "entireSystemColl",
          "type": "uint256"
        }
      ],
      "stateMutability": "view",
      "type": "function"
    },
    {
      "inputs": [],
      "name": "getEntireSystemDebt",
      "outputs": [
        {
          "internalType": "uint256",
          "name": "entireSystemDebt",
          "type": "uint256"
        }
      ],
      "stateMutability": "view",
      "type": "function"
    },
    {
      "inputs": [],
      "name": "getMUSDGasCompensation",
      "outputs": [
        {
          "internalType": "uint256",
          "name": "",
          "type": "uint256"
        }
      ],
      "stateMutability": "pure",
      "type": "function"
    },
    {
      "inputs": [
        {
          "internalType": "address",
          "name": "_borrower",
          "type": "address"
        }
      ],
      "name": "getNominalICR",
      "outputs": [
        {
          "internalType": "uint256",
          "name": "",
          "type": "uint256"
        }
      ],
      "stateMutability": "view",
      "type": "function"
    },
    {
      "inputs": [
        {
          "internalType": "address",
          "name": "_borrower",
          "type": "address"
        }
      ],
      "name": "getPendingCollateral",
      "outputs": [
        {
          "internalType": "uint256",
          "name": "",
          "type": "uint256"
        }
      ],
      "stateMutability": "view",
      "type": "function"
    },
    {
      "inputs": [
        {
          "internalType": "address",
          "name": "_borrower",
          "type": "address"
        }
      ],
      "name": "getPendingDebt",
      "outputs": [
        {
          "internalType": "uint256",
          "name": "pendingPrincipal",
          "type": "uint256"
        },
        {
          "internalType": "uint256",
          "name": "pendingInterest",
          "type": "uint256"
        }
      ],
      "stateMutability": "view",
      "type": "function"
    },
    {
      "inputs": [
        {
          "internalType": "uint256",
          "name": "_collateralDrawn",
          "type": "uint256"
        }
      ],
      "name": "getRedemptionFeeWithDecay",
      "outputs": [
        {
          "internalType": "uint256",
          "name": "",
          "type": "uint256"
        }
      ],
      "stateMutability": "view",
      "type": "function"
    },
    {
      "inputs": [],
      "name": "getRedemptionRate",
      "outputs": [
        {
          "internalType": "uint256",
          "name": "",
          "type": "uint256"
        }
      ],
      "stateMutability": "view",
      "type": "function"
    },
    {
      "inputs": [],
      "name": "getRedemptionRateWithDecay",
      "outputs": [
        {
          "internalType": "uint256",
          "name": "",
          "type": "uint256"
        }
      ],
      "stateMutability": "view",
      "type": "function"
    },
    {
      "inputs": [
        {
          "internalType": "uint256",
          "name": "_price",
          "type": "uint256"
        }
      ],
      "name": "getTCR",
      "outputs": [
        {
          "internalType": "uint256",
          "name": "",
          "type": "uint256"
        }
      ],
      "stateMutability": "view",
      "type": "function"
    },
    {
      "inputs": [
        {
          "internalType": "address",
          "name": "_borrower",
          "type": "address"
        }
      ],
      "name": "getTroveColl",
      "outputs": [
        {
          "internalType": "uint256",
          "name": "",
          "type": "uint256"
        }
      ],
      "stateMutability": "view",
      "type": "function"
    },
    {
      "inputs": [
        {
          "internalType": "address",
          "name": "_borrower",
          "type": "address"
        }
      ],
      "name": "getTroveDebt",
      "outputs": [
        {
          "internalType": "uint256",
          "name": "",
          "type": "uint256"
        }
      ],
      "stateMutability": "view",
      "type": "function"
    },
    {
      "inputs": [
        {
          "internalType": "uint256",
          "name": "_index",
          "type": "uint256"
        }
      ],
      "name": "getTroveFromTroveOwnersArray",
      "outputs": [
        {
          "internalType": "address",
          "name": "",
          "type": "address"
        }
      ],
      "stateMutability": "view",
      "type": "function"
    },
    {
      "inputs": [
        {
          "internalType": "address",
          "name": "_borrower",
          "type": "address"
        }
      ],
      "name": "getTroveInterestOwed",
      "outputs": [
        {
          "internalType": "uint256",
          "name": "",
          "type": "uint256"
        }
      ],
      "stateMutability": "view",
      "type": "function"
    },
    {
      "inputs": [
        {
          "internalType": "address",
          "name": "_borrower",
          "type": "address"
        }
      ],
      "name": "getTroveInterestRate",
      "outputs": [
        {
          "internalType": "uint16",
          "name": "",
          "type": "uint16"
        }
      ],
      "stateMutability": "view",
      "type": "function"
    },
    {
      "inputs": [
        {
          "internalType": "address",
          "name": "_borrower",
          "type": "address"
        }
      ],
      "name": "getTroveLastInterestUpdateTime",
      "outputs": [
        {
          "internalType": "uint256",
          "name": "",
          "type": "uint256"
        }
      ],
      "stateMutability": "view",
      "type": "function"
    },
    {
      "inputs": [
        {
          "internalType": "address",
          "name": "_borrower",
          "type": "address"
        }
      ],
      "name": "getTroveMaxBorrowingCapacity",
      "outputs": [
        {
          "internalType": "uint256",
          "name": "",
          "type": "uint256"
        }
      ],
      "stateMutability": "view",
      "type": "function"
    },
    {
      "inputs": [],
      "name": "getTroveOwnersCount",
      "outputs": [
        {
          "internalType": "uint256",
          "name": "",
          "type": "uint256"
        }
      ],
      "stateMutability": "view",
      "type": "function"
    },
    {
      "inputs": [
        {
          "internalType": "address",
          "name": "_borrower",
          "type": "address"
        }
      ],
      "name": "getTrovePrincipal",
      "outputs": [
        {
          "internalType": "uint256",
          "name": "",
          "type": "uint256"
        }
      ],
      "stateMutability": "view",
      "type": "function"
    },
    {
      "inputs": [
        {
          "internalType": "address",
          "name": "_borrower",
          "type": "address"
        }
      ],
      "name": "getTroveStake",
      "outputs": [
        {
          "internalType": "uint256",
          "name": "",
          "type": "uint256"
        }
      ],
      "stateMutability": "view",
      "type": "function"
    },
    {
      "inputs": [
        {
          "internalType": "address",
          "name": "_borrower",
          "type": "address"
        }
      ],
      "name": "getTroveStatus",
      "outputs": [
        {
          "internalType": "enum ITroveManager.Status",
          "name": "",
          "type": "uint8"
        }
      ],
      "stateMutability": "view",
      "type": "function"
    },
    {
      "inputs": [
        {
          "internalType": "address",
          "name": "_borrower",
          "type": "address"
        }
      ],
      "name": "hasPendingRewards",
      "outputs": [
        {
          "internalType": "bool",
          "name": "",
          "type": "bool"
        }
      ],
      "stateMutability": "view",
      "type": "function"
    },
    {
      "inputs": [
        {
          "internalType": "address",
          "name": "_borrower",
          "type": "address"
        },
        {
          "internalType": "uint256",
          "name": "_collIncrease",
          "type": "uint256"
        }
      ],
      "name": "increaseTroveColl",
      "outputs": [
        {
          "internalType": "uint256",
          "name": "",
          "type": "uint256"
        }
      ],
      "stateMutability": "nonpayable",
      "type": "function"
    },
    {
      "inputs": [
        {
          "internalType": "address",
          "name": "_borrower",
          "type": "address"
        },
        {
          "internalType": "uint256",
          "name": "_debtIncrease",
          "type": "uint256"
        }
      ],
      "name": "increaseTroveDebt",
      "outputs": [
        {
          "internalType": "uint256",
          "name": "",
          "type": "uint256"
        }
      ],
      "stateMutability": "nonpayable",
      "type": "function"
    },
    {
      "inputs": [],
      "name": "interestRateManager",
      "outputs": [
        {
          "internalType": "contract IInterestRateManager",
          "name": "",
          "type": "address"
        }
      ],
      "stateMutability": "view",
      "type": "function"
    },
    {
      "inputs": [],
      "name": "lastCollateralError_Redistribution",
      "outputs": [
        {
          "internalType": "uint256",
          "name": "",
          "type": "uint256"
        }
      ],
      "stateMutability": "view",
      "type": "function"
    },
    {
      "inputs": [],
      "name": "lastFeeOperationTime",
      "outputs": [
        {
          "internalType": "uint256",
          "name": "",
          "type": "uint256"
        }
      ],
      "stateMutability": "view",
      "type": "function"
    },
    {
      "inputs": [],
      "name": "lastInterestError_Redistribution",
      "outputs": [
        {
          "internalType": "uint256",
          "name": "",
          "type": "uint256"
        }
      ],
      "stateMutability": "view",
      "type": "function"
    },
    {
      "inputs": [],
      "name": "lastPrincipalError_Redistribution",
      "outputs": [
        {
          "internalType": "uint256",
          "name": "",
          "type": "uint256"
        }
      ],
      "stateMutability": "view",
      "type": "function"
    },
    {
      "inputs": [
        {
          "internalType": "address",
          "name": "_borrower",
          "type": "address"
        }
      ],
      "name": "liquidate",
      "outputs": [],
      "stateMutability": "nonpayable",
      "type": "function"
    },
    {
      "inputs": [],
      "name": "musdToken",
      "outputs": [
        {
          "internalType": "contract IMUSD",
          "name": "",
          "type": "address"
        }
      ],
      "stateMutability": "view",
      "type": "function"
    },
    {
      "inputs": [],
      "name": "owner",
      "outputs": [
        {
          "internalType": "address",
          "name": "",
          "type": "address"
        }
      ],
      "stateMutability": "view",
      "type": "function"
    },
    {
      "inputs": [],
      "name": "pcv",
      "outputs": [
        {
          "internalType": "contract IPCV",
          "name": "",
          "type": "address"
        }
      ],
      "stateMutability": "view",
      "type": "function"
    },
    {
      "inputs": [],
      "name": "priceFeed",
      "outputs": [
        {
          "internalType": "contract IPriceFeed",
          "name": "",
          "type": "address"
        }
      ],
      "stateMutability": "view",
      "type": "function"
    },
    {
      "inputs": [
        {
          "internalType": "uint256",
          "name": "_amount",
          "type": "uint256"
        },
        {
          "internalType": "address",
          "name": "_firstRedemptionHint",
          "type": "address"
        },
        {
          "internalType": "address",
          "name": "_upperPartialRedemptionHint",
          "type": "address"
        },
        {
          "internalType": "address",
          "name": "_lowerPartialRedemptionHint",
          "type": "address"
        },
        {
          "internalType": "uint256",
          "name": "_partialRedemptionHintNICR",
          "type": "uint256"
        },
        {
          "internalType": "uint256",
          "name": "_maxIterations",
          "type": "uint256"
        },
        {
          "internalType": "uint256",
          "name": "_maxFeePercentage",
          "type": "uint256"
        }
      ],
      "name": "redeemCollateral",
      "outputs": [],
      "stateMutability": "nonpayable",
      "type": "function"
    },
    {
      "inputs": [
        {
          "internalType": "address",
          "name": "_borrower",
          "type": "address"
        }
      ],
      "name": "removeStake",
      "outputs": [],
      "stateMutability": "nonpayable",
      "type": "function"
    },
    {
      "inputs": [],
      "name": "renounceOwnership",
      "outputs": [],
      "stateMutability": "nonpayable",
      "type": "function"
    },
    {
      "inputs": [
        {
          "internalType": "address",
          "name": "",
          "type": "address"
        }
      ],
      "name": "rewardSnapshots",
      "outputs": [
        {
          "internalType": "uint256",
          "name": "collateral",
          "type": "uint256"
        },
        {
          "internalType": "uint256",
          "name": "principal",
          "type": "uint256"
        },
        {
          "internalType": "uint256",
          "name": "interest",
          "type": "uint256"
        }
      ],
      "stateMutability": "view",
      "type": "function"
    },
    {
      "inputs": [
        {
          "internalType": "address",
          "name": "_activePoolAddress",
          "type": "address"
        },
        {
          "internalType": "address",
          "name": "_borrowerOperationsAddress",
          "type": "address"
        },
        {
          "internalType": "address",
          "name": "_collSurplusPoolAddress",
          "type": "address"
        },
        {
          "internalType": "address",
          "name": "_defaultPoolAddress",
          "type": "address"
        },
        {
          "internalType": "address",
          "name": "_gasPoolAddress",
          "type": "address"
        },
        {
          "internalType": "address",
          "name": "_interestRateManagerAddress",
          "type": "address"
        },
        {
          "internalType": "address",
          "name": "_musdTokenAddress",
          "type": "address"
        },
        {
          "internalType": "address",
          "name": "_pcvAddress",
          "type": "address"
        },
        {
          "internalType": "address",
          "name": "_priceFeedAddress",
          "type": "address"
        },
        {
          "internalType": "address",
          "name": "_sortedTrovesAddress",
          "type": "address"
        },
        {
          "internalType": "address",
          "name": "_stabilityPoolAddress",
          "type": "address"
        }
      ],
      "name": "setAddresses",
      "outputs": [],
      "stateMutability": "nonpayable",
      "type": "function"
    },
    {
      "inputs": [
        {
          "internalType": "uint256",
          "name": "_baseRate",
          "type": "uint256"
        }
      ],
      "name": "setBaseRate",
      "outputs": [],
      "stateMutability": "nonpayable",
      "type": "function"
    },
    {
      "inputs": [],
      "name": "setLastFeeOpTimeToNow",
      "outputs": [],
      "stateMutability": "nonpayable",
      "type": "function"
    },
    {
      "inputs": [
        {
          "internalType": "address",
          "name": "_borrower",
          "type": "address"
        },
        {
          "internalType": "uint16",
          "name": "_rate",
          "type": "uint16"
        }
      ],
      "name": "setTroveInterestRate",
      "outputs": [],
      "stateMutability": "nonpayable",
      "type": "function"
    },
    {
      "inputs": [
        {
          "internalType": "address",
          "name": "_borrower",
          "type": "address"
        },
        {
          "internalType": "uint256",
          "name": "_timestamp",
          "type": "uint256"
        }
      ],
      "name": "setTroveLastInterestUpdateTime",
      "outputs": [],
      "stateMutability": "nonpayable",
      "type": "function"
    },
    {
      "inputs": [
        {
          "internalType": "address",
          "name": "_borrower",
          "type": "address"
        },
        {
          "internalType": "uint256",
          "name": "_maxBorrowingCapacity",
          "type": "uint256"
        }
      ],
      "name": "setTroveMaxBorrowingCapacity",
      "outputs": [],
      "stateMutability": "nonpayable",
      "type": "function"
    },
    {
      "inputs": [
        {
          "internalType": "address",
          "name": "_borrower",
          "type": "address"
        },
        {
          "internalType": "enum ITroveManager.Status",
          "name": "_status",
          "type": "uint8"
        }
      ],
      "name": "setTroveStatus",
      "outputs": [],
      "stateMutability": "nonpayable",
      "type": "function"
    },
    {
      "inputs": [],
      "name": "sortedTroves",
      "outputs": [
        {
          "internalType": "contract ISortedTroves",
          "name": "",
          "type": "address"
        }
      ],
      "stateMutability": "view",
      "type": "function"
    },
    {
      "inputs": [],
      "name": "stabilityPool",
      "outputs": [
        {
          "internalType": "contract IStabilityPool",
          "name": "",
          "type": "address"
        }
      ],
      "stateMutability": "view",
      "type": "function"
    },
    {
      "inputs": [],
      "name": "totalCollateralSnapshot",
      "outputs": [
        {
          "internalType": "uint256",
          "name": "",
          "type": "uint256"
        }
      ],
      "stateMutability": "view",
      "type": "function"
    },
    {
      "inputs": [],
      "name": "totalStakes",
      "outputs": [
        {
          "internalType": "uint256",
          "name": "",
          "type": "uint256"
        }
      ],
      "stateMutability": "view",
      "type": "function"
    },
    {
      "inputs": [],
      "name": "totalStakesSnapshot",
      "outputs": [
        {
          "internalType": "uint256",
          "name": "",
          "type": "uint256"
        }
      ],
      "stateMutability": "view",
      "type": "function"
    },
    {
      "inputs": [
        {
          "internalType": "address",
          "name": "newOwner",
          "type": "address"
        }
      ],
      "name": "transferOwnership",
      "outputs": [],
      "stateMutability": "nonpayable",
      "type": "function"
    },
    {
      "inputs": [],
      "name": "updateDefaultPoolInterest",
      "outputs": [],
      "stateMutability": "nonpayable",
      "type": "function"
    },
    {
      "inputs": [
        {
          "internalType": "address",
          "name": "_borrower",
          "type": "address"
        }
      ],
      "name": "updateStakeAndTotalStakes",
      "outputs": [
        {
          "internalType": "uint256",
          "name": "",
          "type": "uint256"
        }
      ],
      "stateMutability": "nonpayable",
      "type": "function"
    },
    {
      "inputs": [
        {
          "internalType": "address",
          "name": "_borrower",
          "type": "address"
        }
      ],
      "name": "updateSystemAndTroveInterest",
      "outputs": [],
      "stateMutability": "nonpayable",
      "type": "function"
    },
    {
      "inputs": [
        {
          "internalType": "address",
          "name": "_borrower",
          "type": "address"
        }
      ],
      "name": "updateTroveRewardSnapshots",
      "outputs": [],
      "stateMutability": "nonpayable",
      "type": "function"
    }
  ],
  "transactionHash": "0xab4e294ae415a370c99443822fd0aee949fb1872e192852e0edec07bcba582fe",
  "args": [],
  "numDeployments": 1,
  "solcInputHash": "a5a5924c8769aaafa5a742bdee21ed0e",
  "bytecode": "0x60806040523480156200001157600080fd5b5033806200003957604051631e4fbdf760e01b81526000600482015260240160405180910390fd5b62000044816200004b565b506200009d565b600380546001600160a01b038381166001600160a01b0319831681179093556040519116919082907f8be0079c531659141344cd1fd0a4f28419497f9722a3daafe3b4186f6b6457e090600090a35050565b615d8e80620000ad6000396000f3fe608060405234801561001057600080fd5b50600436106105245760003560e01c8063814a0a45116102af578063cbd138ae11610172578063e07fdf03116100d9578063f36b242511610092578063f36b242514610c79578063f540d3dc14610c81578063f92d3433146106af578063fc0d84ee14610c8a578063fe2ba84814610cb6578063fe9d032314610cc957600080fd5b8063e07fdf0314610bdf578063e18c513114610c0b578063e2ac77b014610c1e578063e6cfa17414610c31578063ee266b8714610c5d578063f2fde38b14610c6657600080fd5b8063d5b356351161012b578063d5b3563514610b82578063d5b97eea14610b95578063d66a255314610b9e578063d9a7244414610bb1578063dbcf424d14610bc4578063df15cd0d14610bcc57600080fd5b8063cbd138ae14610b24578063cda775f914610b37578063d293c71014610b4a578063d380a37c14610b5d578063d38b055814610b66578063d3d6f84314610b6f57600080fd5b8063ae91875411610216578063bcd37526116101cf578063bcd3752614610acb578063be2909bc14610ade578063bf9befb114610af1578063c52861f214610afa578063c651fd8614610b02578063c7b5548114610b1557600080fd5b8063ae91875414610a30578063b0d8e18114610a43578063b7f8cf9b14610a56578063b82f263d14610a69578063b91af97c14610a7c578063bc2f49c814610abc57600080fd5b806392b7659b1161026857806392b7659b146109a6578063953f0bb1146109ee57806396d711ff14610a015780639976cf4514610a0a5780639d78d46b14610a1d578063a20baee61461088a57600080fd5b8063814a0a451461092857806382fe3eb91461093b57806385a43ca81461094e578063887105d31461097a5780638b36fd60146109825780638da5cb5b1461099557600080fd5b8063480cd578116103f7578063715018a61161035e578063794e572411610317578063794e5724146108d2578063795d26c3146108e15780637985c5e4146108e95780637af110ba146108fc5780637f7dde4a1461090c578063807d138d1461091f57600080fd5b8063715018a61461086f57806372423c171461087757806372fe25aa1461088a5780637412e00814610899578063741bef1a146108ac578063756b253e146108bf57600080fd5b80635b9fb3cd116103b05780635b9fb3cd146107915780635dba4c4a146107a4578063631203b0146107ac57806364cee260146107bf57806366ca4a21146107eb5780636ef64338146107f357600080fd5b8063480cd578146107135780634870dd9a1461073c57806349eefeee146107445780634e443d9e1461074c5780634ff814431461076f5780635733d58f1461078257600080fd5b80631e8b1c2b1161049b5780632b11551a116104545780632b11551a146106b75780632f865568146106bf57806337ece1cd146106d25780633cc74225146106da5780634597f6ed146106ed578063477d66cf1461070057600080fd5b80631e8b1c2b146106465780631f68f20a1461065957806321e3780114610662578063240926691461069e57806328b13720146106a657806328d28b5b146106af57600080fd5b806312610e92116104ed57806312610e921461058b57806315d549f1146105b35780631673c79a146105c657806318f2817a146106105780631bf43555146106235780631d08837b1461063357600080fd5b8062f48ae414610529578063043782fb14610545578063048c661d14610550578063071a7541146105705780630b07655714610578575b600080fd5b61053260145481565b6040519081526020015b60405180910390f35b61054e42600d55565b005b600554610563906001600160a01b031681565b60405161053c919061570f565b610532600281565b61054e610586366004615748565b610cdc565b61059e610599366004615765565b610d0c565b6040805192835260208301919091520161053c565b6105326105c1366004615748565b610d4a565b6105f56105d4366004615748565b60196020526000908152604090208054600182015460029092015490919083565b6040805193845260208401929092529082015260600161053c565b61053261061e366004615748565b610d6c565b610532686194049f30f720000081565b61054e610641366004615791565b600c55565b61054e6106543660046157c0565b610d85565b610532600c5481565b610691610670366004615748565b6001600160a01b03166000908152600e602052604090206004015460ff1690565b60405161053c91906158bd565b6105326111dc565b61053260135481565b6105326111fe565b610532611214565b61054e6106cd366004615748565b611226565b61054e611292565b600154610563906001600160a01b031681565b600954610563906001600160a01b031681565b61053261070e366004615791565b61129c565b610532610721366004615748565b6001600160a01b03166000908152600e602052604090205490565b61053260c881565b601554610532565b61075f61075a366004615791565b6112af565b604051901515815260200161053c565b61053261077d366004615791565b6112ba565b6105326714d1120d7b16000081565b600b54610563906001600160a01b031681565b61054e6112c5565b6105326107ba366004615791565b611331565b6105326107cd366004615748565b6001600160a01b03166000908152600e602052604090206003015490565b61053261133e565b61085a610801366004615748565b600e6020526000908152604090208054600182015460028301546003840154600485015460058601546006870154600790970154959694959394929360ff83169361010090930461ffff1692906001600160801b031689565b60405161053c999897969594939291906158cb565b61054e611350565b610532610885366004615765565b611362565b610532670de0b6b3a764000081565b61054e6108a736600461593b565b6113b4565b600254610563906001600160a01b031681565b6105636108cd366004615791565b6113f4565b610532670f43fc2c04ee000081565b61053261141e565b61054e6108f7366004615974565b61151a565b610532680ad78ebc5ac620000081565b600054610563906001600160a01b031681565b61053260105481565b610532610936366004615a52565b61185f565b61054e610949366004615748565b611876565b61053261095c366004615748565b6001600160a01b03166000908152600e602052604090206002015490565b610532611887565b61054e610990366004615765565b61194c565b6003546001600160a01b0316610563565b6109db6109b4366004615748565b6001600160a01b03166000908152600e6020526040902060040154610100900461ffff1690565b60405161ffff909116815260200161053c565b61054e6109fc366004615a7e565b611973565b61053260115481565b610532610a18366004615765565b6119c0565b600854610563906001600160a01b031681565b600a54610563906001600160a01b031681565b610532610a51366004615748565b611aa4565b600454610563906001600160a01b031681565b610532610a77366004615791565b611acb565b610a8f610a8a366004615748565b611ad6565b604080519687526020870195909552938501929092526060840152608083015260a082015260c00161053c565b680ad78ebc5ac6200000610532565b61054e610ad9366004615ab0565b611b45565b61054e610aec366004615765565b6121eb565b610532600f5481565b610532612212565b61054e610b10366004615748565b612224565b610532670ddd4b8c6c7d70d881565b61054e610b32366004615748565b61234f565b600754610563906001600160a01b031681565b610532610b58366004615765565b612362565b610532600d5481565b61053260165481565b610532610b7d366004615765565b61238b565b610532610b90366004615791565b6123b9565b61053260185481565b610532610bac366004615748565b6123cc565b610563610bbf366004615791565b6123d7565b61054e612407565b610532610bda366004615748565b612703565b610532610bed366004615748565b6001600160a01b03166000908152600e602052604090206006015490565b61059e610c19366004615748565b6127b4565b61075f610c2c366004615748565b6128c9565b610532610c3f366004615748565b6001600160a01b03166000908152600e602052604090206001015490565b61053260125481565b61054e610c74366004615748565b61292d565b610532612968565b61053260175481565b610532610c98366004615748565b6001600160a01b03166000908152600e602052604090206005015490565b61054e610cc4366004615748565b612975565b600654610563906001600160a01b031681565b610ce4612986565b610cec612407565b600054600154610d09916001600160a01b03908116911683612a06565b50565b600080610d17612986565b610d218484612c0d565b5050506001600160a01b03166000908152600e6020526040902060018101546002909101549091565b6000610d54612986565b610d5d82612d01565b6001600160801b031692915050565b6000610d76612986565b610d7f82612d95565b92915050565b8051600003610dfa5760405162461bcd60e51b815260206004820152603660248201527f54726f76654d616e616765723a2043616c6c646174612061646472657373206160448201527572726179206d757374206e6f7420626520656d70747960501b60648201526084015b60405180910390fd5b60005b8151811015610e36576000828281518110610e1a57610e1a615b1e565b60200260200101519050610e2d81612224565b50600101610dfd565b5060008054600154600554604080516080810182528581526020810186905290810185905260608101949094526001600160a01b0392831693918316921690610e7d61566d565b600260009054906101000a90046001600160a01b03166001600160a01b0316630fdb11cf6040518163ffffffff1660e01b81526004016020604051808303816000875af1158015610ed2573d6000803e3d6000fd5b505050506040513d601f19601f82011682018060405250810190610ef69190615b34565b826000018181525050826001600160a01b031663309077b36040518163ffffffff1660e01b8152600401602060405180830381865afa158015610f3d573d6000803e3d6000fd5b505050506040513d601f19601f82011682018060405250810190610f619190615b34565b60208301528151610f7190612e37565b15156040830152610f80612407565b816040015115610fa657610f9f8585846000015185602001518a612e54565b9050610fbe565b610fbb8585846000015185602001518a613094565b90505b600081602001511161101d5760405162461bcd60e51b815260206004820152602260248201527f54726f76654d616e616765723a206e6f7468696e6720746f206c697175696461604482015261746560f01b6064820152608401610df1565b60a081015160c082015160405163335525ad60e01b81526001600160a01b0386169263335525ad9261105a92600401918252602082015260400190565b600060405180830381600087803b15801561107457600080fd5b505af1158015611088573d6000803e3d6000fd5b505050506110a785858360e00151846101000151856101200151613169565b6101408101511561111e57600754610140820151604051636250216960e01b81526001600160a01b03888116936362502169936110eb939290911691600401615b4d565b600060405180830381600087803b15801561110557600080fd5b505af1158015611119573d6000803e3d6000fd5b505050505b61112c858260600151613437565b610140810151606082015182516111439190615b7c565b61114d9190615b7c565b6060808401829052602083015160408085015192850151608086015191517f5823f33ee3da2874398138f21ff2fcd7078180caf18ccb37ac445d9a5abfa75f956111b89593909291948552602085019390935260408401919091526060830152608082015260a00190565b60405180910390a16111d4853383608001518460600151613582565b505050505050565b60646111f1670de0b6b3a76400006005615b8f565b6111fb9190615bbc565b81565b6103e86111f1670de0b6b3a76400006005615b8f565b6000611221600c54613659565b905090565b61122f81613697565b60408051600180825281830190925260009160208083019080368337019050509050818160008151811061126557611265615b1e565b60200260200101906001600160a01b031690816001600160a01b03168152505061128e81610d85565b5050565b61129a612407565b565b6000610d7f6112a961133e565b8361372f565b6000610d7f82612e37565b6000610d7f8261374e565b6112cd612986565b60006112d7613763565b9050670de0b6b3a76400008111156112f1576112f1615bd0565b600c8190556040518181527fc454ee9b76c52f782a256af821b857ca6e125d1e3333bcede402fec2bed9600c9060200160405180910390a1610d096137a7565b6000610d7f6112a9612968565b600061122161134b613763565b6137fe565b611358613852565b61129a600061387f565b600061136c612986565b6001600160a01b0383166000908152600e6020526040812054611390908490615be6565b6001600160a01b0385166000908152600e6020526040902081905591505092915050565b6113bc612986565b6001600160a01b039091166000908152600e60205260409020600401805461ffff9092166101000262ffff0019909216919091179055565b6015818154811061140457600080fd5b6000918252602090912001546001600160a01b0316905081565b60008054604080516314a6bf0f60e01b8152905183926001600160a01b0316916314a6bf0f9160048083019260209291908290030181865afa158015611468573d6000803e3d6000fd5b505050506040513d601f19601f8201168201806040525081019061148c9190615b34565b90506000600160009054906101000a90046001600160a01b03166001600160a01b03166314a6bf0f6040518163ffffffff1660e01b8152600401602060405180830381865afa1580156114e3573d6000803e3d6000fd5b505050506040513d601f19601f820116820180604052508101906115079190615b34565b90506115138183615be6565b9250505090565b611522613852565b61152b8b6138d1565b6115348a6138d1565b61153d896138d1565b611546886138d1565b61154f876138d1565b611558856138d1565b611561846138d1565b61156a836138d1565b611573826138d1565b61157c816138d1565b611585866138d1565b600480546001600160a01b03199081166001600160a01b038d8116919091179092556000805482168e84161790556001805482168b84161790556005805482168484161790556006805482168a84161790556007805482168c8416179055600280548216868416179055600880548216888416179055600a80548216858416179055600980548216878416179055600b80549091169188169190911790556040517f3ca631ffcd2a9b5d9ae18543fc82f58eb4ca33af9e6ab01b7a8e95331e6ed98590611653908c9061570f565b60405180910390a17f78f058b189175430c48dc02699e3a0031ea4ff781536dc2fab847de4babdd8828b60405161168a919061570f565b60405180910390a17f5ee0cae2f063ed938bb55046f6a932fb6ae792bf43624806bb90abe68a50be9b886040516116c1919061570f565b60405180910390a17f82966d27eea39b038ee0fa30cd16532bb24f6e65d31cb58fb227aa5766cdcc7f816040516116f8919061570f565b60405180910390a17fcfb07d791fcafc032b35837b50eb84b74df518cf4cc287e8084f47630fa70fa08760405161172f919061570f565b60405180910390a17fe67f36a6e961157d6eff83b91f3af5a62131ceb6f04954ef74f51c1c05e7f88d89604051611766919061570f565b60405180910390a17f8c537274438aa850a330284665d81a85dd38267d09e4050d416bfc94142db2648360405161179d919061570f565b60405180910390a17f547e9055f019d1e165f0ca2133494723cb248f8536192c218254285fc43c5668856040516117d4919061570f565b60405180910390a17f65f4cf077bc01e4742eb5ad98326f6e95b63548ea24b17f8d5e823111fe788008260405161180b919061570f565b60405180910390a17f38335c64466e2376ab931166337e19127650d842036ebe01da1ba3e5c1255ebb84604051611842919061570f565b60405180910390a1611852611350565b5050505050505050505050565b600061186c848484613976565b90505b9392505050565b61187e612986565b610d09816139a7565b6000805460408051631529a63960e01b8152905183926001600160a01b031691631529a6399160048083019260209291908290030181865afa1580156118d1573d6000803e3d6000fd5b505050506040513d601f19601f820116820180604052508101906118f59190615b34565b90506000600160009054906101000a90046001600160a01b03166001600160a01b0316631529a6396040518163ffffffff1660e01b8152600401602060405180830381865afa1580156114e3573d6000803e3d6000fd5b611954612986565b6001600160a01b039091166000908152600e6020526040902060050155565b61197b612986565b6001600160a01b0382166000908152600e6020526040902060049081018054839260ff199091169060019084908111156119b7576119b7615885565b02179055505050565b60006119ca612986565b6119d383612224565b600b546001600160a01b038481166000908152600e60205260409081902060049081015491516379b381e360e01b815261010090920461ffff1690820152602481018590529116906379b381e390604401600060405180830381600087803b158015611a3e57600080fd5b505af1158015611a52573d6000803e3d6000fd5b505050506001600160a01b0383166000908152600e6020526040812060010154611a7d908490615be6565b6001600160a01b0385166000908152600e6020526040902060010181905591505092915050565b6000806000611ab284613a18565b915091506000611ac28383613a88565b95945050505050565b6000610d7f82613abe565b6001600160a01b0381166000908152600e602052604081208054600182015460029092015490928080611b0887612703565b9250611b13876127b4565b9092509050611b228387615be6565b9550611b2e8286615be6565b9450611b3a8185615be6565b935091939550919395565b6040805160e08082018352600080546001600160a01b03908116845260015481166020808601919091526008548216858701526009548216606080870191909152600a548316608080880191909152600754841660a08089019190915260065490941660c080890191909152885161010081018a5286815293840186905297830185905290820184905281018390529081018290529384018190529083015290611bee83613aea565b600260009054906101000a90046001600160a01b03166001600160a01b0316630fdb11cf6040518163ffffffff1660e01b81526004016020604051808303816000875af1158015611c43573d6000803e3d6000fd5b505050506040513d601f19601f82011682018060405250810190611c679190615b34565b60c08201819052611c7790613b86565b611c8089613bf9565b611c8f8260400151338b613c60565b611c9761141e565b60e0820152888152608082015160c0820151600091611cb7918b90613d5f565b15611cc3575087611dd5565b82608001516001600160a01b0316634d6228316040518163ffffffff1660e01b8152600401602060405180830381865afa158015611d05573d6000803e3d6000fd5b505050506040513d601f19601f82011682018060405250810190611d299190615bf9565b90505b6001600160a01b03811615801590611d585750670f43fc2c04ee0000611d56828460c00151612362565b105b15611dd55782608001516001600160a01b031663b72703ac826040518263ffffffff1660e01b8152600401611d8d919061570f565b602060405180830381865afa158015611daa573d6000803e3d6000fd5b505050506040513d601f19601f82011682018060405250810190611dce9190615bf9565b9050611d2c565b84600003611de35760001994505b611deb612407565b6001600160a01b03811615801590611e035750815115155b8015611e0f5750600085115b15611f225784611e1e81615c16565b955050600083608001516001600160a01b031663b72703ac836040518263ffffffff1660e01b8152600401611e53919061570f565b602060405180830381865afa158015611e70573d6000803e3d6000fd5b505050506040513d601f19601f82011682018060405250810190611e949190615bf9565b9050611ea98460000151856020015184612a06565b6000611ec2858486600001518760c001518e8e8e613ea9565b9050806040015115611ed5575050611f22565b8051602085018051611ee8908390615be6565b9052506020810151604085018051611f01908390615be6565b905250805184518590611f15908390615b7c565b905250909150611deb9050565b6000826040015111611f885760405162461bcd60e51b815260206004820152602960248201527f54726f76654d616e616765723a20556e61626c6520746f2072656465656d20616044820152681b9e48185b5bdd5b9d60ba1b6064820152608401610df1565b611f9f82604001518360c001518460e0015161428d565b50611fad8260400151614330565b606083018190526040830151611fc491908661433d565b825160608085015190840151604051636250216960e01b81526001600160a01b0390931692636250216992611ffd929091600401615b4d565b600060405180830381600087803b15801561201757600080fd5b505af115801561202b573d6000803e3d6000fd5b505050606083015160408401516120429250615b7c565b60808301526020820151604080840151606085015191517f43a3f4082a4dbc33d78e317d2497d3a730bc7fc3574159dcea1056e62e5d9ad89361209e938f93919293845260208401929092526040830152606082015260800190565b60405180910390a182604001516001600160a01b0316639dc29fac3384602001516040518363ffffffff1660e01b81526004016120dc929190615b4d565b600060405180830381600087803b1580156120f657600080fd5b505af115801561210a573d6000803e3d6000fd5b50508451602085015160405163ab11fadd60e01b81526004810191909152600060248201526001600160a01b03909116925063ab11fadd9150604401600060405180830381600087803b15801561216057600080fd5b505af1158015612174573d6000803e3d6000fd5b505084516080850151604051636250216960e01b81526001600160a01b039092169350636250216992506121ad91339190600401615b4d565b600060405180830381600087803b1580156121c757600080fd5b505af11580156121db573d6000803e3d6000fd5b5050505050505050505050505050565b6121f3612986565b6001600160a01b039091166000908152600e6020526040902060060155565b600061122161221f613763565b613659565b6001600160a01b038181166000908152600e602052604090819020600b54600480830154935163fd50a56760e01b815261010090940461ffff16908401529092169063fd50a56790602401600060405180830381600087803b15801561228957600080fd5b505af115801561229d573d6000803e3d6000fd5b5050600b546001840154600480860154600587015460405163ac3058ad60e01b81526001600160a01b03909516965063ac3058ad95506122ec9461010090920461ffff16929091429101615c2d565b602060405180830381865afa158015612309573d6000803e3d6000fd5b505050506040513d601f19601f8201168201806040525081019061232d9190615b34565b8160020160008282546123409190615be6565b90915550504260059091015550565b612357612986565b610d098160026143ae565b600080600061237085613a18565b915091506000612381838387613976565b9695505050505050565b6000612395612986565b6001600160a01b0383166000908152600e6020526040812054611390908490615b7c565b6000610d7f6123c6612212565b8361467b565b6000610d7f8261470b565b6000601582815481106123ec576123ec615b1e565b6000918252602090912001546001600160a01b031692915050565b600f541561129a57600b546001546040805163534def8b60e11b815290516000936001600160a01b039081169363ac3058ad9391169163a69bdf16916004808201926020929091908290030181865afa158015612468573d6000803e3d6000fd5b505050506040513d601f19601f8201168201806040525081019061248c9190615b34565b600b60009054906101000a90046001600160a01b03166001600160a01b0316637c3a00fd6040518163ffffffff1660e01b8152600401602060405180830381865afa1580156124df573d6000803e3d6000fd5b505050506040513d601f19601f820116820180604052508101906125039190615c4c565b600160009054906101000a90046001600160a01b03166001600160a01b03166310710f726040518163ffffffff1660e01b8152600401602060405180830381865afa158015612556573d6000803e3d6000fd5b505050506040513d601f19601f8201168201806040525081019061257a9190615b34565b426040518563ffffffff1660e01b815260040161259a9493929190615c2d565b602060405180830381865afa1580156125b7573d6000803e3d6000fd5b505050506040513d601f19601f820116820180604052508101906125db9190615b34565b90506000601854670de0b6b3a7640000836125f69190615b8f565b6126009190615be6565b90506000600f54826126129190615bbc565b9050600f54816126229190615b8f565b61262c9083615b7c565b60188190555080601460008282546126449190615be6565b90915550506001546040516354c4666160e01b815260006004820152602481018590526001600160a01b03909116906354c4666190604401600060405180830381600087803b15801561269657600080fd5b505af11580156126aa573d6000803e3d6000fd5b50506012546013546014546040517f16406a7d6b3c0e446c1c3b66751ebc9bae57378f3b6eeaf3685f3c2f1ee8cafc95506126f694509283526020830191909152604082015260600190565b60405180910390a1505050565b6001600160a01b038116600090815260196020526040812054601254829061272c908390615b7c565b905080158061276c575060016001600160a01b0385166000908152600e6020526040902060049081015460ff169081111561276957612769615885565b14155b1561277b575060009392505050565b6001600160a01b0384166000908152600e6020526040902060030154670de0b6b3a76400006127aa8383615b8f565b611ac29190615bbc565b6001600160a01b03811660009081526019602052604081206001015460135482919082906127e3908390615b7c565b6001600160a01b03861660009081526019602052604081206002015460145492935091612811908390615b7c565b9050821580612851575060016001600160a01b0388166000908152600e6020526040902060049081015460ff169081111561284e5761284e615885565b14155b156128655750600096879650945050505050565b6001600160a01b0387166000908152600e6020526040902060030154670de0b6b3a76400006128948583615b8f565b61289e9190615bbc565b9650670de0b6b3a76400006128b38383615b8f565b6128bd9190615bbc565b95505050505050915091565b600060016001600160a01b0383166000908152600e6020526040902060049081015460ff16908111156128fe576128fe615885565b1461290b57506000919050565b506012546001600160a01b039091166000908152601960205260409020541090565b612935613852565b6001600160a01b03811661295f576000604051631e4fbdf760e01b8152600401610df1919061570f565b610d098161387f565b6000611221600c546137fe565b61297d612986565b610d09816147e3565b6004546001600160a01b0316331461129a5760405162461bcd60e51b815260206004820152603b60248201527f54726f76654d616e616765723a2043616c6c6572206973206e6f74207468652060448201527f426f72726f7765724f7065726174696f6e7320636f6e747261637400000000006064820152608401610df1565b6001600160a01b0381166000908152600e60205260409020612a27826128c9565b15612c0757612a3582613697565b6000612a4083612703565b9050600080612a4e856127b4565b91509150612a5b85612224565b82846000016000828254612a6f9190615be6565b9250508190555081846001016000828254612a8a9190615be6565b9250508190555080846002016000828254612aa59190615be6565b9091555050600b546004858101546040516379b381e360e01b815261010090910461ffff1691810191909152602481018490526001600160a01b03909116906379b381e390604401600060405180830381600087803b158015612b0757600080fd5b505af1158015612b1b573d6000803e3d6000fd5b5050600b54600487810154604051635b5e7c1960e11b815261010090910461ffff1691810191909152602481018590526001600160a01b03909116925063b6bcf8329150604401600060405180830381600087803b158015612b7c57600080fd5b505af1158015612b90573d6000803e3d6000fd5b50505050612b9d856139a7565b612baa8787858585614835565b846001600160a01b0316600080516020615d39833981519152856001015486600201548760000154886003015460006003811115612bea57612bea615885565b604051612bfb959493929190615c69565b60405180910390a25050505b50505050565b6001600160a01b0382166000908152600e60205260409020612c2e83612224565b600b5460028201546004808401546040516327678dbd60e01b8152918201929092526024810185905261010090910461ffff16604482015260009182916001600160a01b03909116906327678dbd9060640160408051808303816000875af1158015612c9e573d6000803e3d6000fd5b505050506040513d601f19601f82011682018060405250810190612cc29190615c8f565b9150915081836001016000828254612cda9190615b7c565b9250508190555080836002016000828254612cf59190615b7c565b90915550505050505050565b601580546001808201835560008381527f55f448fdea98c4d29eb340757ef0a66cd03dbb9538908a6a81d96026b71ec47590920180546001600160a01b0319166001600160a01b03861617905591549091612d5b91615b7c565b6001600160a01b03929092166000908152600e6020526040902060070180546001600160801b0319166001600160801b0384161790555090565b6001600160a01b0381166000908152600e60205260408120548190612db990614958565b6001600160a01b0384166000908152600e60205260409020600301805490829055600f54919250908290612dee908390615b7c565b612df89190615be6565b600f8190556040519081527f6bac5e0eb3c44eb03a60ab11ec3a2c051771616aecadbcfff2630aabae5203829060200160405180910390a15092915050565b600080612e4383613abe565b6714d1120d7b160000119392505050565b612e5c61566d565b612e646156c7565b612e6c61566d565b84825260006080830152612e7e61141e565b60a0830152612e8b611887565b60c0830152600060208301525b8351826020015110156130895783826020015181518110612ebb57612ebb615b1e565b60209081029190910101516001600160a01b03166060830152600160608301516001600160a01b03166000908152600e6020526040902060049081015460ff1690811115612f0b57612f0b615885565b0361307157612f1e826060015187612362565b6040830152608082015161301457670f43fc2c04ee0000826040015110158015612f4757508151155b613071576000612f608360c001518460a0015189613976565b9050612f7d8989856060015186604001518760000151868d61498e565b91508160a0015183600001818151612f959190615b7c565b90525060a0808301519084018051612fae908390615b7c565b905250610140820151606083015160c0840151612fcb9190615be6565b612fd59190615be6565b8360c001818151612fe69190615b7c565b905250612ff38483614c9e565b93506130088360c001518460a0015189614dc0565b15608084015250613071565b816080015180156130305750670f43fc2c04ee00008260400151105b1561307157613049888884606001518560000151614de1565b90508060a00151826000018181516130619190615b7c565b90525061306e8382614c9e565b92505b6020820180519061308182615cb3565b905250612e98565b505095945050505050565b61309c61566d565b6130a46156c7565b6130ac61566d565b848252600060208301525b83518260200151101561308957838260200151815181106130da576130da615b1e565b60209081029190910101516001600160a01b0316606083018190526130ff9087612362565b60408301819052670f43fc2c04ee0000111561315157613129888884606001518560000151614de1565b90508060a00151826000018181516131419190615b7c565b90525061314e8382614c9e565b92505b6020820180519061316182615cb3565b9052506130b7565b82158015613175575081155b61343057613181612407565b601654600090613199670de0b6b3a764000084615b8f565b6131a39190615be6565b90506000601754670de0b6b3a7640000866131be9190615b8f565b6131c89190615be6565b90506000601854670de0b6b3a7640000866131e39190615b8f565b6131ed9190615be6565b90506000600f54846131ff9190615bbc565b90506000600f54846132119190615bbc565b90506000600f54846132239190615bbc565b9050600f54836132339190615b8f565b61323d9087615b7c565b601655600f5461324d9083615b8f565b6132579086615b7c565b601755600f546132679082615b8f565b6132719085615b7c565b60188190555082601260008282546132899190615be6565b9250508190555081601360008282546132a29190615be6565b9250508190555080601460008282546132bb9190615be6565b909155505060125460135460145460408051938452602084019290925282820152517f16406a7d6b3c0e446c1c3b66751ebc9bae57378f3b6eeaf3685f3c2f1ee8cafc9181900360600190a160405163ab11fadd60e01b8152600481018a9052602481018990526001600160a01b038c169063ab11fadd90604401600060405180830381600087803b15801561335057600080fd5b505af1158015613364573d6000803e3d6000fd5b50506040516354c4666160e01b8152600481018c9052602481018b90526001600160a01b038d1692506354c466619150604401600060405180830381600087803b1580156133b157600080fd5b505af11580156133c5573d6000803e3d6000fd5b5050604051636250216960e01b81526001600160a01b038e169250636250216991506133f7908d908b90600401615b4d565b600060405180830381600087803b15801561341157600080fd5b505af1158015613425573d6000803e3d6000fd5b505050505050505050505b5050505050565b600f546010819055506000826001600160a01b0316631529a6396040518163ffffffff1660e01b8152600401602060405180830381865afa158015613480573d6000803e3d6000fd5b505050506040513d601f19601f820116820180604052508101906134a49190615b34565b90506000600160009054906101000a90046001600160a01b03166001600160a01b0316631529a6396040518163ffffffff1660e01b8152600401602060405180830381865afa1580156134fb573d6000803e3d6000fd5b505050506040513d601f19601f8201168201806040525081019061351f9190615b34565b90508061352c8484615b7c565b6135369190615be6565b60118190556010546040517f51bf4c63ec3cba9d03d43238abbdd979dd91bd16d9895c74ceea9118c7baaf6092613574928252602082015260400190565b60405180910390a150505050565b81156135ed5760065460405163264786dd60e01b81526001600160a01b039091169063264786dd906135ba9086908690600401615b4d565b600060405180830381600087803b1580156135d457600080fd5b505af11580156135e8573d6000803e3d6000fd5b505050505b8015612c0757604051636250216960e01b81526001600160a01b038516906362502169906136219086908590600401615b4d565b600060405180830381600087803b15801561363b57600080fd5b505af115801561364f573d6000803e3d6000fd5b5050505050505050565b6000610d7f826103e8613675670de0b6b3a76400006005615b8f565b61367f9190615bbc565b6136899190615be6565b670de0b6b3a7640000614f54565b60016001600160a01b0382166000908152600e6020526040902060049081015460ff16908111156136ca576136ca615885565b14610d095760405162461bcd60e51b815260206004820152602f60248201527f54726f76654d616e616765723a2054726f766520646f6573206e6f742065786960448201526e1cdd081bdc881a5cc818db1bdcd959608a1b6064820152608401610df1565b6000670de0b6b3a76400006137448385615b8f565b61186f9190615bbc565b6000610d7f680ad78ebc5ac620000083615be6565b60008061376e614f6a565b90506000613784670ddd4b8c6c7d70d883614f86565b9050670de0b6b3a764000081600c5461379d9190615b8f565b6115139190615bbc565b6000600d54426137b79190615b7c565b9050603c8110610d095742600d8190556040519081527f860f8d2f0c74dd487e89e2883e3b25b8159ce1e1b3433a291cba7b82c508f3bc906020015b60405180910390a150565b6000610d7f826103e861381a670de0b6b3a76400006005615b8f565b6138249190615bbc565b61382e9190615be6565b6064613843670de0b6b3a76400006005615b8f565b61384d9190615bbc565b614f54565b6003546001600160a01b0316331461129a573360405163118cdaa760e01b8152600401610df1919061570f565b600380546001600160a01b038381166001600160a01b0319831681179093556040519116919082907f8be0079c531659141344cd1fd0a4f28419497f9722a3daafe3b4186f6b6457e090600090a35050565b6001600160a01b0381166139275760405162461bcd60e51b815260206004820152601e60248201527f4163636f756e742063616e6e6f74206265207a65726f206164647265737300006044820152606401610df1565b803b8061128e5760405162461bcd60e51b815260206004820181905260248201527f4163636f756e7420636f64652073697a652063616e6e6f74206265207a65726f6044820152606401610df1565b6000821561399e5760008361398b8487615b8f565b6139959190615bbc565b915061186f9050565b5060001961186f565b601280546001600160a01b0383166000908152601960209081526040918290209283556013805460018501556014546002909401849055935493548251948552908401528201527fe083b7310cc9f9afc538d812522bbf1964db34ca10a6a4ffa9713025f4b32971906060016137f3565b6000806000613a2684612703565b9050600080613a34866127b4565b6001600160a01b0388166000908152600e60205260409020549193509150613a5d908490615be6565b94508082613a6a8861470b565b613a749190615be6565b613a7e9190615be6565b9350505050915091565b60008115613ab55781613aa468056bc75e2d6310000085615b8f565b613aae9190615bbc565b9050610d7f565b50600019610d7f565b600080613ac9611887565b90506000613ad561141e565b9050613ae2828286613976565b949350505050565b6103e8613b00670de0b6b3a76400006005615b8f565b613b0a9190615bbc565b8110158015613b215750670de0b6b3a76400008111155b610d095760405162461bcd60e51b815260206004820152603060248201527f4d6178206665652070657263656e74616765206d75737420626520626574776560448201526f656e20302e352520616e64203130302560801b6064820152608401610df1565b670f43fc2c04ee0000613b9882613abe565b1015610d095760405162461bcd60e51b815260206004820152602a60248201527f54726f76654d616e616765723a2043616e6e6f742072656465656d207768656e604482015269102a21a9101e1026a1a960b11b6064820152608401610df1565b60008111610d095760405162461bcd60e51b815260206004820152602e60248201527f54726f76654d616e616765723a20416d6f756e74206d7573742062652067726560448201526d61746572207468616e207a65726f60901b6064820152608401610df1565b6040516370a0823160e01b815281906001600160a01b038516906370a0823190613c8e90869060040161570f565b602060405180830381865afa158015613cab573d6000803e3d6000fd5b505050506040513d601f19601f82011682018060405250810190613ccf9190615b34565b1015613d5a5760405162461bcd60e51b815260206004820152604e60248201527f54726f76654d616e616765723a2052657175657374656420726564656d70746960448201527f6f6e20616d6f756e74206d757374206265203c3d20757365722773206d55534460648201526d20746f6b656e2062616c616e636560901b608482015260a401610df1565b505050565b60006001600160a01b0383161580613de15750604051630bb7c8fd60e31b81526001600160a01b03851690635dbe47e890613d9e90869060040161570f565b602060405180830381865afa158015613dbb573d6000803e3d6000fd5b505050506040513d601f19601f82011682018060405250810190613ddf9190615ccc565b155b80613dfc5750670f43fc2c04ee0000613dfa8484612362565b105b15613e095750600061186f565b60405163765e015960e01b81526000906001600160a01b0386169063765e015990613e3890879060040161570f565b602060405180830381865afa158015613e55573d6000803e3d6000fd5b505050506040513d601f19601f82011682018060405250810190613e799190615bf9565b90506001600160a01b0381161580611ac25750670f43fc2c04ee0000613e9f8285612362565b1095945050505050565b613ecf604051806060016040528060008152602001600081526020016000151581525090565b613efa6040518060800160405280600081526020016000815260200160008152602001600081525090565b613f1b87680ad78ebc5ac6200000613f118b61470b565b61384d9190615b7c565b8083528690613f3390670de0b6b3a764000090615b8f565b613f3d9190615bbc565b60208301528151613f4d8961470b565b613f579190615b7c565b81526020808301516001600160a01b038a166000908152600e909252604090912054613f839190615b7c565b60208201528051680ad78ebc5ac61fffff190161400657613fa3886147e3565b613fbc8989680ad78ebc5ac62000008460200151615031565b613fc78860046143ae565b6001600160a01b038816600080516020615d39833981519152600080808060035b604051613ff9959493929190615c69565b60405180910390a2614280565b602080820151600b546001600160a01b038b81166000908152600e8552604090819020600101548151637c3a00fd60e01b8152915161411596939094169363ac3058ad9391928592637c3a00fd926004808401938290030181865afa158015614073573d6000803e3d6000fd5b505050506040513d601f19601f820116820180604052508101906140979190615c4c565b6140a361025842615b7c565b426040518563ffffffff1660e01b81526004016140c39493929190615c2d565b602060405180830381865afa1580156140e0573d6000803e3d6000fd5b505050506040513d601f19601f820116820180604052508101906141049190615b34565b83516141109190615b7c565b613a88565b60408201526020810151815161412b9190613a88565b606082018190528310806141425750806040015183115b806141615750686194049f30f720000061415f826000015161524a565b105b15614173575060016040820152614282565b6080890151606082015160405163015f109360e51b81526001600160a01b038b81166004830152602482019290925287821660448201528682166064820152911690632be2126090608401600060405180830381600087803b1580156141d857600080fd5b505af11580156141ec573d6000803e3d6000fd5b505050506141fe888360000151612c0d565b6020808201516001600160a01b038a166000908152600e90925260409091205561422788612d95565b506001600160a01b0388166000818152600e602090815260409182902060018101546002820154928601516003928301549451600080516020615d39833981519152956142779593949091615c69565b60405180910390a25b505b979650505050505050565b600080614298613763565b90506000836142a78688615b8f565b6142b19190615bbc565b905060006142c0600283615bbc565b6142ca9084615be6565b90506142de81670de0b6b3a7640000614f54565b9050600081116142f0576142f0615bd0565b600c8190556040518181527fc454ee9b76c52f782a256af821b857ca6e125d1e3333bcede402fec2bed9600c9060200160405180910390a16123816137a7565b6000610d7f6123c6611214565b600082614352670de0b6b3a764000086615b8f565b61435c9190615bbc565b905081811115612c075760405162461bcd60e51b815260206004820152601d60248201527f4665652065786365656465642070726f7669646564206d6178696d756d0000006044820152606401610df1565b60008160048111156143c2576143c2615885565b141580156143e2575060018160048111156143df576143df615885565b14155b6143ee576143ee615bd0565b60155460085460048054604051635f7a196360e11b81526001600160a01b039384169363bef432c69361442593909116910161570f565b602060405180830381865afa158015614442573d6000803e3d6000fd5b505050506040513d601f19601f820116820180604052508101906144669190615ccc565b15614474576144748161525f565b600b546001600160a01b038481166000908152600e6020526040908190206004808201546001909201549251635c30639760e11b815261010090920461ffff1690820152602481019190915291169063b860c72e90604401600060405180830381600087803b1580156144e657600080fd5b505af11580156144fa573d6000803e3d6000fd5b5050600b546001600160a01b038681166000908152600e60205260409081902060048082015460029092015492516323cc9ed960e21b815261010090920461ffff1690820152602481019190915291169250638f327b649150604401600060405180830381600087803b15801561457057600080fd5b505af1158015614584573d6000803e3d6000fd5b505050506001600160a01b0383166000908152600e6020526040902060049081018054849260ff199091169060019084908111156145c4576145c4615885565b02179055506001600160a01b0383166000908152600e6020908152604080832083815560018082018590556002918201859055601990935290832083815591820183905501556146148382615339565b600a54604051631484968760e11b81526001600160a01b03909116906329092d0e9061464490869060040161570f565b600060405180830381600087803b15801561465e57600080fd5b505af1158015614672573d6000803e3d6000fd5b50505050505050565b600080670de0b6b3a76400006146918486615b8f565b61469b9190615bbc565b905082811061186f5760405162461bcd60e51b815260206004820152603660248201527f54726f76654d616e616765723a2046656520776f756c642065617420757020616044820152751b1b081c995d1d5c9b99590818dbdb1b185d195c985b60521b6064820152608401610df1565b600b546001600160a01b038281166000908152600e60205260408082206001810154600480830154600590930154935163ac3058ad60e01b81529496959095169463ac3058ad9461476b949293610100900461ffff169291429101615c2d565b602060405180830381865afa158015614788573d6000803e3d6000fd5b505050506040513d601f19601f820116820180604052508101906147ac9190615b34565b6001600160a01b0383166000908152600e6020526040902060028101546001909101546147d99190615be6565b610d7f9190615be6565b6001600160a01b0381166000908152600e6020526040812060030154600f805491928392614812908490615b7c565b9091555050506001600160a01b03166000908152600e6020526040812060030155565b60405163ab11fadd60e01b815260048101839052602481018290526001600160a01b0385169063ab11fadd90604401600060405180830381600087803b15801561487e57600080fd5b505af1158015614892573d6000803e3d6000fd5b50506040516354c4666160e01b815260048101859052602481018490526001600160a01b03881692506354c466619150604401600060405180830381600087803b1580156148df57600080fd5b505af11580156148f3573d6000803e3d6000fd5b5050604051633ef8ba8160e11b8152600481018690526001600160a01b0387169250637df175029150602401600060405180830381600087803b15801561493957600080fd5b505af115801561494d573d6000803e3d6000fd5b505050505050505050565b60008060115460000361496c575081610d7f565b60006010541161497e5761497e615bd0565b6011546010546137449085615b8f565b61499661566d565b6149c16040518060800160405280600081526020016000815260200160008152602001600081525090565b6015546001106149d15750614282565b6149da87611ad6565b6060870152604086810191909152602086810192909252908601919091529084528301819052614a09906154fc565b60608301819052680ad78ebc5ac620000060808401526040830151614a2e9190615b7c565b8152670de0b6b3a76400008611614af457614a48876147e3565b614a618989836020015184604001518560600151614835565b600060a0830181905260c0830152815160e08301528051610120830152614a898760036143ae565b815160408301516001600160a01b03891691600080516020615d198339815191529160025b60408051938452602084019290925260ff169082015260600160405180910390a26001600160a01b038716600080516020615d3983398151915260008080806002613fe8565b670de0b6b3a764000086118015614b125750670f43fc2c04ee000086105b15614b7457614b20876147e3565b614b398989836020015184604001518560600151614835565b815160208301518251614b4e92919088615509565b61012087015261010086015260e085015260c084015260a0830152614a898760036143ae565b670f43fc2c04ee00008610158015614b8b57508386105b8015614b98575081518510155b15614c8d57614ba6876147e3565b614bbf8989836020015184604001518560600151614835565b84600003614bcf57614bcf615bd0565b614be282600001518360400151856155a7565b9150614bef8760036143ae565b61014082015115614c6457600754610140830151604051633f10abab60e01b81526001600160a01b0390921691633f10abab91614c31918b9190600401615b4d565b600060405180830381600087803b158015614c4b57600080fd5b505af1158015614c5f573d6000803e3d6000fd5b505050505b815160c08301516001600160a01b03891691600080516020615d19833981519152916002614aae565b614c9561566d565b91506142829050565b614ca661566d565b81606001518360600151614cba9190615be6565b606082015260808083015190840151614cd39190615be6565b608082015281516020840151614ce99190615be6565b6020808301919091528201516040840151614d049190615be6565b6040808301919091528201518351614d1c9190615be6565b815260a08083015190840151614d329190615be6565b60a082015260c08083015190840151614d4b9190615be6565b60c082015260e08083015190840151614d649190615be6565b60e08201526101008083015190840151614d7e9190615be6565b6101008201526101208083015190840151614d999190615be6565b6101208201526101408083015190840151614db49190615be6565b61014082015292915050565b600080614dce858585613976565b6714d1120d7b1600001195945050505050565b614de961566d565b614e146040518060800160405280600081526020016000815260200160008152602001600081525090565b614e1d84611ad6565b606087015260408681019190915260208681019290925290860191909152908452830152614e4a846147e3565b614e638686836020015184604001518560600151614835565b614e7082604001516154fc565b60608301819052680ad78ebc5ac620000060808401526040830151600091614e9791615b7c565b9050614ead836000015184602001518387615509565b61012088015261010087015260e086015260c085015260a0840152614ed38560036143ae565b8251604080850151815192835260208301526001908201526001600160a01b03861690600080516020615d198339815191529060600160405180910390a26001600160a01b038516600080516020615d3983398151915260008080806001604051614f42959493929190615c69565b60405180910390a25050949350505050565b6000818310614f63578161186f565b5090919050565b6000603c600d5442614f7c9190615b7c565b6112219190615bbc565b6000631f540500821115614f9c57631f54050091505b81600003614fb35750670de0b6b3a7640000610d7f565b670de0b6b3a764000083835b600181111561502757614fd3600282615cee565b600003614ff857614fe48283615636565b9150614ff1600282615bbc565b9050614fbf565b6150028284615636565b925061500e8283615636565b9150600261501d600183615b7c565b614ff19190615bbc565b6123818284615636565b600b546001600160a01b038481166000908152600e6020526040908190206004908101549151635c30639760e11b815261010090920461ffff16908201526024810185905291169063b860c72e90604401600060405180830381600087803b15801561509c57600080fd5b505af11580156150b0573d6000803e3d6000fd5b505050506001600160a01b0383166000908152600e6020526040812060010180548492906150df908490615b7c565b90915550506040808501516006549151632770a7eb60e21b81526001600160a01b0391821692639dc29fac9261511c929116908690600401615b4d565b600060405180830381600087803b15801561513657600080fd5b505af115801561514a573d6000803e3d6000fd5b5050855160405163ab11fadd60e01b815260048101869052600060248201526001600160a01b03909116925063ab11fadd9150604401600060405180830381600087803b15801561519a57600080fd5b505af11580156151ae573d6000803e3d6000fd5b505050508360a001516001600160a01b0316633f10abab84836040518363ffffffff1660e01b81526004016151e4929190615b4d565b600060405180830381600087803b1580156151fe57600080fd5b505af1158015615212573d6000803e3d6000fd5b5050855160a0870151604051636250216960e01b81526001600160a01b03909216935063625021699250613621918590600401615b4d565b6000610d7f680ad78ebc5ac620000083615b7c565b6001811180156152da5750600a546040805163de8fa43160e01b815290516001926001600160a01b03169163de8fa4319160048083019260209291908290030181865afa1580156152b4573d6000803e3d6000fd5b505050506040513d601f19601f820116820180604052508101906152d89190615b34565b115b610d095760405162461bcd60e51b815260206004820152602a60248201527f54726f76654d616e616765723a204f6e6c79206f6e652074726f766520696e206044820152697468652073797374656d60b01b6064820152608401610df1565b6001600160a01b0382166000908152600e602052604081206004015460ff169081600481111561536b5761536b615885565b1415801561538b5750600181600481111561538857615388615885565b14155b61539757615397615bd0565b6001600160a01b0383166000908152600e60205260408120600701546001600160801b03169083906153ca600183615b7c565b905080836001600160801b031611156153e5576153e5615bd0565b6000601582815481106153fa576153fa615b1e565b600091825260209091200154601580546001600160a01b03909216925082916001600160801b03871690811061543257615432615b1e565b600091825260208083209190910180546001600160a01b0319166001600160a01b03948516179055918316808252600e835260409182902060070180546001600160801b0319166001600160801b0389169081179091558251918252928101929092527f02b04ae5f7be9ca7c103293a2aa15f3c339d15d6eda53b721fef7b0e609c831a910160405180910390a160158054806154d1576154d1615d02565b600082815260209020810160001990810180546001600160a01b031916905501905550505050505050565b6000610d7f60c883615bbc565b600080808080851561558c5760006155218988614f54565b905060006155338b61384d848b615b7c565b905061553f8282615be6565b965061554b8a8c615be6565b615555888b615b8f565b61555f9190615bbc565b955061556b828b615b7c565b9350615577818c615b7c565b9450615583868a615b7c565b9250505061559c565b5060009350839250879150869050855b945094509450945094565b6155af61566d565b838152604081018390526000826155ce670f43fc2c04ee000087615b8f565b6155d89190615bbc565b90506155e3816154fc565b60608301819052680ad78ebc5ac6200000608084015260a0830186905261560a9082615b7c565b60c08301526156198185615b7c565b61014083015250600060e082018190526101208201529392505050565b6000806156438385615b8f565b9050670de0b6b3a7640000615659600282615bbc565b6156639083615be6565b613ae29190615bbc565b60405180610160016040528060008152602001600081526020016000815260200160008152602001600081526020016000815260200160008152602001600081526020016000815260200160008152602001600081525090565b6040518060e0016040528060008152602001600081526020016000815260200160006001600160a01b0316815260200160001515815260200160008152602001600081525090565b6001600160a01b0391909116815260200190565b6001600160a01b0381168114610d0957600080fd5b803561574381615723565b919050565b60006020828403121561575a57600080fd5b813561186f81615723565b6000806040838503121561577857600080fd5b823561578381615723565b946020939093013593505050565b6000602082840312156157a357600080fd5b5035919050565b634e487b7160e01b600052604160045260246000fd5b600060208083850312156157d357600080fd5b823567ffffffffffffffff808211156157eb57600080fd5b818501915085601f8301126157ff57600080fd5b813581811115615811576158116157aa565b8060051b604051601f19603f83011681018181108582111715615836576158366157aa565b60405291825284820192508381018501918883111561585457600080fd5b938501935b828510156158795761586a85615738565b84529385019392850192615859565b98975050505050505050565b634e487b7160e01b600052602160045260246000fd5b600581106158b957634e487b7160e01b600052602160045260246000fd5b9052565b60208101610d7f828461589b565b6000610120820190508a82528960208301528860408301528760608301526158f6608083018861589b565b61ffff9590951660a082015260c081019390935260e08301919091526001600160801b03166101009091015295945050505050565b61ffff81168114610d0957600080fd5b6000806040838503121561594e57600080fd5b823561595981615723565b915060208301356159698161592b565b809150509250929050565b60008060008060008060008060008060006101608c8e03121561599657600080fd5b8b356159a181615723565b9a5060208c01356159b181615723565b995060408c01356159c181615723565b985060608c01356159d181615723565b975060808c01356159e181615723565b965060a08c01356159f181615723565b955060c08c0135615a0181615723565b945060e08c0135615a1181615723565b93506101008c0135615a2281615723565b9250615a316101208d01615738565b9150615a406101408d01615738565b90509295989b509295989b9093969950565b600080600060608486031215615a6757600080fd5b505081359360208301359350604090920135919050565b60008060408385031215615a9157600080fd5b8235615a9c81615723565b915060208301356005811061596957600080fd5b600080600080600080600060e0888a031215615acb57600080fd5b873596506020880135615add81615723565b95506040880135615aed81615723565b94506060880135615afd81615723565b9699959850939660808101359560a0820135955060c0909101359350915050565b634e487b7160e01b600052603260045260246000fd5b600060208284031215615b4657600080fd5b5051919050565b6001600160a01b03929092168252602082015260400190565b634e487b7160e01b600052601160045260246000fd5b81810381811115610d7f57610d7f615b66565b8082028115828204841417610d7f57610d7f615b66565b634e487b7160e01b600052601260045260246000fd5b600082615bcb57615bcb615ba6565b500490565b634e487b7160e01b600052600160045260246000fd5b80820180821115610d7f57610d7f615b66565b600060208284031215615c0b57600080fd5b815161186f81615723565b600081615c2557615c25615b66565b506000190190565b93845261ffff9290921660208401526040830152606082015260800190565b600060208284031215615c5e57600080fd5b815161186f8161592b565b94855260208501939093526040840191909152606083015260ff16608082015260a00190565b60008060408385031215615ca257600080fd5b505080516020909101519092909150565b600060018201615cc557615cc5615b66565b5060010190565b600060208284031215615cde57600080fd5b8151801515811461186f57600080fd5b600082615cfd57615cfd615ba6565b500690565b634e487b7160e01b600052603160045260246000fdfeea67486ed7ebe3eea8ab3390efd4a3c8aae48be5bea27df104a8af786c408434f575eb5cdee005607f56587351e18943ddacd11756b9d37980ec251797ff136ca26469706673582212202a0365aadd8f770eea7a84ef512620805da33cb292d693dc54ebffc1042134b164736f6c63430008180033",
  "devdoc": {
    "errors": {
      "OwnableInvalidOwner(address)": [
        {
          "details": "The owner is not a valid owner account. (eg. `address(0)`)"
        }
      ],
      "OwnableUnauthorizedAccount(address)": [
        {
          "details": "The caller account is not authorized to perform an operation."
        }
      ]
    },
    "kind": "dev",
    "methods": {
      "owner()": {
        "details": "Returns the address of the current owner."
      },
      "renounceOwnership()": {
        "details": "Leaves the contract without owner. It will not be possible to call `onlyOwner` functions. Can only be called by the current owner. NOTE: Renouncing ownership will leave the contract without an owner, thereby disabling any functionality that is only available to the owner."
      },
      "transferOwnership(address)": {
        "details": "Transfers ownership of the contract to a new account (`newOwner`). Can only be called by the current owner."
      }
    },
    "version": 1
  },
  "userdoc": {
    "kind": "user",
    "methods": {},
    "version": 1
  },
  "storageLayout": {
    "storage": [
      {
        "astId": 26367,
        "contract": "contracts/tests/TroveManagerTester.sol:TroveManagerTester",
        "label": "activePool",
        "offset": 0,
        "slot": "0",
        "type": "t_contract(IActivePool)26847"
      },
      {
        "astId": 26370,
        "contract": "contracts/tests/TroveManagerTester.sol:TroveManagerTester",
        "label": "defaultPool",
        "offset": 0,
        "slot": "1",
        "type": "t_contract(IDefaultPool)27174"
      },
      {
        "astId": 26374,
        "contract": "contracts/tests/TroveManagerTester.sol:TroveManagerTester",
        "label": "priceFeed",
        "offset": 0,
        "slot": "2",
        "type": "t_contract(IPriceFeed)27579"
      },
      {
        "astId": 8,
        "contract": "contracts/tests/TroveManagerTester.sol:TroveManagerTester",
        "label": "_owner",
        "offset": 0,
        "slot": "3",
        "type": "t_address"
      },
      {
        "astId": 11816,
        "contract": "contracts/tests/TroveManagerTester.sol:TroveManagerTester",
        "label": "borrowerOperationsAddress",
        "offset": 0,
        "slot": "4",
        "type": "t_address"
      },
      {
        "astId": 11820,
        "contract": "contracts/tests/TroveManagerTester.sol:TroveManagerTester",
        "label": "stabilityPool",
        "offset": 0,
        "slot": "5",
        "type": "t_contract(IStabilityPool)27877"
      },
      {
        "astId": 11822,
        "contract": "contracts/tests/TroveManagerTester.sol:TroveManagerTester",
        "label": "gasPoolAddress",
        "offset": 0,
        "slot": "6",
        "type": "t_address"
      },
      {
        "astId": 11825,
        "contract": "contracts/tests/TroveManagerTester.sol:TroveManagerTester",
        "label": "collSurplusPool",
        "offset": 0,
        "slot": "7",
        "type": "t_contract(ICollSurplusPool)27144"
      },
      {
        "astId": 11828,
        "contract": "contracts/tests/TroveManagerTester.sol:TroveManagerTester",
        "label": "musdToken",
        "offset": 0,
        "slot": "8",
        "type": "t_contract(IMUSD)28865"
      },
      {
        "astId": 11832,
        "contract": "contracts/tests/TroveManagerTester.sol:TroveManagerTester",
        "label": "pcv",
        "offset": 0,
        "slot": "9",
        "type": "t_contract(IPCV)27499"
      },
      {
        "astId": 11835,
        "contract": "contracts/tests/TroveManagerTester.sol:TroveManagerTester",
        "label": "sortedTroves",
        "offset": 0,
        "slot": "10",
        "type": "t_contract(ISortedTroves)27727"
      },
      {
        "astId": 11838,
        "contract": "contracts/tests/TroveManagerTester.sol:TroveManagerTester",
        "label": "interestRateManager",
        "offset": 0,
        "slot": "11",
        "type": "t_contract(IInterestRateManager)27345"
      },
      {
        "astId": 11862,
        "contract": "contracts/tests/TroveManagerTester.sol:TroveManagerTester",
        "label": "baseRate",
        "offset": 0,
        "slot": "12",
        "type": "t_uint256"
      },
      {
        "astId": 11864,
        "contract": "contracts/tests/TroveManagerTester.sol:TroveManagerTester",
        "label": "lastFeeOperationTime",
        "offset": 0,
        "slot": "13",
        "type": "t_uint256"
      },
      {
        "astId": 11869,
        "contract": "contracts/tests/TroveManagerTester.sol:TroveManagerTester",
        "label": "Troves",
        "offset": 0,
        "slot": "14",
        "type": "t_mapping(t_address,t_struct(Trove)11674_storage)"
      },
      {
        "astId": 11871,
        "contract": "contracts/tests/TroveManagerTester.sol:TroveManagerTester",
        "label": "totalStakes",
        "offset": 0,
        "slot": "15",
        "type": "t_uint256"
      },
      {
        "astId": 11873,
        "contract": "contracts/tests/TroveManagerTester.sol:TroveManagerTester",
        "label": "totalStakesSnapshot",
        "offset": 0,
        "slot": "16",
        "type": "t_uint256"
      },
      {
        "astId": 11875,
        "contract": "contracts/tests/TroveManagerTester.sol:TroveManagerTester",
        "label": "totalCollateralSnapshot",
        "offset": 0,
        "slot": "17",
        "type": "t_uint256"
      },
      {
        "astId": 11877,
        "contract": "contracts/tests/TroveManagerTester.sol:TroveManagerTester",
        "label": "L_Collateral",
        "offset": 0,
        "slot": "18",
        "type": "t_uint256"
      },
      {
        "astId": 11879,
        "contract": "contracts/tests/TroveManagerTester.sol:TroveManagerTester",
        "label": "L_Principal",
        "offset": 0,
        "slot": "19",
        "type": "t_uint256"
      },
      {
        "astId": 11881,
        "contract": "contracts/tests/TroveManagerTester.sol:TroveManagerTester",
        "label": "L_Interest",
        "offset": 0,
        "slot": "20",
        "type": "t_uint256"
      },
      {
        "astId": 11884,
        "contract": "contracts/tests/TroveManagerTester.sol:TroveManagerTester",
        "label": "TroveOwners",
        "offset": 0,
        "slot": "21",
        "type": "t_array(t_address)dyn_storage"
      },
      {
        "astId": 11886,
        "contract": "contracts/tests/TroveManagerTester.sol:TroveManagerTester",
        "label": "lastCollateralError_Redistribution",
        "offset": 0,
        "slot": "22",
        "type": "t_uint256"
      },
      {
        "astId": 11888,
        "contract": "contracts/tests/TroveManagerTester.sol:TroveManagerTester",
        "label": "lastPrincipalError_Redistribution",
        "offset": 0,
        "slot": "23",
        "type": "t_uint256"
      },
      {
        "astId": 11890,
        "contract": "contracts/tests/TroveManagerTester.sol:TroveManagerTester",
        "label": "lastInterestError_Redistribution",
        "offset": 0,
        "slot": "24",
        "type": "t_uint256"
      },
      {
        "astId": 11895,
        "contract": "contracts/tests/TroveManagerTester.sol:TroveManagerTester",
        "label": "rewardSnapshots",
        "offset": 0,
        "slot": "25",
        "type": "t_mapping(t_address,t_struct(RewardSnapshot)11681_storage)"
      }
    ],
    "types": {
      "t_address": {
        "encoding": "inplace",
        "label": "address",
        "numberOfBytes": "20"
      },
      "t_array(t_address)dyn_storage": {
        "base": "t_address",
        "encoding": "dynamic_array",
        "label": "address[]",
        "numberOfBytes": "32"
      },
      "t_contract(IActivePool)26847": {
        "encoding": "inplace",
        "label": "contract IActivePool",
        "numberOfBytes": "20"
      },
      "t_contract(ICollSurplusPool)27144": {
        "encoding": "inplace",
        "label": "contract ICollSurplusPool",
        "numberOfBytes": "20"
      },
      "t_contract(IDefaultPool)27174": {
        "encoding": "inplace",
        "label": "contract IDefaultPool",
        "numberOfBytes": "20"
      },
      "t_contract(IInterestRateManager)27345": {
        "encoding": "inplace",
        "label": "contract IInterestRateManager",
        "numberOfBytes": "20"
      },
      "t_contract(IMUSD)28865": {
        "encoding": "inplace",
        "label": "contract IMUSD",
        "numberOfBytes": "20"
      },
      "t_contract(IPCV)27499": {
        "encoding": "inplace",
        "label": "contract IPCV",
        "numberOfBytes": "20"
      },
      "t_contract(IPriceFeed)27579": {
        "encoding": "inplace",
        "label": "contract IPriceFeed",
        "numberOfBytes": "20"
      },
      "t_contract(ISortedTroves)27727": {
        "encoding": "inplace",
        "label": "contract ISortedTroves",
        "numberOfBytes": "20"
      },
      "t_contract(IStabilityPool)27877": {
        "encoding": "inplace",
        "label": "contract IStabilityPool",
        "numberOfBytes": "20"
      },
      "t_enum(Status)27887": {
        "encoding": "inplace",
        "label": "enum ITroveManager.Status",
        "numberOfBytes": "1"
      },
      "t_mapping(t_address,t_struct(RewardSnapshot)11681_storage)": {
        "encoding": "mapping",
        "key": "t_address",
        "label": "mapping(address => struct TroveManager.RewardSnapshot)",
        "numberOfBytes": "32",
        "value": "t_struct(RewardSnapshot)11681_storage"
      },
      "t_mapping(t_address,t_struct(Trove)11674_storage)": {
        "encoding": "mapping",
        "key": "t_address",
        "label": "mapping(address => struct TroveManager.Trove)",
        "numberOfBytes": "32",
        "value": "t_struct(Trove)11674_storage"
      },
      "t_struct(RewardSnapshot)11681_storage": {
        "encoding": "inplace",
        "label": "struct TroveManager.RewardSnapshot",
        "members": [
          {
            "astId": 11676,
            "contract": "contracts/tests/TroveManagerTester.sol:TroveManagerTester",
            "label": "collateral",
            "offset": 0,
            "slot": "0",
            "type": "t_uint256"
          },
          {
            "astId": 11678,
            "contract": "contracts/tests/TroveManagerTester.sol:TroveManagerTester",
            "label": "principal",
            "offset": 0,
            "slot": "1",
            "type": "t_uint256"
          },
          {
            "astId": 11680,
            "contract": "contracts/tests/TroveManagerTester.sol:TroveManagerTester",
            "label": "interest",
            "offset": 0,
            "slot": "2",
            "type": "t_uint256"
          }
        ],
        "numberOfBytes": "96"
      },
      "t_struct(Trove)11674_storage": {
        "encoding": "inplace",
        "label": "struct TroveManager.Trove",
        "members": [
          {
            "astId": 11656,
            "contract": "contracts/tests/TroveManagerTester.sol:TroveManagerTester",
            "label": "coll",
            "offset": 0,
            "slot": "0",
            "type": "t_uint256"
          },
          {
            "astId": 11658,
            "contract": "contracts/tests/TroveManagerTester.sol:TroveManagerTester",
            "label": "principal",
            "offset": 0,
            "slot": "1",
            "type": "t_uint256"
          },
          {
            "astId": 11660,
            "contract": "contracts/tests/TroveManagerTester.sol:TroveManagerTester",
            "label": "interestOwed",
            "offset": 0,
            "slot": "2",
            "type": "t_uint256"
          },
          {
            "astId": 11662,
            "contract": "contracts/tests/TroveManagerTester.sol:TroveManagerTester",
            "label": "stake",
            "offset": 0,
            "slot": "3",
            "type": "t_uint256"
          },
          {
            "astId": 11665,
            "contract": "contracts/tests/TroveManagerTester.sol:TroveManagerTester",
            "label": "status",
            "offset": 0,
            "slot": "4",
            "type": "t_enum(Status)27887"
          },
          {
            "astId": 11667,
            "contract": "contracts/tests/TroveManagerTester.sol:TroveManagerTester",
            "label": "interestRate",
            "offset": 1,
            "slot": "4",
            "type": "t_uint16"
          },
          {
            "astId": 11669,
            "contract": "contracts/tests/TroveManagerTester.sol:TroveManagerTester",
            "label": "lastInterestUpdateTime",
            "offset": 0,
            "slot": "5",
            "type": "t_uint256"
          },
          {
            "astId": 11671,
            "contract": "contracts/tests/TroveManagerTester.sol:TroveManagerTester",
            "label": "maxBorrowingCapacity",
            "offset": 0,
            "slot": "6",
            "type": "t_uint256"
          },
          {
            "astId": 11673,
            "contract": "contracts/tests/TroveManagerTester.sol:TroveManagerTester",
            "label": "arrayIndex",
            "offset": 0,
            "slot": "7",
            "type": "t_uint128"
          }
        ],
        "numberOfBytes": "256"
      },
      "t_uint128": {
        "encoding": "inplace",
        "label": "uint128",
        "numberOfBytes": "16"
      },
      "t_uint16": {
        "encoding": "inplace",
        "label": "uint16",
        "numberOfBytes": "2"
      },
      "t_uint256": {
        "encoding": "inplace",
        "label": "uint256",
        "numberOfBytes": "32"
      }
    }
  }
}