{
  "address": "0x9fd8ceBbFDe90ce8201b27075CCc1e809243a65a",
  "abi": [
    {
      "inputs": [],
      "name": "noOp",
      "outputs": [],
      "stateMutability": "nonpayable",
      "type": "function"
    }
  ],
  "transactionHash": "0xdc42b9c8bba47b199fea0e4daf002262e31c5f6465f43321fadb829f4c667ede",
  "args": [],
  "numDeployments": 1,
  "solcInputHash": "42e46a63bb50ad909ed33aa1ac5062f2",
  "bytecode": "0x6080604052348015600f57600080fd5b5060a68061001e6000396000f3fe6080604052348015600f57600080fd5b506004361060285760003560e01c8063678d39c614602d575b600080fd5b60336035565b005b60405162461bcd60e51b815260206004820152600c60248201526b646f6573206e6f7468696e6760a01b604482015260640160405180910390fdfea2646970667358221220722cf627bfeec48c20c255a15fc2dd1e69216d3460aca2f637db48316339ed2764736f6c63430008180033",
  "devdoc": {
    "details": "The noOp function is to ensure the extcodesize is non-zero as      this is a requirement for MUSD system contract.",
    "kind": "dev",
    "methods": {},
    "version": 1
  },
  "userdoc": {
    "kind": "user",
    "methods": {},
    "notice": "Empty contract with no functionality. Used as a temporary         system contract for MUSD on Ethereum before the bridge from         Mezo to Ethereum is implemented.",
    "version": 1
  },
  "storageLayout": {
    "storage": [],
    "types": null
  }
}